{
	"waystoreturnether.sol": {
		"CollectEther": {
			"abi": [
				{
					"inputs": [
						{
							"internalType": "address payable",
							"name": "_to",
							"type": "address"
						},
						{
							"internalType": "uint256",
							"name": "amount",
							"type": "uint256"
						}
					],
					"name": "sendViaSend",
					"outputs": [],
					"stateMutability": "payable",
					"type": "function"
				},
				{
					"stateMutability": "payable",
					"type": "receive"
				}
			],
			"devdoc": {
				"kind": "dev",
				"methods": {},
				"version": 1
			},
			"evm": {
				"assembly": "    /* \"waystoreturnether.sol\":409:792  contract CollectEther{ ... */\n  mstore(0x40, 0x80)\n  callvalue\n  dup1\n  iszero\n  tag_1\n  jumpi\n  0x00\n  dup1\n  revert\ntag_1:\n  pop\n  dataSize(sub_0)\n  dup1\n  dataOffset(sub_0)\n  0x00\n  codecopy\n  0x00\n  return\nstop\n\nsub_0: assembly {\n        /* \"waystoreturnether.sol\":409:792  contract CollectEther{ ... */\n      mstore(0x40, 0x80)\n      jumpi(tag_1, lt(calldatasize, 0x04))\n      shr(0xe0, calldataload(0x00))\n      dup1\n      0x8c7736f4\n      eq\n      tag_3\n      jumpi\n      0x00\n      dup1\n      revert\n    tag_1:\n      jumpi(tag_2, calldatasize)\n      stop\n    tag_2:\n      0x00\n      dup1\n      revert\n        /* \"waystoreturnether.sol\":442:741  function sendViaSend(address payable _to, uint amount) public payable {... */\n    tag_3:\n      tag_6\n      tag_7\n      calldatasize\n      0x04\n      tag_8\n      jump\t// in\n    tag_7:\n      tag_9\n      jump\t// in\n    tag_6:\n      stop\n    tag_9:\n        /* \"waystoreturnether.sol\":596:615  _to.send(msg.value) */\n      mload(0x40)\n        /* \"waystoreturnether.sol\":584:593  bool sent */\n      0x00\n      swap1\n      sub(shl(0xa0, 0x01), 0x01)\n        /* \"waystoreturnether.sol\":596:604  _to.send */\n      dup5\n      and\n      swap1\n        /* \"waystoreturnether.sol\":605:614  msg.value */\n      callvalue\n        /* \"waystoreturnether.sol\":596:615  _to.send(msg.value) */\n      dup1\n      iszero\n      0x08fc\n      mul\n      swap2\n        /* \"waystoreturnether.sol\":584:593  bool sent */\n      dup5\n        /* \"waystoreturnether.sol\":596:615  _to.send(msg.value) */\n      dup2\n        /* \"waystoreturnether.sol\":584:593  bool sent */\n      dup2\n        /* \"waystoreturnether.sol\":596:615  _to.send(msg.value) */\n      dup2\n        /* \"waystoreturnether.sol\":605:614  msg.value */\n      dup6\n        /* \"waystoreturnether.sol\":596:604  _to.send */\n      dup9\n        /* \"waystoreturnether.sol\":596:615  _to.send(msg.value) */\n      dup9\n      call\n      swap4\n      pop\n      pop\n      pop\n      pop\n        /* \"waystoreturnether.sol\":584:615  bool sent = _to.send(msg.value) */\n      swap1\n      pop\n        /* \"waystoreturnether.sol\":704:708  sent */\n      dup1\n        /* \"waystoreturnether.sol\":696:733  require(sent, \"Failed to send Ether\") */\n      tag_12\n      jumpi\n      mload(0x40)\n      shl(0xe5, 0x461bcd)\n      dup2\n      mstore\n        /* \"#utility.yul\":583:585   */\n      0x20\n        /* \"waystoreturnether.sol\":696:733  require(sent, \"Failed to send Ether\") */\n      0x04\n      dup3\n      add\n        /* \"#utility.yul\":565:586   */\n      mstore\n        /* \"#utility.yul\":622:624   */\n      0x14\n        /* \"#utility.yul\":602:620   */\n      0x24\n      dup3\n      add\n        /* \"#utility.yul\":595:625   */\n      mstore\n      shl(0x61, 0x2330b4b632b2103a379039b2b7321022ba3432b9)\n        /* \"#utility.yul\":641:659   */\n      0x44\n      dup3\n      add\n        /* \"#utility.yul\":634:684   */\n      mstore\n        /* \"#utility.yul\":701:719   */\n      0x64\n      add\n        /* \"waystoreturnether.sol\":696:733  require(sent, \"Failed to send Ether\") */\n      mload(0x40)\n      dup1\n      swap2\n      sub\n      swap1\n      revert\n    tag_12:\n        /* \"waystoreturnether.sol\":512:741  {... */\n      pop\n        /* \"waystoreturnether.sol\":442:741  function sendViaSend(address payable _to, uint amount) public payable {... */\n      pop\n      pop\n      jump\t// out\n        /* \"#utility.yul\":14:376   */\n    tag_8:\n        /* \"#utility.yul\":90:96   */\n      0x00\n        /* \"#utility.yul\":98:104   */\n      dup1\n        /* \"#utility.yul\":151:153   */\n      0x40\n        /* \"#utility.yul\":139:148   */\n      dup4\n        /* \"#utility.yul\":130:137   */\n      dup6\n        /* \"#utility.yul\":126:149   */\n      sub\n        /* \"#utility.yul\":122:154   */\n      slt\n        /* \"#utility.yul\":119:171   */\n      iszero\n      tag_17\n      jumpi\n        /* \"#utility.yul\":167:168   */\n      0x00\n        /* \"#utility.yul\":164:165   */\n      dup1\n        /* \"#utility.yul\":157:169   */\n      revert\n        /* \"#utility.yul\":119:171   */\n    tag_17:\n        /* \"#utility.yul\":193:216   */\n      dup3\n      calldataload\n      sub(shl(0xa0, 0x01), 0x01)\n        /* \"#utility.yul\":245:276   */\n      dup2\n      and\n        /* \"#utility.yul\":235:277   */\n      dup2\n      eq\n        /* \"#utility.yul\":225:295   */\n      tag_18\n      jumpi\n        /* \"#utility.yul\":291:292   */\n      0x00\n        /* \"#utility.yul\":288:289   */\n      dup1\n        /* \"#utility.yul\":281:293   */\n      revert\n        /* \"#utility.yul\":225:295   */\n    tag_18:\n        /* \"#utility.yul\":314:319   */\n      swap5\n        /* \"#utility.yul\":366:368   */\n      0x20\n        /* \"#utility.yul\":351:369   */\n      swap4\n      swap1\n      swap4\n      add\n        /* \"#utility.yul\":338:370   */\n      calldataload\n      swap4\n      pop\n      pop\n      pop\n        /* \"#utility.yul\":14:376   */\n      jump\t// out\n\n    auxdata: 0xa2646970667358221220a356e1e83389926c9c942e3b18489ebcfa125c0688e254aed6b82c9a4640406964736f6c63430008160033\n}\n",
				"bytecode": {
					"linkReferences": {},
					"object": "608060405234801561000f575f80fd5b506101158061001d5f395ff3fe608060405260043610601e575f3560e01c80638c7736f4146028575f80fd5b36602457005b5f80fd5b6037603336600460ac565b6039565b005b6040515f906001600160a01b038416903480156108fc029184818181858888f1935050505090508060a75760405162461bcd60e51b81526020600482015260146024820152732330b4b632b2103a379039b2b7321022ba3432b960611b604482015260640160405180910390fd5b505050565b5f806040838503121560bc575f80fd5b82356001600160a01b038116811460d1575f80fd5b94602093909301359350505056fea2646970667358221220a356e1e83389926c9c942e3b18489ebcfa125c0688e254aed6b82c9a4640406964736f6c63430008160033",
					"opcodes": "PUSH1 0x80 PUSH1 0x40 MSTORE CALLVALUE DUP1 ISZERO PUSH2 0xF JUMPI PUSH0 DUP1 REVERT JUMPDEST POP PUSH2 0x115 DUP1 PUSH2 0x1D PUSH0 CODECOPY PUSH0 RETURN INVALID PUSH1 0x80 PUSH1 0x40 MSTORE PUSH1 0x4 CALLDATASIZE LT PUSH1 0x1E JUMPI PUSH0 CALLDATALOAD PUSH1 0xE0 SHR DUP1 PUSH4 0x8C7736F4 EQ PUSH1 0x28 JUMPI PUSH0 DUP1 REVERT JUMPDEST CALLDATASIZE PUSH1 0x24 JUMPI STOP JUMPDEST PUSH0 DUP1 REVERT JUMPDEST PUSH1 0x37 PUSH1 0x33 CALLDATASIZE PUSH1 0x4 PUSH1 0xAC JUMP JUMPDEST PUSH1 0x39 JUMP JUMPDEST STOP JUMPDEST PUSH1 0x40 MLOAD PUSH0 SWAP1 PUSH1 0x1 PUSH1 0x1 PUSH1 0xA0 SHL SUB DUP5 AND SWAP1 CALLVALUE DUP1 ISZERO PUSH2 0x8FC MUL SWAP2 DUP5 DUP2 DUP2 DUP2 DUP6 DUP9 DUP9 CALL SWAP4 POP POP POP POP SWAP1 POP DUP1 PUSH1 0xA7 JUMPI PUSH1 0x40 MLOAD PUSH3 0x461BCD PUSH1 0xE5 SHL DUP2 MSTORE PUSH1 0x20 PUSH1 0x4 DUP3 ADD MSTORE PUSH1 0x14 PUSH1 0x24 DUP3 ADD MSTORE PUSH20 0x2330B4B632B2103A379039B2B7321022BA3432B9 PUSH1 0x61 SHL PUSH1 0x44 DUP3 ADD MSTORE PUSH1 0x64 ADD PUSH1 0x40 MLOAD DUP1 SWAP2 SUB SWAP1 REVERT JUMPDEST POP POP POP JUMP JUMPDEST PUSH0 DUP1 PUSH1 0x40 DUP4 DUP6 SUB SLT ISZERO PUSH1 0xBC JUMPI PUSH0 DUP1 REVERT JUMPDEST DUP3 CALLDATALOAD PUSH1 0x1 PUSH1 0x1 PUSH1 0xA0 SHL SUB DUP2 AND DUP2 EQ PUSH1 0xD1 JUMPI PUSH0 DUP1 REVERT JUMPDEST SWAP5 PUSH1 0x20 SWAP4 SWAP1 SWAP4 ADD CALLDATALOAD SWAP4 POP POP POP JUMP INVALID LOG2 PUSH5 0x6970667358 0x22 SLT KECCAK256 LOG3 JUMP 0xE1 0xE8 CALLER DUP10 SWAP3 PUSH13 0x9C942E3B18489EBCFA125C0688 0xE2 SLOAD 0xAE 0xD6 0xB8 0x2C SWAP11 CHAINID BLOCKHASH BLOCKHASH PUSH10 0x64736F6C634300081600 CALLER "
				},
				"gasEstimates": {
					"creation": {
						"codeDepositCost": "55400",
						"executionCost": "103",
						"totalCost": "55503"
					},
					"external": {
						"sendViaSend(address,uint256)": "infinite"
					}
				},
				"methodIdentifiers": {
					"sendViaSend(address,uint256)": "8c7736f4"
				}
			},
			"storageLayout": {
				"storage": [],
				"types": null
			},
			"userdoc": {
				"kind": "user",
				"methods": {},
				"version": 1
			}
		}
	}
}