{
	"waystoreturnether.sol": {
		"sendEther": {
			"abi": [
				{
					"inputs": [
						{
							"internalType": "address payable",
							"name": "to",
							"type": "address"
						},
						{
							"internalType": "uint256",
							"name": "amount",
							"type": "uint256"
						}
					],
					"name": "SendViaTransfer",
					"outputs": [],
					"stateMutability": "payable",
					"type": "function"
				},
				{
					"stateMutability": "payable",
					"type": "receive"
				}
			],
			"devdoc": {
				"kind": "dev",
				"methods": {},
				"version": 1
			},
			"evm": {
				"assembly": "    /* \"waystoreturnether.sol\":224:405  contract sendEther{... */\n  mstore(0x40, 0x80)\n  callvalue\n  dup1\n  iszero\n  tag_1\n  jumpi\n  0x00\n  dup1\n  revert\ntag_1:\n  pop\n  dataSize(sub_0)\n  dup1\n  dataOffset(sub_0)\n  0x00\n  codecopy\n  0x00\n  return\nstop\n\nsub_0: assembly {\n        /* \"waystoreturnether.sol\":224:405  contract sendEther{... */\n      mstore(0x40, 0x80)\n      jumpi(tag_1, lt(calldatasize, 0x04))\n      shr(0xe0, calldataload(0x00))\n      dup1\n      0xdd6735d6\n      eq\n      tag_3\n      jumpi\n      0x00\n      dup1\n      revert\n    tag_1:\n      jumpi(tag_2, calldatasize)\n      stop\n    tag_2:\n      0x00\n      dup1\n      revert\n        /* \"waystoreturnether.sol\":291:402  function SendViaTransfer(address payable to, uint amount)   public payable {... */\n    tag_3:\n      tag_6\n      tag_7\n      calldatasize\n      0x04\n      tag_8\n      jump\t// in\n    tag_7:\n      tag_9\n      jump\t// in\n    tag_6:\n      stop\n    tag_9:\n        /* \"waystoreturnether.sol\":373:392  to.transfer(amount) */\n      mload(0x40)\n      sub(shl(0xa0, 0x01), 0x01)\n        /* \"waystoreturnether.sol\":373:384  to.transfer */\n      dup4\n      and\n      swap1\n        /* \"waystoreturnether.sol\":373:392  to.transfer(amount) */\n      dup3\n      iszero\n      0x08fc\n      mul\n      swap1\n        /* \"waystoreturnether.sol\":385:391  amount */\n      dup4\n      swap1\n        /* \"waystoreturnether.sol\":373:392  to.transfer(amount) */\n      0x00\n      dup2\n      dup2\n      dup2\n        /* \"waystoreturnether.sol\":385:391  amount */\n      dup6\n        /* \"waystoreturnether.sol\":373:384  to.transfer */\n      dup9\n        /* \"waystoreturnether.sol\":373:392  to.transfer(amount) */\n      dup9\n      call\n      swap4\n      pop\n      pop\n      pop\n      pop\n      iszero\n      dup1\n      iszero\n      tag_12\n      jumpi\n      returndatasize\n      0x00\n      dup1\n      returndatacopy\n      revert(0x00, returndatasize)\n    tag_12:\n      pop\n        /* \"waystoreturnether.sol\":291:402  function SendViaTransfer(address payable to, uint amount)   public payable {... */\n      pop\n      pop\n      jump\t// out\n        /* \"#utility.yul\":14:376   */\n    tag_8:\n        /* \"#utility.yul\":90:96   */\n      0x00\n        /* \"#utility.yul\":98:104   */\n      dup1\n        /* \"#utility.yul\":151:153   */\n      0x40\n        /* \"#utility.yul\":139:148   */\n      dup4\n        /* \"#utility.yul\":130:137   */\n      dup6\n        /* \"#utility.yul\":126:149   */\n      sub\n        /* \"#utility.yul\":122:154   */\n      slt\n        /* \"#utility.yul\":119:171   */\n      iszero\n      tag_15\n      jumpi\n        /* \"#utility.yul\":167:168   */\n      0x00\n        /* \"#utility.yul\":164:165   */\n      dup1\n        /* \"#utility.yul\":157:169   */\n      revert\n        /* \"#utility.yul\":119:171   */\n    tag_15:\n        /* \"#utility.yul\":193:216   */\n      dup3\n      calldataload\n      sub(shl(0xa0, 0x01), 0x01)\n        /* \"#utility.yul\":245:276   */\n      dup2\n      and\n        /* \"#utility.yul\":235:277   */\n      dup2\n      eq\n        /* \"#utility.yul\":225:295   */\n      tag_16\n      jumpi\n        /* \"#utility.yul\":291:292   */\n      0x00\n        /* \"#utility.yul\":288:289   */\n      dup1\n        /* \"#utility.yul\":281:293   */\n      revert\n        /* \"#utility.yul\":225:295   */\n    tag_16:\n        /* \"#utility.yul\":314:319   */\n      swap5\n        /* \"#utility.yul\":366:368   */\n      0x20\n        /* \"#utility.yul\":351:369   */\n      swap4\n      swap1\n      swap4\n      add\n        /* \"#utility.yul\":338:370   */\n      calldataload\n      swap4\n      pop\n      pop\n      pop\n        /* \"#utility.yul\":14:376   */\n      jump\t// out\n\n    auxdata: 0xa2646970667358221220737a531efdcb851eebf0f5cdf86e310a05f219045293abf0bba6264e226d6c7864736f6c63430008160033\n}\n",
				"bytecode": {
					"linkReferences": {},
					"object": "608060405234801561000f575f80fd5b5060d98061001c5f395ff3fe608060405260043610601e575f3560e01c8063dd6735d6146028575f80fd5b36602457005b5f80fd5b603760333660046070565b6039565b005b6040516001600160a01b0383169082156108fc029083905f818181858888f19350505050158015606b573d5f803e3d5ffd5b505050565b5f80604083850312156080575f80fd5b82356001600160a01b03811681146095575f80fd5b94602093909301359350505056fea2646970667358221220737a531efdcb851eebf0f5cdf86e310a05f219045293abf0bba6264e226d6c7864736f6c63430008160033",
					"opcodes": "PUSH1 0x80 PUSH1 0x40 MSTORE CALLVALUE DUP1 ISZERO PUSH2 0xF JUMPI PUSH0 DUP1 REVERT JUMPDEST POP PUSH1 0xD9 DUP1 PUSH2 0x1C PUSH0 CODECOPY PUSH0 RETURN INVALID PUSH1 0x80 PUSH1 0x40 MSTORE PUSH1 0x4 CALLDATASIZE LT PUSH1 0x1E JUMPI PUSH0 CALLDATALOAD PUSH1 0xE0 SHR DUP1 PUSH4 0xDD6735D6 EQ PUSH1 0x28 JUMPI PUSH0 DUP1 REVERT JUMPDEST CALLDATASIZE PUSH1 0x24 JUMPI STOP JUMPDEST PUSH0 DUP1 REVERT JUMPDEST PUSH1 0x37 PUSH1 0x33 CALLDATASIZE PUSH1 0x4 PUSH1 0x70 JUMP JUMPDEST PUSH1 0x39 JUMP JUMPDEST STOP JUMPDEST PUSH1 0x40 MLOAD PUSH1 0x1 PUSH1 0x1 PUSH1 0xA0 SHL SUB DUP4 AND SWAP1 DUP3 ISZERO PUSH2 0x8FC MUL SWAP1 DUP4 SWAP1 PUSH0 DUP2 DUP2 DUP2 DUP6 DUP9 DUP9 CALL SWAP4 POP POP POP POP ISZERO DUP1 ISZERO PUSH1 0x6B JUMPI RETURNDATASIZE PUSH0 DUP1 RETURNDATACOPY RETURNDATASIZE PUSH0 REVERT JUMPDEST POP POP POP JUMP JUMPDEST PUSH0 DUP1 PUSH1 0x40 DUP4 DUP6 SUB SLT ISZERO PUSH1 0x80 JUMPI PUSH0 DUP1 REVERT JUMPDEST DUP3 CALLDATALOAD PUSH1 0x1 PUSH1 0x1 PUSH1 0xA0 SHL SUB DUP2 AND DUP2 EQ PUSH1 0x95 JUMPI PUSH0 DUP1 REVERT JUMPDEST SWAP5 PUSH1 0x20 SWAP4 SWAP1 SWAP4 ADD CALLDATALOAD SWAP4 POP POP POP JUMP INVALID LOG2 PUSH5 0x6970667358 0x22 SLT KECCAK256 PUSH20 0x7A531EFDCB851EEBF0F5CDF86E310A05F2190452 SWAP4 0xAB CREATE 0xBB 0xA6 0x26 0x4E 0x22 PUSH14 0x6C7864736F6C6343000816003300 "
				},
				"gasEstimates": {
					"creation": {
						"codeDepositCost": "43400",
						"executionCost": "91",
						"totalCost": "43491"
					},
					"external": {
						"SendViaTransfer(address,uint256)": "infinite"
					}
				},
				"methodIdentifiers": {
					"SendViaTransfer(address,uint256)": "dd6735d6"
				}
			},
			"storageLayout": {
				"storage": [],
				"types": null
			},
			"userdoc": {
				"kind": "user",
				"methods": {},
				"version": 1
			}
		}
	}
}