{
	"greatness.sol": {
		"Zinny": {
			"abi": [
				{
					"inputs": [],
					"stateMutability": "nonpayable",
					"type": "constructor"
				},
				{
					"inputs": [],
					"name": "Owner",
					"outputs": [
						{
							"internalType": "address",
							"name": "",
							"type": "address"
						}
					],
					"stateMutability": "view",
					"type": "function"
				},
				{
					"inputs": [],
					"name": "anyonecancall",
					"outputs": [],
					"stateMutability": "nonpayable",
					"type": "function"
				},
				{
					"inputs": [
						{
							"internalType": "address",
							"name": "_newOwner",
							"type": "address"
						}
					],
					"name": "setOwner",
					"outputs": [],
					"stateMutability": "nonpayable",
					"type": "function"
				}
			],
			"devdoc": {
				"kind": "dev",
				"methods": {},
				"version": 1
			},
			"evm": {
				"assembly": "    /* \"greatness.sol\":58:494  contract  Zinny{... */\n  mstore(0x40, 0x80)\n    /* \"greatness.sol\":108:162  constructor () {... */\n  callvalue\n  dup1\n  iszero\n  tag_1\n  jumpi\n  0x00\n  dup1\n  revert\ntag_1:\n  pop\n    /* \"greatness.sol\":134:139  Owner */\n  0x00\n    /* \"greatness.sol\":134:152  Owner = msg.sender */\n  dup1\n  sload\n  not(sub(shl(0xa0, 0x01), 0x01))\n  and\n    /* \"greatness.sol\":142:152  msg.sender */\n  caller\n    /* \"greatness.sol\":134:152  Owner = msg.sender */\n  or\n  swap1\n  sstore\n    /* \"greatness.sol\":58:494  contract  Zinny{... */\n  dataSize(sub_0)\n  dup1\n  dataOffset(sub_0)\n  0x00\n  codecopy\n  0x00\n  return\nstop\n\nsub_0: assembly {\n        /* \"greatness.sol\":58:494  contract  Zinny{... */\n      mstore(0x40, 0x80)\n      callvalue\n      dup1\n      iszero\n      tag_1\n      jumpi\n      0x00\n      dup1\n      revert\n    tag_1:\n      pop\n      jumpi(tag_2, lt(calldatasize, 0x04))\n      shr(0xe0, calldataload(0x00))\n      dup1\n      0x13af4035\n      eq\n      tag_3\n      jumpi\n      dup1\n      0x25ec5847\n      eq\n      tag_6\n      jumpi\n      dup1\n      0xb4a99a4e\n      eq\n      tag_5\n      jumpi\n    tag_2:\n      0x00\n      dup1\n      revert\n        /* \"greatness.sol\":293:443  function setOwner(address _newOwner) public onlyOwner{... */\n    tag_3:\n      tag_6\n      tag_7\n      calldatasize\n      0x04\n      tag_8\n      jump\t// in\n    tag_7:\n      tag_9\n      jump\t// in\n    tag_6:\n      stop\n        /* \"greatness.sol\":80:101  address public  Owner */\n    tag_5:\n      sload(0x00)\n      tag_12\n      swap1\n      sub(shl(0xa0, 0x01), 0x01)\n      and\n      dup2\n      jump\n    tag_12:\n      mload(0x40)\n      sub(shl(0xa0, 0x01), 0x01)\n        /* \"#utility.yul\":469:501   */\n      swap1\n      swap2\n      and\n        /* \"#utility.yul\":451:502   */\n      dup2\n      mstore\n        /* \"#utility.yul\":439:441   */\n      0x20\n        /* \"#utility.yul\":424:442   */\n      add\n        /* \"greatness.sol\":80:101  address public  Owner */\n      mload(0x40)\n      dup1\n      swap2\n      sub\n      swap1\n      return\n        /* \"greatness.sol\":293:443  function setOwner(address _newOwner) public onlyOwner{... */\n    tag_9:\n        /* \"greatness.sol\":221:226  Owner */\n      and(sub(shl(0xa0, 0x01), 0x01), sload(0x00))\n        /* \"greatness.sol\":207:217  msg.sender */\n      caller\n        /* \"greatness.sol\":207:226  msg.sender == Owner */\n      eq\n        /* \"greatness.sol\":199:261  require(msg.sender == Owner, \"You are not the owner big head\") */\n      tag_17\n      jumpi\n      mload(0x40)\n      shl(0xe5, 0x461bcd)\n      dup2\n      mstore\n        /* \"#utility.yul\":715:717   */\n      0x20\n        /* \"greatness.sol\":199:261  require(msg.sender == Owner, \"You are not the owner big head\") */\n      0x04\n      dup3\n      add\n        /* \"#utility.yul\":697:718   */\n      mstore\n        /* \"#utility.yul\":754:756   */\n      0x1e\n        /* \"#utility.yul\":734:752   */\n      0x24\n      dup3\n      add\n        /* \"#utility.yul\":727:757   */\n      mstore\n        /* \"#utility.yul\":793:825   */\n      0x596f7520617265206e6f7420746865206f776e65722062696720686561640000\n        /* \"#utility.yul\":773:791   */\n      0x44\n      dup3\n      add\n        /* \"#utility.yul\":766:826   */\n      mstore\n        /* \"#utility.yul\":843:861   */\n      0x64\n      add\n        /* \"greatness.sol\":199:261  require(msg.sender == Owner, \"You are not the owner big head\") */\n    tag_18:\n      mload(0x40)\n      dup1\n      swap2\n      sub\n      swap1\n      revert\n    tag_17:\n      sub(shl(0xa0, 0x01), 0x01)\n        /* \"greatness.sol\":365:388  _newOwner != address(0) */\n      dup2\n      and\n        /* \"greatness.sol\":357:410  require(_newOwner != address(0) , \"invalid address \") */\n      tag_21\n      jumpi\n      mload(0x40)\n      shl(0xe5, 0x461bcd)\n      dup2\n      mstore\n        /* \"#utility.yul\":1074:1076   */\n      0x20\n        /* \"greatness.sol\":357:410  require(_newOwner != address(0) , \"invalid address \") */\n      0x04\n      dup3\n      add\n        /* \"#utility.yul\":1056:1077   */\n      mstore\n        /* \"#utility.yul\":1113:1115   */\n      0x10\n        /* \"#utility.yul\":1093:1111   */\n      0x24\n      dup3\n      add\n        /* \"#utility.yul\":1086:1116   */\n      mstore\n      shl(0x85, 0x034b73b30b634b21030b2323932b9b99)\n        /* \"#utility.yul\":1132:1150   */\n      0x44\n      dup3\n      add\n        /* \"#utility.yul\":1125:1171   */\n      mstore\n        /* \"#utility.yul\":1188:1206   */\n      0x64\n      add\n        /* \"greatness.sol\":357:410  require(_newOwner != address(0) , \"invalid address \") */\n      tag_18\n        /* \"#utility.yul\":872:1212   */\n      jump\n        /* \"greatness.sol\":357:410  require(_newOwner != address(0) , \"invalid address \") */\n    tag_21:\n        /* \"greatness.sol\":418:423  Owner */\n      0x00\n        /* \"greatness.sol\":418:435  Owner = _newOwner */\n      dup1\n      sload\n      not(sub(shl(0xa0, 0x01), 0x01))\n      and\n      sub(shl(0xa0, 0x01), 0x01)\n      swap3\n      swap1\n      swap3\n      and\n      swap2\n      swap1\n      swap2\n      or\n      swap1\n      sstore\n        /* \"greatness.sol\":293:443  function setOwner(address _newOwner) public onlyOwner{... */\n      jump\t// out\n        /* \"#utility.yul\":14:300   */\n    tag_8:\n        /* \"#utility.yul\":73:79   */\n      0x00\n        /* \"#utility.yul\":126:128   */\n      0x20\n        /* \"#utility.yul\":114:123   */\n      dup3\n        /* \"#utility.yul\":105:112   */\n      dup5\n        /* \"#utility.yul\":101:124   */\n      sub\n        /* \"#utility.yul\":97:129   */\n      slt\n        /* \"#utility.yul\":94:146   */\n      iszero\n      tag_27\n      jumpi\n        /* \"#utility.yul\":142:143   */\n      0x00\n        /* \"#utility.yul\":139:140   */\n      dup1\n        /* \"#utility.yul\":132:144   */\n      revert\n        /* \"#utility.yul\":94:146   */\n    tag_27:\n        /* \"#utility.yul\":168:191   */\n      dup2\n      calldataload\n      sub(shl(0xa0, 0x01), 0x01)\n        /* \"#utility.yul\":220:251   */\n      dup2\n      and\n        /* \"#utility.yul\":210:252   */\n      dup2\n      eq\n        /* \"#utility.yul\":200:270   */\n      tag_28\n      jumpi\n        /* \"#utility.yul\":266:267   */\n      0x00\n        /* \"#utility.yul\":263:264   */\n      dup1\n        /* \"#utility.yul\":256:268   */\n      revert\n        /* \"#utility.yul\":200:270   */\n    tag_28:\n        /* \"#utility.yul\":289:294   */\n      swap4\n        /* \"#utility.yul\":14:300   */\n      swap3\n      pop\n      pop\n      pop\n      jump\t// out\n\n    auxdata: 0xa2646970667358221220a604088e94ce4b50116c7a9fe1155022a7602708ea7cb08823a1afbec583c9d264736f6c63430008160033\n}\n",
				"bytecode": {
					"linkReferences": {},
					"object": "608060405234801561000f575f80fd5b505f80546001600160a01b031916331790556101b18061002e5f395ff3fe608060405234801561000f575f80fd5b506004361061003f575f3560e01c806313af40351461004357806325ec584714610056578063b4a99a4e14610058575b5f80fd5b61005661005136600461014e565b610086565b005b5f5461006a906001600160a01b031681565b6040516001600160a01b03909116815260200160405180910390f35b5f546001600160a01b031633146100e45760405162461bcd60e51b815260206004820152601e60248201527f596f7520617265206e6f7420746865206f776e6572206269672068656164000060448201526064015b60405180910390fd5b6001600160a01b03811661012d5760405162461bcd60e51b815260206004820152601060248201526f034b73b30b634b21030b2323932b9b9960851b60448201526064016100db565b5f80546001600160a01b0319166001600160a01b0392909216919091179055565b5f6020828403121561015e575f80fd5b81356001600160a01b0381168114610174575f80fd5b939250505056fea2646970667358221220a604088e94ce4b50116c7a9fe1155022a7602708ea7cb08823a1afbec583c9d264736f6c63430008160033",
					"opcodes": "PUSH1 0x80 PUSH1 0x40 MSTORE CALLVALUE DUP1 ISZERO PUSH2 0xF JUMPI PUSH0 DUP1 REVERT JUMPDEST POP PUSH0 DUP1 SLOAD PUSH1 0x1 PUSH1 0x1 PUSH1 0xA0 SHL SUB NOT AND CALLER OR SWAP1 SSTORE PUSH2 0x1B1 DUP1 PUSH2 0x2E PUSH0 CODECOPY PUSH0 RETURN INVALID PUSH1 0x80 PUSH1 0x40 MSTORE CALLVALUE DUP1 ISZERO PUSH2 0xF JUMPI PUSH0 DUP1 REVERT JUMPDEST POP PUSH1 0x4 CALLDATASIZE LT PUSH2 0x3F JUMPI PUSH0 CALLDATALOAD PUSH1 0xE0 SHR DUP1 PUSH4 0x13AF4035 EQ PUSH2 0x43 JUMPI DUP1 PUSH4 0x25EC5847 EQ PUSH2 0x56 JUMPI DUP1 PUSH4 0xB4A99A4E EQ PUSH2 0x58 JUMPI JUMPDEST PUSH0 DUP1 REVERT JUMPDEST PUSH2 0x56 PUSH2 0x51 CALLDATASIZE PUSH1 0x4 PUSH2 0x14E JUMP JUMPDEST PUSH2 0x86 JUMP JUMPDEST STOP JUMPDEST PUSH0 SLOAD PUSH2 0x6A SWAP1 PUSH1 0x1 PUSH1 0x1 PUSH1 0xA0 SHL SUB AND DUP2 JUMP JUMPDEST PUSH1 0x40 MLOAD PUSH1 0x1 PUSH1 0x1 PUSH1 0xA0 SHL SUB SWAP1 SWAP2 AND DUP2 MSTORE PUSH1 0x20 ADD PUSH1 0x40 MLOAD DUP1 SWAP2 SUB SWAP1 RETURN JUMPDEST PUSH0 SLOAD PUSH1 0x1 PUSH1 0x1 PUSH1 0xA0 SHL SUB AND CALLER EQ PUSH2 0xE4 JUMPI PUSH1 0x40 MLOAD PUSH3 0x461BCD PUSH1 0xE5 SHL DUP2 MSTORE PUSH1 0x20 PUSH1 0x4 DUP3 ADD MSTORE PUSH1 0x1E PUSH1 0x24 DUP3 ADD MSTORE PUSH32 0x596F7520617265206E6F7420746865206F776E65722062696720686561640000 PUSH1 0x44 DUP3 ADD MSTORE PUSH1 0x64 ADD JUMPDEST PUSH1 0x40 MLOAD DUP1 SWAP2 SUB SWAP1 REVERT JUMPDEST PUSH1 0x1 PUSH1 0x1 PUSH1 0xA0 SHL SUB DUP2 AND PUSH2 0x12D JUMPI PUSH1 0x40 MLOAD PUSH3 0x461BCD PUSH1 0xE5 SHL DUP2 MSTORE PUSH1 0x20 PUSH1 0x4 DUP3 ADD MSTORE PUSH1 0x10 PUSH1 0x24 DUP3 ADD MSTORE PUSH16 0x34B73B30B634B21030B2323932B9B99 PUSH1 0x85 SHL PUSH1 0x44 DUP3 ADD MSTORE PUSH1 0x64 ADD PUSH2 0xDB JUMP JUMPDEST PUSH0 DUP1 SLOAD PUSH1 0x1 PUSH1 0x1 PUSH1 0xA0 SHL SUB NOT AND PUSH1 0x1 PUSH1 0x1 PUSH1 0xA0 SHL SUB SWAP3 SWAP1 SWAP3 AND SWAP2 SWAP1 SWAP2 OR SWAP1 SSTORE JUMP JUMPDEST PUSH0 PUSH1 0x20 DUP3 DUP5 SUB SLT ISZERO PUSH2 0x15E JUMPI PUSH0 DUP1 REVERT JUMPDEST DUP2 CALLDATALOAD PUSH1 0x1 PUSH1 0x1 PUSH1 0xA0 SHL SUB DUP2 AND DUP2 EQ PUSH2 0x174 JUMPI PUSH0 DUP1 REVERT JUMPDEST SWAP4 SWAP3 POP POP POP JUMP INVALID LOG2 PUSH5 0x6970667358 0x22 SLT KECCAK256 0xA6 DIV ADDMOD DUP15 SWAP5 0xCE 0x4B POP GT PUSH13 0x7A9FE1155022A7602708EA7CB0 DUP9 0x23 LOG1 0xAF 0xBE 0xC5 DUP4 0xC9 0xD2 PUSH5 0x736F6C6343 STOP ADDMOD AND STOP CALLER "
				},
				"gasEstimates": {
					"creation": {
						"codeDepositCost": "86600",
						"executionCost": "24367",
						"totalCost": "110967"
					},
					"external": {
						"Owner()": "2345",
						"anyonecancall()": "119",
						"setOwner(address)": "26685"
					}
				},
				"methodIdentifiers": {
					"Owner()": "b4a99a4e",
					"anyonecancall()": "25ec5847",
					"setOwner(address)": "13af4035"
				}
			},
			"storageLayout": {
				"storage": [
					{
						"astId": 3,
						"contract": "greatness.sol:Zinny",
						"label": "Owner",
						"offset": 0,
						"slot": "0",
						"type": "t_address"
					}
				],
				"types": {
					"t_address": {
						"encoding": "inplace",
						"label": "address",
						"numberOfBytes": "20"
					}
				}
			},
			"userdoc": {
				"kind": "user",
				"methods": {},
				"version": 1
			}
		}
	}
}