{
	"enum.sol": {
		"Shipping": {
			"abi": [
				{
					"inputs": [],
					"name": "cancel",
					"outputs": [],
					"stateMutability": "nonpayable",
					"type": "function"
				},
				{
					"inputs": [],
					"name": "get",
					"outputs": [
						{
							"internalType": "enum Shipping.ship",
							"name": "",
							"type": "uint8"
						}
					],
					"stateMutability": "view",
					"type": "function"
				},
				{
					"inputs": [],
					"name": "mike",
					"outputs": [
						{
							"internalType": "enum Shipping.ship",
							"name": "",
							"type": "uint8"
						}
					],
					"stateMutability": "view",
					"type": "function"
				},
				{
					"inputs": [],
					"name": "reset",
					"outputs": [],
					"stateMutability": "nonpayable",
					"type": "function"
				},
				{
					"inputs": [
						{
							"internalType": "enum Shipping.ship",
							"name": "_x",
							"type": "uint8"
						}
					],
					"name": "set",
					"outputs": [],
					"stateMutability": "nonpayable",
					"type": "function"
				}
			],
			"devdoc": {
				"kind": "dev",
				"methods": {},
				"version": 1
			},
			"evm": {
				"assembly": "    /* \"enum.sol\":61:631  contract Shipping{... */\n  mstore(0x40, 0x80)\n  callvalue\n  dup1\n  iszero\n  tag_1\n  jumpi\n  0x00\n  dup1\n  revert\ntag_1:\n  pop\n  dataSize(sub_0)\n  dup1\n  dataOffset(sub_0)\n  0x00\n  codecopy\n  0x00\n  return\nstop\n\nsub_0: assembly {\n        /* \"enum.sol\":61:631  contract Shipping{... */\n      mstore(0x40, 0x80)\n      callvalue\n      dup1\n      iszero\n      tag_1\n      jumpi\n      0x00\n      dup1\n      revert\n    tag_1:\n      pop\n      jumpi(tag_2, lt(calldatasize, 0x04))\n      shr(0xe0, calldataload(0x00))\n      dup1\n      0x24b8ba5f\n      eq\n      tag_3\n      jumpi\n      dup1\n      0x6d4ce63c\n      eq\n      tag_4\n      jumpi\n      dup1\n      0xd826f88f\n      eq\n      tag_5\n      jumpi\n      dup1\n      0xe86bc6ea\n      eq\n      tag_6\n      jumpi\n      dup1\n      0xea8a1af0\n      eq\n      tag_7\n      jumpi\n    tag_2:\n      0x00\n      dup1\n      revert\n        /* \"enum.sol\":437:490  function set(ship _x) public {... */\n    tag_3:\n      tag_8\n      tag_9\n      calldatasize\n      0x04\n      tag_10\n      jump\t// in\n    tag_9:\n      tag_11\n      jump\t// in\n    tag_8:\n      stop\n        /* \"enum.sol\":361:428  function get() public view returns(ship) {... */\n    tag_4:\n        /* \"enum.sol\":396:400  ship */\n      0x00\n        /* \"enum.sol\":416:420  mike */\n      sload\n      0xff\n      and\n        /* \"enum.sol\":361:428  function get() public view returns(ship) {... */\n    tag_12:\n      mload(0x40)\n      tag_14\n      swap2\n      swap1\n      tag_15\n      jump\t// in\n    tag_14:\n      mload(0x40)\n      dup1\n      swap2\n      sub\n      swap1\n      return\n        /* \"enum.sol\":571:625  function reset() public {... */\n    tag_5:\n      tag_8\n        /* \"enum.sol\":613:617  mike */\n      0x00\n        /* \"enum.sol\":606:617  delete mike */\n      dup1\n      sload\n      not(0xff)\n      and\n      swap1\n      sstore\n        /* \"enum.sol\":571:625  function reset() public {... */\n      jump\n        /* \"enum.sol\":206:222  ship public mike */\n    tag_6:\n      sload(0x00)\n      tag_12\n      swap1\n      0xff\n      and\n      dup2\n      jump\n        /* \"enum.sol\":499:562  function cancel() public {... */\n    tag_7:\n      tag_8\n        /* \"enum.sol\":534:538  mike */\n      0x00\n        /* \"enum.sol\":534:554  mike = ship.canceled */\n      dup1\n      sload\n      not(0xff)\n      and\n        /* \"enum.sol\":541:554  ship.canceled */\n      0x04\n        /* \"enum.sol\":534:554  mike = ship.canceled */\n      or\n      swap1\n      sstore\n        /* \"enum.sol\":499:562  function cancel() public {... */\n      jump\n        /* \"enum.sol\":437:490  function set(ship _x) public {... */\n    tag_11:\n        /* \"enum.sol\":473:477  mike */\n      0x00\n        /* \"enum.sol\":473:482  mike = _x */\n      dup1\n      sload\n        /* \"enum.sol\":480:482  _x */\n      dup3\n      swap2\n        /* \"enum.sol\":473:477  mike */\n      swap1\n      not(0xff)\n        /* \"enum.sol\":473:482  mike = _x */\n      and\n      0x01\n        /* \"enum.sol\":480:482  _x */\n      dup4\n        /* \"enum.sol\":473:482  mike = _x */\n      0x04\n      dup2\n      gt\n      iszero\n      tag_25\n      jumpi\n      tag_25\n      tag_26\n      jump\t// in\n    tag_25:\n      mul\n      or\n      swap1\n      sstore\n      pop\n        /* \"enum.sol\":437:490  function set(ship _x) public {... */\n      pop\n      jump\t// out\n        /* \"#utility.yul\":14:276   */\n    tag_10:\n        /* \"#utility.yul\":79:85   */\n      0x00\n        /* \"#utility.yul\":132:134   */\n      0x20\n        /* \"#utility.yul\":120:129   */\n      dup3\n        /* \"#utility.yul\":111:118   */\n      dup5\n        /* \"#utility.yul\":107:130   */\n      sub\n        /* \"#utility.yul\":103:135   */\n      slt\n        /* \"#utility.yul\":100:152   */\n      iszero\n      tag_34\n      jumpi\n        /* \"#utility.yul\":148:149   */\n      0x00\n        /* \"#utility.yul\":145:146   */\n      dup1\n        /* \"#utility.yul\":138:150   */\n      revert\n        /* \"#utility.yul\":100:152   */\n    tag_34:\n        /* \"#utility.yul\":187:196   */\n      dup2\n        /* \"#utility.yul\":174:197   */\n      calldataload\n        /* \"#utility.yul\":226:227   */\n      0x05\n        /* \"#utility.yul\":219:224   */\n      dup2\n        /* \"#utility.yul\":216:228   */\n      lt\n        /* \"#utility.yul\":206:246   */\n      tag_35\n      jumpi\n        /* \"#utility.yul\":242:243   */\n      0x00\n        /* \"#utility.yul\":239:240   */\n      dup1\n        /* \"#utility.yul\":232:244   */\n      revert\n        /* \"#utility.yul\":206:246   */\n    tag_35:\n        /* \"#utility.yul\":265:270   */\n      swap4\n        /* \"#utility.yul\":14:276   */\n      swap3\n      pop\n      pop\n      pop\n      jump\t// out\n        /* \"#utility.yul\":281:408   */\n    tag_26:\n        /* \"#utility.yul\":342:352   */\n      0x4e487b71\n        /* \"#utility.yul\":337:340   */\n      0xe0\n        /* \"#utility.yul\":333:353   */\n      shl\n        /* \"#utility.yul\":330:331   */\n      0x00\n        /* \"#utility.yul\":323:354   */\n      mstore\n        /* \"#utility.yul\":373:377   */\n      0x21\n        /* \"#utility.yul\":370:371   */\n      0x04\n        /* \"#utility.yul\":363:378   */\n      mstore\n        /* \"#utility.yul\":397:401   */\n      0x24\n        /* \"#utility.yul\":394:395   */\n      0x00\n        /* \"#utility.yul\":387:402   */\n      revert\n        /* \"#utility.yul\":413:747   */\n    tag_15:\n        /* \"#utility.yul\":551:553   */\n      0x20\n        /* \"#utility.yul\":536:554   */\n      dup2\n      add\n        /* \"#utility.yul\":584:585   */\n      0x05\n        /* \"#utility.yul\":573:586   */\n      dup4\n      lt\n        /* \"#utility.yul\":563:707   */\n      tag_38\n      jumpi\n        /* \"#utility.yul\":629:639   */\n      0x4e487b71\n        /* \"#utility.yul\":624:627   */\n      0xe0\n        /* \"#utility.yul\":620:640   */\n      shl\n        /* \"#utility.yul\":617:618   */\n      0x00\n        /* \"#utility.yul\":610:641   */\n      mstore\n        /* \"#utility.yul\":664:668   */\n      0x21\n        /* \"#utility.yul\":661:662   */\n      0x04\n        /* \"#utility.yul\":654:669   */\n      mstore\n        /* \"#utility.yul\":692:696   */\n      0x24\n        /* \"#utility.yul\":689:690   */\n      0x00\n        /* \"#utility.yul\":682:697   */\n      revert\n        /* \"#utility.yul\":563:707   */\n    tag_38:\n        /* \"#utility.yul\":716:741   */\n      swap2\n      swap1\n      mstore\n        /* \"#utility.yul\":413:747   */\n      swap1\n      jump\t// out\n\n    auxdata: 0xa2646970667358221220c182c08b1220792e8e66495c6e8e311ae13d7bcd68ef09350f0ee874a4fc72c964736f6c63430008160033\n}\n",
				"bytecode": {
					"linkReferences": {},
					"object": "608060405234801561000f575f80fd5b506101708061001d5f395ff3fe608060405234801561000f575f80fd5b5060043610610055575f3560e01c806324b8ba5f146100595780636d4ce63c1461006e578063d826f88f1461008a578063e86bc6ea14610098578063ea8a1af0146100a4575b5f80fd5b61006c6100673660046100db565b6100b5565b005b5f5460ff165b6040516100819190610114565b60405180910390f35b61006c5f805460ff19169055565b5f546100749060ff1681565b61006c5f805460ff19166004179055565b5f805482919060ff191660018360048111156100d3576100d3610100565b021790555050565b5f602082840312156100eb575f80fd5b8135600581106100f9575f80fd5b9392505050565b634e487b7160e01b5f52602160045260245ffd5b602081016005831061013457634e487b7160e01b5f52602160045260245ffd5b9190529056fea2646970667358221220c182c08b1220792e8e66495c6e8e311ae13d7bcd68ef09350f0ee874a4fc72c964736f6c63430008160033",
					"opcodes": "PUSH1 0x80 PUSH1 0x40 MSTORE CALLVALUE DUP1 ISZERO PUSH2 0xF JUMPI PUSH0 DUP1 REVERT JUMPDEST POP PUSH2 0x170 DUP1 PUSH2 0x1D PUSH0 CODECOPY PUSH0 RETURN INVALID PUSH1 0x80 PUSH1 0x40 MSTORE CALLVALUE DUP1 ISZERO PUSH2 0xF JUMPI PUSH0 DUP1 REVERT JUMPDEST POP PUSH1 0x4 CALLDATASIZE LT PUSH2 0x55 JUMPI PUSH0 CALLDATALOAD PUSH1 0xE0 SHR DUP1 PUSH4 0x24B8BA5F EQ PUSH2 0x59 JUMPI DUP1 PUSH4 0x6D4CE63C EQ PUSH2 0x6E JUMPI DUP1 PUSH4 0xD826F88F EQ PUSH2 0x8A JUMPI DUP1 PUSH4 0xE86BC6EA EQ PUSH2 0x98 JUMPI DUP1 PUSH4 0xEA8A1AF0 EQ PUSH2 0xA4 JUMPI JUMPDEST PUSH0 DUP1 REVERT JUMPDEST PUSH2 0x6C PUSH2 0x67 CALLDATASIZE PUSH1 0x4 PUSH2 0xDB JUMP JUMPDEST PUSH2 0xB5 JUMP JUMPDEST STOP JUMPDEST PUSH0 SLOAD PUSH1 0xFF AND JUMPDEST PUSH1 0x40 MLOAD PUSH2 0x81 SWAP2 SWAP1 PUSH2 0x114 JUMP JUMPDEST PUSH1 0x40 MLOAD DUP1 SWAP2 SUB SWAP1 RETURN JUMPDEST PUSH2 0x6C PUSH0 DUP1 SLOAD PUSH1 0xFF NOT AND SWAP1 SSTORE JUMP JUMPDEST PUSH0 SLOAD PUSH2 0x74 SWAP1 PUSH1 0xFF AND DUP2 JUMP JUMPDEST PUSH2 0x6C PUSH0 DUP1 SLOAD PUSH1 0xFF NOT AND PUSH1 0x4 OR SWAP1 SSTORE JUMP JUMPDEST PUSH0 DUP1 SLOAD DUP3 SWAP2 SWAP1 PUSH1 0xFF NOT AND PUSH1 0x1 DUP4 PUSH1 0x4 DUP2 GT ISZERO PUSH2 0xD3 JUMPI PUSH2 0xD3 PUSH2 0x100 JUMP JUMPDEST MUL OR SWAP1 SSTORE POP POP JUMP JUMPDEST PUSH0 PUSH1 0x20 DUP3 DUP5 SUB SLT ISZERO PUSH2 0xEB JUMPI PUSH0 DUP1 REVERT JUMPDEST DUP2 CALLDATALOAD PUSH1 0x5 DUP2 LT PUSH2 0xF9 JUMPI PUSH0 DUP1 REVERT JUMPDEST SWAP4 SWAP3 POP POP POP JUMP JUMPDEST PUSH4 0x4E487B71 PUSH1 0xE0 SHL PUSH0 MSTORE PUSH1 0x21 PUSH1 0x4 MSTORE PUSH1 0x24 PUSH0 REVERT JUMPDEST PUSH1 0x20 DUP2 ADD PUSH1 0x5 DUP4 LT PUSH2 0x134 JUMPI PUSH4 0x4E487B71 PUSH1 0xE0 SHL PUSH0 MSTORE PUSH1 0x21 PUSH1 0x4 MSTORE PUSH1 0x24 PUSH0 REVERT JUMPDEST SWAP2 SWAP1 MSTORE SWAP1 JUMP INVALID LOG2 PUSH5 0x6970667358 0x22 SLT KECCAK256 0xC1 DUP3 0xC0 DUP12 SLT KECCAK256 PUSH26 0x2E8E66495C6E8E311AE13D7BCD68EF09350F0EE874A4FC72C964 PUSH20 0x6F6C634300081600330000000000000000000000 "
				},
				"gasEstimates": {
					"creation": {
						"codeDepositCost": "73600",
						"executionCost": "121",
						"totalCost": "73721"
					},
					"external": {
						"cancel()": "24420",
						"get()": "2332",
						"mike()": "2393",
						"reset()": "24370",
						"set(uint8)": "24495"
					}
				},
				"methodIdentifiers": {
					"cancel()": "ea8a1af0",
					"get()": "6d4ce63c",
					"mike()": "e86bc6ea",
					"reset()": "d826f88f",
					"set(uint8)": "24b8ba5f"
				}
			},
			"storageLayout": {
				"storage": [
					{
						"astId": 10,
						"contract": "enum.sol:Shipping",
						"label": "mike",
						"offset": 0,
						"slot": "0",
						"type": "t_enum(ship)7"
					}
				],
				"types": {
					"t_enum(ship)7": {
						"encoding": "inplace",
						"label": "enum Shipping.ship",
						"numberOfBytes": "1"
					}
				}
			},
			"userdoc": {
				"kind": "user",
				"methods": {},
				"version": 1
			}
		}
	}
}