{
	"interface.sol": {
		"ERC20": {
			"abi": [
				{
					"anonymous": false,
					"inputs": [
						{
							"indexed": true,
							"internalType": "address",
							"name": "owner",
							"type": "address"
						},
						{
							"indexed": true,
							"internalType": "address",
							"name": "spender",
							"type": "address"
						},
						{
							"indexed": false,
							"internalType": "uint256",
							"name": "value",
							"type": "uint256"
						}
					],
					"name": "Approval",
					"type": "event"
				},
				{
					"anonymous": false,
					"inputs": [
						{
							"indexed": true,
							"internalType": "address",
							"name": "from",
							"type": "address"
						},
						{
							"indexed": false,
							"internalType": "address",
							"name": "to",
							"type": "address"
						},
						{
							"indexed": false,
							"internalType": "uint256",
							"name": "value",
							"type": "uint256"
						}
					],
					"name": "Transfer",
					"type": "event"
				},
				{
					"inputs": [
						{
							"internalType": "address",
							"name": "",
							"type": "address"
						},
						{
							"internalType": "address",
							"name": "",
							"type": "address"
						}
					],
					"name": "allowance",
					"outputs": [
						{
							"internalType": "uint256",
							"name": "",
							"type": "uint256"
						}
					],
					"stateMutability": "view",
					"type": "function"
				},
				{
					"inputs": [
						{
							"internalType": "address",
							"name": "spender",
							"type": "address"
						},
						{
							"internalType": "uint256",
							"name": "amount",
							"type": "uint256"
						}
					],
					"name": "approve",
					"outputs": [
						{
							"internalType": "bool",
							"name": "",
							"type": "bool"
						}
					],
					"stateMutability": "nonpayable",
					"type": "function"
				},
				{
					"inputs": [
						{
							"internalType": "address",
							"name": "",
							"type": "address"
						}
					],
					"name": "balanceOf",
					"outputs": [
						{
							"internalType": "uint256",
							"name": "",
							"type": "uint256"
						}
					],
					"stateMutability": "view",
					"type": "function"
				},
				{
					"inputs": [
						{
							"internalType": "uint256",
							"name": "amount",
							"type": "uint256"
						}
					],
					"name": "burn",
					"outputs": [],
					"stateMutability": "nonpayable",
					"type": "function"
				},
				{
					"inputs": [],
					"name": "decimal",
					"outputs": [
						{
							"internalType": "uint256",
							"name": "",
							"type": "uint256"
						}
					],
					"stateMutability": "view",
					"type": "function"
				},
				{
					"inputs": [
						{
							"internalType": "uint256",
							"name": "amount",
							"type": "uint256"
						}
					],
					"name": "mint",
					"outputs": [],
					"stateMutability": "nonpayable",
					"type": "function"
				},
				{
					"inputs": [],
					"name": "name",
					"outputs": [
						{
							"internalType": "string",
							"name": "",
							"type": "string"
						}
					],
					"stateMutability": "view",
					"type": "function"
				},
				{
					"inputs": [],
					"name": "symbol",
					"outputs": [
						{
							"internalType": "string",
							"name": "",
							"type": "string"
						}
					],
					"stateMutability": "view",
					"type": "function"
				},
				{
					"inputs": [],
					"name": "totalSupply",
					"outputs": [
						{
							"internalType": "uint256",
							"name": "",
							"type": "uint256"
						}
					],
					"stateMutability": "view",
					"type": "function"
				},
				{
					"inputs": [
						{
							"internalType": "address",
							"name": "recepient",
							"type": "address"
						},
						{
							"internalType": "uint256",
							"name": "amount",
							"type": "uint256"
						}
					],
					"name": "transfer",
					"outputs": [
						{
							"internalType": "bool",
							"name": "",
							"type": "bool"
						}
					],
					"stateMutability": "nonpayable",
					"type": "function"
				},
				{
					"inputs": [
						{
							"internalType": "address",
							"name": "sender",
							"type": "address"
						},
						{
							"internalType": "address",
							"name": "recepient",
							"type": "address"
						},
						{
							"internalType": "uint256",
							"name": "amount",
							"type": "uint256"
						}
					],
					"name": "transferFrom",
					"outputs": [
						{
							"internalType": "bool",
							"name": "",
							"type": "bool"
						}
					],
					"stateMutability": "payable",
					"type": "function"
				}
			],
			"devdoc": {
				"kind": "dev",
				"methods": {},
				"version": 1
			},
			"evm": {
				"assembly": "    /* \"interface.sol\":1928:1964  string public name =\"MACKEY'S TOKEN\" */\n  0xc0\n    /* \"interface.sol\":1735:3077  contract ERC20 is IERC20 {... */\n  0x40\n    /* \"interface.sol\":1928:1964  string public name =\"MACKEY'S TOKEN\" */\n  mstore\n  0x0e\n    /* \"interface.sol\":1735:3077  contract ERC20 is IERC20 {... */\n  0x80\n    /* \"interface.sol\":1928:1964  string public name =\"MACKEY'S TOKEN\" */\n  swap1\n  dup2\n  mstore\n  mstore(0xa0, shl(0x91, 0x26a0a1a5a2ac93a9902a27a5a2a7))\n  0x03\n  swap1\n  tag_1\n  swap1\n  dup3\n  tag_2\n  jump\t// in\ntag_1:\n  pop\n    /* \"interface.sol\":1967:1996  string public symbol =\"MACTK\" */\n  0x40\n  dup1\n  mload\n  dup1\n  dup3\n  add\n  swap1\n  swap2\n  mstore\n  0x05\n  dup2\n  mstore\n  shl(0xd8, 0x4d4143544b)\n  0x20\n  dup3\n  add\n  mstore\n  0x04\n  swap1\n  tag_3\n  swap1\n  dup3\n  tag_2\n  jump\t// in\ntag_3:\n  pop\n    /* \"interface.sol\":2021:2023  18 */\n  0x12\n    /* \"interface.sol\":1999:2023  uint public decimal = 18 */\n  0x05\n  sstore\n    /* \"interface.sol\":1735:3077  contract ERC20 is IERC20 {... */\n  callvalue\n  dup1\n  iszero\n  tag_4\n  jumpi\n  0x00\n  dup1\n  revert\ntag_4:\n  pop\n  jump(tag_11)\n    /* \"#utility.yul\":14:141   */\ntag_6:\n    /* \"#utility.yul\":75:85   */\n  0x4e487b71\n    /* \"#utility.yul\":70:73   */\n  0xe0\n    /* \"#utility.yul\":66:86   */\n  shl\n    /* \"#utility.yul\":63:64   */\n  0x00\n    /* \"#utility.yul\":56:87   */\n  mstore\n    /* \"#utility.yul\":106:110   */\n  0x41\n    /* \"#utility.yul\":103:104   */\n  0x04\n    /* \"#utility.yul\":96:111   */\n  mstore\n    /* \"#utility.yul\":130:134   */\n  0x24\n    /* \"#utility.yul\":127:128   */\n  0x00\n    /* \"#utility.yul\":120:135   */\n  revert\n    /* \"#utility.yul\":146:526   */\ntag_7:\n    /* \"#utility.yul\":225:226   */\n  0x01\n    /* \"#utility.yul\":221:233   */\n  dup2\n  dup2\n  shr\n  swap1\n    /* \"#utility.yul\":268:280   */\n  dup3\n  and\n  dup1\n    /* \"#utility.yul\":289:350   */\n  tag_14\n  jumpi\n    /* \"#utility.yul\":343:347   */\n  0x7f\n    /* \"#utility.yul\":335:341   */\n  dup3\n    /* \"#utility.yul\":331:348   */\n  and\n    /* \"#utility.yul\":321:348   */\n  swap2\n  pop\n    /* \"#utility.yul\":289:350   */\ntag_14:\n    /* \"#utility.yul\":396:398   */\n  0x20\n    /* \"#utility.yul\":388:394   */\n  dup3\n    /* \"#utility.yul\":385:399   */\n  lt\n    /* \"#utility.yul\":365:383   */\n  dup2\n    /* \"#utility.yul\":362:400   */\n  sub\n    /* \"#utility.yul\":359:520   */\n  tag_15\n  jumpi\n    /* \"#utility.yul\":442:452   */\n  0x4e487b71\n    /* \"#utility.yul\":437:440   */\n  0xe0\n    /* \"#utility.yul\":433:453   */\n  shl\n    /* \"#utility.yul\":430:431   */\n  0x00\n    /* \"#utility.yul\":423:454   */\n  mstore\n    /* \"#utility.yul\":477:481   */\n  0x22\n    /* \"#utility.yul\":474:475   */\n  0x04\n    /* \"#utility.yul\":467:482   */\n  mstore\n    /* \"#utility.yul\":505:509   */\n  0x24\n    /* \"#utility.yul\":502:503   */\n  0x00\n    /* \"#utility.yul\":495:510   */\n  revert\n    /* \"#utility.yul\":359:520   */\ntag_15:\n  pop\n    /* \"#utility.yul\":146:526   */\n  swap2\n  swap1\n  pop\n  jump\t// out\n    /* \"#utility.yul\":657:1175   */\ntag_9:\n    /* \"#utility.yul\":759:761   */\n  0x1f\n    /* \"#utility.yul\":754:757   */\n  dup3\n    /* \"#utility.yul\":751:762   */\n  gt\n    /* \"#utility.yul\":748:1169   */\n  iszero\n  tag_18\n  jumpi\n    /* \"#utility.yul\":795:800   */\n  dup1\n    /* \"#utility.yul\":792:793   */\n  0x00\n    /* \"#utility.yul\":785:801   */\n  mstore\n    /* \"#utility.yul\":839:843   */\n  0x20\n    /* \"#utility.yul\":836:837   */\n  0x00\n    /* \"#utility.yul\":826:844   */\n  keccak256\n    /* \"#utility.yul\":909:911   */\n  0x1f\n    /* \"#utility.yul\":897:907   */\n  dup5\n    /* \"#utility.yul\":893:912   */\n  add\n    /* \"#utility.yul\":890:891   */\n  0x05\n    /* \"#utility.yul\":886:913   */\n  shr\n    /* \"#utility.yul\":880:884   */\n  dup2\n    /* \"#utility.yul\":876:914   */\n  add\n    /* \"#utility.yul\":945:949   */\n  0x20\n    /* \"#utility.yul\":933:943   */\n  dup6\n    /* \"#utility.yul\":930:950   */\n  lt\n    /* \"#utility.yul\":927:974   */\n  iszero\n  tag_19\n  jumpi\n  pop\n    /* \"#utility.yul\":968:972   */\n  dup1\n    /* \"#utility.yul\":927:974   */\ntag_19:\n    /* \"#utility.yul\":1023:1025   */\n  0x1f\n    /* \"#utility.yul\":1018:1021   */\n  dup5\n    /* \"#utility.yul\":1014:1026   */\n  add\n    /* \"#utility.yul\":1011:1012   */\n  0x05\n    /* \"#utility.yul\":1007:1027   */\n  shr\n    /* \"#utility.yul\":1001:1005   */\n  dup3\n    /* \"#utility.yul\":997:1028   */\n  add\n    /* \"#utility.yul\":987:1028   */\n  swap2\n  pop\n    /* \"#utility.yul\":1078:1159   */\ntag_20:\n    /* \"#utility.yul\":1096:1098   */\n  dup2\n    /* \"#utility.yul\":1089:1094   */\n  dup2\n    /* \"#utility.yul\":1086:1099   */\n  lt\n    /* \"#utility.yul\":1078:1159   */\n  iszero\n  tag_22\n  jumpi\n    /* \"#utility.yul\":1155:1156   */\n  0x00\n    /* \"#utility.yul\":1141:1157   */\n  dup2\n  sstore\n    /* \"#utility.yul\":1122:1123   */\n  0x01\n    /* \"#utility.yul\":1111:1124   */\n  add\n    /* \"#utility.yul\":1078:1159   */\n  jump(tag_20)\ntag_22:\n    /* \"#utility.yul\":1082:1085   */\n  pop\n  pop\n    /* \"#utility.yul\":748:1169   */\ntag_18:\n    /* \"#utility.yul\":657:1175   */\n  pop\n  pop\n  pop\n  jump\t// out\n    /* \"#utility.yul\":1351:2696   */\ntag_2:\n    /* \"#utility.yul\":1471:1481   */\n  dup2\n  mload\n  sub(shl(0x40, 0x01), 0x01)\n    /* \"#utility.yul\":1493:1523   */\n  dup2\n  gt\n    /* \"#utility.yul\":1490:1546   */\n  iszero\n  tag_26\n  jumpi\n    /* \"#utility.yul\":1526:1544   */\n  tag_26\n  tag_6\n  jump\t// in\ntag_26:\n    /* \"#utility.yul\":1555:1652   */\n  tag_27\n    /* \"#utility.yul\":1645:1651   */\n  dup2\n    /* \"#utility.yul\":1605:1643   */\n  tag_28\n    /* \"#utility.yul\":1637:1641   */\n  dup5\n    /* \"#utility.yul\":1631:1642   */\n  sload\n    /* \"#utility.yul\":1605:1643   */\n  tag_7\n  jump\t// in\ntag_28:\n    /* \"#utility.yul\":1599:1603   */\n  dup5\n    /* \"#utility.yul\":1555:1652   */\n  tag_9\n  jump\t// in\ntag_27:\n    /* \"#utility.yul\":1707:1711   */\n  0x20\n  dup1\n    /* \"#utility.yul\":1764:1766   */\n  0x1f\n    /* \"#utility.yul\":1753:1767   */\n  dup4\n  gt\n    /* \"#utility.yul\":1781:1782   */\n  0x01\n    /* \"#utility.yul\":1776:2439   */\n  dup2\n  eq\n  tag_30\n  jumpi\n    /* \"#utility.yul\":2483:2484   */\n  0x00\n    /* \"#utility.yul\":2500:2506   */\n  dup5\n    /* \"#utility.yul\":2497:2586   */\n  iszero\n  tag_31\n  jumpi\n  pop\n    /* \"#utility.yul\":2552:2571   */\n  dup6\n  dup4\n  add\n    /* \"#utility.yul\":2546:2572   */\n  mload\n    /* \"#utility.yul\":2497:2586   */\ntag_31:\n  not(0x00)\n    /* \"#utility.yul\":1308:1309   */\n  0x03\n    /* \"#utility.yul\":1304:1315   */\n  dup7\n  swap1\n  shl\n    /* \"#utility.yul\":1300:1324   */\n  shr\n    /* \"#utility.yul\":1296:1325   */\n  not\n    /* \"#utility.yul\":1286:1326   */\n  and\n    /* \"#utility.yul\":1332:1333   */\n  0x01\n    /* \"#utility.yul\":1328:1339   */\n  dup6\n  swap1\n  shl\n    /* \"#utility.yul\":1283:1340   */\n  or\n    /* \"#utility.yul\":2599:2680   */\n  dup6\n  sstore\n    /* \"#utility.yul\":1746:2690   */\n  jump(tag_29)\n    /* \"#utility.yul\":1776:2439   */\ntag_30:\n    /* \"#utility.yul\":604:605   */\n  0x00\n    /* \"#utility.yul\":597:611   */\n  dup6\n  dup2\n  mstore\n    /* \"#utility.yul\":641:645   */\n  0x20\n    /* \"#utility.yul\":628:646   */\n  dup2\n  keccak256\n  not(0x1f)\n    /* \"#utility.yul\":1812:1832   */\n  dup7\n  and\n  swap2\n    /* \"#utility.yul\":1930:2166   */\ntag_34:\n    /* \"#utility.yul\":1944:1951   */\n  dup3\n    /* \"#utility.yul\":1941:1942   */\n  dup2\n    /* \"#utility.yul\":1938:1952   */\n  lt\n    /* \"#utility.yul\":1930:2166   */\n  iszero\n  tag_36\n  jumpi\n    /* \"#utility.yul\":2033:2052   */\n  dup9\n  dup7\n  add\n    /* \"#utility.yul\":2027:2053   */\n  mload\n    /* \"#utility.yul\":2012:2054   */\n  dup3\n  sstore\n    /* \"#utility.yul\":2125:2152   */\n  swap5\n  dup5\n  add\n  swap5\n    /* \"#utility.yul\":2093:2094   */\n  0x01\n    /* \"#utility.yul\":2081:2095   */\n  swap1\n  swap2\n  add\n  swap1\n    /* \"#utility.yul\":1960:1979   */\n  dup5\n  add\n    /* \"#utility.yul\":1930:2166   */\n  jump(tag_34)\ntag_36:\n    /* \"#utility.yul\":1934:1937   */\n  pop\n    /* \"#utility.yul\":2194:2200   */\n  dup6\n    /* \"#utility.yul\":2185:2192   */\n  dup3\n    /* \"#utility.yul\":2182:2201   */\n  lt\n    /* \"#utility.yul\":2179:2380   */\n  iszero\n  tag_37\n  jumpi\n    /* \"#utility.yul\":2255:2274   */\n  dup8\n  dup6\n  add\n    /* \"#utility.yul\":2249:2275   */\n  mload\n  not(0x00)\n    /* \"#utility.yul\":2338:2339   */\n  0x03\n    /* \"#utility.yul\":2334:2348   */\n  dup9\n  swap1\n  shl\n    /* \"#utility.yul\":2350:2353   */\n  0xf8\n    /* \"#utility.yul\":2330:2354   */\n  and\n    /* \"#utility.yul\":2326:2363   */\n  shr\n    /* \"#utility.yul\":2322:2364   */\n  not\n    /* \"#utility.yul\":2307:2365   */\n  and\n    /* \"#utility.yul\":2292:2366   */\n  dup2\n  sstore\n    /* \"#utility.yul\":2179:2380   */\ntag_37:\n  pop\n  pop\n    /* \"#utility.yul\":2426:2427   */\n  0x01\n    /* \"#utility.yul\":2417:2423   */\n  dup5\n    /* \"#utility.yul\":2414:2415   */\n  0x01\n    /* \"#utility.yul\":2410:2424   */\n  shl\n    /* \"#utility.yul\":2406:2428   */\n  add\n    /* \"#utility.yul\":2400:2404   */\n  dup6\n    /* \"#utility.yul\":2393:2429   */\n  sstore\n    /* \"#utility.yul\":1746:2690   */\ntag_29:\n  pop\n  pop\n  pop\n  pop\n    /* \"#utility.yul\":1351:2696   */\n  pop\n  pop\n  jump\t// out\ntag_11:\n    /* \"interface.sol\":1735:3077  contract ERC20 is IERC20 {... */\n  dataSize(sub_0)\n  dup1\n  dataOffset(sub_0)\n  0x00\n  codecopy\n  0x00\n  return\nstop\n\nsub_0: assembly {\n        /* \"interface.sol\":1735:3077  contract ERC20 is IERC20 {... */\n      mstore(0x40, 0x80)\n      jumpi(tag_1, lt(calldatasize, 0x04))\n      shr(0xe0, calldataload(0x00))\n      dup1\n      0x70a08231\n      gt\n      tag_13\n      jumpi\n      dup1\n      0x70a08231\n      eq\n      tag_7\n      jumpi\n      dup1\n      0x76809ce3\n      eq\n      tag_8\n      jumpi\n      dup1\n      0x95d89b41\n      eq\n      tag_9\n      jumpi\n      dup1\n      0xa0712d68\n      eq\n      tag_10\n      jumpi\n      dup1\n      0xa9059cbb\n      eq\n      tag_11\n      jumpi\n      dup1\n      0xdd62ed3e\n      eq\n      tag_12\n      jumpi\n      0x00\n      dup1\n      revert\n    tag_13:\n      dup1\n      0x06fdde03\n      eq\n      tag_2\n      jumpi\n      dup1\n      0x095ea7b3\n      eq\n      tag_3\n      jumpi\n      dup1\n      0x18160ddd\n      eq\n      tag_4\n      jumpi\n      dup1\n      0x23b872dd\n      eq\n      tag_5\n      jumpi\n      dup1\n      0x42966c68\n      eq\n      tag_6\n      jumpi\n    tag_1:\n      0x00\n      dup1\n      revert\n        /* \"interface.sol\":1928:1964  string public name =\"MACKEY'S TOKEN\" */\n    tag_2:\n      callvalue\n      dup1\n      iszero\n      tag_14\n      jumpi\n      0x00\n      dup1\n      revert\n    tag_14:\n      pop\n      tag_15\n      tag_16\n      jump\t// in\n    tag_15:\n      mload(0x40)\n      tag_17\n      swap2\n      swap1\n      tag_18\n      jump\t// in\n    tag_17:\n      mload(0x40)\n      dup1\n      swap2\n      sub\n      swap1\n      return\n        /* \"interface.sol\":2250:2433  function approve(address spender,uint amount)... */\n    tag_3:\n      callvalue\n      dup1\n      iszero\n      tag_19\n      jumpi\n      0x00\n      dup1\n      revert\n    tag_19:\n      pop\n      tag_20\n      tag_21\n      calldatasize\n      0x04\n      tag_22\n      jump\t// in\n    tag_21:\n      tag_23\n      jump\t// in\n    tag_20:\n      mload(0x40)\n        /* \"#utility.yul\":1169:1183   */\n      swap1\n      iszero\n        /* \"#utility.yul\":1162:1184   */\n      iszero\n        /* \"#utility.yul\":1144:1185   */\n      dup2\n      mstore\n        /* \"#utility.yul\":1132:1134   */\n      0x20\n        /* \"#utility.yul\":1117:1135   */\n      add\n        /* \"interface.sol\":2250:2433  function approve(address spender,uint amount)... */\n      tag_17\n        /* \"#utility.yul\":1004:1191   */\n      jump\n        /* \"interface.sol\":1765:1797  uint public override totalSupply */\n    tag_4:\n      callvalue\n      dup1\n      iszero\n      tag_26\n      jumpi\n      0x00\n      dup1\n      revert\n    tag_26:\n      pop\n      tag_27\n      sload(0x00)\n      dup2\n      jump\n    tag_27:\n      mload(0x40)\n        /* \"#utility.yul\":1342:1367   */\n      swap1\n      dup2\n      mstore\n        /* \"#utility.yul\":1330:1332   */\n      0x20\n        /* \"#utility.yul\":1315:1333   */\n      add\n        /* \"interface.sol\":1765:1797  uint public override totalSupply */\n      tag_17\n        /* \"#utility.yul\":1196:1373   */\n      jump\n        /* \"interface.sol\":2435:2767  function transferFrom(address sender,address recepient,uint amount)... */\n    tag_5:\n      tag_20\n      tag_32\n      calldatasize\n      0x04\n      tag_33\n      jump\t// in\n    tag_32:\n      tag_34\n      jump\t// in\n        /* \"interface.sol\":2917:3074  function burn(uint amount) external {... */\n    tag_6:\n      callvalue\n      dup1\n      iszero\n      tag_36\n      jumpi\n      0x00\n      dup1\n      revert\n    tag_36:\n      pop\n      tag_37\n      tag_38\n      calldatasize\n      0x04\n      tag_39\n      jump\t// in\n    tag_38:\n      tag_40\n      jump\t// in\n    tag_37:\n      stop\n        /* \"interface.sol\":1802:1852  mapping(address => uint) public override balanceOf */\n    tag_7:\n      callvalue\n      dup1\n      iszero\n      tag_41\n      jumpi\n      0x00\n      dup1\n      revert\n    tag_41:\n      pop\n      tag_27\n      tag_43\n      calldatasize\n      0x04\n      tag_44\n      jump\t// in\n    tag_43:\n      mstore(0x20, 0x01)\n      0x00\n      swap1\n      dup2\n      mstore\n      0x40\n      swap1\n      keccak256\n      sload\n      dup2\n      jump\n        /* \"interface.sol\":1999:2023  uint public decimal = 18 */\n    tag_8:\n      callvalue\n      dup1\n      iszero\n      tag_47\n      jumpi\n      0x00\n      dup1\n      revert\n    tag_47:\n      pop\n      tag_27\n      sload(0x05)\n      dup2\n      jump\n        /* \"interface.sol\":1967:1996  string public symbol =\"MACTK\" */\n    tag_9:\n      callvalue\n      dup1\n      iszero\n      tag_51\n      jumpi\n      0x00\n      dup1\n      revert\n    tag_51:\n      pop\n      tag_15\n      tag_53\n      jump\t// in\n        /* \"interface.sol\":2769:2915  function mint(uint amount) external {... */\n    tag_10:\n      callvalue\n      dup1\n      iszero\n      tag_55\n      jumpi\n      0x00\n      dup1\n      revert\n    tag_55:\n      pop\n      tag_37\n      tag_57\n      calldatasize\n      0x04\n      tag_39\n      jump\t// in\n    tag_57:\n      tag_58\n      jump\t// in\n        /* \"interface.sol\":2029:2248  function transfer(address recepient, uint amount)... */\n    tag_11:\n      callvalue\n      dup1\n      iszero\n      tag_59\n      jumpi\n      0x00\n      dup1\n      revert\n    tag_59:\n      pop\n      tag_20\n      tag_61\n      calldatasize\n      0x04\n      tag_22\n      jump\t// in\n    tag_61:\n      tag_62\n      jump\t// in\n        /* \"interface.sol\":1855:1925  mapping(address => mapping(address => uint)) public override allowance */\n    tag_12:\n      callvalue\n      dup1\n      iszero\n      tag_64\n      jumpi\n      0x00\n      dup1\n      revert\n    tag_64:\n      pop\n      tag_27\n      tag_66\n      calldatasize\n      0x04\n      tag_67\n      jump\t// in\n    tag_66:\n      0x02\n      0x20\n      swap1\n      dup2\n      mstore\n      0x00\n      swap3\n      dup4\n      mstore\n      0x40\n      dup1\n      dup5\n      keccak256\n      swap1\n      swap2\n      mstore\n      swap1\n      dup3\n      mstore\n      swap1\n      keccak256\n      sload\n      dup2\n      jump\n        /* \"interface.sol\":1928:1964  string public name =\"MACKEY'S TOKEN\" */\n    tag_16:\n      0x03\n      dup1\n      sload\n      tag_70\n      swap1\n      tag_71\n      jump\t// in\n    tag_70:\n      dup1\n      0x1f\n      add\n      0x20\n      dup1\n      swap2\n      div\n      mul\n      0x20\n      add\n      mload(0x40)\n      swap1\n      dup2\n      add\n      0x40\n      mstore\n      dup1\n      swap3\n      swap2\n      swap1\n      dup2\n      dup2\n      mstore\n      0x20\n      add\n      dup3\n      dup1\n      sload\n      tag_72\n      swap1\n      tag_71\n      jump\t// in\n    tag_72:\n      dup1\n      iszero\n      tag_73\n      jumpi\n      dup1\n      0x1f\n      lt\n      tag_74\n      jumpi\n      0x0100\n      dup1\n      dup4\n      sload\n      div\n      mul\n      dup4\n      mstore\n      swap2\n      0x20\n      add\n      swap2\n      jump(tag_73)\n    tag_74:\n      dup3\n      add\n      swap2\n      swap1\n      0x00\n      mstore\n      keccak256(0x00, 0x20)\n      swap1\n    tag_75:\n      dup2\n      sload\n      dup2\n      mstore\n      swap1\n      0x01\n      add\n      swap1\n      0x20\n      add\n      dup1\n      dup4\n      gt\n      tag_75\n      jumpi\n      dup3\n      swap1\n      sub\n      0x1f\n      and\n      dup3\n      add\n      swap2\n    tag_73:\n      pop\n      pop\n      pop\n      pop\n      pop\n      dup2\n      jump\t// out\n        /* \"interface.sol\":2250:2433  function approve(address spender,uint amount)... */\n    tag_23:\n        /* \"interface.sol\":2341:2351  msg.sender */\n      caller\n        /* \"interface.sol\":2323:2327  bool */\n      0x00\n        /* \"interface.sol\":2331:2352  allowance[msg.sender] */\n      dup2\n      dup2\n      mstore\n        /* \"interface.sol\":2331:2340  allowance */\n      0x02\n        /* \"interface.sol\":2331:2352  allowance[msg.sender] */\n      0x20\n      swap1\n      dup2\n      mstore\n      0x40\n      dup1\n      dup4\n      keccak256\n      sub(shl(0xa0, 0x01), 0x01)\n        /* \"interface.sol\":2331:2361  allowance[msg.sender][spender] */\n      dup8\n      and\n      dup1\n      dup6\n      mstore\n      swap3\n      mstore\n      dup1\n      dup4\n      keccak256\n        /* \"interface.sol\":2331:2370  allowance[msg.sender][spender] = amount */\n      dup6\n      swap1\n      sstore\n        /* \"interface.sol\":2380:2415  Approval(msg.sender,spender,amount) */\n      mload\n        /* \"interface.sol\":2323:2327  bool */\n      swap2\n      swap3\n        /* \"interface.sol\":2331:2361  allowance[msg.sender][spender] */\n      swap1\n      swap2\n        /* \"interface.sol\":2380:2415  Approval(msg.sender,spender,amount) */\n      0x8c5be1e5ebec7d5bd14f71427d1e84f3dd0314c0f7b2291e5b200ac8c7c3b925\n      swap1\n      tag_77\n      swap1\n        /* \"interface.sol\":2364:2370  amount */\n      dup7\n        /* \"#utility.yul\":1342:1367   */\n      dup2\n      mstore\n        /* \"#utility.yul\":1330:1332   */\n      0x20\n        /* \"#utility.yul\":1315:1333   */\n      add\n      swap1\n        /* \"#utility.yul\":1196:1373   */\n      jump\n        /* \"interface.sol\":2380:2415  Approval(msg.sender,spender,amount) */\n    tag_77:\n      mload(0x40)\n      dup1\n      swap2\n      sub\n      swap1\n      log3\n      pop\n        /* \"interface.sol\":2425:2429  true */\n      0x01\n        /* \"interface.sol\":2250:2433  function approve(address spender,uint amount)... */\n    tag_76:\n      swap3\n      swap2\n      pop\n      pop\n      jump\t// out\n        /* \"interface.sol\":2435:2767  function transferFrom(address sender,address recepient,uint amount)... */\n    tag_34:\n      sub(shl(0xa0, 0x01), 0x01)\n        /* \"interface.sol\":2547:2564  allowance[sender] */\n      dup4\n      and\n        /* \"interface.sol\":2539:2543  bool */\n      0x00\n        /* \"interface.sol\":2547:2564  allowance[sender] */\n      swap1\n      dup2\n      mstore\n        /* \"interface.sol\":2547:2556  allowance */\n      0x02\n        /* \"interface.sol\":2547:2564  allowance[sender] */\n      0x20\n      swap1\n      dup2\n      mstore\n      0x40\n      dup1\n      dup4\n      keccak256\n        /* \"interface.sol\":2565:2575  msg.sender */\n      caller\n        /* \"interface.sol\":2547:2576  allowance[sender][msg.sender] */\n      dup5\n      mstore\n      swap1\n      swap2\n      mstore\n      dup2\n      keccak256\n        /* \"interface.sol\":2547:2586  allowance[sender][msg.sender] -= amount */\n      dup1\n      sload\n        /* \"interface.sol\":2580:2586  amount */\n      dup4\n      swap2\n        /* \"interface.sol\":2547:2576  allowance[sender][msg.sender] */\n      swap1\n        /* \"interface.sol\":2539:2543  bool */\n      dup4\n      swap1\n        /* \"interface.sol\":2547:2586  allowance[sender][msg.sender] -= amount */\n      tag_79\n      swap1\n        /* \"interface.sol\":2580:2586  amount */\n      dup5\n      swap1\n        /* \"interface.sol\":2547:2586  allowance[sender][msg.sender] -= amount */\n      tag_80\n      jump\t// in\n    tag_79:\n      swap1\n      swap2\n      sstore\n      pop\n      pop\n      sub(shl(0xa0, 0x01), 0x01)\n        /* \"interface.sol\":2590:2607  balanceOf[sender] */\n      dup5\n      and\n      0x00\n      swap1\n      dup2\n      mstore\n        /* \"interface.sol\":2590:2599  balanceOf */\n      0x01\n        /* \"interface.sol\":2590:2607  balanceOf[sender] */\n      0x20\n      mstore\n      0x40\n      dup2\n      keccak256\n        /* \"interface.sol\":2590:2617  balanceOf[sender] -= amount */\n      dup1\n      sload\n        /* \"interface.sol\":2611:2617  amount */\n      dup5\n      swap3\n        /* \"interface.sol\":2590:2607  balanceOf[sender] */\n      swap1\n        /* \"interface.sol\":2590:2617  balanceOf[sender] -= amount */\n      tag_81\n      swap1\n        /* \"interface.sol\":2611:2617  amount */\n      dup5\n      swap1\n        /* \"interface.sol\":2590:2617  balanceOf[sender] -= amount */\n      tag_80\n      jump\t// in\n    tag_81:\n      swap1\n      swap2\n      sstore\n      pop\n      pop\n      sub(shl(0xa0, 0x01), 0x01)\n        /* \"interface.sol\":2675:2695  balanceOf[recepient] */\n      dup4\n      and\n      0x00\n      swap1\n      dup2\n      mstore\n        /* \"interface.sol\":2675:2684  balanceOf */\n      0x01\n        /* \"interface.sol\":2675:2695  balanceOf[recepient] */\n      0x20\n      mstore\n      0x40\n      dup2\n      keccak256\n        /* \"interface.sol\":2675:2705  balanceOf[recepient] += amount */\n      dup1\n      sload\n        /* \"interface.sol\":2699:2705  amount */\n      dup5\n      swap3\n        /* \"interface.sol\":2675:2695  balanceOf[recepient] */\n      swap1\n        /* \"interface.sol\":2675:2705  balanceOf[recepient] += amount */\n      tag_82\n      swap1\n        /* \"interface.sol\":2699:2705  amount */\n      dup5\n      swap1\n        /* \"interface.sol\":2675:2705  balanceOf[recepient] += amount */\n      tag_83\n      jump\t// in\n    tag_82:\n      swap1\n      swap2\n      sstore\n      pop\n      pop\n        /* \"interface.sol\":2714:2749  Transfer(sender, recepient, amount) */\n      0x40\n      dup1\n      mload\n      sub(shl(0xa0, 0x01), 0x01)\n        /* \"#utility.yul\":3324:3356   */\n      dup6\n      dup2\n      and\n        /* \"#utility.yul\":3306:3357   */\n      dup3\n      mstore\n        /* \"#utility.yul\":3388:3390   */\n      0x20\n        /* \"#utility.yul\":3373:3391   */\n      dup3\n      add\n        /* \"#utility.yul\":3366:3400   */\n      dup6\n      swap1\n      mstore\n        /* \"interface.sol\":2714:2749  Transfer(sender, recepient, amount) */\n      dup7\n      and\n      swap2\n      0x00\n      dup1\n      mload\n      0x20\n      data_ada389e1fc24a8587c776340efb91b36e675792ab631816100d55df0b5cf3cbc\n      dup4\n      codecopy\n      dup2\n      mload\n      swap2\n      mstore\n      swap2\n        /* \"#utility.yul\":3279:3297   */\n      add\n        /* \"interface.sol\":2714:2749  Transfer(sender, recepient, amount) */\n      mload(0x40)\n      dup1\n      swap2\n      sub\n      swap1\n      log2\n      pop\n        /* \"interface.sol\":2759:2763  true */\n      0x01\n        /* \"interface.sol\":2435:2767  function transferFrom(address sender,address recepient,uint amount)... */\n      swap4\n      swap3\n      pop\n      pop\n      pop\n      jump\t// out\n        /* \"interface.sol\":2917:3074  function burn(uint amount) external {... */\n    tag_40:\n        /* \"interface.sol\":2969:2979  msg.sender */\n      caller\n        /* \"interface.sol\":2959:2980  balanceOf[msg.sender] */\n      0x00\n      swap1\n      dup2\n      mstore\n        /* \"interface.sol\":2959:2968  balanceOf */\n      0x01\n        /* \"interface.sol\":2959:2980  balanceOf[msg.sender] */\n      0x20\n      mstore\n      0x40\n      dup2\n      keccak256\n        /* \"interface.sol\":2959:2990  balanceOf[msg.sender] -= amount */\n      dup1\n      sload\n        /* \"interface.sol\":2984:2990  amount */\n      dup4\n      swap3\n        /* \"interface.sol\":2959:2980  balanceOf[msg.sender] */\n      swap1\n        /* \"interface.sol\":2959:2990  balanceOf[msg.sender] -= amount */\n      tag_87\n      swap1\n        /* \"interface.sol\":2984:2990  amount */\n      dup5\n      swap1\n        /* \"interface.sol\":2959:2990  balanceOf[msg.sender] -= amount */\n      tag_80\n      jump\t// in\n    tag_87:\n      swap3\n      pop\n      pop\n      dup2\n      swap1\n      sstore\n      pop\n        /* \"interface.sol\":3012:3018  amount */\n      dup1\n        /* \"interface.sol\":2997:3008  totalSupply */\n      0x00\n      dup1\n        /* \"interface.sol\":2997:3018  totalSupply -= amount */\n      dup3\n      dup3\n      sload\n      tag_88\n      swap2\n      swap1\n      tag_80\n      jump\t// in\n    tag_88:\n      swap1\n      swap2\n      sstore\n      pop\n      pop\n        /* \"interface.sol\":3030:3070  Transfer(msg.sender, address(0), amount) */\n      0x40\n      dup1\n      mload\n        /* \"interface.sol\":3059:3060  0 */\n      0x00\n        /* \"#utility.yul\":3306:3357   */\n      dup2\n      mstore\n        /* \"#utility.yul\":3388:3390   */\n      0x20\n        /* \"#utility.yul\":3373:3391   */\n      dup2\n      add\n        /* \"#utility.yul\":3366:3400   */\n      dup4\n      swap1\n      mstore\n        /* \"interface.sol\":3039:3049  msg.sender */\n      caller\n      swap2\n      0x00\n      dup1\n      mload\n      0x20\n      data_ada389e1fc24a8587c776340efb91b36e675792ab631816100d55df0b5cf3cbc\n      dup4\n      codecopy\n      dup2\n      mload\n      swap2\n      mstore\n        /* \"interface.sol\":3030:3070  Transfer(msg.sender, address(0), amount) */\n      swap2\n        /* \"#utility.yul\":3279:3297   */\n      add\n        /* \"interface.sol\":3030:3070  Transfer(msg.sender, address(0), amount) */\n    tag_89:\n      mload(0x40)\n      dup1\n      swap2\n      sub\n      swap1\n      log2\n        /* \"interface.sol\":2917:3074  function burn(uint amount) external {... */\n      pop\n      jump\t// out\n        /* \"interface.sol\":1967:1996  string public symbol =\"MACTK\" */\n    tag_53:\n      0x04\n      dup1\n      sload\n      tag_70\n      swap1\n      tag_71\n      jump\t// in\n        /* \"interface.sol\":2769:2915  function mint(uint amount) external {... */\n    tag_58:\n        /* \"interface.sol\":2818:2828  msg.sender */\n      caller\n        /* \"interface.sol\":2808:2829  balanceOf[msg.sender] */\n      0x00\n      swap1\n      dup2\n      mstore\n        /* \"interface.sol\":2808:2817  balanceOf */\n      0x01\n        /* \"interface.sol\":2808:2829  balanceOf[msg.sender] */\n      0x20\n      mstore\n      0x40\n      dup2\n      keccak256\n        /* \"interface.sol\":2808:2839  balanceOf[msg.sender] += amount */\n      dup1\n      sload\n        /* \"interface.sol\":2833:2839  amount */\n      dup4\n      swap3\n        /* \"interface.sol\":2808:2829  balanceOf[msg.sender] */\n      swap1\n        /* \"interface.sol\":2808:2839  balanceOf[msg.sender] += amount */\n      tag_96\n      swap1\n        /* \"interface.sol\":2833:2839  amount */\n      dup5\n      swap1\n        /* \"interface.sol\":2808:2839  balanceOf[msg.sender] += amount */\n      tag_83\n      jump\t// in\n    tag_96:\n      swap3\n      pop\n      pop\n      dup2\n      swap1\n      sstore\n      pop\n        /* \"interface.sol\":2857:2863  amount */\n      dup1\n        /* \"interface.sol\":2842:2853  totalSupply */\n      0x00\n      dup1\n        /* \"interface.sol\":2842:2863  totalSupply += amount */\n      dup3\n      dup3\n      sload\n      tag_97\n      swap2\n      swap1\n      tag_83\n      jump\t// in\n    tag_97:\n      swap1\n      swap2\n      sstore\n      pop\n      pop\n        /* \"interface.sol\":2871:2911  Transfer(address(0), msg.sender, amount) */\n      0x40\n      dup1\n      mload\n        /* \"interface.sol\":2892:2902  msg.sender */\n      caller\n        /* \"#utility.yul\":3306:3357   */\n      dup2\n      mstore\n        /* \"#utility.yul\":3388:3390   */\n      0x20\n        /* \"#utility.yul\":3373:3391   */\n      dup2\n      add\n        /* \"#utility.yul\":3366:3400   */\n      dup4\n      swap1\n      mstore\n        /* \"interface.sol\":2888:2889  0 */\n      0x00\n      swap2\n      0x00\n      dup1\n      mload\n      0x20\n      data_ada389e1fc24a8587c776340efb91b36e675792ab631816100d55df0b5cf3cbc\n      dup4\n      codecopy\n      dup2\n      mload\n      swap2\n      mstore\n        /* \"interface.sol\":2871:2911  Transfer(address(0), msg.sender, amount) */\n      swap2\n        /* \"#utility.yul\":3279:3297   */\n      add\n        /* \"interface.sol\":2871:2911  Transfer(address(0), msg.sender, amount) */\n      tag_89\n        /* \"#utility.yul\":3132:3406   */\n      jump\n        /* \"interface.sol\":2029:2248  function transfer(address recepient, uint amount)... */\n    tag_62:\n        /* \"interface.sol\":2128:2138  msg.sender */\n      caller\n        /* \"interface.sol\":2106:2110  bool */\n      0x00\n        /* \"interface.sol\":2118:2139  balanceOf[msg.sender] */\n      swap1\n      dup2\n      mstore\n        /* \"interface.sol\":2118:2127  balanceOf */\n      0x01\n        /* \"interface.sol\":2118:2139  balanceOf[msg.sender] */\n      0x20\n      mstore\n      0x40\n      dup2\n      keccak256\n        /* \"interface.sol\":2118:2149  balanceOf[msg.sender] -= amount */\n      dup1\n      sload\n        /* \"interface.sol\":2143:2149  amount */\n      dup4\n      swap2\n        /* \"interface.sol\":2118:2139  balanceOf[msg.sender] */\n      swap1\n        /* \"interface.sol\":2106:2110  bool */\n      dup4\n      swap1\n        /* \"interface.sol\":2118:2149  balanceOf[msg.sender] -= amount */\n      tag_100\n      swap1\n        /* \"interface.sol\":2143:2149  amount */\n      dup5\n      swap1\n        /* \"interface.sol\":2118:2149  balanceOf[msg.sender] -= amount */\n      tag_80\n      jump\t// in\n    tag_100:\n      swap1\n      swap2\n      sstore\n      pop\n      pop\n      sub(shl(0xa0, 0x01), 0x01)\n        /* \"interface.sol\":2152:2172  balanceOf[recepient] */\n      dup4\n      and\n      0x00\n      swap1\n      dup2\n      mstore\n        /* \"interface.sol\":2152:2161  balanceOf */\n      0x01\n        /* \"interface.sol\":2152:2172  balanceOf[recepient] */\n      0x20\n      mstore\n      0x40\n      dup2\n      keccak256\n        /* \"interface.sol\":2152:2182  balanceOf[recepient] += amount */\n      dup1\n      sload\n        /* \"interface.sol\":2176:2182  amount */\n      dup5\n      swap3\n        /* \"interface.sol\":2152:2172  balanceOf[recepient] */\n      swap1\n        /* \"interface.sol\":2152:2182  balanceOf[recepient] += amount */\n      tag_101\n      swap1\n        /* \"interface.sol\":2176:2182  amount */\n      dup5\n      swap1\n        /* \"interface.sol\":2152:2182  balanceOf[recepient] += amount */\n      tag_83\n      jump\t// in\n    tag_101:\n      swap1\n      swap2\n      sstore\n      pop\n      pop\n        /* \"interface.sol\":2193:2230  Transfer(msg.sender,recepient,amount) */\n      0x40\n      dup1\n      mload\n      sub(shl(0xa0, 0x01), 0x01)\n        /* \"#utility.yul\":3324:3356   */\n      dup6\n      and\n        /* \"#utility.yul\":3306:3357   */\n      dup2\n      mstore\n        /* \"#utility.yul\":3388:3390   */\n      0x20\n        /* \"#utility.yul\":3373:3391   */\n      dup2\n      add\n        /* \"#utility.yul\":3366:3400   */\n      dup5\n      swap1\n      mstore\n        /* \"interface.sol\":2202:2212  msg.sender */\n      caller\n      swap2\n      0x00\n      dup1\n      mload\n      0x20\n      data_ada389e1fc24a8587c776340efb91b36e675792ab631816100d55df0b5cf3cbc\n      dup4\n      codecopy\n      dup2\n      mload\n      swap2\n      mstore\n        /* \"interface.sol\":2193:2230  Transfer(msg.sender,recepient,amount) */\n      swap2\n        /* \"#utility.yul\":3279:3297   */\n      add\n        /* \"interface.sol\":2193:2230  Transfer(msg.sender,recepient,amount) */\n      mload(0x40)\n      dup1\n      swap2\n      sub\n      swap1\n      log2\n      pop\n        /* \"interface.sol\":2240:2244  true */\n      0x01\n        /* \"interface.sol\":2029:2248  function transfer(address recepient, uint amount)... */\n      swap3\n      swap2\n      pop\n      pop\n      jump\t// out\n        /* \"#utility.yul\":14:562   */\n    tag_18:\n        /* \"#utility.yul\":126:130   */\n      0x00\n        /* \"#utility.yul\":155:157   */\n      0x20\n        /* \"#utility.yul\":184:186   */\n      dup1\n        /* \"#utility.yul\":173:182   */\n      dup4\n        /* \"#utility.yul\":166:187   */\n      mstore\n        /* \"#utility.yul\":216:222   */\n      dup4\n        /* \"#utility.yul\":210:223   */\n      mload\n        /* \"#utility.yul\":259:265   */\n      dup1\n        /* \"#utility.yul\":254:256   */\n      0x20\n        /* \"#utility.yul\":243:252   */\n      dup6\n        /* \"#utility.yul\":239:257   */\n      add\n        /* \"#utility.yul\":232:266   */\n      mstore\n        /* \"#utility.yul\":284:285   */\n      0x00\n        /* \"#utility.yul\":294:434   */\n    tag_107:\n        /* \"#utility.yul\":308:314   */\n      dup2\n        /* \"#utility.yul\":305:306   */\n      dup2\n        /* \"#utility.yul\":302:315   */\n      lt\n        /* \"#utility.yul\":294:434   */\n      iszero\n      tag_109\n      jumpi\n        /* \"#utility.yul\":403:417   */\n      dup6\n      dup2\n      add\n        /* \"#utility.yul\":399:422   */\n      dup4\n      add\n        /* \"#utility.yul\":393:423   */\n      mload\n        /* \"#utility.yul\":369:386   */\n      dup6\n      dup3\n      add\n        /* \"#utility.yul\":388:390   */\n      0x40\n        /* \"#utility.yul\":365:391   */\n      add\n        /* \"#utility.yul\":358:424   */\n      mstore\n        /* \"#utility.yul\":323:333   */\n      dup3\n      add\n        /* \"#utility.yul\":294:434   */\n      jump(tag_107)\n    tag_109:\n        /* \"#utility.yul\":298:301   */\n      pop\n        /* \"#utility.yul\":483:484   */\n      0x00\n        /* \"#utility.yul\":478:480   */\n      0x40\n        /* \"#utility.yul\":469:475   */\n      dup3\n        /* \"#utility.yul\":458:467   */\n      dup7\n        /* \"#utility.yul\":454:476   */\n      add\n        /* \"#utility.yul\":450:481   */\n      add\n        /* \"#utility.yul\":443:485   */\n      mstore\n        /* \"#utility.yul\":553:555   */\n      0x40\n        /* \"#utility.yul\":546:548   */\n      0x1f\n        /* \"#utility.yul\":542:549   */\n      not\n        /* \"#utility.yul\":537:539   */\n      0x1f\n        /* \"#utility.yul\":529:535   */\n      dup4\n        /* \"#utility.yul\":525:540   */\n      add\n        /* \"#utility.yul\":521:550   */\n      and\n        /* \"#utility.yul\":510:519   */\n      dup6\n        /* \"#utility.yul\":506:551   */\n      add\n        /* \"#utility.yul\":502:556   */\n      add\n        /* \"#utility.yul\":494:556   */\n      swap3\n      pop\n      pop\n      pop\n        /* \"#utility.yul\":14:562   */\n      swap3\n      swap2\n      pop\n      pop\n      jump\t// out\n        /* \"#utility.yul\":567:740   */\n    tag_103:\n        /* \"#utility.yul\":635:655   */\n      dup1\n      calldataload\n      sub(shl(0xa0, 0x01), 0x01)\n        /* \"#utility.yul\":684:715   */\n      dup2\n      and\n        /* \"#utility.yul\":674:716   */\n      dup2\n      eq\n        /* \"#utility.yul\":664:734   */\n      tag_111\n      jumpi\n        /* \"#utility.yul\":730:731   */\n      0x00\n        /* \"#utility.yul\":727:728   */\n      dup1\n        /* \"#utility.yul\":720:732   */\n      revert\n        /* \"#utility.yul\":664:734   */\n    tag_111:\n        /* \"#utility.yul\":567:740   */\n      swap2\n      swap1\n      pop\n      jump\t// out\n        /* \"#utility.yul\":745:999   */\n    tag_22:\n        /* \"#utility.yul\":813:819   */\n      0x00\n        /* \"#utility.yul\":821:827   */\n      dup1\n        /* \"#utility.yul\":874:876   */\n      0x40\n        /* \"#utility.yul\":862:871   */\n      dup4\n        /* \"#utility.yul\":853:860   */\n      dup6\n        /* \"#utility.yul\":849:872   */\n      sub\n        /* \"#utility.yul\":845:877   */\n      slt\n        /* \"#utility.yul\":842:894   */\n      iszero\n      tag_113\n      jumpi\n        /* \"#utility.yul\":890:891   */\n      0x00\n        /* \"#utility.yul\":887:888   */\n      dup1\n        /* \"#utility.yul\":880:892   */\n      revert\n        /* \"#utility.yul\":842:894   */\n    tag_113:\n        /* \"#utility.yul\":913:942   */\n      tag_114\n        /* \"#utility.yul\":932:941   */\n      dup4\n        /* \"#utility.yul\":913:942   */\n      tag_103\n      jump\t// in\n    tag_114:\n        /* \"#utility.yul\":903:942   */\n      swap5\n        /* \"#utility.yul\":989:991   */\n      0x20\n        /* \"#utility.yul\":974:992   */\n      swap4\n      swap1\n      swap4\n      add\n        /* \"#utility.yul\":961:993   */\n      calldataload\n      swap4\n      pop\n      pop\n      pop\n        /* \"#utility.yul\":745:999   */\n      jump\t// out\n        /* \"#utility.yul\":1378:1706   */\n    tag_33:\n        /* \"#utility.yul\":1455:1461   */\n      0x00\n        /* \"#utility.yul\":1463:1469   */\n      dup1\n        /* \"#utility.yul\":1471:1477   */\n      0x00\n        /* \"#utility.yul\":1524:1526   */\n      0x60\n        /* \"#utility.yul\":1512:1521   */\n      dup5\n        /* \"#utility.yul\":1503:1510   */\n      dup7\n        /* \"#utility.yul\":1499:1522   */\n      sub\n        /* \"#utility.yul\":1495:1527   */\n      slt\n        /* \"#utility.yul\":1492:1544   */\n      iszero\n      tag_118\n      jumpi\n        /* \"#utility.yul\":1540:1541   */\n      0x00\n        /* \"#utility.yul\":1537:1538   */\n      dup1\n        /* \"#utility.yul\":1530:1542   */\n      revert\n        /* \"#utility.yul\":1492:1544   */\n    tag_118:\n        /* \"#utility.yul\":1563:1592   */\n      tag_119\n        /* \"#utility.yul\":1582:1591   */\n      dup5\n        /* \"#utility.yul\":1563:1592   */\n      tag_103\n      jump\t// in\n    tag_119:\n        /* \"#utility.yul\":1553:1592   */\n      swap3\n      pop\n        /* \"#utility.yul\":1611:1649   */\n      tag_120\n        /* \"#utility.yul\":1645:1647   */\n      0x20\n        /* \"#utility.yul\":1634:1643   */\n      dup6\n        /* \"#utility.yul\":1630:1648   */\n      add\n        /* \"#utility.yul\":1611:1649   */\n      tag_103\n      jump\t// in\n    tag_120:\n        /* \"#utility.yul\":1601:1649   */\n      swap2\n      pop\n        /* \"#utility.yul\":1696:1698   */\n      0x40\n        /* \"#utility.yul\":1685:1694   */\n      dup5\n        /* \"#utility.yul\":1681:1699   */\n      add\n        /* \"#utility.yul\":1668:1700   */\n      calldataload\n        /* \"#utility.yul\":1658:1700   */\n      swap1\n      pop\n        /* \"#utility.yul\":1378:1706   */\n      swap3\n      pop\n      swap3\n      pop\n      swap3\n      jump\t// out\n        /* \"#utility.yul\":1711:1891   */\n    tag_39:\n        /* \"#utility.yul\":1770:1776   */\n      0x00\n        /* \"#utility.yul\":1823:1825   */\n      0x20\n        /* \"#utility.yul\":1811:1820   */\n      dup3\n        /* \"#utility.yul\":1802:1809   */\n      dup5\n        /* \"#utility.yul\":1798:1821   */\n      sub\n        /* \"#utility.yul\":1794:1826   */\n      slt\n        /* \"#utility.yul\":1791:1843   */\n      iszero\n      tag_122\n      jumpi\n        /* \"#utility.yul\":1839:1840   */\n      0x00\n        /* \"#utility.yul\":1836:1837   */\n      dup1\n        /* \"#utility.yul\":1829:1841   */\n      revert\n        /* \"#utility.yul\":1791:1843   */\n    tag_122:\n      pop\n        /* \"#utility.yul\":1862:1885   */\n      calldataload\n      swap2\n        /* \"#utility.yul\":1711:1891   */\n      swap1\n      pop\n      jump\t// out\n        /* \"#utility.yul\":1896:2082   */\n    tag_44:\n        /* \"#utility.yul\":1955:1961   */\n      0x00\n        /* \"#utility.yul\":2008:2010   */\n      0x20\n        /* \"#utility.yul\":1996:2005   */\n      dup3\n        /* \"#utility.yul\":1987:1994   */\n      dup5\n        /* \"#utility.yul\":1983:2006   */\n      sub\n        /* \"#utility.yul\":1979:2011   */\n      slt\n        /* \"#utility.yul\":1976:2028   */\n      iszero\n      tag_124\n      jumpi\n        /* \"#utility.yul\":2024:2025   */\n      0x00\n        /* \"#utility.yul\":2021:2022   */\n      dup1\n        /* \"#utility.yul\":2014:2026   */\n      revert\n        /* \"#utility.yul\":1976:2028   */\n    tag_124:\n        /* \"#utility.yul\":2047:2076   */\n      tag_125\n        /* \"#utility.yul\":2066:2075   */\n      dup3\n        /* \"#utility.yul\":2047:2076   */\n      tag_103\n      jump\t// in\n    tag_125:\n        /* \"#utility.yul\":2037:2076   */\n      swap4\n        /* \"#utility.yul\":1896:2082   */\n      swap3\n      pop\n      pop\n      pop\n      jump\t// out\n        /* \"#utility.yul\":2087:2347   */\n    tag_67:\n        /* \"#utility.yul\":2155:2161   */\n      0x00\n        /* \"#utility.yul\":2163:2169   */\n      dup1\n        /* \"#utility.yul\":2216:2218   */\n      0x40\n        /* \"#utility.yul\":2204:2213   */\n      dup4\n        /* \"#utility.yul\":2195:2202   */\n      dup6\n        /* \"#utility.yul\":2191:2214   */\n      sub\n        /* \"#utility.yul\":2187:2219   */\n      slt\n        /* \"#utility.yul\":2184:2236   */\n      iszero\n      tag_127\n      jumpi\n        /* \"#utility.yul\":2232:2233   */\n      0x00\n        /* \"#utility.yul\":2229:2230   */\n      dup1\n        /* \"#utility.yul\":2222:2234   */\n      revert\n        /* \"#utility.yul\":2184:2236   */\n    tag_127:\n        /* \"#utility.yul\":2255:2284   */\n      tag_128\n        /* \"#utility.yul\":2274:2283   */\n      dup4\n        /* \"#utility.yul\":2255:2284   */\n      tag_103\n      jump\t// in\n    tag_128:\n        /* \"#utility.yul\":2245:2284   */\n      swap2\n      pop\n        /* \"#utility.yul\":2303:2341   */\n      tag_129\n        /* \"#utility.yul\":2337:2339   */\n      0x20\n        /* \"#utility.yul\":2326:2335   */\n      dup5\n        /* \"#utility.yul\":2322:2340   */\n      add\n        /* \"#utility.yul\":2303:2341   */\n      tag_103\n      jump\t// in\n    tag_129:\n        /* \"#utility.yul\":2293:2341   */\n      swap1\n      pop\n        /* \"#utility.yul\":2087:2347   */\n      swap3\n      pop\n      swap3\n      swap1\n      pop\n      jump\t// out\n        /* \"#utility.yul\":2352:2732   */\n    tag_71:\n        /* \"#utility.yul\":2431:2432   */\n      0x01\n        /* \"#utility.yul\":2427:2439   */\n      dup2\n      dup2\n      shr\n      swap1\n        /* \"#utility.yul\":2474:2486   */\n      dup3\n      and\n      dup1\n        /* \"#utility.yul\":2495:2556   */\n      tag_131\n      jumpi\n        /* \"#utility.yul\":2549:2553   */\n      0x7f\n        /* \"#utility.yul\":2541:2547   */\n      dup3\n        /* \"#utility.yul\":2537:2554   */\n      and\n        /* \"#utility.yul\":2527:2554   */\n      swap2\n      pop\n        /* \"#utility.yul\":2495:2556   */\n    tag_131:\n        /* \"#utility.yul\":2602:2604   */\n      0x20\n        /* \"#utility.yul\":2594:2600   */\n      dup3\n        /* \"#utility.yul\":2591:2605   */\n      lt\n        /* \"#utility.yul\":2571:2589   */\n      dup2\n        /* \"#utility.yul\":2568:2606   */\n      sub\n        /* \"#utility.yul\":2565:2726   */\n      tag_132\n      jumpi\n        /* \"#utility.yul\":2648:2658   */\n      0x4e487b71\n        /* \"#utility.yul\":2643:2646   */\n      0xe0\n        /* \"#utility.yul\":2639:2659   */\n      shl\n        /* \"#utility.yul\":2636:2637   */\n      0x00\n        /* \"#utility.yul\":2629:2660   */\n      mstore\n        /* \"#utility.yul\":2683:2687   */\n      0x22\n        /* \"#utility.yul\":2680:2681   */\n      0x04\n        /* \"#utility.yul\":2673:2688   */\n      mstore\n        /* \"#utility.yul\":2711:2715   */\n      0x24\n        /* \"#utility.yul\":2708:2709   */\n      0x00\n        /* \"#utility.yul\":2701:2716   */\n      revert\n        /* \"#utility.yul\":2565:2726   */\n    tag_132:\n      pop\n        /* \"#utility.yul\":2352:2732   */\n      swap2\n      swap1\n      pop\n      jump\t// out\n        /* \"#utility.yul\":2737:2864   */\n    tag_104:\n        /* \"#utility.yul\":2798:2808   */\n      0x4e487b71\n        /* \"#utility.yul\":2793:2796   */\n      0xe0\n        /* \"#utility.yul\":2789:2809   */\n      shl\n        /* \"#utility.yul\":2786:2787   */\n      0x00\n        /* \"#utility.yul\":2779:2810   */\n      mstore\n        /* \"#utility.yul\":2829:2833   */\n      0x11\n        /* \"#utility.yul\":2826:2827   */\n      0x04\n        /* \"#utility.yul\":2819:2834   */\n      mstore\n        /* \"#utility.yul\":2853:2857   */\n      0x24\n        /* \"#utility.yul\":2850:2851   */\n      0x00\n        /* \"#utility.yul\":2843:2858   */\n      revert\n        /* \"#utility.yul\":2869:2997   */\n    tag_80:\n        /* \"#utility.yul\":2936:2945   */\n      dup2\n      dup2\n      sub\n        /* \"#utility.yul\":2957:2968   */\n      dup2\n      dup2\n      gt\n        /* \"#utility.yul\":2954:2991   */\n      iszero\n      tag_76\n      jumpi\n        /* \"#utility.yul\":2971:2989   */\n      tag_76\n      tag_104\n      jump\t// in\n        /* \"#utility.yul\":3002:3127   */\n    tag_83:\n        /* \"#utility.yul\":3067:3076   */\n      dup1\n      dup3\n      add\n        /* \"#utility.yul\":3088:3098   */\n      dup1\n      dup3\n      gt\n        /* \"#utility.yul\":3085:3121   */\n      iszero\n      tag_76\n      jumpi\n        /* \"#utility.yul\":3101:3119   */\n      tag_76\n      tag_104\n      jump\t// in\n    stop\n    data_ada389e1fc24a8587c776340efb91b36e675792ab631816100d55df0b5cf3cbc ddf252ad1be2c89b69c2b068fc378daa952ba7f163c4a11628f55a4df523b3ef\n\n    auxdata: 0xa26469706673582212208129c14a42bcecd10c05e115b73bee3ffa70f762bc146036955654d1ea0fb85f64736f6c63430008160033\n}\n",
				"bytecode": {
					"linkReferences": {},
					"object": "60c0604052600e60809081526d26a0a1a5a2ac93a9902a27a5a2a760911b60a05260039061002d9082610106565b506040805180820190915260058152644d4143544b60d81b60208201526004906100579082610106565b506012600555348015610068575f80fd5b506101c5565b634e487b7160e01b5f52604160045260245ffd5b600181811c9082168061009657607f821691505b6020821081036100b457634e487b7160e01b5f52602260045260245ffd5b50919050565b601f82111561010157805f5260205f20601f840160051c810160208510156100df5750805b601f840160051c820191505b818110156100fe575f81556001016100eb565b50505b505050565b81516001600160401b0381111561011f5761011f61006e565b6101338161012d8454610082565b846100ba565b602080601f831160018114610166575f841561014f5750858301515b5f19600386901b1c1916600185901b1785556101bd565b5f85815260208120601f198616915b8281101561019457888601518255948401946001909101908401610175565b50858210156101b157878501515f19600388901b60f8161c191681555b505060018460011b0185555b505050505050565b610730806101d25f395ff3fe60806040526004361061009a575f3560e01c806370a082311161006257806370a082311461014d57806376809ce31461017857806395d89b411461018d578063a0712d68146101a1578063a9059cbb146101c0578063dd62ed3e146101df575f80fd5b806306fdde031461009e578063095ea7b3146100c857806318160ddd146100f757806323b872dd1461011957806342966c681461012c575b5f80fd5b3480156100a9575f80fd5b506100b2610215565b6040516100bf9190610538565b60405180910390f35b3480156100d3575f80fd5b506100e76100e236600461059f565b6102a1565b60405190151581526020016100bf565b348015610102575f80fd5b5061010b5f5481565b6040519081526020016100bf565b6100e76101273660046105c7565b61030d565b348015610137575f80fd5b5061014b610146366004610600565b6103db565b005b348015610158575f80fd5b5061010b610167366004610617565b60016020525f908152604090205481565b348015610183575f80fd5b5061010b60055481565b348015610198575f80fd5b506100b2610441565b3480156101ac575f80fd5b5061014b6101bb366004610600565b61044e565b3480156101cb575f80fd5b506100e76101da36600461059f565b6104ad565b3480156101ea575f80fd5b5061010b6101f9366004610637565b600260209081525f928352604080842090915290825290205481565b6003805461022290610668565b80601f016020809104026020016040519081016040528092919081815260200182805461024e90610668565b80156102995780601f1061027057610100808354040283529160200191610299565b820191905f5260205f20905b81548152906001019060200180831161027c57829003601f168201915b505050505081565b335f8181526002602090815260408083206001600160a01b038716808552925280832085905551919290917f8c5be1e5ebec7d5bd14f71427d1e84f3dd0314c0f7b2291e5b200ac8c7c3b925906102fb9086815260200190565b60405180910390a35060015b92915050565b6001600160a01b0383165f9081526002602090815260408083203384529091528120805483919083906103419084906106b4565b90915550506001600160a01b0384165f908152600160205260408120805484929061036d9084906106b4565b90915550506001600160a01b0383165f90815260016020526040812080548492906103999084906106c7565b9091555050604080516001600160a01b038581168252602082018590528616915f805160206106db833981519152910160405180910390a25060019392505050565b335f90815260016020526040812080548392906103f99084906106b4565b92505081905550805f8082825461041091906106b4565b9091555050604080515f81526020810183905233915f805160206106db83398151915291015b60405180910390a250565b6004805461022290610668565b335f908152600160205260408120805483929061046c9084906106c7565b92505081905550805f8082825461048391906106c7565b909155505060408051338152602081018390525f915f805160206106db8339815191529101610436565b335f908152600160205260408120805483919083906104cd9084906106b4565b90915550506001600160a01b0383165f90815260016020526040812080548492906104f99084906106c7565b9091555050604080516001600160a01b03851681526020810184905233915f805160206106db833981519152910160405180910390a250600192915050565b5f602080835283518060208501525f5b8181101561056457858101830151858201604001528201610548565b505f604082860101526040601f19601f8301168501019250505092915050565b80356001600160a01b038116811461059a575f80fd5b919050565b5f80604083850312156105b0575f80fd5b6105b983610584565b946020939093013593505050565b5f805f606084860312156105d9575f80fd5b6105e284610584565b92506105f060208501610584565b9150604084013590509250925092565b5f60208284031215610610575f80fd5b5035919050565b5f60208284031215610627575f80fd5b61063082610584565b9392505050565b5f8060408385031215610648575f80fd5b61065183610584565b915061065f60208401610584565b90509250929050565b600181811c9082168061067c57607f821691505b60208210810361069a57634e487b7160e01b5f52602260045260245ffd5b50919050565b634e487b7160e01b5f52601160045260245ffd5b81810381811115610307576103076106a0565b80820180821115610307576103076106a056feddf252ad1be2c89b69c2b068fc378daa952ba7f163c4a11628f55a4df523b3efa26469706673582212208129c14a42bcecd10c05e115b73bee3ffa70f762bc146036955654d1ea0fb85f64736f6c63430008160033",
					"opcodes": "PUSH1 0xC0 PUSH1 0x40 MSTORE PUSH1 0xE PUSH1 0x80 SWAP1 DUP2 MSTORE PUSH14 0x26A0A1A5A2AC93A9902A27A5A2A7 PUSH1 0x91 SHL PUSH1 0xA0 MSTORE PUSH1 0x3 SWAP1 PUSH2 0x2D SWAP1 DUP3 PUSH2 0x106 JUMP JUMPDEST POP PUSH1 0x40 DUP1 MLOAD DUP1 DUP3 ADD SWAP1 SWAP2 MSTORE PUSH1 0x5 DUP2 MSTORE PUSH5 0x4D4143544B PUSH1 0xD8 SHL PUSH1 0x20 DUP3 ADD MSTORE PUSH1 0x4 SWAP1 PUSH2 0x57 SWAP1 DUP3 PUSH2 0x106 JUMP JUMPDEST POP PUSH1 0x12 PUSH1 0x5 SSTORE CALLVALUE DUP1 ISZERO PUSH2 0x68 JUMPI PUSH0 DUP1 REVERT JUMPDEST POP PUSH2 0x1C5 JUMP JUMPDEST PUSH4 0x4E487B71 PUSH1 0xE0 SHL PUSH0 MSTORE PUSH1 0x41 PUSH1 0x4 MSTORE PUSH1 0x24 PUSH0 REVERT JUMPDEST PUSH1 0x1 DUP2 DUP2 SHR SWAP1 DUP3 AND DUP1 PUSH2 0x96 JUMPI PUSH1 0x7F DUP3 AND SWAP2 POP JUMPDEST PUSH1 0x20 DUP3 LT DUP2 SUB PUSH2 0xB4 JUMPI PUSH4 0x4E487B71 PUSH1 0xE0 SHL PUSH0 MSTORE PUSH1 0x22 PUSH1 0x4 MSTORE PUSH1 0x24 PUSH0 REVERT JUMPDEST POP SWAP2 SWAP1 POP JUMP JUMPDEST PUSH1 0x1F DUP3 GT ISZERO PUSH2 0x101 JUMPI DUP1 PUSH0 MSTORE PUSH1 0x20 PUSH0 KECCAK256 PUSH1 0x1F DUP5 ADD PUSH1 0x5 SHR DUP2 ADD PUSH1 0x20 DUP6 LT ISZERO PUSH2 0xDF JUMPI POP DUP1 JUMPDEST PUSH1 0x1F DUP5 ADD PUSH1 0x5 SHR DUP3 ADD SWAP2 POP JUMPDEST DUP2 DUP2 LT ISZERO PUSH2 0xFE JUMPI PUSH0 DUP2 SSTORE PUSH1 0x1 ADD PUSH2 0xEB JUMP JUMPDEST POP POP JUMPDEST POP POP POP JUMP JUMPDEST DUP2 MLOAD PUSH1 0x1 PUSH1 0x1 PUSH1 0x40 SHL SUB DUP2 GT ISZERO PUSH2 0x11F JUMPI PUSH2 0x11F PUSH2 0x6E JUMP JUMPDEST PUSH2 0x133 DUP2 PUSH2 0x12D DUP5 SLOAD PUSH2 0x82 JUMP JUMPDEST DUP5 PUSH2 0xBA JUMP JUMPDEST PUSH1 0x20 DUP1 PUSH1 0x1F DUP4 GT PUSH1 0x1 DUP2 EQ PUSH2 0x166 JUMPI PUSH0 DUP5 ISZERO PUSH2 0x14F JUMPI POP DUP6 DUP4 ADD MLOAD JUMPDEST PUSH0 NOT PUSH1 0x3 DUP7 SWAP1 SHL SHR NOT AND PUSH1 0x1 DUP6 SWAP1 SHL OR DUP6 SSTORE PUSH2 0x1BD JUMP JUMPDEST PUSH0 DUP6 DUP2 MSTORE PUSH1 0x20 DUP2 KECCAK256 PUSH1 0x1F NOT DUP7 AND SWAP2 JUMPDEST DUP3 DUP2 LT ISZERO PUSH2 0x194 JUMPI DUP9 DUP7 ADD MLOAD DUP3 SSTORE SWAP5 DUP5 ADD SWAP5 PUSH1 0x1 SWAP1 SWAP2 ADD SWAP1 DUP5 ADD PUSH2 0x175 JUMP JUMPDEST POP DUP6 DUP3 LT ISZERO PUSH2 0x1B1 JUMPI DUP8 DUP6 ADD MLOAD PUSH0 NOT PUSH1 0x3 DUP9 SWAP1 SHL PUSH1 0xF8 AND SHR NOT AND DUP2 SSTORE JUMPDEST POP POP PUSH1 0x1 DUP5 PUSH1 0x1 SHL ADD DUP6 SSTORE JUMPDEST POP POP POP POP POP POP JUMP JUMPDEST PUSH2 0x730 DUP1 PUSH2 0x1D2 PUSH0 CODECOPY PUSH0 RETURN INVALID PUSH1 0x80 PUSH1 0x40 MSTORE PUSH1 0x4 CALLDATASIZE LT PUSH2 0x9A JUMPI PUSH0 CALLDATALOAD PUSH1 0xE0 SHR DUP1 PUSH4 0x70A08231 GT PUSH2 0x62 JUMPI DUP1 PUSH4 0x70A08231 EQ PUSH2 0x14D JUMPI DUP1 PUSH4 0x76809CE3 EQ PUSH2 0x178 JUMPI DUP1 PUSH4 0x95D89B41 EQ PUSH2 0x18D JUMPI DUP1 PUSH4 0xA0712D68 EQ PUSH2 0x1A1 JUMPI DUP1 PUSH4 0xA9059CBB EQ PUSH2 0x1C0 JUMPI DUP1 PUSH4 0xDD62ED3E EQ PUSH2 0x1DF JUMPI PUSH0 DUP1 REVERT JUMPDEST DUP1 PUSH4 0x6FDDE03 EQ PUSH2 0x9E JUMPI DUP1 PUSH4 0x95EA7B3 EQ PUSH2 0xC8 JUMPI DUP1 PUSH4 0x18160DDD EQ PUSH2 0xF7 JUMPI DUP1 PUSH4 0x23B872DD EQ PUSH2 0x119 JUMPI DUP1 PUSH4 0x42966C68 EQ PUSH2 0x12C JUMPI JUMPDEST PUSH0 DUP1 REVERT JUMPDEST CALLVALUE DUP1 ISZERO PUSH2 0xA9 JUMPI PUSH0 DUP1 REVERT JUMPDEST POP PUSH2 0xB2 PUSH2 0x215 JUMP JUMPDEST PUSH1 0x40 MLOAD PUSH2 0xBF SWAP2 SWAP1 PUSH2 0x538 JUMP JUMPDEST PUSH1 0x40 MLOAD DUP1 SWAP2 SUB SWAP1 RETURN JUMPDEST CALLVALUE DUP1 ISZERO PUSH2 0xD3 JUMPI PUSH0 DUP1 REVERT JUMPDEST POP PUSH2 0xE7 PUSH2 0xE2 CALLDATASIZE PUSH1 0x4 PUSH2 0x59F JUMP JUMPDEST PUSH2 0x2A1 JUMP JUMPDEST PUSH1 0x40 MLOAD SWAP1 ISZERO ISZERO DUP2 MSTORE PUSH1 0x20 ADD PUSH2 0xBF JUMP JUMPDEST CALLVALUE DUP1 ISZERO PUSH2 0x102 JUMPI PUSH0 DUP1 REVERT JUMPDEST POP PUSH2 0x10B PUSH0 SLOAD DUP2 JUMP JUMPDEST PUSH1 0x40 MLOAD SWAP1 DUP2 MSTORE PUSH1 0x20 ADD PUSH2 0xBF JUMP JUMPDEST PUSH2 0xE7 PUSH2 0x127 CALLDATASIZE PUSH1 0x4 PUSH2 0x5C7 JUMP JUMPDEST PUSH2 0x30D JUMP JUMPDEST CALLVALUE DUP1 ISZERO PUSH2 0x137 JUMPI PUSH0 DUP1 REVERT JUMPDEST POP PUSH2 0x14B PUSH2 0x146 CALLDATASIZE PUSH1 0x4 PUSH2 0x600 JUMP JUMPDEST PUSH2 0x3DB JUMP JUMPDEST STOP JUMPDEST CALLVALUE DUP1 ISZERO PUSH2 0x158 JUMPI PUSH0 DUP1 REVERT JUMPDEST POP PUSH2 0x10B PUSH2 0x167 CALLDATASIZE PUSH1 0x4 PUSH2 0x617 JUMP JUMPDEST PUSH1 0x1 PUSH1 0x20 MSTORE PUSH0 SWAP1 DUP2 MSTORE PUSH1 0x40 SWAP1 KECCAK256 SLOAD DUP2 JUMP JUMPDEST CALLVALUE DUP1 ISZERO PUSH2 0x183 JUMPI PUSH0 DUP1 REVERT JUMPDEST POP PUSH2 0x10B PUSH1 0x5 SLOAD DUP2 JUMP JUMPDEST CALLVALUE DUP1 ISZERO PUSH2 0x198 JUMPI PUSH0 DUP1 REVERT JUMPDEST POP PUSH2 0xB2 PUSH2 0x441 JUMP JUMPDEST CALLVALUE DUP1 ISZERO PUSH2 0x1AC JUMPI PUSH0 DUP1 REVERT JUMPDEST POP PUSH2 0x14B PUSH2 0x1BB CALLDATASIZE PUSH1 0x4 PUSH2 0x600 JUMP JUMPDEST PUSH2 0x44E JUMP JUMPDEST CALLVALUE DUP1 ISZERO PUSH2 0x1CB JUMPI PUSH0 DUP1 REVERT JUMPDEST POP PUSH2 0xE7 PUSH2 0x1DA CALLDATASIZE PUSH1 0x4 PUSH2 0x59F JUMP JUMPDEST PUSH2 0x4AD JUMP JUMPDEST CALLVALUE DUP1 ISZERO PUSH2 0x1EA JUMPI PUSH0 DUP1 REVERT JUMPDEST POP PUSH2 0x10B PUSH2 0x1F9 CALLDATASIZE PUSH1 0x4 PUSH2 0x637 JUMP JUMPDEST PUSH1 0x2 PUSH1 0x20 SWAP1 DUP2 MSTORE PUSH0 SWAP3 DUP4 MSTORE PUSH1 0x40 DUP1 DUP5 KECCAK256 SWAP1 SWAP2 MSTORE SWAP1 DUP3 MSTORE SWAP1 KECCAK256 SLOAD DUP2 JUMP JUMPDEST PUSH1 0x3 DUP1 SLOAD PUSH2 0x222 SWAP1 PUSH2 0x668 JUMP JUMPDEST DUP1 PUSH1 0x1F ADD PUSH1 0x20 DUP1 SWAP2 DIV MUL PUSH1 0x20 ADD PUSH1 0x40 MLOAD SWAP1 DUP2 ADD PUSH1 0x40 MSTORE DUP1 SWAP3 SWAP2 SWAP1 DUP2 DUP2 MSTORE PUSH1 0x20 ADD DUP3 DUP1 SLOAD PUSH2 0x24E SWAP1 PUSH2 0x668 JUMP JUMPDEST DUP1 ISZERO PUSH2 0x299 JUMPI DUP1 PUSH1 0x1F LT PUSH2 0x270 JUMPI PUSH2 0x100 DUP1 DUP4 SLOAD DIV MUL DUP4 MSTORE SWAP2 PUSH1 0x20 ADD SWAP2 PUSH2 0x299 JUMP JUMPDEST DUP3 ADD SWAP2 SWAP1 PUSH0 MSTORE PUSH1 0x20 PUSH0 KECCAK256 SWAP1 JUMPDEST DUP2 SLOAD DUP2 MSTORE SWAP1 PUSH1 0x1 ADD SWAP1 PUSH1 0x20 ADD DUP1 DUP4 GT PUSH2 0x27C JUMPI DUP3 SWAP1 SUB PUSH1 0x1F AND DUP3 ADD SWAP2 JUMPDEST POP POP POP POP POP DUP2 JUMP JUMPDEST CALLER PUSH0 DUP2 DUP2 MSTORE PUSH1 0x2 PUSH1 0x20 SWAP1 DUP2 MSTORE PUSH1 0x40 DUP1 DUP4 KECCAK256 PUSH1 0x1 PUSH1 0x1 PUSH1 0xA0 SHL SUB DUP8 AND DUP1 DUP6 MSTORE SWAP3 MSTORE DUP1 DUP4 KECCAK256 DUP6 SWAP1 SSTORE MLOAD SWAP2 SWAP3 SWAP1 SWAP2 PUSH32 0x8C5BE1E5EBEC7D5BD14F71427D1E84F3DD0314C0F7B2291E5B200AC8C7C3B925 SWAP1 PUSH2 0x2FB SWAP1 DUP7 DUP2 MSTORE PUSH1 0x20 ADD SWAP1 JUMP JUMPDEST PUSH1 0x40 MLOAD DUP1 SWAP2 SUB SWAP1 LOG3 POP PUSH1 0x1 JUMPDEST SWAP3 SWAP2 POP POP JUMP JUMPDEST PUSH1 0x1 PUSH1 0x1 PUSH1 0xA0 SHL SUB DUP4 AND PUSH0 SWAP1 DUP2 MSTORE PUSH1 0x2 PUSH1 0x20 SWAP1 DUP2 MSTORE PUSH1 0x40 DUP1 DUP4 KECCAK256 CALLER DUP5 MSTORE SWAP1 SWAP2 MSTORE DUP2 KECCAK256 DUP1 SLOAD DUP4 SWAP2 SWAP1 DUP4 SWAP1 PUSH2 0x341 SWAP1 DUP5 SWAP1 PUSH2 0x6B4 JUMP JUMPDEST SWAP1 SWAP2 SSTORE POP POP PUSH1 0x1 PUSH1 0x1 PUSH1 0xA0 SHL SUB DUP5 AND PUSH0 SWAP1 DUP2 MSTORE PUSH1 0x1 PUSH1 0x20 MSTORE PUSH1 0x40 DUP2 KECCAK256 DUP1 SLOAD DUP5 SWAP3 SWAP1 PUSH2 0x36D SWAP1 DUP5 SWAP1 PUSH2 0x6B4 JUMP JUMPDEST SWAP1 SWAP2 SSTORE POP POP PUSH1 0x1 PUSH1 0x1 PUSH1 0xA0 SHL SUB DUP4 AND PUSH0 SWAP1 DUP2 MSTORE PUSH1 0x1 PUSH1 0x20 MSTORE PUSH1 0x40 DUP2 KECCAK256 DUP1 SLOAD DUP5 SWAP3 SWAP1 PUSH2 0x399 SWAP1 DUP5 SWAP1 PUSH2 0x6C7 JUMP JUMPDEST SWAP1 SWAP2 SSTORE POP POP PUSH1 0x40 DUP1 MLOAD PUSH1 0x1 PUSH1 0x1 PUSH1 0xA0 SHL SUB DUP6 DUP2 AND DUP3 MSTORE PUSH1 0x20 DUP3 ADD DUP6 SWAP1 MSTORE DUP7 AND SWAP2 PUSH0 DUP1 MLOAD PUSH1 0x20 PUSH2 0x6DB DUP4 CODECOPY DUP2 MLOAD SWAP2 MSTORE SWAP2 ADD PUSH1 0x40 MLOAD DUP1 SWAP2 SUB SWAP1 LOG2 POP PUSH1 0x1 SWAP4 SWAP3 POP POP POP JUMP JUMPDEST CALLER PUSH0 SWAP1 DUP2 MSTORE PUSH1 0x1 PUSH1 0x20 MSTORE PUSH1 0x40 DUP2 KECCAK256 DUP1 SLOAD DUP4 SWAP3 SWAP1 PUSH2 0x3F9 SWAP1 DUP5 SWAP1 PUSH2 0x6B4 JUMP JUMPDEST SWAP3 POP POP DUP2 SWAP1 SSTORE POP DUP1 PUSH0 DUP1 DUP3 DUP3 SLOAD PUSH2 0x410 SWAP2 SWAP1 PUSH2 0x6B4 JUMP JUMPDEST SWAP1 SWAP2 SSTORE POP POP PUSH1 0x40 DUP1 MLOAD PUSH0 DUP2 MSTORE PUSH1 0x20 DUP2 ADD DUP4 SWAP1 MSTORE CALLER SWAP2 PUSH0 DUP1 MLOAD PUSH1 0x20 PUSH2 0x6DB DUP4 CODECOPY DUP2 MLOAD SWAP2 MSTORE SWAP2 ADD JUMPDEST PUSH1 0x40 MLOAD DUP1 SWAP2 SUB SWAP1 LOG2 POP JUMP JUMPDEST PUSH1 0x4 DUP1 SLOAD PUSH2 0x222 SWAP1 PUSH2 0x668 JUMP JUMPDEST CALLER PUSH0 SWAP1 DUP2 MSTORE PUSH1 0x1 PUSH1 0x20 MSTORE PUSH1 0x40 DUP2 KECCAK256 DUP1 SLOAD DUP4 SWAP3 SWAP1 PUSH2 0x46C SWAP1 DUP5 SWAP1 PUSH2 0x6C7 JUMP JUMPDEST SWAP3 POP POP DUP2 SWAP1 SSTORE POP DUP1 PUSH0 DUP1 DUP3 DUP3 SLOAD PUSH2 0x483 SWAP2 SWAP1 PUSH2 0x6C7 JUMP JUMPDEST SWAP1 SWAP2 SSTORE POP POP PUSH1 0x40 DUP1 MLOAD CALLER DUP2 MSTORE PUSH1 0x20 DUP2 ADD DUP4 SWAP1 MSTORE PUSH0 SWAP2 PUSH0 DUP1 MLOAD PUSH1 0x20 PUSH2 0x6DB DUP4 CODECOPY DUP2 MLOAD SWAP2 MSTORE SWAP2 ADD PUSH2 0x436 JUMP JUMPDEST CALLER PUSH0 SWAP1 DUP2 MSTORE PUSH1 0x1 PUSH1 0x20 MSTORE PUSH1 0x40 DUP2 KECCAK256 DUP1 SLOAD DUP4 SWAP2 SWAP1 DUP4 SWAP1 PUSH2 0x4CD SWAP1 DUP5 SWAP1 PUSH2 0x6B4 JUMP JUMPDEST SWAP1 SWAP2 SSTORE POP POP PUSH1 0x1 PUSH1 0x1 PUSH1 0xA0 SHL SUB DUP4 AND PUSH0 SWAP1 DUP2 MSTORE PUSH1 0x1 PUSH1 0x20 MSTORE PUSH1 0x40 DUP2 KECCAK256 DUP1 SLOAD DUP5 SWAP3 SWAP1 PUSH2 0x4F9 SWAP1 DUP5 SWAP1 PUSH2 0x6C7 JUMP JUMPDEST SWAP1 SWAP2 SSTORE POP POP PUSH1 0x40 DUP1 MLOAD PUSH1 0x1 PUSH1 0x1 PUSH1 0xA0 SHL SUB DUP6 AND DUP2 MSTORE PUSH1 0x20 DUP2 ADD DUP5 SWAP1 MSTORE CALLER SWAP2 PUSH0 DUP1 MLOAD PUSH1 0x20 PUSH2 0x6DB DUP4 CODECOPY DUP2 MLOAD SWAP2 MSTORE SWAP2 ADD PUSH1 0x40 MLOAD DUP1 SWAP2 SUB SWAP1 LOG2 POP PUSH1 0x1 SWAP3 SWAP2 POP POP JUMP JUMPDEST PUSH0 PUSH1 0x20 DUP1 DUP4 MSTORE DUP4 MLOAD DUP1 PUSH1 0x20 DUP6 ADD MSTORE PUSH0 JUMPDEST DUP2 DUP2 LT ISZERO PUSH2 0x564 JUMPI DUP6 DUP2 ADD DUP4 ADD MLOAD DUP6 DUP3 ADD PUSH1 0x40 ADD MSTORE DUP3 ADD PUSH2 0x548 JUMP JUMPDEST POP PUSH0 PUSH1 0x40 DUP3 DUP7 ADD ADD MSTORE PUSH1 0x40 PUSH1 0x1F NOT PUSH1 0x1F DUP4 ADD AND DUP6 ADD ADD SWAP3 POP POP POP SWAP3 SWAP2 POP POP JUMP JUMPDEST DUP1 CALLDATALOAD PUSH1 0x1 PUSH1 0x1 PUSH1 0xA0 SHL SUB DUP2 AND DUP2 EQ PUSH2 0x59A JUMPI PUSH0 DUP1 REVERT JUMPDEST SWAP2 SWAP1 POP JUMP JUMPDEST PUSH0 DUP1 PUSH1 0x40 DUP4 DUP6 SUB SLT ISZERO PUSH2 0x5B0 JUMPI PUSH0 DUP1 REVERT JUMPDEST PUSH2 0x5B9 DUP4 PUSH2 0x584 JUMP JUMPDEST SWAP5 PUSH1 0x20 SWAP4 SWAP1 SWAP4 ADD CALLDATALOAD SWAP4 POP POP POP JUMP JUMPDEST PUSH0 DUP1 PUSH0 PUSH1 0x60 DUP5 DUP7 SUB SLT ISZERO PUSH2 0x5D9 JUMPI PUSH0 DUP1 REVERT JUMPDEST PUSH2 0x5E2 DUP5 PUSH2 0x584 JUMP JUMPDEST SWAP3 POP PUSH2 0x5F0 PUSH1 0x20 DUP6 ADD PUSH2 0x584 JUMP JUMPDEST SWAP2 POP PUSH1 0x40 DUP5 ADD CALLDATALOAD SWAP1 POP SWAP3 POP SWAP3 POP SWAP3 JUMP JUMPDEST PUSH0 PUSH1 0x20 DUP3 DUP5 SUB SLT ISZERO PUSH2 0x610 JUMPI PUSH0 DUP1 REVERT JUMPDEST POP CALLDATALOAD SWAP2 SWAP1 POP JUMP JUMPDEST PUSH0 PUSH1 0x20 DUP3 DUP5 SUB SLT ISZERO PUSH2 0x627 JUMPI PUSH0 DUP1 REVERT JUMPDEST PUSH2 0x630 DUP3 PUSH2 0x584 JUMP JUMPDEST SWAP4 SWAP3 POP POP POP JUMP JUMPDEST PUSH0 DUP1 PUSH1 0x40 DUP4 DUP6 SUB SLT ISZERO PUSH2 0x648 JUMPI PUSH0 DUP1 REVERT JUMPDEST PUSH2 0x651 DUP4 PUSH2 0x584 JUMP JUMPDEST SWAP2 POP PUSH2 0x65F PUSH1 0x20 DUP5 ADD PUSH2 0x584 JUMP JUMPDEST SWAP1 POP SWAP3 POP SWAP3 SWAP1 POP JUMP JUMPDEST PUSH1 0x1 DUP2 DUP2 SHR SWAP1 DUP3 AND DUP1 PUSH2 0x67C JUMPI PUSH1 0x7F DUP3 AND SWAP2 POP JUMPDEST PUSH1 0x20 DUP3 LT DUP2 SUB PUSH2 0x69A JUMPI PUSH4 0x4E487B71 PUSH1 0xE0 SHL PUSH0 MSTORE PUSH1 0x22 PUSH1 0x4 MSTORE PUSH1 0x24 PUSH0 REVERT JUMPDEST POP SWAP2 SWAP1 POP JUMP JUMPDEST PUSH4 0x4E487B71 PUSH1 0xE0 SHL PUSH0 MSTORE PUSH1 0x11 PUSH1 0x4 MSTORE PUSH1 0x24 PUSH0 REVERT JUMPDEST DUP2 DUP2 SUB DUP2 DUP2 GT ISZERO PUSH2 0x307 JUMPI PUSH2 0x307 PUSH2 0x6A0 JUMP JUMPDEST DUP1 DUP3 ADD DUP1 DUP3 GT ISZERO PUSH2 0x307 JUMPI PUSH2 0x307 PUSH2 0x6A0 JUMP INVALID 0xDD CALLCODE MSTORE 0xAD SHL 0xE2 0xC8 SWAP12 PUSH10 0xC2B068FC378DAA952BA7 CALL PUSH4 0xC4A11628 CREATE2 GAS 0x4D CREATE2 0x23 0xB3 0xEF LOG2 PUSH5 0x6970667358 0x22 SLT KECCAK256 DUP2 0x29 0xC1 0x4A TIMESTAMP 0xBC 0xEC 0xD1 0xC SDIV 0xE1 ISZERO 0xB7 EXTCODESIZE 0xEE EXTCODEHASH STATICCALL PUSH17 0xF762BC146036955654D1EA0FB85F64736F PUSH13 0x63430008160033000000000000 "
				},
				"gasEstimates": {
					"creation": {
						"codeDepositCost": "368000",
						"executionCost": "infinite",
						"totalCost": "infinite"
					},
					"external": {
						"allowance(address,address)": "infinite",
						"approve(address,uint256)": "24520",
						"balanceOf(address)": "2516",
						"burn(uint256)": "infinite",
						"decimal()": "2316",
						"mint(uint256)": "infinite",
						"name()": "infinite",
						"symbol()": "infinite",
						"totalSupply()": "2338",
						"transfer(address,uint256)": "infinite",
						"transferFrom(address,address,uint256)": "infinite"
					}
				},
				"methodIdentifiers": {
					"allowance(address,address)": "dd62ed3e",
					"approve(address,uint256)": "095ea7b3",
					"balanceOf(address)": "70a08231",
					"burn(uint256)": "42966c68",
					"decimal()": "76809ce3",
					"mint(uint256)": "a0712d68",
					"name()": "06fdde03",
					"symbol()": "95d89b41",
					"totalSupply()": "18160ddd",
					"transfer(address,uint256)": "a9059cbb",
					"transferFrom(address,address,uint256)": "23b872dd"
				}
			},
			"storageLayout": {
				"storage": [
					{
						"astId": 73,
						"contract": "interface.sol:ERC20",
						"label": "totalSupply",
						"offset": 0,
						"slot": "0",
						"type": "t_uint256"
					},
					{
						"astId": 78,
						"contract": "interface.sol:ERC20",
						"label": "balanceOf",
						"offset": 0,
						"slot": "1",
						"type": "t_mapping(t_address,t_uint256)"
					},
					{
						"astId": 85,
						"contract": "interface.sol:ERC20",
						"label": "allowance",
						"offset": 0,
						"slot": "2",
						"type": "t_mapping(t_address,t_mapping(t_address,t_uint256))"
					},
					{
						"astId": 88,
						"contract": "interface.sol:ERC20",
						"label": "name",
						"offset": 0,
						"slot": "3",
						"type": "t_string_storage"
					},
					{
						"astId": 91,
						"contract": "interface.sol:ERC20",
						"label": "symbol",
						"offset": 0,
						"slot": "4",
						"type": "t_string_storage"
					},
					{
						"astId": 94,
						"contract": "interface.sol:ERC20",
						"label": "decimal",
						"offset": 0,
						"slot": "5",
						"type": "t_uint256"
					}
				],
				"types": {
					"t_address": {
						"encoding": "inplace",
						"label": "address",
						"numberOfBytes": "20"
					},
					"t_mapping(t_address,t_mapping(t_address,t_uint256))": {
						"encoding": "mapping",
						"key": "t_address",
						"label": "mapping(address => mapping(address => uint256))",
						"numberOfBytes": "32",
						"value": "t_mapping(t_address,t_uint256)"
					},
					"t_mapping(t_address,t_uint256)": {
						"encoding": "mapping",
						"key": "t_address",
						"label": "mapping(address => uint256)",
						"numberOfBytes": "32",
						"value": "t_uint256"
					},
					"t_string_storage": {
						"encoding": "bytes",
						"label": "string",
						"numberOfBytes": "32"
					},
					"t_uint256": {
						"encoding": "inplace",
						"label": "uint256",
						"numberOfBytes": "32"
					}
				}
			},
			"userdoc": {
				"kind": "user",
				"methods": {},
				"version": 1
			}
		}
	}
}