{
	"power.sol": {
		"zinny": {
			"abi": [
				{
					"inputs": [
						{
							"internalType": "address",
							"name": "",
							"type": "address"
						}
					],
					"name": "Mynumber",
					"outputs": [
						{
							"internalType": "uint256",
							"name": "",
							"type": "uint256"
						}
					],
					"stateMutability": "view",
					"type": "function"
				},
				{
					"inputs": [
						{
							"internalType": "uint256",
							"name": "y",
							"type": "uint256"
						}
					],
					"name": "addamount",
					"outputs": [],
					"stateMutability": "nonpayable",
					"type": "function"
				},
				{
					"inputs": [],
					"name": "toviewamount",
					"outputs": [
						{
							"internalType": "uint256",
							"name": "",
							"type": "uint256"
						}
					],
					"stateMutability": "view",
					"type": "function"
				}
			],
			"devdoc": {
				"kind": "dev",
				"methods": {},
				"version": 1
			},
			"evm": {
				"assembly": "    /* \"power.sol\":404:682  contract zinny{... */\n  mstore(0x40, 0x80)\n  callvalue\n  dup1\n  iszero\n  tag_1\n  jumpi\n  0x00\n  dup1\n  revert\ntag_1:\n  pop\n  dataSize(sub_0)\n  dup1\n  dataOffset(sub_0)\n  0x00\n  codecopy\n  0x00\n  return\nstop\n\nsub_0: assembly {\n        /* \"power.sol\":404:682  contract zinny{... */\n      mstore(0x40, 0x80)\n      callvalue\n      dup1\n      iszero\n      tag_1\n      jumpi\n      0x00\n      dup1\n      revert\n    tag_1:\n      pop\n      jumpi(tag_2, lt(calldatasize, 0x04))\n      shr(0xe0, calldataload(0x00))\n      dup1\n      0x2017c8fd\n      eq\n      tag_3\n      jumpi\n      dup1\n      0x828bd4b0\n      eq\n      tag_4\n      jumpi\n      dup1\n      0xb0a7ca56\n      eq\n      tag_5\n      jumpi\n    tag_2:\n      0x00\n      dup1\n      revert\n        /* \"power.sol\":572:670  function toviewamount()public  view returns(uint){... */\n    tag_3:\n        /* \"power.sol\":648:658  msg.sender */\n      caller\n        /* \"power.sol\":616:620  uint */\n      0x00\n        /* \"power.sol\":639:659  Mynumber[msg.sender] */\n      swap1\n      dup2\n      mstore\n      0x20\n      dup2\n      swap1\n      mstore\n      0x40\n      swap1\n      keccak256\n      sload\n        /* \"power.sol\":572:670  function toviewamount()public  view returns(uint){... */\n    tag_6:\n      mload(0x40)\n        /* \"#utility.yul\":160:185   */\n      swap1\n      dup2\n      mstore\n        /* \"#utility.yul\":148:150   */\n      0x20\n        /* \"#utility.yul\":133:151   */\n      add\n        /* \"power.sol\":572:670  function toviewamount()public  view returns(uint){... */\n      mload(0x40)\n      dup1\n      swap2\n      sub\n      swap1\n      return\n        /* \"power.sol\":476:563  function addamount(uint y)public {... */\n    tag_4:\n      tag_10\n      tag_11\n      calldatasize\n      0x04\n      tag_12\n      jump\t// in\n    tag_11:\n        /* \"power.sol\":529:539  msg.sender */\n      caller\n        /* \"power.sol\":520:528  Mynumber */\n      0x00\n        /* \"power.sol\":520:540  Mynumber[msg.sender] */\n      swap1\n      dup2\n      mstore\n      0x20\n      dup2\n      swap1\n      mstore\n      0x40\n      swap1\n      keccak256\n        /* \"power.sol\":520:542  Mynumber[msg.sender]=y */\n      sstore\n        /* \"power.sol\":476:563  function addamount(uint y)public {... */\n      jump\n    tag_10:\n      stop\n        /* \"power.sol\":426:466  mapping (address => uint)public Mynumber */\n    tag_5:\n      tag_6\n      tag_15\n      calldatasize\n      0x04\n      tag_16\n      jump\t// in\n    tag_15:\n      0x00\n      0x20\n      dup2\n      swap1\n      mstore\n      swap1\n      dup2\n      mstore\n      0x40\n      swap1\n      keccak256\n      sload\n      dup2\n      jump\n        /* \"#utility.yul\":196:376   */\n    tag_12:\n        /* \"#utility.yul\":255:261   */\n      0x00\n        /* \"#utility.yul\":308:310   */\n      0x20\n        /* \"#utility.yul\":296:305   */\n      dup3\n        /* \"#utility.yul\":287:294   */\n      dup5\n        /* \"#utility.yul\":283:306   */\n      sub\n        /* \"#utility.yul\":279:311   */\n      slt\n        /* \"#utility.yul\":276:328   */\n      iszero\n      tag_24\n      jumpi\n        /* \"#utility.yul\":324:325   */\n      0x00\n        /* \"#utility.yul\":321:322   */\n      dup1\n        /* \"#utility.yul\":314:326   */\n      revert\n        /* \"#utility.yul\":276:328   */\n    tag_24:\n      pop\n        /* \"#utility.yul\":347:370   */\n      calldataload\n      swap2\n        /* \"#utility.yul\":196:376   */\n      swap1\n      pop\n      jump\t// out\n        /* \"#utility.yul\":381:667   */\n    tag_16:\n        /* \"#utility.yul\":440:446   */\n      0x00\n        /* \"#utility.yul\":493:495   */\n      0x20\n        /* \"#utility.yul\":481:490   */\n      dup3\n        /* \"#utility.yul\":472:479   */\n      dup5\n        /* \"#utility.yul\":468:491   */\n      sub\n        /* \"#utility.yul\":464:496   */\n      slt\n        /* \"#utility.yul\":461:513   */\n      iszero\n      tag_26\n      jumpi\n        /* \"#utility.yul\":509:510   */\n      0x00\n        /* \"#utility.yul\":506:507   */\n      dup1\n        /* \"#utility.yul\":499:511   */\n      revert\n        /* \"#utility.yul\":461:513   */\n    tag_26:\n        /* \"#utility.yul\":535:558   */\n      dup2\n      calldataload\n      sub(shl(0xa0, 0x01), 0x01)\n        /* \"#utility.yul\":587:618   */\n      dup2\n      and\n        /* \"#utility.yul\":577:619   */\n      dup2\n      eq\n        /* \"#utility.yul\":567:637   */\n      tag_27\n      jumpi\n        /* \"#utility.yul\":633:634   */\n      0x00\n        /* \"#utility.yul\":630:631   */\n      dup1\n        /* \"#utility.yul\":623:635   */\n      revert\n        /* \"#utility.yul\":567:637   */\n    tag_27:\n        /* \"#utility.yul\":656:661   */\n      swap4\n        /* \"#utility.yul\":381:667   */\n      swap3\n      pop\n      pop\n      pop\n      jump\t// out\n\n    auxdata: 0xa2646970667358221220424b40676b640552a5b0522a3d0c92fee40aae1e8db6f79807f958a469d7489a64736f6c63430008160033\n}\n",
				"bytecode": {
					"linkReferences": {},
					"object": "608060405234801561000f575f80fd5b506101118061001d5f395ff3fe6080604052348015600e575f80fd5b5060043610603a575f3560e01c80632017c8fd14603e578063828bd4b0146060578063b0a7ca5614607e575b5f80fd5b335f908152602081905260409020545b60405190815260200160405180910390f35b607c606b366004609a565b335f90815260208190526040902055565b005b604e608936600460b0565b5f6020819052908152604090205481565b5f6020828403121560a9575f80fd5b5035919050565b5f6020828403121560bf575f80fd5b81356001600160a01b038116811460d4575f80fd5b939250505056fea2646970667358221220424b40676b640552a5b0522a3d0c92fee40aae1e8db6f79807f958a469d7489a64736f6c63430008160033",
					"opcodes": "PUSH1 0x80 PUSH1 0x40 MSTORE CALLVALUE DUP1 ISZERO PUSH2 0xF JUMPI PUSH0 DUP1 REVERT JUMPDEST POP PUSH2 0x111 DUP1 PUSH2 0x1D PUSH0 CODECOPY PUSH0 RETURN INVALID PUSH1 0x80 PUSH1 0x40 MSTORE CALLVALUE DUP1 ISZERO PUSH1 0xE JUMPI PUSH0 DUP1 REVERT JUMPDEST POP PUSH1 0x4 CALLDATASIZE LT PUSH1 0x3A JUMPI PUSH0 CALLDATALOAD PUSH1 0xE0 SHR DUP1 PUSH4 0x2017C8FD EQ PUSH1 0x3E JUMPI DUP1 PUSH4 0x828BD4B0 EQ PUSH1 0x60 JUMPI DUP1 PUSH4 0xB0A7CA56 EQ PUSH1 0x7E JUMPI JUMPDEST PUSH0 DUP1 REVERT JUMPDEST CALLER PUSH0 SWAP1 DUP2 MSTORE PUSH1 0x20 DUP2 SWAP1 MSTORE PUSH1 0x40 SWAP1 KECCAK256 SLOAD JUMPDEST PUSH1 0x40 MLOAD SWAP1 DUP2 MSTORE PUSH1 0x20 ADD PUSH1 0x40 MLOAD DUP1 SWAP2 SUB SWAP1 RETURN JUMPDEST PUSH1 0x7C PUSH1 0x6B CALLDATASIZE PUSH1 0x4 PUSH1 0x9A JUMP JUMPDEST CALLER PUSH0 SWAP1 DUP2 MSTORE PUSH1 0x20 DUP2 SWAP1 MSTORE PUSH1 0x40 SWAP1 KECCAK256 SSTORE JUMP JUMPDEST STOP JUMPDEST PUSH1 0x4E PUSH1 0x89 CALLDATASIZE PUSH1 0x4 PUSH1 0xB0 JUMP JUMPDEST PUSH0 PUSH1 0x20 DUP2 SWAP1 MSTORE SWAP1 DUP2 MSTORE PUSH1 0x40 SWAP1 KECCAK256 SLOAD DUP2 JUMP JUMPDEST PUSH0 PUSH1 0x20 DUP3 DUP5 SUB SLT ISZERO PUSH1 0xA9 JUMPI PUSH0 DUP1 REVERT JUMPDEST POP CALLDATALOAD SWAP2 SWAP1 POP JUMP JUMPDEST PUSH0 PUSH1 0x20 DUP3 DUP5 SUB SLT ISZERO PUSH1 0xBF JUMPI PUSH0 DUP1 REVERT JUMPDEST DUP2 CALLDATALOAD PUSH1 0x1 PUSH1 0x1 PUSH1 0xA0 SHL SUB DUP2 AND DUP2 EQ PUSH1 0xD4 JUMPI PUSH0 DUP1 REVERT JUMPDEST SWAP4 SWAP3 POP POP POP JUMP INVALID LOG2 PUSH5 0x6970667358 0x22 SLT KECCAK256 TIMESTAMP 0x4B BLOCKHASH PUSH8 0x6B640552A5B0522A RETURNDATASIZE 0xC SWAP3 INVALID 0xE4 EXP 0xAE 0x1E DUP14 0xB6 0xF7 SWAP9 SMOD 0xF9 PC LOG4 PUSH10 0xD7489A64736F6C634300 ADDMOD AND STOP CALLER "
				},
				"gasEstimates": {
					"creation": {
						"codeDepositCost": "54600",
						"executionCost": "103",
						"totalCost": "54703"
					},
					"external": {
						"Mynumber(address)": "2494",
						"addamount(uint256)": "22380",
						"toviewamount()": "2316"
					}
				},
				"methodIdentifiers": {
					"Mynumber(address)": "b0a7ca56",
					"addamount(uint256)": "828bd4b0",
					"toviewamount()": "2017c8fd"
				}
			},
			"storageLayout": {
				"storage": [
					{
						"astId": 5,
						"contract": "power.sol:zinny",
						"label": "Mynumber",
						"offset": 0,
						"slot": "0",
						"type": "t_mapping(t_address,t_uint256)"
					}
				],
				"types": {
					"t_address": {
						"encoding": "inplace",
						"label": "address",
						"numberOfBytes": "20"
					},
					"t_mapping(t_address,t_uint256)": {
						"encoding": "mapping",
						"key": "t_address",
						"label": "mapping(address => uint256)",
						"numberOfBytes": "32",
						"value": "t_uint256"
					},
					"t_uint256": {
						"encoding": "inplace",
						"label": "uint256",
						"numberOfBytes": "32"
					}
				}
			},
			"userdoc": {
				"kind": "user",
				"methods": {},
				"version": 1
			}
		}
	}
}