{
	"AMAKA.SOL": {
		"growth": {
			"abi": [
				{
					"inputs": [
						{
							"internalType": "uint256",
							"name": "",
							"type": "uint256"
						}
					],
					"name": "flourish",
					"outputs": [
						{
							"internalType": "uint256",
							"name": "age",
							"type": "uint256"
						},
						{
							"internalType": "string",
							"name": "name",
							"type": "string"
						},
						{
							"internalType": "uint256",
							"name": "password",
							"type": "uint256"
						},
						{
							"internalType": "string",
							"name": "username",
							"type": "string"
						},
						{
							"internalType": "string",
							"name": "emailaddress",
							"type": "string"
						}
					],
					"stateMutability": "view",
					"type": "function"
				},
				{
					"inputs": [
						{
							"internalType": "uint256",
							"name": "age",
							"type": "uint256"
						},
						{
							"internalType": "string",
							"name": "name",
							"type": "string"
						},
						{
							"internalType": "uint256",
							"name": "password",
							"type": "uint256"
						},
						{
							"internalType": "string",
							"name": "username",
							"type": "string"
						},
						{
							"internalType": "string",
							"name": "emailaddress",
							"type": "string"
						}
					],
					"name": "insert",
					"outputs": [],
					"stateMutability": "nonpayable",
					"type": "function"
				}
			],
			"devdoc": {
				"kind": "dev",
				"methods": {},
				"version": 1
			},
			"evm": {
				"assembly": "    /* \"AMAKA.SOL\":217:659  contract growth{... */\n  mstore(0x40, 0x80)\n  callvalue\n  dup1\n  iszero\n  tag_1\n  jumpi\n  0x00\n  dup1\n  revert\ntag_1:\n  pop\n  dataSize(sub_0)\n  dup1\n  dataOffset(sub_0)\n  0x00\n  codecopy\n  0x00\n  return\nstop\n\nsub_0: assembly {\n        /* \"AMAKA.SOL\":217:659  contract growth{... */\n      mstore(0x40, 0x80)\n      callvalue\n      dup1\n      iszero\n      tag_1\n      jumpi\n      0x00\n      dup1\n      revert\n    tag_1:\n      pop\n      jumpi(tag_2, lt(calldatasize, 0x04))\n      shr(0xe0, calldataload(0x00))\n      dup1\n      0x982a0a4f\n      eq\n      tag_3\n      jumpi\n      dup1\n      0xe13a0322\n      eq\n      tag_4\n      jumpi\n    tag_2:\n      0x00\n      dup1\n      revert\n        /* \"AMAKA.SOL\":385:410  tech4dev[]public flourish */\n    tag_3:\n      tag_5\n      tag_6\n      calldatasize\n      0x04\n      tag_7\n      jump\t// in\n    tag_6:\n      tag_8\n      jump\t// in\n    tag_5:\n      mload(0x40)\n      tag_9\n      swap6\n      swap5\n      swap4\n      swap3\n      swap2\n      swap1\n      tag_10\n      jump\t// in\n    tag_9:\n      mload(0x40)\n      dup1\n      swap2\n      sub\n      swap1\n      return\n        /* \"AMAKA.SOL\":415:656  function insert(uint age,string memory name,... */\n    tag_4:\n      tag_11\n      tag_12\n      calldatasize\n      0x04\n      tag_13\n      jump\t// in\n    tag_12:\n      tag_14\n      jump\t// in\n    tag_11:\n      stop\n        /* \"AMAKA.SOL\":385:410  tech4dev[]public flourish */\n    tag_8:\n      0x00\n      dup2\n      dup2\n      sload\n      dup2\n      lt\n      tag_15\n      jumpi\n      0x00\n      dup1\n      revert\n    tag_15:\n      0x00\n      swap2\n      dup3\n      mstore\n      0x20\n      swap1\n      swap2\n      keccak256\n      0x05\n      swap1\n      swap2\n      mul\n      add\n      dup1\n      sload\n      0x01\n      dup3\n      add\n      dup1\n      sload\n      swap2\n      swap4\n      pop\n      swap1\n      tag_17\n      swap1\n      tag_18\n      jump\t// in\n    tag_17:\n      dup1\n      0x1f\n      add\n      0x20\n      dup1\n      swap2\n      div\n      mul\n      0x20\n      add\n      mload(0x40)\n      swap1\n      dup2\n      add\n      0x40\n      mstore\n      dup1\n      swap3\n      swap2\n      swap1\n      dup2\n      dup2\n      mstore\n      0x20\n      add\n      dup3\n      dup1\n      sload\n      tag_19\n      swap1\n      tag_18\n      jump\t// in\n    tag_19:\n      dup1\n      iszero\n      tag_20\n      jumpi\n      dup1\n      0x1f\n      lt\n      tag_21\n      jumpi\n      0x0100\n      dup1\n      dup4\n      sload\n      div\n      mul\n      dup4\n      mstore\n      swap2\n      0x20\n      add\n      swap2\n      jump(tag_20)\n    tag_21:\n      dup3\n      add\n      swap2\n      swap1\n      0x00\n      mstore\n      keccak256(0x00, 0x20)\n      swap1\n    tag_22:\n      dup2\n      sload\n      dup2\n      mstore\n      swap1\n      0x01\n      add\n      swap1\n      0x20\n      add\n      dup1\n      dup4\n      gt\n      tag_22\n      jumpi\n      dup3\n      swap1\n      sub\n      0x1f\n      and\n      dup3\n      add\n      swap2\n    tag_20:\n      pop\n      pop\n      pop\n      pop\n      pop\n      swap1\n      dup1\n      0x02\n      add\n      sload\n      swap1\n      dup1\n      0x03\n      add\n      dup1\n      sload\n      tag_23\n      swap1\n      tag_18\n      jump\t// in\n    tag_23:\n      dup1\n      0x1f\n      add\n      0x20\n      dup1\n      swap2\n      div\n      mul\n      0x20\n      add\n      mload(0x40)\n      swap1\n      dup2\n      add\n      0x40\n      mstore\n      dup1\n      swap3\n      swap2\n      swap1\n      dup2\n      dup2\n      mstore\n      0x20\n      add\n      dup3\n      dup1\n      sload\n      tag_24\n      swap1\n      tag_18\n      jump\t// in\n    tag_24:\n      dup1\n      iszero\n      tag_25\n      jumpi\n      dup1\n      0x1f\n      lt\n      tag_26\n      jumpi\n      0x0100\n      dup1\n      dup4\n      sload\n      div\n      mul\n      dup4\n      mstore\n      swap2\n      0x20\n      add\n      swap2\n      jump(tag_25)\n    tag_26:\n      dup3\n      add\n      swap2\n      swap1\n      0x00\n      mstore\n      keccak256(0x00, 0x20)\n      swap1\n    tag_27:\n      dup2\n      sload\n      dup2\n      mstore\n      swap1\n      0x01\n      add\n      swap1\n      0x20\n      add\n      dup1\n      dup4\n      gt\n      tag_27\n      jumpi\n      dup3\n      swap1\n      sub\n      0x1f\n      and\n      dup3\n      add\n      swap2\n    tag_25:\n      pop\n      pop\n      pop\n      pop\n      pop\n      swap1\n      dup1\n      0x04\n      add\n      dup1\n      sload\n      tag_28\n      swap1\n      tag_18\n      jump\t// in\n    tag_28:\n      dup1\n      0x1f\n      add\n      0x20\n      dup1\n      swap2\n      div\n      mul\n      0x20\n      add\n      mload(0x40)\n      swap1\n      dup2\n      add\n      0x40\n      mstore\n      dup1\n      swap3\n      swap2\n      swap1\n      dup2\n      dup2\n      mstore\n      0x20\n      add\n      dup3\n      dup1\n      sload\n      tag_29\n      swap1\n      tag_18\n      jump\t// in\n    tag_29:\n      dup1\n      iszero\n      tag_30\n      jumpi\n      dup1\n      0x1f\n      lt\n      tag_31\n      jumpi\n      0x0100\n      dup1\n      dup4\n      sload\n      div\n      mul\n      dup4\n      mstore\n      swap2\n      0x20\n      add\n      swap2\n      jump(tag_30)\n    tag_31:\n      dup3\n      add\n      swap2\n      swap1\n      0x00\n      mstore\n      keccak256(0x00, 0x20)\n      swap1\n    tag_32:\n      dup2\n      sload\n      dup2\n      mstore\n      swap1\n      0x01\n      add\n      swap1\n      0x20\n      add\n      dup1\n      dup4\n      gt\n      tag_32\n      jumpi\n      dup3\n      swap1\n      sub\n      0x1f\n      and\n      dup3\n      add\n      swap2\n    tag_30:\n      pop\n      pop\n      pop\n      pop\n      pop\n      swap1\n      pop\n      dup6\n      jump\t// out\n        /* \"AMAKA.SOL\":415:656  function insert(uint age,string memory name,... */\n    tag_14:\n        /* \"AMAKA.SOL\":566:615  tech4dev(age,name,password,username,emailaddress) */\n      0x40\n      dup1\n      mload\n      0xa0\n      dup2\n      add\n      dup3\n      mstore\n      dup7\n      dup2\n      mstore\n      0x20\n      dup2\n      add\n      dup7\n      dup2\n      mstore\n      swap2\n      dup2\n      add\n      dup6\n      swap1\n      mstore\n      0x60\n      dup2\n      add\n      dup5\n      swap1\n      mstore\n      0x80\n      dup2\n      add\n      dup4\n      swap1\n      mstore\n        /* \"AMAKA.SOL\":540:563  tech4dev memory fellows */\n      0x00\n        /* \"AMAKA.SOL\":622:644  flourish.push(fellows) */\n      dup1\n      sload\n      0x01\n      dup2\n      add\n      dup3\n      sstore\n      swap1\n      dup1\n      mstore\n      dup2\n      mload\n      0x05\n      swap1\n      swap2\n      mul\n      0x290decd9548b62a8d60345a988386fc84ba6bc95484008f6362f93160ef3e563\n      dup2\n      add\n      swap2\n      dup3\n      sstore\n      swap3\n      mload\n        /* \"AMAKA.SOL\":566:615  tech4dev(age,name,password,username,emailaddress) */\n      swap2\n      swap3\n      dup4\n      swap3\n        /* \"AMAKA.SOL\":622:644  flourish.push(fellows) */\n      0x290decd9548b62a8d60345a988386fc84ba6bc95484008f6362f93160ef3e564\n      swap1\n      swap2\n      add\n      swap1\n      tag_35\n      swap1\n      dup3\n      tag_36\n      jump\t// in\n    tag_35:\n      pop\n      0x40\n      dup3\n      add\n      mload\n      0x02\n      dup3\n      add\n      sstore\n      0x60\n      dup3\n      add\n      mload\n      0x03\n      dup3\n      add\n      swap1\n      tag_37\n      swap1\n      dup3\n      tag_36\n      jump\t// in\n    tag_37:\n      pop\n      0x80\n      dup3\n      add\n      mload\n      0x04\n      dup3\n      add\n      swap1\n      tag_38\n      swap1\n      dup3\n      tag_36\n      jump\t// in\n    tag_38:\n      pop\n      pop\n      pop\n        /* \"AMAKA.SOL\":531:656  {... */\n      pop\n        /* \"AMAKA.SOL\":415:656  function insert(uint age,string memory name,... */\n      pop\n      pop\n      pop\n      pop\n      pop\n      jump\t// out\n        /* \"#utility.yul\":14:194   */\n    tag_7:\n        /* \"#utility.yul\":73:79   */\n      0x00\n        /* \"#utility.yul\":126:128   */\n      0x20\n        /* \"#utility.yul\":114:123   */\n      dup3\n        /* \"#utility.yul\":105:112   */\n      dup5\n        /* \"#utility.yul\":101:124   */\n      sub\n        /* \"#utility.yul\":97:129   */\n      slt\n        /* \"#utility.yul\":94:146   */\n      iszero\n      tag_47\n      jumpi\n        /* \"#utility.yul\":142:143   */\n      0x00\n        /* \"#utility.yul\":139:140   */\n      dup1\n        /* \"#utility.yul\":132:144   */\n      revert\n        /* \"#utility.yul\":94:146   */\n    tag_47:\n      pop\n        /* \"#utility.yul\":165:188   */\n      calldataload\n      swap2\n        /* \"#utility.yul\":14:194   */\n      swap1\n      pop\n      jump\t// out\n        /* \"#utility.yul\":199:622   */\n    tag_39:\n        /* \"#utility.yul\":241:244   */\n      0x00\n        /* \"#utility.yul\":279:284   */\n      dup2\n        /* \"#utility.yul\":273:285   */\n      mload\n        /* \"#utility.yul\":306:312   */\n      dup1\n        /* \"#utility.yul\":301:304   */\n      dup5\n        /* \"#utility.yul\":294:313   */\n      mstore\n        /* \"#utility.yul\":331:332   */\n      0x00\n        /* \"#utility.yul\":341:503   */\n    tag_49:\n        /* \"#utility.yul\":355:361   */\n      dup2\n        /* \"#utility.yul\":352:353   */\n      dup2\n        /* \"#utility.yul\":349:362   */\n      lt\n        /* \"#utility.yul\":341:503   */\n      iszero\n      tag_51\n      jumpi\n        /* \"#utility.yul\":417:421   */\n      0x20\n        /* \"#utility.yul\":473:486   */\n      dup2\n      dup6\n      add\n        /* \"#utility.yul\":469:491   */\n      dup2\n      add\n        /* \"#utility.yul\":463:492   */\n      mload\n        /* \"#utility.yul\":445:456   */\n      dup7\n      dup4\n      add\n        /* \"#utility.yul\":441:461   */\n      dup3\n      add\n        /* \"#utility.yul\":434:493   */\n      mstore\n        /* \"#utility.yul\":370:382   */\n      add\n        /* \"#utility.yul\":341:503   */\n      jump(tag_49)\n    tag_51:\n        /* \"#utility.yul\":345:348   */\n      pop\n        /* \"#utility.yul\":548:549   */\n      0x00\n        /* \"#utility.yul\":541:545   */\n      0x20\n        /* \"#utility.yul\":532:538   */\n      dup3\n        /* \"#utility.yul\":527:530   */\n      dup7\n        /* \"#utility.yul\":523:539   */\n      add\n        /* \"#utility.yul\":519:546   */\n      add\n        /* \"#utility.yul\":512:550   */\n      mstore\n        /* \"#utility.yul\":611:615   */\n      0x20\n        /* \"#utility.yul\":604:606   */\n      0x1f\n        /* \"#utility.yul\":600:607   */\n      not\n        /* \"#utility.yul\":595:597   */\n      0x1f\n        /* \"#utility.yul\":587:593   */\n      dup4\n        /* \"#utility.yul\":583:598   */\n      add\n        /* \"#utility.yul\":579:608   */\n      and\n        /* \"#utility.yul\":574:577   */\n      dup6\n        /* \"#utility.yul\":570:609   */\n      add\n        /* \"#utility.yul\":566:616   */\n      add\n        /* \"#utility.yul\":559:616   */\n      swap2\n      pop\n      pop\n        /* \"#utility.yul\":199:622   */\n      swap3\n      swap2\n      pop\n      pop\n      jump\t// out\n        /* \"#utility.yul\":627:1318   */\n    tag_10:\n        /* \"#utility.yul\":928:934   */\n      dup6\n        /* \"#utility.yul\":917:926   */\n      dup2\n        /* \"#utility.yul\":910:935   */\n      mstore\n        /* \"#utility.yul\":971:974   */\n      0xa0\n        /* \"#utility.yul\":966:968   */\n      0x20\n        /* \"#utility.yul\":955:964   */\n      dup3\n        /* \"#utility.yul\":951:969   */\n      add\n        /* \"#utility.yul\":944:975   */\n      mstore\n        /* \"#utility.yul\":891:895   */\n      0x00\n        /* \"#utility.yul\":998:1044   */\n      tag_53\n        /* \"#utility.yul\":1039:1042   */\n      0xa0\n        /* \"#utility.yul\":1028:1037   */\n      dup4\n        /* \"#utility.yul\":1024:1043   */\n      add\n        /* \"#utility.yul\":1016:1022   */\n      dup8\n        /* \"#utility.yul\":998:1044   */\n      tag_39\n      jump\t// in\n    tag_53:\n        /* \"#utility.yul\":1080:1086   */\n      dup6\n        /* \"#utility.yul\":1075:1077   */\n      0x40\n        /* \"#utility.yul\":1064:1073   */\n      dup5\n        /* \"#utility.yul\":1060:1078   */\n      add\n        /* \"#utility.yul\":1053:1087   */\n      mstore\n        /* \"#utility.yul\":1135:1144   */\n      dup3\n        /* \"#utility.yul\":1127:1133   */\n      dup2\n        /* \"#utility.yul\":1123:1145   */\n      sub\n        /* \"#utility.yul\":1118:1120   */\n      0x60\n        /* \"#utility.yul\":1107:1116   */\n      dup5\n        /* \"#utility.yul\":1103:1121   */\n      add\n        /* \"#utility.yul\":1096:1146   */\n      mstore\n        /* \"#utility.yul\":1169:1202   */\n      tag_54\n        /* \"#utility.yul\":1195:1201   */\n      dup2\n        /* \"#utility.yul\":1187:1193   */\n      dup7\n        /* \"#utility.yul\":1169:1202   */\n      tag_39\n      jump\t// in\n    tag_54:\n        /* \"#utility.yul\":1155:1202   */\n      swap1\n      pop\n        /* \"#utility.yul\":1251:1260   */\n      dup3\n        /* \"#utility.yul\":1243:1249   */\n      dup2\n        /* \"#utility.yul\":1239:1261   */\n      sub\n        /* \"#utility.yul\":1233:1236   */\n      0x80\n        /* \"#utility.yul\":1222:1231   */\n      dup5\n        /* \"#utility.yul\":1218:1237   */\n      add\n        /* \"#utility.yul\":1211:1262   */\n      mstore\n        /* \"#utility.yul\":1279:1312   */\n      tag_55\n        /* \"#utility.yul\":1305:1311   */\n      dup2\n        /* \"#utility.yul\":1297:1303   */\n      dup6\n        /* \"#utility.yul\":1279:1312   */\n      tag_39\n      jump\t// in\n    tag_55:\n        /* \"#utility.yul\":1271:1312   */\n      swap9\n        /* \"#utility.yul\":627:1318   */\n      swap8\n      pop\n      pop\n      pop\n      pop\n      pop\n      pop\n      pop\n      pop\n      jump\t// out\n        /* \"#utility.yul\":1323:1450   */\n    tag_40:\n        /* \"#utility.yul\":1384:1394   */\n      0x4e487b71\n        /* \"#utility.yul\":1379:1382   */\n      0xe0\n        /* \"#utility.yul\":1375:1395   */\n      shl\n        /* \"#utility.yul\":1372:1373   */\n      0x00\n        /* \"#utility.yul\":1365:1396   */\n      mstore\n        /* \"#utility.yul\":1415:1419   */\n      0x41\n        /* \"#utility.yul\":1412:1413   */\n      0x04\n        /* \"#utility.yul\":1405:1420   */\n      mstore\n        /* \"#utility.yul\":1439:1443   */\n      0x24\n        /* \"#utility.yul\":1436:1437   */\n      0x00\n        /* \"#utility.yul\":1429:1444   */\n      revert\n        /* \"#utility.yul\":1455:2174   */\n    tag_41:\n        /* \"#utility.yul\":1498:1503   */\n      0x00\n        /* \"#utility.yul\":1551:1554   */\n      dup3\n        /* \"#utility.yul\":1544:1548   */\n      0x1f\n        /* \"#utility.yul\":1536:1542   */\n      dup4\n        /* \"#utility.yul\":1532:1549   */\n      add\n        /* \"#utility.yul\":1528:1555   */\n      slt\n        /* \"#utility.yul\":1518:1573   */\n      tag_58\n      jumpi\n        /* \"#utility.yul\":1569:1570   */\n      0x00\n        /* \"#utility.yul\":1566:1567   */\n      dup1\n        /* \"#utility.yul\":1559:1571   */\n      revert\n        /* \"#utility.yul\":1518:1573   */\n    tag_58:\n        /* \"#utility.yul\":1605:1611   */\n      dup2\n        /* \"#utility.yul\":1592:1612   */\n      calldataload\n        /* \"#utility.yul\":1631:1649   */\n      0xffffffffffffffff\n        /* \"#utility.yul\":1668:1670   */\n      dup1\n        /* \"#utility.yul\":1664:1666   */\n      dup3\n        /* \"#utility.yul\":1661:1671   */\n      gt\n        /* \"#utility.yul\":1658:1694   */\n      iszero\n      tag_60\n      jumpi\n        /* \"#utility.yul\":1674:1692   */\n      tag_60\n      tag_40\n      jump\t// in\n    tag_60:\n        /* \"#utility.yul\":1749:1751   */\n      0x40\n        /* \"#utility.yul\":1743:1752   */\n      mload\n        /* \"#utility.yul\":1717:1719   */\n      0x1f\n        /* \"#utility.yul\":1803:1816   */\n      dup4\n      add\n      not(0x1f)\n        /* \"#utility.yul\":1799:1821   */\n      swap1\n      dup2\n      and\n        /* \"#utility.yul\":1823:1825   */\n      0x3f\n        /* \"#utility.yul\":1795:1826   */\n      add\n        /* \"#utility.yul\":1791:1831   */\n      and\n        /* \"#utility.yul\":1779:1832   */\n      dup2\n      add\n      swap1\n        /* \"#utility.yul\":1847:1865   */\n      dup3\n      dup3\n      gt\n        /* \"#utility.yul\":1867:1889   */\n      dup2\n      dup4\n      lt\n        /* \"#utility.yul\":1844:1890   */\n      or\n        /* \"#utility.yul\":1841:1913   */\n      iszero\n      tag_62\n      jumpi\n        /* \"#utility.yul\":1893:1911   */\n      tag_62\n      tag_40\n      jump\t// in\n    tag_62:\n        /* \"#utility.yul\":1933:1943   */\n      dup2\n        /* \"#utility.yul\":1929:1931   */\n      0x40\n        /* \"#utility.yul\":1922:1944   */\n      mstore\n        /* \"#utility.yul\":1968:1970   */\n      dup4\n        /* \"#utility.yul\":1960:1966   */\n      dup2\n        /* \"#utility.yul\":1953:1971   */\n      mstore\n        /* \"#utility.yul\":2014:2017   */\n      dup7\n        /* \"#utility.yul\":2007:2011   */\n      0x20\n        /* \"#utility.yul\":2002:2004   */\n      dup6\n        /* \"#utility.yul\":1994:2000   */\n      dup9\n        /* \"#utility.yul\":1990:2005   */\n      add\n        /* \"#utility.yul\":1986:2012   */\n      add\n        /* \"#utility.yul\":1983:2018   */\n      gt\n        /* \"#utility.yul\":1980:2035   */\n      iszero\n      tag_63\n      jumpi\n        /* \"#utility.yul\":2031:2032   */\n      0x00\n        /* \"#utility.yul\":2028:2029   */\n      dup1\n        /* \"#utility.yul\":2021:2033   */\n      revert\n        /* \"#utility.yul\":1980:2035   */\n    tag_63:\n        /* \"#utility.yul\":2095:2097   */\n      dup4\n        /* \"#utility.yul\":2088:2092   */\n      0x20\n        /* \"#utility.yul\":2080:2086   */\n      dup8\n        /* \"#utility.yul\":2076:2093   */\n      add\n        /* \"#utility.yul\":2069:2073   */\n      0x20\n        /* \"#utility.yul\":2061:2067   */\n      dup4\n        /* \"#utility.yul\":2057:2074   */\n      add\n        /* \"#utility.yul\":2044:2098   */\n      calldatacopy\n        /* \"#utility.yul\":2142:2143   */\n      0x00\n        /* \"#utility.yul\":2135:2139   */\n      0x20\n        /* \"#utility.yul\":2130:2132   */\n      dup6\n        /* \"#utility.yul\":2122:2128   */\n      dup4\n        /* \"#utility.yul\":2118:2133   */\n      add\n        /* \"#utility.yul\":2114:2140   */\n      add\n        /* \"#utility.yul\":2107:2144   */\n      mstore\n        /* \"#utility.yul\":2162:2168   */\n      dup1\n        /* \"#utility.yul\":2153:2168   */\n      swap5\n      pop\n      pop\n      pop\n      pop\n      pop\n        /* \"#utility.yul\":1455:2174   */\n      swap3\n      swap2\n      pop\n      pop\n      jump\t// out\n        /* \"#utility.yul\":2179:3060   */\n    tag_13:\n        /* \"#utility.yul\":2304:2310   */\n      0x00\n        /* \"#utility.yul\":2312:2318   */\n      dup1\n        /* \"#utility.yul\":2320:2326   */\n      0x00\n        /* \"#utility.yul\":2328:2334   */\n      dup1\n        /* \"#utility.yul\":2336:2342   */\n      0x00\n        /* \"#utility.yul\":2389:2392   */\n      0xa0\n        /* \"#utility.yul\":2377:2386   */\n      dup7\n        /* \"#utility.yul\":2368:2375   */\n      dup9\n        /* \"#utility.yul\":2364:2387   */\n      sub\n        /* \"#utility.yul\":2360:2393   */\n      slt\n        /* \"#utility.yul\":2357:2410   */\n      iszero\n      tag_65\n      jumpi\n        /* \"#utility.yul\":2406:2407   */\n      0x00\n        /* \"#utility.yul\":2403:2404   */\n      dup1\n        /* \"#utility.yul\":2396:2408   */\n      revert\n        /* \"#utility.yul\":2357:2410   */\n    tag_65:\n        /* \"#utility.yul\":2442:2451   */\n      dup6\n        /* \"#utility.yul\":2429:2452   */\n      calldataload\n        /* \"#utility.yul\":2419:2452   */\n      swap5\n      pop\n        /* \"#utility.yul\":2503:2505   */\n      0x20\n        /* \"#utility.yul\":2492:2501   */\n      dup7\n        /* \"#utility.yul\":2488:2506   */\n      add\n        /* \"#utility.yul\":2475:2507   */\n      calldataload\n        /* \"#utility.yul\":2526:2544   */\n      0xffffffffffffffff\n        /* \"#utility.yul\":2567:2569   */\n      dup1\n        /* \"#utility.yul\":2559:2565   */\n      dup3\n        /* \"#utility.yul\":2556:2570   */\n      gt\n        /* \"#utility.yul\":2553:2587   */\n      iszero\n      tag_66\n      jumpi\n        /* \"#utility.yul\":2583:2584   */\n      0x00\n        /* \"#utility.yul\":2580:2581   */\n      dup1\n        /* \"#utility.yul\":2573:2585   */\n      revert\n        /* \"#utility.yul\":2553:2587   */\n    tag_66:\n        /* \"#utility.yul\":2606:2656   */\n      tag_67\n        /* \"#utility.yul\":2648:2655   */\n      dup10\n        /* \"#utility.yul\":2639:2645   */\n      dup4\n        /* \"#utility.yul\":2628:2637   */\n      dup11\n        /* \"#utility.yul\":2624:2646   */\n      add\n        /* \"#utility.yul\":2606:2656   */\n      tag_41\n      jump\t// in\n    tag_67:\n        /* \"#utility.yul\":2596:2656   */\n      swap6\n      pop\n        /* \"#utility.yul\":2703:2705   */\n      0x40\n        /* \"#utility.yul\":2692:2701   */\n      dup9\n        /* \"#utility.yul\":2688:2706   */\n      add\n        /* \"#utility.yul\":2675:2707   */\n      calldataload\n        /* \"#utility.yul\":2665:2707   */\n      swap5\n      pop\n        /* \"#utility.yul\":2760:2762   */\n      0x60\n        /* \"#utility.yul\":2749:2758   */\n      dup9\n        /* \"#utility.yul\":2745:2763   */\n      add\n        /* \"#utility.yul\":2732:2764   */\n      calldataload\n        /* \"#utility.yul\":2716:2764   */\n      swap2\n      pop\n        /* \"#utility.yul\":2789:2791   */\n      dup1\n        /* \"#utility.yul\":2779:2787   */\n      dup3\n        /* \"#utility.yul\":2776:2792   */\n      gt\n        /* \"#utility.yul\":2773:2809   */\n      iszero\n      tag_68\n      jumpi\n        /* \"#utility.yul\":2805:2806   */\n      0x00\n        /* \"#utility.yul\":2802:2803   */\n      dup1\n        /* \"#utility.yul\":2795:2807   */\n      revert\n        /* \"#utility.yul\":2773:2809   */\n    tag_68:\n        /* \"#utility.yul\":2828:2880   */\n      tag_69\n        /* \"#utility.yul\":2872:2879   */\n      dup10\n        /* \"#utility.yul\":2861:2869   */\n      dup4\n        /* \"#utility.yul\":2850:2859   */\n      dup11\n        /* \"#utility.yul\":2846:2870   */\n      add\n        /* \"#utility.yul\":2828:2880   */\n      tag_41\n      jump\t// in\n    tag_69:\n        /* \"#utility.yul\":2818:2880   */\n      swap4\n      pop\n        /* \"#utility.yul\":2933:2936   */\n      0x80\n        /* \"#utility.yul\":2922:2931   */\n      dup9\n        /* \"#utility.yul\":2918:2937   */\n      add\n        /* \"#utility.yul\":2905:2938   */\n      calldataload\n        /* \"#utility.yul\":2889:2938   */\n      swap2\n      pop\n        /* \"#utility.yul\":2963:2965   */\n      dup1\n        /* \"#utility.yul\":2953:2961   */\n      dup3\n        /* \"#utility.yul\":2950:2966   */\n      gt\n        /* \"#utility.yul\":2947:2983   */\n      iszero\n      tag_70\n      jumpi\n        /* \"#utility.yul\":2979:2980   */\n      0x00\n        /* \"#utility.yul\":2976:2977   */\n      dup1\n        /* \"#utility.yul\":2969:2981   */\n      revert\n        /* \"#utility.yul\":2947:2983   */\n    tag_70:\n      pop\n        /* \"#utility.yul\":3002:3054   */\n      tag_71\n        /* \"#utility.yul\":3046:3053   */\n      dup9\n        /* \"#utility.yul\":3035:3043   */\n      dup3\n        /* \"#utility.yul\":3024:3033   */\n      dup10\n        /* \"#utility.yul\":3020:3044   */\n      add\n        /* \"#utility.yul\":3002:3054   */\n      tag_41\n      jump\t// in\n    tag_71:\n        /* \"#utility.yul\":2992:3054   */\n      swap2\n      pop\n      pop\n        /* \"#utility.yul\":2179:3060   */\n      swap3\n      swap6\n      pop\n      swap3\n      swap6\n      swap1\n      swap4\n      pop\n      jump\t// out\n        /* \"#utility.yul\":3065:3445   */\n    tag_18:\n        /* \"#utility.yul\":3144:3145   */\n      0x01\n        /* \"#utility.yul\":3140:3152   */\n      dup2\n      dup2\n      shr\n      swap1\n        /* \"#utility.yul\":3187:3199   */\n      dup3\n      and\n      dup1\n        /* \"#utility.yul\":3208:3269   */\n      tag_73\n      jumpi\n        /* \"#utility.yul\":3262:3266   */\n      0x7f\n        /* \"#utility.yul\":3254:3260   */\n      dup3\n        /* \"#utility.yul\":3250:3267   */\n      and\n        /* \"#utility.yul\":3240:3267   */\n      swap2\n      pop\n        /* \"#utility.yul\":3208:3269   */\n    tag_73:\n        /* \"#utility.yul\":3315:3317   */\n      0x20\n        /* \"#utility.yul\":3307:3313   */\n      dup3\n        /* \"#utility.yul\":3304:3318   */\n      lt\n        /* \"#utility.yul\":3284:3302   */\n      dup2\n        /* \"#utility.yul\":3281:3319   */\n      sub\n        /* \"#utility.yul\":3278:3439   */\n      tag_74\n      jumpi\n        /* \"#utility.yul\":3361:3371   */\n      0x4e487b71\n        /* \"#utility.yul\":3356:3359   */\n      0xe0\n        /* \"#utility.yul\":3352:3372   */\n      shl\n        /* \"#utility.yul\":3349:3350   */\n      0x00\n        /* \"#utility.yul\":3342:3373   */\n      mstore\n        /* \"#utility.yul\":3396:3400   */\n      0x22\n        /* \"#utility.yul\":3393:3394   */\n      0x04\n        /* \"#utility.yul\":3386:3401   */\n      mstore\n        /* \"#utility.yul\":3424:3428   */\n      0x24\n        /* \"#utility.yul\":3421:3422   */\n      0x00\n        /* \"#utility.yul\":3414:3429   */\n      revert\n        /* \"#utility.yul\":3278:3439   */\n    tag_74:\n      pop\n        /* \"#utility.yul\":3065:3445   */\n      swap2\n      swap1\n      pop\n      jump\t// out\n        /* \"#utility.yul\":3576:4094   */\n    tag_43:\n        /* \"#utility.yul\":3678:3680   */\n      0x1f\n        /* \"#utility.yul\":3673:3676   */\n      dup3\n        /* \"#utility.yul\":3670:3681   */\n      gt\n        /* \"#utility.yul\":3667:4088   */\n      iszero\n      tag_77\n      jumpi\n        /* \"#utility.yul\":3714:3719   */\n      dup1\n        /* \"#utility.yul\":3711:3712   */\n      0x00\n        /* \"#utility.yul\":3704:3720   */\n      mstore\n        /* \"#utility.yul\":3758:3762   */\n      0x20\n        /* \"#utility.yul\":3755:3756   */\n      0x00\n        /* \"#utility.yul\":3745:3763   */\n      keccak256\n        /* \"#utility.yul\":3828:3830   */\n      0x1f\n        /* \"#utility.yul\":3816:3826   */\n      dup5\n        /* \"#utility.yul\":3812:3831   */\n      add\n        /* \"#utility.yul\":3809:3810   */\n      0x05\n        /* \"#utility.yul\":3805:3832   */\n      shr\n        /* \"#utility.yul\":3799:3803   */\n      dup2\n        /* \"#utility.yul\":3795:3833   */\n      add\n        /* \"#utility.yul\":3864:3868   */\n      0x20\n        /* \"#utility.yul\":3852:3862   */\n      dup6\n        /* \"#utility.yul\":3849:3869   */\n      lt\n        /* \"#utility.yul\":3846:3893   */\n      iszero\n      tag_78\n      jumpi\n      pop\n        /* \"#utility.yul\":3887:3891   */\n      dup1\n        /* \"#utility.yul\":3846:3893   */\n    tag_78:\n        /* \"#utility.yul\":3942:3944   */\n      0x1f\n        /* \"#utility.yul\":3937:3940   */\n      dup5\n        /* \"#utility.yul\":3933:3945   */\n      add\n        /* \"#utility.yul\":3930:3931   */\n      0x05\n        /* \"#utility.yul\":3926:3946   */\n      shr\n        /* \"#utility.yul\":3920:3924   */\n      dup3\n        /* \"#utility.yul\":3916:3947   */\n      add\n        /* \"#utility.yul\":3906:3947   */\n      swap2\n      pop\n        /* \"#utility.yul\":3997:4078   */\n    tag_79:\n        /* \"#utility.yul\":4015:4017   */\n      dup2\n        /* \"#utility.yul\":4008:4013   */\n      dup2\n        /* \"#utility.yul\":4005:4018   */\n      lt\n        /* \"#utility.yul\":3997:4078   */\n      iszero\n      tag_81\n      jumpi\n        /* \"#utility.yul\":4074:4075   */\n      0x00\n        /* \"#utility.yul\":4060:4076   */\n      dup2\n      sstore\n        /* \"#utility.yul\":4041:4042   */\n      0x01\n        /* \"#utility.yul\":4030:4043   */\n      add\n        /* \"#utility.yul\":3997:4078   */\n      jump(tag_79)\n    tag_81:\n        /* \"#utility.yul\":4001:4004   */\n      pop\n      pop\n        /* \"#utility.yul\":3667:4088   */\n    tag_77:\n        /* \"#utility.yul\":3576:4094   */\n      pop\n      pop\n      pop\n      jump\t// out\n        /* \"#utility.yul\":4270:5615   */\n    tag_36:\n        /* \"#utility.yul\":4396:4399   */\n      dup2\n        /* \"#utility.yul\":4390:4400   */\n      mload\n        /* \"#utility.yul\":4423:4441   */\n      0xffffffffffffffff\n        /* \"#utility.yul\":4415:4421   */\n      dup2\n        /* \"#utility.yul\":4412:4442   */\n      gt\n        /* \"#utility.yul\":4409:4465   */\n      iszero\n      tag_85\n      jumpi\n        /* \"#utility.yul\":4445:4463   */\n      tag_85\n      tag_40\n      jump\t// in\n    tag_85:\n        /* \"#utility.yul\":4474:4571   */\n      tag_86\n        /* \"#utility.yul\":4564:4570   */\n      dup2\n        /* \"#utility.yul\":4524:4562   */\n      tag_87\n        /* \"#utility.yul\":4556:4560   */\n      dup5\n        /* \"#utility.yul\":4550:4561   */\n      sload\n        /* \"#utility.yul\":4524:4562   */\n      tag_18\n      jump\t// in\n    tag_87:\n        /* \"#utility.yul\":4518:4522   */\n      dup5\n        /* \"#utility.yul\":4474:4571   */\n      tag_43\n      jump\t// in\n    tag_86:\n        /* \"#utility.yul\":4626:4630   */\n      0x20\n      dup1\n        /* \"#utility.yul\":4683:4685   */\n      0x1f\n        /* \"#utility.yul\":4672:4686   */\n      dup4\n      gt\n        /* \"#utility.yul\":4700:4701   */\n      0x01\n        /* \"#utility.yul\":4695:5358   */\n      dup2\n      eq\n      tag_89\n      jumpi\n        /* \"#utility.yul\":5402:5403   */\n      0x00\n        /* \"#utility.yul\":5419:5425   */\n      dup5\n        /* \"#utility.yul\":5416:5505   */\n      iszero\n      tag_90\n      jumpi\n      pop\n        /* \"#utility.yul\":5471:5490   */\n      dup6\n      dup4\n      add\n        /* \"#utility.yul\":5465:5491   */\n      mload\n        /* \"#utility.yul\":5416:5505   */\n    tag_90:\n      not(0x00)\n        /* \"#utility.yul\":4227:4228   */\n      0x03\n        /* \"#utility.yul\":4223:4234   */\n      dup7\n      swap1\n      shl\n        /* \"#utility.yul\":4219:4243   */\n      shr\n        /* \"#utility.yul\":4215:4244   */\n      not\n        /* \"#utility.yul\":4205:4245   */\n      and\n        /* \"#utility.yul\":4251:4252   */\n      0x01\n        /* \"#utility.yul\":4247:4258   */\n      dup6\n      swap1\n      shl\n        /* \"#utility.yul\":4202:4259   */\n      or\n        /* \"#utility.yul\":5518:5599   */\n      dup6\n      sstore\n        /* \"#utility.yul\":4665:5609   */\n      jump(tag_88)\n        /* \"#utility.yul\":4695:5358   */\n    tag_89:\n        /* \"#utility.yul\":3523:3524   */\n      0x00\n        /* \"#utility.yul\":3516:3530   */\n      dup6\n      dup2\n      mstore\n        /* \"#utility.yul\":3560:3564   */\n      0x20\n        /* \"#utility.yul\":3547:3565   */\n      dup2\n      keccak256\n      not(0x1f)\n        /* \"#utility.yul\":4731:4751   */\n      dup7\n      and\n      swap2\n        /* \"#utility.yul\":4849:5085   */\n    tag_93:\n        /* \"#utility.yul\":4863:4870   */\n      dup3\n        /* \"#utility.yul\":4860:4861   */\n      dup2\n        /* \"#utility.yul\":4857:4871   */\n      lt\n        /* \"#utility.yul\":4849:5085   */\n      iszero\n      tag_95\n      jumpi\n        /* \"#utility.yul\":4952:4971   */\n      dup9\n      dup7\n      add\n        /* \"#utility.yul\":4946:4972   */\n      mload\n        /* \"#utility.yul\":4931:4973   */\n      dup3\n      sstore\n        /* \"#utility.yul\":5044:5071   */\n      swap5\n      dup5\n      add\n      swap5\n        /* \"#utility.yul\":5012:5013   */\n      0x01\n        /* \"#utility.yul\":5000:5014   */\n      swap1\n      swap2\n      add\n      swap1\n        /* \"#utility.yul\":4879:4898   */\n      dup5\n      add\n        /* \"#utility.yul\":4849:5085   */\n      jump(tag_93)\n    tag_95:\n        /* \"#utility.yul\":4853:4856   */\n      pop\n        /* \"#utility.yul\":5113:5119   */\n      dup6\n        /* \"#utility.yul\":5104:5111   */\n      dup3\n        /* \"#utility.yul\":5101:5120   */\n      lt\n        /* \"#utility.yul\":5098:5299   */\n      iszero\n      tag_96\n      jumpi\n        /* \"#utility.yul\":5174:5193   */\n      dup8\n      dup6\n      add\n        /* \"#utility.yul\":5168:5194   */\n      mload\n      not(0x00)\n        /* \"#utility.yul\":5257:5258   */\n      0x03\n        /* \"#utility.yul\":5253:5267   */\n      dup9\n      swap1\n      shl\n        /* \"#utility.yul\":5269:5272   */\n      0xf8\n        /* \"#utility.yul\":5249:5273   */\n      and\n        /* \"#utility.yul\":5245:5282   */\n      shr\n        /* \"#utility.yul\":5241:5283   */\n      not\n        /* \"#utility.yul\":5226:5284   */\n      and\n        /* \"#utility.yul\":5211:5285   */\n      dup2\n      sstore\n        /* \"#utility.yul\":5098:5299   */\n    tag_96:\n      pop\n      pop\n        /* \"#utility.yul\":5345:5346   */\n      0x01\n        /* \"#utility.yul\":5336:5342   */\n      dup5\n        /* \"#utility.yul\":5333:5334   */\n      0x01\n        /* \"#utility.yul\":5329:5343   */\n      shl\n        /* \"#utility.yul\":5325:5347   */\n      add\n        /* \"#utility.yul\":5319:5323   */\n      dup6\n        /* \"#utility.yul\":5312:5348   */\n      sstore\n        /* \"#utility.yul\":4665:5609   */\n    tag_88:\n      pop\n      pop\n      pop\n      pop\n        /* \"#utility.yul\":4270:5615   */\n      pop\n      pop\n      jump\t// out\n\n    auxdata: 0xa26469706673582212209bfa52470dceb733ed5d96b1e8d87a91f7925a3733390676c067a96da2da16a764736f6c63430008160033\n}\n",
				"bytecode": {
					"linkReferences": {},
					"object": "608060405234801561000f575f80fd5b506106768061001d5f395ff3fe608060405234801561000f575f80fd5b5060043610610034575f3560e01c8063982a0a4f14610038578063e13a032214610065575b5f80fd5b61004b610046366004610320565b61007a565b60405161005c95949392919061037a565b60405180910390f35b610078610073366004610467565b61024b565b005b5f8181548110610088575f80fd5b5f91825260209091206005909102018054600182018054919350906100ac906104fc565b80601f01602080910402602001604051908101604052809291908181526020018280546100d8906104fc565b80156101235780601f106100fa57610100808354040283529160200191610123565b820191905f5260205f20905b81548152906001019060200180831161010657829003601f168201915b50505050509080600201549080600301805461013e906104fc565b80601f016020809104026020016040519081016040528092919081815260200182805461016a906104fc565b80156101b55780601f1061018c576101008083540402835291602001916101b5565b820191905f5260205f20905b81548152906001019060200180831161019857829003601f168201915b5050505050908060040180546101ca906104fc565b80601f01602080910402602001604051908101604052809291908181526020018280546101f6906104fc565b80156102415780601f1061021857610100808354040283529160200191610241565b820191905f5260205f20905b81548152906001019060200180831161022457829003601f168201915b5050505050905085565b6040805160a0810182528681526020810186815291810185905260608101849052608081018390525f8054600181018255908052815160059091027f290decd9548b62a8d60345a988386fc84ba6bc95484008f6362f93160ef3e56381019182559251919283927f290decd9548b62a8d60345a988386fc84ba6bc95484008f6362f93160ef3e564909101906102e19082610580565b5060408201516002820155606082015160038201906103009082610580565b50608082015160048201906103159082610580565b505050505050505050565b5f60208284031215610330575f80fd5b5035919050565b5f81518084525f5b8181101561035b5760208185018101518683018201520161033f565b505f602082860101526020601f19601f83011685010191505092915050565b85815260a060208201525f61039260a0830187610337565b85604084015282810360608401526103aa8186610337565b905082810360808401526103be8185610337565b98975050505050505050565b634e487b7160e01b5f52604160045260245ffd5b5f82601f8301126103ed575f80fd5b813567ffffffffffffffff80821115610408576104086103ca565b604051601f8301601f19908116603f01168101908282118183101715610430576104306103ca565b81604052838152866020858801011115610448575f80fd5b836020870160208301375f602085830101528094505050505092915050565b5f805f805f60a0868803121561047b575f80fd5b85359450602086013567ffffffffffffffff80821115610499575f80fd5b6104a589838a016103de565b95506040880135945060608801359150808211156104c1575f80fd5b6104cd89838a016103de565b935060808801359150808211156104e2575f80fd5b506104ef888289016103de565b9150509295509295909350565b600181811c9082168061051057607f821691505b60208210810361052e57634e487b7160e01b5f52602260045260245ffd5b50919050565b601f82111561057b57805f5260205f20601f840160051c810160208510156105595750805b601f840160051c820191505b81811015610578575f8155600101610565565b50505b505050565b815167ffffffffffffffff81111561059a5761059a6103ca565b6105ae816105a884546104fc565b84610534565b602080601f8311600181146105e1575f84156105ca5750858301515b5f19600386901b1c1916600185901b178555610638565b5f85815260208120601f198616915b8281101561060f578886015182559484019460019091019084016105f0565b508582101561062c57878501515f19600388901b60f8161c191681555b505060018460011b0185555b50505050505056fea26469706673582212209bfa52470dceb733ed5d96b1e8d87a91f7925a3733390676c067a96da2da16a764736f6c63430008160033",
					"opcodes": "PUSH1 0x80 PUSH1 0x40 MSTORE CALLVALUE DUP1 ISZERO PUSH2 0xF JUMPI PUSH0 DUP1 REVERT JUMPDEST POP PUSH2 0x676 DUP1 PUSH2 0x1D PUSH0 CODECOPY PUSH0 RETURN INVALID PUSH1 0x80 PUSH1 0x40 MSTORE CALLVALUE DUP1 ISZERO PUSH2 0xF JUMPI PUSH0 DUP1 REVERT JUMPDEST POP PUSH1 0x4 CALLDATASIZE LT PUSH2 0x34 JUMPI PUSH0 CALLDATALOAD PUSH1 0xE0 SHR DUP1 PUSH4 0x982A0A4F EQ PUSH2 0x38 JUMPI DUP1 PUSH4 0xE13A0322 EQ PUSH2 0x65 JUMPI JUMPDEST PUSH0 DUP1 REVERT JUMPDEST PUSH2 0x4B PUSH2 0x46 CALLDATASIZE PUSH1 0x4 PUSH2 0x320 JUMP JUMPDEST PUSH2 0x7A JUMP JUMPDEST PUSH1 0x40 MLOAD PUSH2 0x5C SWAP6 SWAP5 SWAP4 SWAP3 SWAP2 SWAP1 PUSH2 0x37A JUMP JUMPDEST PUSH1 0x40 MLOAD DUP1 SWAP2 SUB SWAP1 RETURN JUMPDEST PUSH2 0x78 PUSH2 0x73 CALLDATASIZE PUSH1 0x4 PUSH2 0x467 JUMP JUMPDEST PUSH2 0x24B JUMP JUMPDEST STOP JUMPDEST PUSH0 DUP2 DUP2 SLOAD DUP2 LT PUSH2 0x88 JUMPI PUSH0 DUP1 REVERT JUMPDEST PUSH0 SWAP2 DUP3 MSTORE PUSH1 0x20 SWAP1 SWAP2 KECCAK256 PUSH1 0x5 SWAP1 SWAP2 MUL ADD DUP1 SLOAD PUSH1 0x1 DUP3 ADD DUP1 SLOAD SWAP2 SWAP4 POP SWAP1 PUSH2 0xAC SWAP1 PUSH2 0x4FC JUMP JUMPDEST DUP1 PUSH1 0x1F ADD PUSH1 0x20 DUP1 SWAP2 DIV MUL PUSH1 0x20 ADD PUSH1 0x40 MLOAD SWAP1 DUP2 ADD PUSH1 0x40 MSTORE DUP1 SWAP3 SWAP2 SWAP1 DUP2 DUP2 MSTORE PUSH1 0x20 ADD DUP3 DUP1 SLOAD PUSH2 0xD8 SWAP1 PUSH2 0x4FC JUMP JUMPDEST DUP1 ISZERO PUSH2 0x123 JUMPI DUP1 PUSH1 0x1F LT PUSH2 0xFA JUMPI PUSH2 0x100 DUP1 DUP4 SLOAD DIV MUL DUP4 MSTORE SWAP2 PUSH1 0x20 ADD SWAP2 PUSH2 0x123 JUMP JUMPDEST DUP3 ADD SWAP2 SWAP1 PUSH0 MSTORE PUSH1 0x20 PUSH0 KECCAK256 SWAP1 JUMPDEST DUP2 SLOAD DUP2 MSTORE SWAP1 PUSH1 0x1 ADD SWAP1 PUSH1 0x20 ADD DUP1 DUP4 GT PUSH2 0x106 JUMPI DUP3 SWAP1 SUB PUSH1 0x1F AND DUP3 ADD SWAP2 JUMPDEST POP POP POP POP POP SWAP1 DUP1 PUSH1 0x2 ADD SLOAD SWAP1 DUP1 PUSH1 0x3 ADD DUP1 SLOAD PUSH2 0x13E SWAP1 PUSH2 0x4FC JUMP JUMPDEST DUP1 PUSH1 0x1F ADD PUSH1 0x20 DUP1 SWAP2 DIV MUL PUSH1 0x20 ADD PUSH1 0x40 MLOAD SWAP1 DUP2 ADD PUSH1 0x40 MSTORE DUP1 SWAP3 SWAP2 SWAP1 DUP2 DUP2 MSTORE PUSH1 0x20 ADD DUP3 DUP1 SLOAD PUSH2 0x16A SWAP1 PUSH2 0x4FC JUMP JUMPDEST DUP1 ISZERO PUSH2 0x1B5 JUMPI DUP1 PUSH1 0x1F LT PUSH2 0x18C JUMPI PUSH2 0x100 DUP1 DUP4 SLOAD DIV MUL DUP4 MSTORE SWAP2 PUSH1 0x20 ADD SWAP2 PUSH2 0x1B5 JUMP JUMPDEST DUP3 ADD SWAP2 SWAP1 PUSH0 MSTORE PUSH1 0x20 PUSH0 KECCAK256 SWAP1 JUMPDEST DUP2 SLOAD DUP2 MSTORE SWAP1 PUSH1 0x1 ADD SWAP1 PUSH1 0x20 ADD DUP1 DUP4 GT PUSH2 0x198 JUMPI DUP3 SWAP1 SUB PUSH1 0x1F AND DUP3 ADD SWAP2 JUMPDEST POP POP POP POP POP SWAP1 DUP1 PUSH1 0x4 ADD DUP1 SLOAD PUSH2 0x1CA SWAP1 PUSH2 0x4FC JUMP JUMPDEST DUP1 PUSH1 0x1F ADD PUSH1 0x20 DUP1 SWAP2 DIV MUL PUSH1 0x20 ADD PUSH1 0x40 MLOAD SWAP1 DUP2 ADD PUSH1 0x40 MSTORE DUP1 SWAP3 SWAP2 SWAP1 DUP2 DUP2 MSTORE PUSH1 0x20 ADD DUP3 DUP1 SLOAD PUSH2 0x1F6 SWAP1 PUSH2 0x4FC JUMP JUMPDEST DUP1 ISZERO PUSH2 0x241 JUMPI DUP1 PUSH1 0x1F LT PUSH2 0x218 JUMPI PUSH2 0x100 DUP1 DUP4 SLOAD DIV MUL DUP4 MSTORE SWAP2 PUSH1 0x20 ADD SWAP2 PUSH2 0x241 JUMP JUMPDEST DUP3 ADD SWAP2 SWAP1 PUSH0 MSTORE PUSH1 0x20 PUSH0 KECCAK256 SWAP1 JUMPDEST DUP2 SLOAD DUP2 MSTORE SWAP1 PUSH1 0x1 ADD SWAP1 PUSH1 0x20 ADD DUP1 DUP4 GT PUSH2 0x224 JUMPI DUP3 SWAP1 SUB PUSH1 0x1F AND DUP3 ADD SWAP2 JUMPDEST POP POP POP POP POP SWAP1 POP DUP6 JUMP JUMPDEST PUSH1 0x40 DUP1 MLOAD PUSH1 0xA0 DUP2 ADD DUP3 MSTORE DUP7 DUP2 MSTORE PUSH1 0x20 DUP2 ADD DUP7 DUP2 MSTORE SWAP2 DUP2 ADD DUP6 SWAP1 MSTORE PUSH1 0x60 DUP2 ADD DUP5 SWAP1 MSTORE PUSH1 0x80 DUP2 ADD DUP4 SWAP1 MSTORE PUSH0 DUP1 SLOAD PUSH1 0x1 DUP2 ADD DUP3 SSTORE SWAP1 DUP1 MSTORE DUP2 MLOAD PUSH1 0x5 SWAP1 SWAP2 MUL PUSH32 0x290DECD9548B62A8D60345A988386FC84BA6BC95484008F6362F93160EF3E563 DUP2 ADD SWAP2 DUP3 SSTORE SWAP3 MLOAD SWAP2 SWAP3 DUP4 SWAP3 PUSH32 0x290DECD9548B62A8D60345A988386FC84BA6BC95484008F6362F93160EF3E564 SWAP1 SWAP2 ADD SWAP1 PUSH2 0x2E1 SWAP1 DUP3 PUSH2 0x580 JUMP JUMPDEST POP PUSH1 0x40 DUP3 ADD MLOAD PUSH1 0x2 DUP3 ADD SSTORE PUSH1 0x60 DUP3 ADD MLOAD PUSH1 0x3 DUP3 ADD SWAP1 PUSH2 0x300 SWAP1 DUP3 PUSH2 0x580 JUMP JUMPDEST POP PUSH1 0x80 DUP3 ADD MLOAD PUSH1 0x4 DUP3 ADD SWAP1 PUSH2 0x315 SWAP1 DUP3 PUSH2 0x580 JUMP JUMPDEST POP POP POP POP POP POP POP POP POP JUMP JUMPDEST PUSH0 PUSH1 0x20 DUP3 DUP5 SUB SLT ISZERO PUSH2 0x330 JUMPI PUSH0 DUP1 REVERT JUMPDEST POP CALLDATALOAD SWAP2 SWAP1 POP JUMP JUMPDEST PUSH0 DUP2 MLOAD DUP1 DUP5 MSTORE PUSH0 JUMPDEST DUP2 DUP2 LT ISZERO PUSH2 0x35B JUMPI PUSH1 0x20 DUP2 DUP6 ADD DUP2 ADD MLOAD DUP7 DUP4 ADD DUP3 ADD MSTORE ADD PUSH2 0x33F JUMP JUMPDEST POP PUSH0 PUSH1 0x20 DUP3 DUP7 ADD ADD MSTORE PUSH1 0x20 PUSH1 0x1F NOT PUSH1 0x1F DUP4 ADD AND DUP6 ADD ADD SWAP2 POP POP SWAP3 SWAP2 POP POP JUMP JUMPDEST DUP6 DUP2 MSTORE PUSH1 0xA0 PUSH1 0x20 DUP3 ADD MSTORE PUSH0 PUSH2 0x392 PUSH1 0xA0 DUP4 ADD DUP8 PUSH2 0x337 JUMP JUMPDEST DUP6 PUSH1 0x40 DUP5 ADD MSTORE DUP3 DUP2 SUB PUSH1 0x60 DUP5 ADD MSTORE PUSH2 0x3AA DUP2 DUP7 PUSH2 0x337 JUMP JUMPDEST SWAP1 POP DUP3 DUP2 SUB PUSH1 0x80 DUP5 ADD MSTORE PUSH2 0x3BE DUP2 DUP6 PUSH2 0x337 JUMP JUMPDEST SWAP9 SWAP8 POP POP POP POP POP POP POP POP JUMP JUMPDEST PUSH4 0x4E487B71 PUSH1 0xE0 SHL PUSH0 MSTORE PUSH1 0x41 PUSH1 0x4 MSTORE PUSH1 0x24 PUSH0 REVERT JUMPDEST PUSH0 DUP3 PUSH1 0x1F DUP4 ADD SLT PUSH2 0x3ED JUMPI PUSH0 DUP1 REVERT JUMPDEST DUP2 CALLDATALOAD PUSH8 0xFFFFFFFFFFFFFFFF DUP1 DUP3 GT ISZERO PUSH2 0x408 JUMPI PUSH2 0x408 PUSH2 0x3CA JUMP JUMPDEST PUSH1 0x40 MLOAD PUSH1 0x1F DUP4 ADD PUSH1 0x1F NOT SWAP1 DUP2 AND PUSH1 0x3F ADD AND DUP2 ADD SWAP1 DUP3 DUP3 GT DUP2 DUP4 LT OR ISZERO PUSH2 0x430 JUMPI PUSH2 0x430 PUSH2 0x3CA JUMP JUMPDEST DUP2 PUSH1 0x40 MSTORE DUP4 DUP2 MSTORE DUP7 PUSH1 0x20 DUP6 DUP9 ADD ADD GT ISZERO PUSH2 0x448 JUMPI PUSH0 DUP1 REVERT JUMPDEST DUP4 PUSH1 0x20 DUP8 ADD PUSH1 0x20 DUP4 ADD CALLDATACOPY PUSH0 PUSH1 0x20 DUP6 DUP4 ADD ADD MSTORE DUP1 SWAP5 POP POP POP POP POP SWAP3 SWAP2 POP POP JUMP JUMPDEST PUSH0 DUP1 PUSH0 DUP1 PUSH0 PUSH1 0xA0 DUP7 DUP9 SUB SLT ISZERO PUSH2 0x47B JUMPI PUSH0 DUP1 REVERT JUMPDEST DUP6 CALLDATALOAD SWAP5 POP PUSH1 0x20 DUP7 ADD CALLDATALOAD PUSH8 0xFFFFFFFFFFFFFFFF DUP1 DUP3 GT ISZERO PUSH2 0x499 JUMPI PUSH0 DUP1 REVERT JUMPDEST PUSH2 0x4A5 DUP10 DUP4 DUP11 ADD PUSH2 0x3DE JUMP JUMPDEST SWAP6 POP PUSH1 0x40 DUP9 ADD CALLDATALOAD SWAP5 POP PUSH1 0x60 DUP9 ADD CALLDATALOAD SWAP2 POP DUP1 DUP3 GT ISZERO PUSH2 0x4C1 JUMPI PUSH0 DUP1 REVERT JUMPDEST PUSH2 0x4CD DUP10 DUP4 DUP11 ADD PUSH2 0x3DE JUMP JUMPDEST SWAP4 POP PUSH1 0x80 DUP9 ADD CALLDATALOAD SWAP2 POP DUP1 DUP3 GT ISZERO PUSH2 0x4E2 JUMPI PUSH0 DUP1 REVERT JUMPDEST POP PUSH2 0x4EF DUP9 DUP3 DUP10 ADD PUSH2 0x3DE JUMP JUMPDEST SWAP2 POP POP SWAP3 SWAP6 POP SWAP3 SWAP6 SWAP1 SWAP4 POP JUMP JUMPDEST PUSH1 0x1 DUP2 DUP2 SHR SWAP1 DUP3 AND DUP1 PUSH2 0x510 JUMPI PUSH1 0x7F DUP3 AND SWAP2 POP JUMPDEST PUSH1 0x20 DUP3 LT DUP2 SUB PUSH2 0x52E JUMPI PUSH4 0x4E487B71 PUSH1 0xE0 SHL PUSH0 MSTORE PUSH1 0x22 PUSH1 0x4 MSTORE PUSH1 0x24 PUSH0 REVERT JUMPDEST POP SWAP2 SWAP1 POP JUMP JUMPDEST PUSH1 0x1F DUP3 GT ISZERO PUSH2 0x57B JUMPI DUP1 PUSH0 MSTORE PUSH1 0x20 PUSH0 KECCAK256 PUSH1 0x1F DUP5 ADD PUSH1 0x5 SHR DUP2 ADD PUSH1 0x20 DUP6 LT ISZERO PUSH2 0x559 JUMPI POP DUP1 JUMPDEST PUSH1 0x1F DUP5 ADD PUSH1 0x5 SHR DUP3 ADD SWAP2 POP JUMPDEST DUP2 DUP2 LT ISZERO PUSH2 0x578 JUMPI PUSH0 DUP2 SSTORE PUSH1 0x1 ADD PUSH2 0x565 JUMP JUMPDEST POP POP JUMPDEST POP POP POP JUMP JUMPDEST DUP2 MLOAD PUSH8 0xFFFFFFFFFFFFFFFF DUP2 GT ISZERO PUSH2 0x59A JUMPI PUSH2 0x59A PUSH2 0x3CA JUMP JUMPDEST PUSH2 0x5AE DUP2 PUSH2 0x5A8 DUP5 SLOAD PUSH2 0x4FC JUMP JUMPDEST DUP5 PUSH2 0x534 JUMP JUMPDEST PUSH1 0x20 DUP1 PUSH1 0x1F DUP4 GT PUSH1 0x1 DUP2 EQ PUSH2 0x5E1 JUMPI PUSH0 DUP5 ISZERO PUSH2 0x5CA JUMPI POP DUP6 DUP4 ADD MLOAD JUMPDEST PUSH0 NOT PUSH1 0x3 DUP7 SWAP1 SHL SHR NOT AND PUSH1 0x1 DUP6 SWAP1 SHL OR DUP6 SSTORE PUSH2 0x638 JUMP JUMPDEST PUSH0 DUP6 DUP2 MSTORE PUSH1 0x20 DUP2 KECCAK256 PUSH1 0x1F NOT DUP7 AND SWAP2 JUMPDEST DUP3 DUP2 LT ISZERO PUSH2 0x60F JUMPI DUP9 DUP7 ADD MLOAD DUP3 SSTORE SWAP5 DUP5 ADD SWAP5 PUSH1 0x1 SWAP1 SWAP2 ADD SWAP1 DUP5 ADD PUSH2 0x5F0 JUMP JUMPDEST POP DUP6 DUP3 LT ISZERO PUSH2 0x62C JUMPI DUP8 DUP6 ADD MLOAD PUSH0 NOT PUSH1 0x3 DUP9 SWAP1 SHL PUSH1 0xF8 AND SHR NOT AND DUP2 SSTORE JUMPDEST POP POP PUSH1 0x1 DUP5 PUSH1 0x1 SHL ADD DUP6 SSTORE JUMPDEST POP POP POP POP POP POP JUMP INVALID LOG2 PUSH5 0x6970667358 0x22 SLT KECCAK256 SWAP12 STATICCALL MSTORE SELFBALANCE 0xD 0xCE 0xB7 CALLER 0xED 0x5D SWAP7 0xB1 0xE8 0xD8 PUSH27 0x91F7925A3733390676C067A96DA2DA16A764736F6C634300081600 CALLER "
				},
				"gasEstimates": {
					"creation": {
						"codeDepositCost": "330800",
						"executionCost": "366",
						"totalCost": "331166"
					},
					"external": {
						"flourish(uint256)": "infinite",
						"insert(uint256,string,uint256,string,string)": "infinite"
					}
				},
				"methodIdentifiers": {
					"flourish(uint256)": "982a0a4f",
					"insert(uint256,string,uint256,string,string)": "e13a0322"
				}
			},
			"storageLayout": {
				"storage": [
					{
						"astId": 16,
						"contract": "AMAKA.SOL:growth",
						"label": "flourish",
						"offset": 0,
						"slot": "0",
						"type": "t_array(t_struct(tech4dev)12_storage)dyn_storage"
					}
				],
				"types": {
					"t_array(t_struct(tech4dev)12_storage)dyn_storage": {
						"base": "t_struct(tech4dev)12_storage",
						"encoding": "dynamic_array",
						"label": "struct growth.tech4dev[]",
						"numberOfBytes": "32"
					},
					"t_string_storage": {
						"encoding": "bytes",
						"label": "string",
						"numberOfBytes": "32"
					},
					"t_struct(tech4dev)12_storage": {
						"encoding": "inplace",
						"label": "struct growth.tech4dev",
						"members": [
							{
								"astId": 3,
								"contract": "AMAKA.SOL:growth",
								"label": "age",
								"offset": 0,
								"slot": "0",
								"type": "t_uint256"
							},
							{
								"astId": 5,
								"contract": "AMAKA.SOL:growth",
								"label": "name",
								"offset": 0,
								"slot": "1",
								"type": "t_string_storage"
							},
							{
								"astId": 7,
								"contract": "AMAKA.SOL:growth",
								"label": "password",
								"offset": 0,
								"slot": "2",
								"type": "t_uint256"
							},
							{
								"astId": 9,
								"contract": "AMAKA.SOL:growth",
								"label": "username",
								"offset": 0,
								"slot": "3",
								"type": "t_string_storage"
							},
							{
								"astId": 11,
								"contract": "AMAKA.SOL:growth",
								"label": "emailaddress",
								"offset": 0,
								"slot": "4",
								"type": "t_string_storage"
							}
						],
						"numberOfBytes": "160"
					},
					"t_uint256": {
						"encoding": "inplace",
						"label": "uint256",
						"numberOfBytes": "32"
					}
				}
			},
			"userdoc": {
				"kind": "user",
				"methods": {},
				"version": 1
			}
		}
	}
}