{
	"todolist.sol": {
		"todo": {
			"abi": [
				{
					"inputs": [
						{
							"internalType": "string",
							"name": "_title",
							"type": "string"
						}
					],
					"name": "insert",
					"outputs": [],
					"stateMutability": "nonpayable",
					"type": "function"
				},
				{
					"inputs": [
						{
							"internalType": "uint256",
							"name": "index",
							"type": "uint256"
						}
					],
					"name": "status",
					"outputs": [],
					"stateMutability": "nonpayable",
					"type": "function"
				},
				{
					"inputs": [
						{
							"internalType": "uint256",
							"name": "",
							"type": "uint256"
						}
					],
					"name": "tech",
					"outputs": [
						{
							"internalType": "string",
							"name": "title",
							"type": "string"
						},
						{
							"internalType": "bool",
							"name": "completed",
							"type": "bool"
						}
					],
					"stateMutability": "view",
					"type": "function"
				},
				{
					"inputs": [
						{
							"internalType": "uint256",
							"name": "index",
							"type": "uint256"
						},
						{
							"internalType": "string",
							"name": "_title",
							"type": "string"
						}
					],
					"name": "update",
					"outputs": [],
					"stateMutability": "nonpayable",
					"type": "function"
				}
			],
			"devdoc": {
				"kind": "dev",
				"methods": {},
				"version": 1
			},
			"evm": {
				"assembly": "    /* \"todolist.sol\":59:445  contract todo{... */\n  mstore(0x40, 0x80)\n  callvalue\n  dup1\n  iszero\n  tag_1\n  jumpi\n  0x00\n  dup1\n  revert\ntag_1:\n  pop\n  dataSize(sub_0)\n  dup1\n  dataOffset(sub_0)\n  0x00\n  codecopy\n  0x00\n  return\nstop\n\nsub_0: assembly {\n        /* \"todolist.sol\":59:445  contract todo{... */\n      mstore(0x40, 0x80)\n      callvalue\n      dup1\n      iszero\n      tag_1\n      jumpi\n      0x00\n      dup1\n      revert\n    tag_1:\n      pop\n      jumpi(tag_2, lt(calldatasize, 0x04))\n      shr(0xe0, calldataload(0x00))\n      dup1\n      0x42d21ef7\n      eq\n      tag_3\n      jumpi\n      dup1\n      0x6ee10c35\n      eq\n      tag_4\n      jumpi\n      dup1\n      0xb1498e29\n      eq\n      tag_5\n      jumpi\n      dup1\n      0xf745630f\n      eq\n      tag_6\n      jumpi\n    tag_2:\n      0x00\n      dup1\n      revert\n        /* \"todolist.sol\":365:439  function status(uint index) public {... */\n    tag_3:\n      tag_7\n      tag_8\n      calldatasize\n      0x04\n      tag_9\n      jump\t// in\n    tag_8:\n      tag_10\n      jump\t// in\n    tag_7:\n      stop\n        /* \"todolist.sol\":137:156  micro[] public tech */\n    tag_4:\n      tag_11\n      tag_12\n      calldatasize\n      0x04\n      tag_9\n      jump\t// in\n    tag_12:\n      tag_13\n      jump\t// in\n    tag_11:\n      mload(0x40)\n      tag_14\n      swap3\n      swap2\n      swap1\n      tag_15\n      jump\t// in\n    tag_14:\n      mload(0x40)\n      dup1\n      swap2\n      sub\n      swap1\n      return\n        /* \"todolist.sol\":162:248  function insert(string memory _title) public  {... */\n    tag_5:\n      tag_7\n      tag_17\n      calldatasize\n      0x04\n      tag_18\n      jump\t// in\n    tag_17:\n      tag_19\n      jump\t// in\n        /* \"todolist.sol\":253:363  function update(uint index, string memory _title) public {... */\n    tag_6:\n      tag_7\n      tag_21\n      calldatasize\n      0x04\n      tag_22\n      jump\t// in\n    tag_21:\n      tag_23\n      jump\t// in\n        /* \"todolist.sol\":365:439  function status(uint index) public {... */\n    tag_10:\n        /* \"todolist.sol\":431:435  true */\n      0x01\n        /* \"todolist.sol\":407:411  tech */\n      0x00\n        /* \"todolist.sol\":412:417  index */\n      dup3\n        /* \"todolist.sol\":407:418  tech[index] */\n      dup2\n      sload\n      dup2\n      lt\n      tag_26\n      jumpi\n      tag_26\n      tag_27\n      jump\t// in\n    tag_26:\n      0x00\n      swap2\n      dup3\n      mstore\n      0x20\n      swap1\n      swap2\n      keccak256\n      0x02\n      swap1\n      swap2\n      mul\n      add\n        /* \"todolist.sol\":407:428  tech[index].completed */\n      0x01\n      add\n        /* \"todolist.sol\":407:435  tech[index].completed = true */\n      dup1\n      sload\n      not(0xff)\n      and\n      swap2\n      iszero\n      iszero\n      swap2\n      swap1\n      swap2\n      or\n      swap1\n      sstore\n      pop\n        /* \"todolist.sol\":365:439  function status(uint index) public {... */\n      jump\t// out\n        /* \"todolist.sol\":137:156  micro[] public tech */\n    tag_13:\n      0x00\n      dup2\n      dup2\n      sload\n      dup2\n      lt\n      tag_29\n      jumpi\n      0x00\n      dup1\n      revert\n    tag_29:\n      swap1\n      0x00\n      mstore\n      keccak256(0x00, 0x20)\n      swap1\n      0x02\n      mul\n      add\n      0x00\n      swap2\n      pop\n      swap1\n      pop\n      dup1\n      0x00\n      add\n      dup1\n      sload\n      tag_31\n      swap1\n      tag_32\n      jump\t// in\n    tag_31:\n      dup1\n      0x1f\n      add\n      0x20\n      dup1\n      swap2\n      div\n      mul\n      0x20\n      add\n      mload(0x40)\n      swap1\n      dup2\n      add\n      0x40\n      mstore\n      dup1\n      swap3\n      swap2\n      swap1\n      dup2\n      dup2\n      mstore\n      0x20\n      add\n      dup3\n      dup1\n      sload\n      tag_33\n      swap1\n      tag_32\n      jump\t// in\n    tag_33:\n      dup1\n      iszero\n      tag_34\n      jumpi\n      dup1\n      0x1f\n      lt\n      tag_35\n      jumpi\n      0x0100\n      dup1\n      dup4\n      sload\n      div\n      mul\n      dup4\n      mstore\n      swap2\n      0x20\n      add\n      swap2\n      jump(tag_34)\n    tag_35:\n      dup3\n      add\n      swap2\n      swap1\n      0x00\n      mstore\n      keccak256(0x00, 0x20)\n      swap1\n    tag_36:\n      dup2\n      sload\n      dup2\n      mstore\n      swap1\n      0x01\n      add\n      swap1\n      0x20\n      add\n      dup1\n      dup4\n      gt\n      tag_36\n      jumpi\n      dup3\n      swap1\n      sub\n      0x1f\n      and\n      dup3\n      add\n      swap2\n    tag_34:\n      pop\n      pop\n      pop\n      0x01\n      swap1\n      swap4\n      add\n      sload\n      swap2\n      swap3\n      pop\n      pop\n      0xff\n      and\n      dup3\n      jump\t// out\n        /* \"todolist.sol\":162:248  function insert(string memory _title) public  {... */\n    tag_19:\n        /* \"todolist.sol\":224:243  micro(_title,false) */\n      0x40\n      dup1\n      mload\n      dup1\n      dup3\n      add\n      swap1\n      swap2\n      mstore\n      dup2\n      dup2\n      mstore\n        /* \"todolist.sol\":214:218  tech */\n      0x00\n        /* \"todolist.sol\":224:243  micro(_title,false) */\n      0x20\n      dup3\n      add\n      dup2\n      swap1\n      mstore\n        /* \"todolist.sol\":214:244  tech.push(micro(_title,false)) */\n      dup1\n      sload\n        /* \"todolist.sol\":224:243  micro(_title,false) */\n      0x01\n        /* \"todolist.sol\":214:244  tech.push(micro(_title,false)) */\n      dup2\n      add\n      dup3\n      sstore\n      swap1\n      dup1\n      mstore\n      dup2\n      mload\n      0x02\n      swap1\n      swap2\n      mul\n      0x290decd9548b62a8d60345a988386fc84ba6bc95484008f6362f93160ef3e563\n      add\n      swap1\n      dup2\n      swap1\n      tag_39\n      swap1\n      dup3\n      tag_40\n      jump\t// in\n    tag_39:\n      pop\n      0x20\n      swap2\n      swap1\n      swap2\n      add\n      mload\n      0x01\n      swap1\n      swap2\n      add\n      dup1\n      sload\n      not(0xff)\n      and\n      swap2\n      iszero\n      iszero\n      swap2\n      swap1\n      swap2\n      or\n      swap1\n      sstore\n      pop\n        /* \"todolist.sol\":162:248  function insert(string memory _title) public  {... */\n      jump\t// out\n        /* \"todolist.sol\":253:363  function update(uint index, string memory _title) public {... */\n    tag_23:\n        /* \"todolist.sol\":333:339  _title */\n      dup1\n        /* \"todolist.sol\":313:317  tech */\n      0x00\n        /* \"todolist.sol\":318:323  index */\n      dup4\n        /* \"todolist.sol\":313:324  tech[index] */\n      dup2\n      sload\n      dup2\n      lt\n      tag_43\n      jumpi\n      tag_43\n      tag_27\n      jump\t// in\n    tag_43:\n      swap1\n      0x00\n      mstore\n      keccak256(0x00, 0x20)\n      swap1\n      0x02\n      mul\n      add\n        /* \"todolist.sol\":313:330  tech[index].title */\n      0x00\n      add\n        /* \"todolist.sol\":313:339  tech[index].title = _title */\n      swap1\n      dup2\n      tag_45\n      swap2\n      swap1\n      tag_40\n      jump\t// in\n    tag_45:\n      pop\n        /* \"todolist.sol\":253:363  function update(uint index, string memory _title) public {... */\n      pop\n      pop\n      jump\t// out\n        /* \"#utility.yul\":14:194   */\n    tag_9:\n        /* \"#utility.yul\":73:79   */\n      0x00\n        /* \"#utility.yul\":126:128   */\n      0x20\n        /* \"#utility.yul\":114:123   */\n      dup3\n        /* \"#utility.yul\":105:112   */\n      dup5\n        /* \"#utility.yul\":101:124   */\n      sub\n        /* \"#utility.yul\":97:129   */\n      slt\n        /* \"#utility.yul\":94:146   */\n      iszero\n      tag_53\n      jumpi\n        /* \"#utility.yul\":142:143   */\n      0x00\n        /* \"#utility.yul\":139:140   */\n      dup1\n        /* \"#utility.yul\":132:144   */\n      revert\n        /* \"#utility.yul\":94:146   */\n    tag_53:\n      pop\n        /* \"#utility.yul\":165:188   */\n      calldataload\n      swap2\n        /* \"#utility.yul\":14:194   */\n      swap1\n      pop\n      jump\t// out\n        /* \"#utility.yul\":199:813   */\n    tag_15:\n        /* \"#utility.yul\":370:372   */\n      0x40\n        /* \"#utility.yul\":359:368   */\n      dup2\n        /* \"#utility.yul\":352:373   */\n      mstore\n        /* \"#utility.yul\":333:337   */\n      0x00\n        /* \"#utility.yul\":402:408   */\n      dup4\n        /* \"#utility.yul\":396:409   */\n      mload\n        /* \"#utility.yul\":445:451   */\n      dup1\n        /* \"#utility.yul\":440:442   */\n      0x40\n        /* \"#utility.yul\":429:438   */\n      dup5\n        /* \"#utility.yul\":425:443   */\n      add\n        /* \"#utility.yul\":418:452   */\n      mstore\n        /* \"#utility.yul\":470:471   */\n      0x00\n        /* \"#utility.yul\":480:624   */\n    tag_55:\n        /* \"#utility.yul\":494:500   */\n      dup2\n        /* \"#utility.yul\":491:492   */\n      dup2\n        /* \"#utility.yul\":488:501   */\n      lt\n        /* \"#utility.yul\":480:624   */\n      iszero\n      tag_57\n      jumpi\n        /* \"#utility.yul\":607:611   */\n      0x20\n        /* \"#utility.yul\":591:605   */\n      dup2\n      dup8\n      add\n        /* \"#utility.yul\":587:612   */\n      dup2\n      add\n        /* \"#utility.yul\":581:613   */\n      mload\n        /* \"#utility.yul\":576:578   */\n      0x60\n        /* \"#utility.yul\":557:574   */\n      dup7\n      dup5\n      add\n        /* \"#utility.yul\":553:579   */\n      add\n        /* \"#utility.yul\":546:614   */\n      mstore\n        /* \"#utility.yul\":509:521   */\n      add\n        /* \"#utility.yul\":480:624   */\n      jump(tag_55)\n    tag_57:\n        /* \"#utility.yul\":484:487   */\n      pop\n        /* \"#utility.yul\":673:674   */\n      0x00\n        /* \"#utility.yul\":668:670   */\n      0x60\n        /* \"#utility.yul\":659:665   */\n      dup3\n        /* \"#utility.yul\":648:657   */\n      dup6\n        /* \"#utility.yul\":644:666   */\n      add\n        /* \"#utility.yul\":640:671   */\n      add\n        /* \"#utility.yul\":633:675   */\n      mstore\n        /* \"#utility.yul\":743:745   */\n      0x60\n        /* \"#utility.yul\":736:738   */\n      0x1f\n        /* \"#utility.yul\":732:739   */\n      not\n        /* \"#utility.yul\":727:729   */\n      0x1f\n        /* \"#utility.yul\":719:725   */\n      dup4\n        /* \"#utility.yul\":715:730   */\n      add\n        /* \"#utility.yul\":711:740   */\n      and\n        /* \"#utility.yul\":700:709   */\n      dup5\n        /* \"#utility.yul\":696:741   */\n      add\n        /* \"#utility.yul\":692:746   */\n      add\n        /* \"#utility.yul\":684:746   */\n      swap2\n      pop\n      pop\n        /* \"#utility.yul\":798:804   */\n      dup3\n        /* \"#utility.yul\":791:805   */\n      iszero\n        /* \"#utility.yul\":784:806   */\n      iszero\n        /* \"#utility.yul\":777:781   */\n      0x20\n        /* \"#utility.yul\":766:775   */\n      dup4\n        /* \"#utility.yul\":762:782   */\n      add\n        /* \"#utility.yul\":755:807   */\n      mstore\n        /* \"#utility.yul\":199:813   */\n      swap4\n      swap3\n      pop\n      pop\n      pop\n      jump\t// out\n        /* \"#utility.yul\":818:945   */\n    tag_46:\n        /* \"#utility.yul\":879:889   */\n      0x4e487b71\n        /* \"#utility.yul\":874:877   */\n      0xe0\n        /* \"#utility.yul\":870:890   */\n      shl\n        /* \"#utility.yul\":867:868   */\n      0x00\n        /* \"#utility.yul\":860:891   */\n      mstore\n        /* \"#utility.yul\":910:914   */\n      0x41\n        /* \"#utility.yul\":907:908   */\n      0x04\n        /* \"#utility.yul\":900:915   */\n      mstore\n        /* \"#utility.yul\":934:938   */\n      0x24\n        /* \"#utility.yul\":931:932   */\n      0x00\n        /* \"#utility.yul\":924:939   */\n      revert\n        /* \"#utility.yul\":950:1669   */\n    tag_47:\n        /* \"#utility.yul\":993:998   */\n      0x00\n        /* \"#utility.yul\":1046:1049   */\n      dup3\n        /* \"#utility.yul\":1039:1043   */\n      0x1f\n        /* \"#utility.yul\":1031:1037   */\n      dup4\n        /* \"#utility.yul\":1027:1044   */\n      add\n        /* \"#utility.yul\":1023:1050   */\n      slt\n        /* \"#utility.yul\":1013:1068   */\n      tag_60\n      jumpi\n        /* \"#utility.yul\":1064:1065   */\n      0x00\n        /* \"#utility.yul\":1061:1062   */\n      dup1\n        /* \"#utility.yul\":1054:1066   */\n      revert\n        /* \"#utility.yul\":1013:1068   */\n    tag_60:\n        /* \"#utility.yul\":1100:1106   */\n      dup2\n        /* \"#utility.yul\":1087:1107   */\n      calldataload\n        /* \"#utility.yul\":1126:1144   */\n      0xffffffffffffffff\n        /* \"#utility.yul\":1163:1165   */\n      dup1\n        /* \"#utility.yul\":1159:1161   */\n      dup3\n        /* \"#utility.yul\":1156:1166   */\n      gt\n        /* \"#utility.yul\":1153:1189   */\n      iszero\n      tag_62\n      jumpi\n        /* \"#utility.yul\":1169:1187   */\n      tag_62\n      tag_46\n      jump\t// in\n    tag_62:\n        /* \"#utility.yul\":1244:1246   */\n      0x40\n        /* \"#utility.yul\":1238:1247   */\n      mload\n        /* \"#utility.yul\":1212:1214   */\n      0x1f\n        /* \"#utility.yul\":1298:1311   */\n      dup4\n      add\n      not(0x1f)\n        /* \"#utility.yul\":1294:1316   */\n      swap1\n      dup2\n      and\n        /* \"#utility.yul\":1318:1320   */\n      0x3f\n        /* \"#utility.yul\":1290:1321   */\n      add\n        /* \"#utility.yul\":1286:1326   */\n      and\n        /* \"#utility.yul\":1274:1327   */\n      dup2\n      add\n      swap1\n        /* \"#utility.yul\":1342:1360   */\n      dup3\n      dup3\n      gt\n        /* \"#utility.yul\":1362:1384   */\n      dup2\n      dup4\n      lt\n        /* \"#utility.yul\":1339:1385   */\n      or\n        /* \"#utility.yul\":1336:1408   */\n      iszero\n      tag_64\n      jumpi\n        /* \"#utility.yul\":1388:1406   */\n      tag_64\n      tag_46\n      jump\t// in\n    tag_64:\n        /* \"#utility.yul\":1428:1438   */\n      dup2\n        /* \"#utility.yul\":1424:1426   */\n      0x40\n        /* \"#utility.yul\":1417:1439   */\n      mstore\n        /* \"#utility.yul\":1463:1465   */\n      dup4\n        /* \"#utility.yul\":1455:1461   */\n      dup2\n        /* \"#utility.yul\":1448:1466   */\n      mstore\n        /* \"#utility.yul\":1509:1512   */\n      dup7\n        /* \"#utility.yul\":1502:1506   */\n      0x20\n        /* \"#utility.yul\":1497:1499   */\n      dup6\n        /* \"#utility.yul\":1489:1495   */\n      dup9\n        /* \"#utility.yul\":1485:1500   */\n      add\n        /* \"#utility.yul\":1481:1507   */\n      add\n        /* \"#utility.yul\":1478:1513   */\n      gt\n        /* \"#utility.yul\":1475:1530   */\n      iszero\n      tag_65\n      jumpi\n        /* \"#utility.yul\":1526:1527   */\n      0x00\n        /* \"#utility.yul\":1523:1524   */\n      dup1\n        /* \"#utility.yul\":1516:1528   */\n      revert\n        /* \"#utility.yul\":1475:1530   */\n    tag_65:\n        /* \"#utility.yul\":1590:1592   */\n      dup4\n        /* \"#utility.yul\":1583:1587   */\n      0x20\n        /* \"#utility.yul\":1575:1581   */\n      dup8\n        /* \"#utility.yul\":1571:1588   */\n      add\n        /* \"#utility.yul\":1564:1568   */\n      0x20\n        /* \"#utility.yul\":1556:1562   */\n      dup4\n        /* \"#utility.yul\":1552:1569   */\n      add\n        /* \"#utility.yul\":1539:1593   */\n      calldatacopy\n        /* \"#utility.yul\":1637:1638   */\n      0x00\n        /* \"#utility.yul\":1630:1634   */\n      0x20\n        /* \"#utility.yul\":1625:1627   */\n      dup6\n        /* \"#utility.yul\":1617:1623   */\n      dup4\n        /* \"#utility.yul\":1613:1628   */\n      add\n        /* \"#utility.yul\":1609:1635   */\n      add\n        /* \"#utility.yul\":1602:1639   */\n      mstore\n        /* \"#utility.yul\":1657:1663   */\n      dup1\n        /* \"#utility.yul\":1648:1663   */\n      swap5\n      pop\n      pop\n      pop\n      pop\n      pop\n        /* \"#utility.yul\":950:1669   */\n      swap3\n      swap2\n      pop\n      pop\n      jump\t// out\n        /* \"#utility.yul\":1674:1996   */\n    tag_18:\n        /* \"#utility.yul\":1743:1749   */\n      0x00\n        /* \"#utility.yul\":1796:1798   */\n      0x20\n        /* \"#utility.yul\":1784:1793   */\n      dup3\n        /* \"#utility.yul\":1775:1782   */\n      dup5\n        /* \"#utility.yul\":1771:1794   */\n      sub\n        /* \"#utility.yul\":1767:1799   */\n      slt\n        /* \"#utility.yul\":1764:1816   */\n      iszero\n      tag_67\n      jumpi\n        /* \"#utility.yul\":1812:1813   */\n      0x00\n        /* \"#utility.yul\":1809:1810   */\n      dup1\n        /* \"#utility.yul\":1802:1814   */\n      revert\n        /* \"#utility.yul\":1764:1816   */\n    tag_67:\n        /* \"#utility.yul\":1852:1861   */\n      dup2\n        /* \"#utility.yul\":1839:1862   */\n      calldataload\n        /* \"#utility.yul\":1885:1903   */\n      0xffffffffffffffff\n        /* \"#utility.yul\":1877:1883   */\n      dup2\n        /* \"#utility.yul\":1874:1904   */\n      gt\n        /* \"#utility.yul\":1871:1921   */\n      iszero\n      tag_68\n      jumpi\n        /* \"#utility.yul\":1917:1918   */\n      0x00\n        /* \"#utility.yul\":1914:1915   */\n      dup1\n        /* \"#utility.yul\":1907:1919   */\n      revert\n        /* \"#utility.yul\":1871:1921   */\n    tag_68:\n        /* \"#utility.yul\":1940:1990   */\n      tag_69\n        /* \"#utility.yul\":1982:1989   */\n      dup5\n        /* \"#utility.yul\":1973:1979   */\n      dup3\n        /* \"#utility.yul\":1962:1971   */\n      dup6\n        /* \"#utility.yul\":1958:1980   */\n      add\n        /* \"#utility.yul\":1940:1990   */\n      tag_47\n      jump\t// in\n    tag_69:\n        /* \"#utility.yul\":1930:1990   */\n      swap5\n        /* \"#utility.yul\":1674:1996   */\n      swap4\n      pop\n      pop\n      pop\n      pop\n      jump\t// out\n        /* \"#utility.yul\":2001:2391   */\n    tag_22:\n        /* \"#utility.yul\":2079:2085   */\n      0x00\n        /* \"#utility.yul\":2087:2093   */\n      dup1\n        /* \"#utility.yul\":2140:2142   */\n      0x40\n        /* \"#utility.yul\":2128:2137   */\n      dup4\n        /* \"#utility.yul\":2119:2126   */\n      dup6\n        /* \"#utility.yul\":2115:2138   */\n      sub\n        /* \"#utility.yul\":2111:2143   */\n      slt\n        /* \"#utility.yul\":2108:2160   */\n      iszero\n      tag_71\n      jumpi\n        /* \"#utility.yul\":2156:2157   */\n      0x00\n        /* \"#utility.yul\":2153:2154   */\n      dup1\n        /* \"#utility.yul\":2146:2158   */\n      revert\n        /* \"#utility.yul\":2108:2160   */\n    tag_71:\n        /* \"#utility.yul\":2192:2201   */\n      dup3\n        /* \"#utility.yul\":2179:2202   */\n      calldataload\n        /* \"#utility.yul\":2169:2202   */\n      swap2\n      pop\n        /* \"#utility.yul\":2253:2255   */\n      0x20\n        /* \"#utility.yul\":2242:2251   */\n      dup4\n        /* \"#utility.yul\":2238:2256   */\n      add\n        /* \"#utility.yul\":2225:2257   */\n      calldataload\n        /* \"#utility.yul\":2280:2298   */\n      0xffffffffffffffff\n        /* \"#utility.yul\":2272:2278   */\n      dup2\n        /* \"#utility.yul\":2269:2299   */\n      gt\n        /* \"#utility.yul\":2266:2316   */\n      iszero\n      tag_72\n      jumpi\n        /* \"#utility.yul\":2312:2313   */\n      0x00\n        /* \"#utility.yul\":2309:2310   */\n      dup1\n        /* \"#utility.yul\":2302:2314   */\n      revert\n        /* \"#utility.yul\":2266:2316   */\n    tag_72:\n        /* \"#utility.yul\":2335:2385   */\n      tag_73\n        /* \"#utility.yul\":2377:2384   */\n      dup6\n        /* \"#utility.yul\":2368:2374   */\n      dup3\n        /* \"#utility.yul\":2357:2366   */\n      dup7\n        /* \"#utility.yul\":2353:2375   */\n      add\n        /* \"#utility.yul\":2335:2385   */\n      tag_47\n      jump\t// in\n    tag_73:\n        /* \"#utility.yul\":2325:2385   */\n      swap2\n      pop\n      pop\n        /* \"#utility.yul\":2001:2391   */\n      swap3\n      pop\n      swap3\n      swap1\n      pop\n      jump\t// out\n        /* \"#utility.yul\":2396:2523   */\n    tag_27:\n        /* \"#utility.yul\":2457:2467   */\n      0x4e487b71\n        /* \"#utility.yul\":2452:2455   */\n      0xe0\n        /* \"#utility.yul\":2448:2468   */\n      shl\n        /* \"#utility.yul\":2445:2446   */\n      0x00\n        /* \"#utility.yul\":2438:2469   */\n      mstore\n        /* \"#utility.yul\":2488:2492   */\n      0x32\n        /* \"#utility.yul\":2485:2486   */\n      0x04\n        /* \"#utility.yul\":2478:2493   */\n      mstore\n        /* \"#utility.yul\":2512:2516   */\n      0x24\n        /* \"#utility.yul\":2509:2510   */\n      0x00\n        /* \"#utility.yul\":2502:2517   */\n      revert\n        /* \"#utility.yul\":2528:2908   */\n    tag_32:\n        /* \"#utility.yul\":2607:2608   */\n      0x01\n        /* \"#utility.yul\":2603:2615   */\n      dup2\n      dup2\n      shr\n      swap1\n        /* \"#utility.yul\":2650:2662   */\n      dup3\n      and\n      dup1\n        /* \"#utility.yul\":2671:2732   */\n      tag_76\n      jumpi\n        /* \"#utility.yul\":2725:2729   */\n      0x7f\n        /* \"#utility.yul\":2717:2723   */\n      dup3\n        /* \"#utility.yul\":2713:2730   */\n      and\n        /* \"#utility.yul\":2703:2730   */\n      swap2\n      pop\n        /* \"#utility.yul\":2671:2732   */\n    tag_76:\n        /* \"#utility.yul\":2778:2780   */\n      0x20\n        /* \"#utility.yul\":2770:2776   */\n      dup3\n        /* \"#utility.yul\":2767:2781   */\n      lt\n        /* \"#utility.yul\":2747:2765   */\n      dup2\n        /* \"#utility.yul\":2744:2782   */\n      sub\n        /* \"#utility.yul\":2741:2902   */\n      tag_77\n      jumpi\n        /* \"#utility.yul\":2824:2834   */\n      0x4e487b71\n        /* \"#utility.yul\":2819:2822   */\n      0xe0\n        /* \"#utility.yul\":2815:2835   */\n      shl\n        /* \"#utility.yul\":2812:2813   */\n      0x00\n        /* \"#utility.yul\":2805:2836   */\n      mstore\n        /* \"#utility.yul\":2859:2863   */\n      0x22\n        /* \"#utility.yul\":2856:2857   */\n      0x04\n        /* \"#utility.yul\":2849:2864   */\n      mstore\n        /* \"#utility.yul\":2887:2891   */\n      0x24\n        /* \"#utility.yul\":2884:2885   */\n      0x00\n        /* \"#utility.yul\":2877:2892   */\n      revert\n        /* \"#utility.yul\":2741:2902   */\n    tag_77:\n      pop\n        /* \"#utility.yul\":2528:2908   */\n      swap2\n      swap1\n      pop\n      jump\t// out\n        /* \"#utility.yul\":3039:3557   */\n    tag_49:\n        /* \"#utility.yul\":3141:3143   */\n      0x1f\n        /* \"#utility.yul\":3136:3139   */\n      dup3\n        /* \"#utility.yul\":3133:3144   */\n      gt\n        /* \"#utility.yul\":3130:3551   */\n      iszero\n      tag_45\n      jumpi\n        /* \"#utility.yul\":3177:3182   */\n      dup1\n        /* \"#utility.yul\":3174:3175   */\n      0x00\n        /* \"#utility.yul\":3167:3183   */\n      mstore\n        /* \"#utility.yul\":3221:3225   */\n      0x20\n        /* \"#utility.yul\":3218:3219   */\n      0x00\n        /* \"#utility.yul\":3208:3226   */\n      keccak256\n        /* \"#utility.yul\":3291:3293   */\n      0x1f\n        /* \"#utility.yul\":3279:3289   */\n      dup5\n        /* \"#utility.yul\":3275:3294   */\n      add\n        /* \"#utility.yul\":3272:3273   */\n      0x05\n        /* \"#utility.yul\":3268:3295   */\n      shr\n        /* \"#utility.yul\":3262:3266   */\n      dup2\n        /* \"#utility.yul\":3258:3296   */\n      add\n        /* \"#utility.yul\":3327:3331   */\n      0x20\n        /* \"#utility.yul\":3315:3325   */\n      dup6\n        /* \"#utility.yul\":3312:3332   */\n      lt\n        /* \"#utility.yul\":3309:3356   */\n      iszero\n      tag_81\n      jumpi\n      pop\n        /* \"#utility.yul\":3350:3354   */\n      dup1\n        /* \"#utility.yul\":3309:3356   */\n    tag_81:\n        /* \"#utility.yul\":3405:3407   */\n      0x1f\n        /* \"#utility.yul\":3400:3403   */\n      dup5\n        /* \"#utility.yul\":3396:3408   */\n      add\n        /* \"#utility.yul\":3393:3394   */\n      0x05\n        /* \"#utility.yul\":3389:3409   */\n      shr\n        /* \"#utility.yul\":3383:3387   */\n      dup3\n        /* \"#utility.yul\":3379:3410   */\n      add\n        /* \"#utility.yul\":3369:3410   */\n      swap2\n      pop\n        /* \"#utility.yul\":3460:3541   */\n    tag_82:\n        /* \"#utility.yul\":3478:3480   */\n      dup2\n        /* \"#utility.yul\":3471:3476   */\n      dup2\n        /* \"#utility.yul\":3468:3481   */\n      lt\n        /* \"#utility.yul\":3460:3541   */\n      iszero\n      tag_84\n      jumpi\n        /* \"#utility.yul\":3537:3538   */\n      0x00\n        /* \"#utility.yul\":3523:3539   */\n      dup2\n      sstore\n        /* \"#utility.yul\":3504:3505   */\n      0x01\n        /* \"#utility.yul\":3493:3506   */\n      add\n        /* \"#utility.yul\":3460:3541   */\n      jump(tag_82)\n    tag_84:\n        /* \"#utility.yul\":3464:3467   */\n      pop\n      pop\n        /* \"#utility.yul\":3039:3557   */\n      pop\n      pop\n      pop\n      jump\t// out\n        /* \"#utility.yul\":3733:5078   */\n    tag_40:\n        /* \"#utility.yul\":3859:3862   */\n      dup2\n        /* \"#utility.yul\":3853:3863   */\n      mload\n        /* \"#utility.yul\":3886:3904   */\n      0xffffffffffffffff\n        /* \"#utility.yul\":3878:3884   */\n      dup2\n        /* \"#utility.yul\":3875:3905   */\n      gt\n        /* \"#utility.yul\":3872:3928   */\n      iszero\n      tag_88\n      jumpi\n        /* \"#utility.yul\":3908:3926   */\n      tag_88\n      tag_46\n      jump\t// in\n    tag_88:\n        /* \"#utility.yul\":3937:4034   */\n      tag_89\n        /* \"#utility.yul\":4027:4033   */\n      dup2\n        /* \"#utility.yul\":3987:4025   */\n      tag_90\n        /* \"#utility.yul\":4019:4023   */\n      dup5\n        /* \"#utility.yul\":4013:4024   */\n      sload\n        /* \"#utility.yul\":3987:4025   */\n      tag_32\n      jump\t// in\n    tag_90:\n        /* \"#utility.yul\":3981:3985   */\n      dup5\n        /* \"#utility.yul\":3937:4034   */\n      tag_49\n      jump\t// in\n    tag_89:\n        /* \"#utility.yul\":4089:4093   */\n      0x20\n      dup1\n        /* \"#utility.yul\":4146:4148   */\n      0x1f\n        /* \"#utility.yul\":4135:4149   */\n      dup4\n      gt\n        /* \"#utility.yul\":4163:4164   */\n      0x01\n        /* \"#utility.yul\":4158:4821   */\n      dup2\n      eq\n      tag_92\n      jumpi\n        /* \"#utility.yul\":4865:4866   */\n      0x00\n        /* \"#utility.yul\":4882:4888   */\n      dup5\n        /* \"#utility.yul\":4879:4968   */\n      iszero\n      tag_93\n      jumpi\n      pop\n        /* \"#utility.yul\":4934:4953   */\n      dup6\n      dup4\n      add\n        /* \"#utility.yul\":4928:4954   */\n      mload\n        /* \"#utility.yul\":4879:4968   */\n    tag_93:\n      not(0x00)\n        /* \"#utility.yul\":3690:3691   */\n      0x03\n        /* \"#utility.yul\":3686:3697   */\n      dup7\n      swap1\n      shl\n        /* \"#utility.yul\":3682:3706   */\n      shr\n        /* \"#utility.yul\":3678:3707   */\n      not\n        /* \"#utility.yul\":3668:3708   */\n      and\n        /* \"#utility.yul\":3714:3715   */\n      0x01\n        /* \"#utility.yul\":3710:3721   */\n      dup6\n      swap1\n      shl\n        /* \"#utility.yul\":3665:3722   */\n      or\n        /* \"#utility.yul\":4981:5062   */\n      dup6\n      sstore\n        /* \"#utility.yul\":4128:5072   */\n      jump(tag_91)\n        /* \"#utility.yul\":4158:4821   */\n    tag_92:\n        /* \"#utility.yul\":2986:2987   */\n      0x00\n        /* \"#utility.yul\":2979:2993   */\n      dup6\n      dup2\n      mstore\n        /* \"#utility.yul\":3023:3027   */\n      0x20\n        /* \"#utility.yul\":3010:3028   */\n      dup2\n      keccak256\n      not(0x1f)\n        /* \"#utility.yul\":4194:4214   */\n      dup7\n      and\n      swap2\n        /* \"#utility.yul\":4312:4548   */\n    tag_96:\n        /* \"#utility.yul\":4326:4333   */\n      dup3\n        /* \"#utility.yul\":4323:4324   */\n      dup2\n        /* \"#utility.yul\":4320:4334   */\n      lt\n        /* \"#utility.yul\":4312:4548   */\n      iszero\n      tag_98\n      jumpi\n        /* \"#utility.yul\":4415:4434   */\n      dup9\n      dup7\n      add\n        /* \"#utility.yul\":4409:4435   */\n      mload\n        /* \"#utility.yul\":4394:4436   */\n      dup3\n      sstore\n        /* \"#utility.yul\":4507:4534   */\n      swap5\n      dup5\n      add\n      swap5\n        /* \"#utility.yul\":4475:4476   */\n      0x01\n        /* \"#utility.yul\":4463:4477   */\n      swap1\n      swap2\n      add\n      swap1\n        /* \"#utility.yul\":4342:4361   */\n      dup5\n      add\n        /* \"#utility.yul\":4312:4548   */\n      jump(tag_96)\n    tag_98:\n        /* \"#utility.yul\":4316:4319   */\n      pop\n        /* \"#utility.yul\":4576:4582   */\n      dup6\n        /* \"#utility.yul\":4567:4574   */\n      dup3\n        /* \"#utility.yul\":4564:4583   */\n      lt\n        /* \"#utility.yul\":4561:4762   */\n      iszero\n      tag_99\n      jumpi\n        /* \"#utility.yul\":4637:4656   */\n      dup8\n      dup6\n      add\n        /* \"#utility.yul\":4631:4657   */\n      mload\n      not(0x00)\n        /* \"#utility.yul\":4720:4721   */\n      0x03\n        /* \"#utility.yul\":4716:4730   */\n      dup9\n      swap1\n      shl\n        /* \"#utility.yul\":4732:4735   */\n      0xf8\n        /* \"#utility.yul\":4712:4736   */\n      and\n        /* \"#utility.yul\":4708:4745   */\n      shr\n        /* \"#utility.yul\":4704:4746   */\n      not\n        /* \"#utility.yul\":4689:4747   */\n      and\n        /* \"#utility.yul\":4674:4748   */\n      dup2\n      sstore\n        /* \"#utility.yul\":4561:4762   */\n    tag_99:\n      pop\n      pop\n        /* \"#utility.yul\":4808:4809   */\n      0x01\n        /* \"#utility.yul\":4799:4805   */\n      dup5\n        /* \"#utility.yul\":4796:4797   */\n      0x01\n        /* \"#utility.yul\":4792:4806   */\n      shl\n        /* \"#utility.yul\":4788:4810   */\n      add\n        /* \"#utility.yul\":4782:4786   */\n      dup6\n        /* \"#utility.yul\":4775:4811   */\n      sstore\n        /* \"#utility.yul\":4128:5072   */\n    tag_91:\n      pop\n      pop\n      pop\n      pop\n        /* \"#utility.yul\":3733:5078   */\n      pop\n      pop\n      jump\t// out\n\n    auxdata: 0xa2646970667358221220f38ccddb41af605c9fc265fb67edb2177fe3f612a8fd4d36132f44884e1c502964736f6c63430008160033\n}\n",
				"bytecode": {
					"linkReferences": {},
					"object": "608060405234801561000f575f80fd5b5061055c8061001d5f395ff3fe608060405234801561000f575f80fd5b506004361061004a575f3560e01c806342d21ef71461004e5780636ee10c3514610063578063b1498e291461008d578063f745630f146100a0575b5f80fd5b61006161005c366004610249565b6100b3565b005b610076610071366004610249565b6100eb565b604051610084929190610260565b60405180910390f35b61006161009b366004610351565b6101a2565b6100616100ae36600461038b565b610217565b60015f82815481106100c7576100c76103cf565b5f9182526020909120600290910201600101805460ff191691151591909117905550565b5f81815481106100f9575f80fd5b905f5260205f2090600202015f91509050805f018054610118906103e3565b80601f0160208091040260200160405190810160405280929190818152602001828054610144906103e3565b801561018f5780601f106101665761010080835404028352916020019161018f565b820191905f5260205f20905b81548152906001019060200180831161017257829003601f168201915b5050506001909301549192505060ff1682565b604080518082019091528181525f602082018190528054600181018255908052815160029091027f290decd9548b62a8d60345a988386fc84ba6bc95484008f6362f93160ef3e563019081906101f89082610466565b50602091909101516001909101805460ff191691151591909117905550565b805f838154811061022a5761022a6103cf565b905f5260205f2090600202015f0190816102449190610466565b505050565b5f60208284031215610259575f80fd5b5035919050565b604081525f83518060408401525f5b8181101561028c576020818701810151606086840101520161026f565b505f606082850101526060601f19601f83011684010191505082151560208301529392505050565b634e487b7160e01b5f52604160045260245ffd5b5f82601f8301126102d7575f80fd5b813567ffffffffffffffff808211156102f2576102f26102b4565b604051601f8301601f19908116603f0116810190828211818310171561031a5761031a6102b4565b81604052838152866020858801011115610332575f80fd5b836020870160208301375f602085830101528094505050505092915050565b5f60208284031215610361575f80fd5b813567ffffffffffffffff811115610377575f80fd5b610383848285016102c8565b949350505050565b5f806040838503121561039c575f80fd5b82359150602083013567ffffffffffffffff8111156103b9575f80fd5b6103c5858286016102c8565b9150509250929050565b634e487b7160e01b5f52603260045260245ffd5b600181811c908216806103f757607f821691505b60208210810361041557634e487b7160e01b5f52602260045260245ffd5b50919050565b601f82111561024457805f5260205f20601f840160051c810160208510156104405750805b601f840160051c820191505b8181101561045f575f815560010161044c565b5050505050565b815167ffffffffffffffff811115610480576104806102b4565b6104948161048e84546103e3565b8461041b565b602080601f8311600181146104c7575f84156104b05750858301515b5f19600386901b1c1916600185901b17855561051e565b5f85815260208120601f198616915b828110156104f5578886015182559484019460019091019084016104d6565b508582101561051257878501515f19600388901b60f8161c191681555b505060018460011b0185555b50505050505056fea2646970667358221220f38ccddb41af605c9fc265fb67edb2177fe3f612a8fd4d36132f44884e1c502964736f6c63430008160033",
					"opcodes": "PUSH1 0x80 PUSH1 0x40 MSTORE CALLVALUE DUP1 ISZERO PUSH2 0xF JUMPI PUSH0 DUP1 REVERT JUMPDEST POP PUSH2 0x55C DUP1 PUSH2 0x1D PUSH0 CODECOPY PUSH0 RETURN INVALID PUSH1 0x80 PUSH1 0x40 MSTORE CALLVALUE DUP1 ISZERO PUSH2 0xF JUMPI PUSH0 DUP1 REVERT JUMPDEST POP PUSH1 0x4 CALLDATASIZE LT PUSH2 0x4A JUMPI PUSH0 CALLDATALOAD PUSH1 0xE0 SHR DUP1 PUSH4 0x42D21EF7 EQ PUSH2 0x4E JUMPI DUP1 PUSH4 0x6EE10C35 EQ PUSH2 0x63 JUMPI DUP1 PUSH4 0xB1498E29 EQ PUSH2 0x8D JUMPI DUP1 PUSH4 0xF745630F EQ PUSH2 0xA0 JUMPI JUMPDEST PUSH0 DUP1 REVERT JUMPDEST PUSH2 0x61 PUSH2 0x5C CALLDATASIZE PUSH1 0x4 PUSH2 0x249 JUMP JUMPDEST PUSH2 0xB3 JUMP JUMPDEST STOP JUMPDEST PUSH2 0x76 PUSH2 0x71 CALLDATASIZE PUSH1 0x4 PUSH2 0x249 JUMP JUMPDEST PUSH2 0xEB JUMP JUMPDEST PUSH1 0x40 MLOAD PUSH2 0x84 SWAP3 SWAP2 SWAP1 PUSH2 0x260 JUMP JUMPDEST PUSH1 0x40 MLOAD DUP1 SWAP2 SUB SWAP1 RETURN JUMPDEST PUSH2 0x61 PUSH2 0x9B CALLDATASIZE PUSH1 0x4 PUSH2 0x351 JUMP JUMPDEST PUSH2 0x1A2 JUMP JUMPDEST PUSH2 0x61 PUSH2 0xAE CALLDATASIZE PUSH1 0x4 PUSH2 0x38B JUMP JUMPDEST PUSH2 0x217 JUMP JUMPDEST PUSH1 0x1 PUSH0 DUP3 DUP2 SLOAD DUP2 LT PUSH2 0xC7 JUMPI PUSH2 0xC7 PUSH2 0x3CF JUMP JUMPDEST PUSH0 SWAP2 DUP3 MSTORE PUSH1 0x20 SWAP1 SWAP2 KECCAK256 PUSH1 0x2 SWAP1 SWAP2 MUL ADD PUSH1 0x1 ADD DUP1 SLOAD PUSH1 0xFF NOT AND SWAP2 ISZERO ISZERO SWAP2 SWAP1 SWAP2 OR SWAP1 SSTORE POP JUMP JUMPDEST PUSH0 DUP2 DUP2 SLOAD DUP2 LT PUSH2 0xF9 JUMPI PUSH0 DUP1 REVERT JUMPDEST SWAP1 PUSH0 MSTORE PUSH1 0x20 PUSH0 KECCAK256 SWAP1 PUSH1 0x2 MUL ADD PUSH0 SWAP2 POP SWAP1 POP DUP1 PUSH0 ADD DUP1 SLOAD PUSH2 0x118 SWAP1 PUSH2 0x3E3 JUMP JUMPDEST DUP1 PUSH1 0x1F ADD PUSH1 0x20 DUP1 SWAP2 DIV MUL PUSH1 0x20 ADD PUSH1 0x40 MLOAD SWAP1 DUP2 ADD PUSH1 0x40 MSTORE DUP1 SWAP3 SWAP2 SWAP1 DUP2 DUP2 MSTORE PUSH1 0x20 ADD DUP3 DUP1 SLOAD PUSH2 0x144 SWAP1 PUSH2 0x3E3 JUMP JUMPDEST DUP1 ISZERO PUSH2 0x18F JUMPI DUP1 PUSH1 0x1F LT PUSH2 0x166 JUMPI PUSH2 0x100 DUP1 DUP4 SLOAD DIV MUL DUP4 MSTORE SWAP2 PUSH1 0x20 ADD SWAP2 PUSH2 0x18F JUMP JUMPDEST DUP3 ADD SWAP2 SWAP1 PUSH0 MSTORE PUSH1 0x20 PUSH0 KECCAK256 SWAP1 JUMPDEST DUP2 SLOAD DUP2 MSTORE SWAP1 PUSH1 0x1 ADD SWAP1 PUSH1 0x20 ADD DUP1 DUP4 GT PUSH2 0x172 JUMPI DUP3 SWAP1 SUB PUSH1 0x1F AND DUP3 ADD SWAP2 JUMPDEST POP POP POP PUSH1 0x1 SWAP1 SWAP4 ADD SLOAD SWAP2 SWAP3 POP POP PUSH1 0xFF AND DUP3 JUMP JUMPDEST PUSH1 0x40 DUP1 MLOAD DUP1 DUP3 ADD SWAP1 SWAP2 MSTORE DUP2 DUP2 MSTORE PUSH0 PUSH1 0x20 DUP3 ADD DUP2 SWAP1 MSTORE DUP1 SLOAD PUSH1 0x1 DUP2 ADD DUP3 SSTORE SWAP1 DUP1 MSTORE DUP2 MLOAD PUSH1 0x2 SWAP1 SWAP2 MUL PUSH32 0x290DECD9548B62A8D60345A988386FC84BA6BC95484008F6362F93160EF3E563 ADD SWAP1 DUP2 SWAP1 PUSH2 0x1F8 SWAP1 DUP3 PUSH2 0x466 JUMP JUMPDEST POP PUSH1 0x20 SWAP2 SWAP1 SWAP2 ADD MLOAD PUSH1 0x1 SWAP1 SWAP2 ADD DUP1 SLOAD PUSH1 0xFF NOT AND SWAP2 ISZERO ISZERO SWAP2 SWAP1 SWAP2 OR SWAP1 SSTORE POP JUMP JUMPDEST DUP1 PUSH0 DUP4 DUP2 SLOAD DUP2 LT PUSH2 0x22A JUMPI PUSH2 0x22A PUSH2 0x3CF JUMP JUMPDEST SWAP1 PUSH0 MSTORE PUSH1 0x20 PUSH0 KECCAK256 SWAP1 PUSH1 0x2 MUL ADD PUSH0 ADD SWAP1 DUP2 PUSH2 0x244 SWAP2 SWAP1 PUSH2 0x466 JUMP JUMPDEST POP POP POP JUMP JUMPDEST PUSH0 PUSH1 0x20 DUP3 DUP5 SUB SLT ISZERO PUSH2 0x259 JUMPI PUSH0 DUP1 REVERT JUMPDEST POP CALLDATALOAD SWAP2 SWAP1 POP JUMP JUMPDEST PUSH1 0x40 DUP2 MSTORE PUSH0 DUP4 MLOAD DUP1 PUSH1 0x40 DUP5 ADD MSTORE PUSH0 JUMPDEST DUP2 DUP2 LT ISZERO PUSH2 0x28C JUMPI PUSH1 0x20 DUP2 DUP8 ADD DUP2 ADD MLOAD PUSH1 0x60 DUP7 DUP5 ADD ADD MSTORE ADD PUSH2 0x26F JUMP JUMPDEST POP PUSH0 PUSH1 0x60 DUP3 DUP6 ADD ADD MSTORE PUSH1 0x60 PUSH1 0x1F NOT PUSH1 0x1F DUP4 ADD AND DUP5 ADD ADD SWAP2 POP POP DUP3 ISZERO ISZERO PUSH1 0x20 DUP4 ADD MSTORE SWAP4 SWAP3 POP POP POP JUMP JUMPDEST PUSH4 0x4E487B71 PUSH1 0xE0 SHL PUSH0 MSTORE PUSH1 0x41 PUSH1 0x4 MSTORE PUSH1 0x24 PUSH0 REVERT JUMPDEST PUSH0 DUP3 PUSH1 0x1F DUP4 ADD SLT PUSH2 0x2D7 JUMPI PUSH0 DUP1 REVERT JUMPDEST DUP2 CALLDATALOAD PUSH8 0xFFFFFFFFFFFFFFFF DUP1 DUP3 GT ISZERO PUSH2 0x2F2 JUMPI PUSH2 0x2F2 PUSH2 0x2B4 JUMP JUMPDEST PUSH1 0x40 MLOAD PUSH1 0x1F DUP4 ADD PUSH1 0x1F NOT SWAP1 DUP2 AND PUSH1 0x3F ADD AND DUP2 ADD SWAP1 DUP3 DUP3 GT DUP2 DUP4 LT OR ISZERO PUSH2 0x31A JUMPI PUSH2 0x31A PUSH2 0x2B4 JUMP JUMPDEST DUP2 PUSH1 0x40 MSTORE DUP4 DUP2 MSTORE DUP7 PUSH1 0x20 DUP6 DUP9 ADD ADD GT ISZERO PUSH2 0x332 JUMPI PUSH0 DUP1 REVERT JUMPDEST DUP4 PUSH1 0x20 DUP8 ADD PUSH1 0x20 DUP4 ADD CALLDATACOPY PUSH0 PUSH1 0x20 DUP6 DUP4 ADD ADD MSTORE DUP1 SWAP5 POP POP POP POP POP SWAP3 SWAP2 POP POP JUMP JUMPDEST PUSH0 PUSH1 0x20 DUP3 DUP5 SUB SLT ISZERO PUSH2 0x361 JUMPI PUSH0 DUP1 REVERT JUMPDEST DUP2 CALLDATALOAD PUSH8 0xFFFFFFFFFFFFFFFF DUP2 GT ISZERO PUSH2 0x377 JUMPI PUSH0 DUP1 REVERT JUMPDEST PUSH2 0x383 DUP5 DUP3 DUP6 ADD PUSH2 0x2C8 JUMP JUMPDEST SWAP5 SWAP4 POP POP POP POP JUMP JUMPDEST PUSH0 DUP1 PUSH1 0x40 DUP4 DUP6 SUB SLT ISZERO PUSH2 0x39C JUMPI PUSH0 DUP1 REVERT JUMPDEST DUP3 CALLDATALOAD SWAP2 POP PUSH1 0x20 DUP4 ADD CALLDATALOAD PUSH8 0xFFFFFFFFFFFFFFFF DUP2 GT ISZERO PUSH2 0x3B9 JUMPI PUSH0 DUP1 REVERT JUMPDEST PUSH2 0x3C5 DUP6 DUP3 DUP7 ADD PUSH2 0x2C8 JUMP JUMPDEST SWAP2 POP POP SWAP3 POP SWAP3 SWAP1 POP JUMP JUMPDEST PUSH4 0x4E487B71 PUSH1 0xE0 SHL PUSH0 MSTORE PUSH1 0x32 PUSH1 0x4 MSTORE PUSH1 0x24 PUSH0 REVERT JUMPDEST PUSH1 0x1 DUP2 DUP2 SHR SWAP1 DUP3 AND DUP1 PUSH2 0x3F7 JUMPI PUSH1 0x7F DUP3 AND SWAP2 POP JUMPDEST PUSH1 0x20 DUP3 LT DUP2 SUB PUSH2 0x415 JUMPI PUSH4 0x4E487B71 PUSH1 0xE0 SHL PUSH0 MSTORE PUSH1 0x22 PUSH1 0x4 MSTORE PUSH1 0x24 PUSH0 REVERT JUMPDEST POP SWAP2 SWAP1 POP JUMP JUMPDEST PUSH1 0x1F DUP3 GT ISZERO PUSH2 0x244 JUMPI DUP1 PUSH0 MSTORE PUSH1 0x20 PUSH0 KECCAK256 PUSH1 0x1F DUP5 ADD PUSH1 0x5 SHR DUP2 ADD PUSH1 0x20 DUP6 LT ISZERO PUSH2 0x440 JUMPI POP DUP1 JUMPDEST PUSH1 0x1F DUP5 ADD PUSH1 0x5 SHR DUP3 ADD SWAP2 POP JUMPDEST DUP2 DUP2 LT ISZERO PUSH2 0x45F JUMPI PUSH0 DUP2 SSTORE PUSH1 0x1 ADD PUSH2 0x44C JUMP JUMPDEST POP POP POP POP POP JUMP JUMPDEST DUP2 MLOAD PUSH8 0xFFFFFFFFFFFFFFFF DUP2 GT ISZERO PUSH2 0x480 JUMPI PUSH2 0x480 PUSH2 0x2B4 JUMP JUMPDEST PUSH2 0x494 DUP2 PUSH2 0x48E DUP5 SLOAD PUSH2 0x3E3 JUMP JUMPDEST DUP5 PUSH2 0x41B JUMP JUMPDEST PUSH1 0x20 DUP1 PUSH1 0x1F DUP4 GT PUSH1 0x1 DUP2 EQ PUSH2 0x4C7 JUMPI PUSH0 DUP5 ISZERO PUSH2 0x4B0 JUMPI POP DUP6 DUP4 ADD MLOAD JUMPDEST PUSH0 NOT PUSH1 0x3 DUP7 SWAP1 SHL SHR NOT AND PUSH1 0x1 DUP6 SWAP1 SHL OR DUP6 SSTORE PUSH2 0x51E JUMP JUMPDEST PUSH0 DUP6 DUP2 MSTORE PUSH1 0x20 DUP2 KECCAK256 PUSH1 0x1F NOT DUP7 AND SWAP2 JUMPDEST DUP3 DUP2 LT ISZERO PUSH2 0x4F5 JUMPI DUP9 DUP7 ADD MLOAD DUP3 SSTORE SWAP5 DUP5 ADD SWAP5 PUSH1 0x1 SWAP1 SWAP2 ADD SWAP1 DUP5 ADD PUSH2 0x4D6 JUMP JUMPDEST POP DUP6 DUP3 LT ISZERO PUSH2 0x512 JUMPI DUP8 DUP6 ADD MLOAD PUSH0 NOT PUSH1 0x3 DUP9 SWAP1 SHL PUSH1 0xF8 AND SHR NOT AND DUP2 SSTORE JUMPDEST POP POP PUSH1 0x1 DUP5 PUSH1 0x1 SHL ADD DUP6 SSTORE JUMPDEST POP POP POP POP POP POP JUMP INVALID LOG2 PUSH5 0x6970667358 0x22 SLT KECCAK256 RETURN DUP13 0xCD 0xDB COINBASE 0xAF PUSH1 0x5C SWAP16 0xC2 PUSH6 0xFB67EDB2177F 0xE3 0xF6 SLT 0xA8 REVERT 0x4D CALLDATASIZE SGT 0x2F PREVRANDAO DUP9 0x4E SHR POP 0x29 PUSH5 0x736F6C6343 STOP ADDMOD AND STOP CALLER "
				},
				"gasEstimates": {
					"creation": {
						"codeDepositCost": "274400",
						"executionCost": "310",
						"totalCost": "274710"
					},
					"external": {
						"insert(string)": "infinite",
						"status(uint256)": "26645",
						"tech(uint256)": "infinite",
						"update(uint256,string)": "infinite"
					}
				},
				"methodIdentifiers": {
					"insert(string)": "b1498e29",
					"status(uint256)": "42d21ef7",
					"tech(uint256)": "6ee10c35",
					"update(uint256,string)": "f745630f"
				}
			},
			"storageLayout": {
				"storage": [
					{
						"astId": 10,
						"contract": "todolist.sol:todo",
						"label": "tech",
						"offset": 0,
						"slot": "0",
						"type": "t_array(t_struct(micro)6_storage)dyn_storage"
					}
				],
				"types": {
					"t_array(t_struct(micro)6_storage)dyn_storage": {
						"base": "t_struct(micro)6_storage",
						"encoding": "dynamic_array",
						"label": "struct todo.micro[]",
						"numberOfBytes": "32"
					},
					"t_bool": {
						"encoding": "inplace",
						"label": "bool",
						"numberOfBytes": "1"
					},
					"t_string_storage": {
						"encoding": "bytes",
						"label": "string",
						"numberOfBytes": "32"
					},
					"t_struct(micro)6_storage": {
						"encoding": "inplace",
						"label": "struct todo.micro",
						"members": [
							{
								"astId": 3,
								"contract": "todolist.sol:todo",
								"label": "title",
								"offset": 0,
								"slot": "0",
								"type": "t_string_storage"
							},
							{
								"astId": 5,
								"contract": "todolist.sol:todo",
								"label": "completed",
								"offset": 0,
								"slot": "1",
								"type": "t_bool"
							}
						],
						"numberOfBytes": "64"
					}
				}
			},
			"userdoc": {
				"kind": "user",
				"methods": {},
				"version": 1
			}
		}
	}
}