{
	"vera.sol": {
		"zinny": {
			"abi": [
				{
					"inputs": [],
					"name": "cashmoney",
					"outputs": [
						{
							"internalType": "uint256",
							"name": "",
							"type": "uint256"
						}
					],
					"stateMutability": "view",
					"type": "function"
				},
				{
					"inputs": [],
					"name": "decrese",
					"outputs": [],
					"stateMutability": "nonpayable",
					"type": "function"
				},
				{
					"inputs": [],
					"name": "guru",
					"outputs": [
						{
							"internalType": "bool",
							"name": "",
							"type": "bool"
						}
					],
					"stateMutability": "view",
					"type": "function"
				},
				{
					"inputs": [],
					"name": "increse",
					"outputs": [],
					"stateMutability": "nonpayable",
					"type": "function"
				},
				{
					"inputs": [
						{
							"internalType": "bool",
							"name": "x",
							"type": "bool"
						}
					],
					"name": "pause",
					"outputs": [],
					"stateMutability": "nonpayable",
					"type": "function"
				}
			],
			"devdoc": {
				"kind": "dev",
				"methods": {},
				"version": 1
			},
			"evm": {
				"assembly": "    /* \"vera.sol\":58:713  contract zinny{... */\n  mstore(0x40, 0x80)\n  callvalue\n  dup1\n  iszero\n  tag_1\n  jumpi\n  0x00\n  dup1\n  revert\ntag_1:\n  pop\n  dataSize(sub_0)\n  dup1\n  dataOffset(sub_0)\n  0x00\n  codecopy\n  0x00\n  return\nstop\n\nsub_0: assembly {\n        /* \"vera.sol\":58:713  contract zinny{... */\n      mstore(0x40, 0x80)\n      callvalue\n      dup1\n      iszero\n      tag_1\n      jumpi\n      0x00\n      dup1\n      revert\n    tag_1:\n      pop\n      jumpi(tag_2, lt(calldatasize, 0x04))\n      shr(0xe0, calldataload(0x00))\n      dup1\n      0x02329a29\n      eq\n      tag_3\n      jumpi\n      dup1\n      0x350e1b51\n      eq\n      tag_4\n      jumpi\n      dup1\n      0x67867273\n      eq\n      tag_5\n      jumpi\n      dup1\n      0xd897321d\n      eq\n      tag_6\n      jumpi\n      dup1\n      0xe426511f\n      eq\n      tag_7\n      jumpi\n    tag_2:\n      0x00\n      dup1\n      revert\n        /* \"vera.sol\":291:358  function pause (bool x) external{... */\n    tag_3:\n      tag_8\n      tag_9\n      calldatasize\n      0x04\n      tag_10\n      jump\t// in\n    tag_9:\n        /* \"vera.sol\":334:338  guru */\n      0x00\n        /* \"vera.sol\":334:340  guru=x */\n      dup1\n      sload\n      not(0xff)\n      and\n      swap2\n      iszero\n      iszero\n      swap2\n      swap1\n      swap2\n      or\n      swap1\n      sstore\n        /* \"vera.sol\":291:358  function pause (bool x) external{... */\n      jump\n    tag_8:\n      stop\n        /* \"vera.sol\":81:97  bool public guru */\n    tag_4:\n      sload(0x00)\n      tag_12\n      swap1\n      0xff\n      and\n      dup2\n      jump\n    tag_12:\n      mload(0x40)\n        /* \"#utility.yul\":457:471   */\n      swap1\n      iszero\n        /* \"#utility.yul\":450:472   */\n      iszero\n        /* \"#utility.yul\":432:473   */\n      dup2\n      mstore\n        /* \"#utility.yul\":420:422   */\n      0x20\n        /* \"#utility.yul\":405:423   */\n      add\n        /* \"vera.sol\":81:97  bool public guru */\n    tag_14:\n      mload(0x40)\n      dup1\n      swap2\n      sub\n      swap1\n      return\n        /* \"vera.sol\":104:125  uint public cashmoney */\n    tag_5:\n      tag_16\n      sload(0x01)\n      dup2\n      jump\n    tag_16:\n      mload(0x40)\n        /* \"#utility.yul\":630:655   */\n      swap1\n      dup2\n      mstore\n        /* \"#utility.yul\":618:620   */\n      0x20\n        /* \"#utility.yul\":603:621   */\n      add\n        /* \"vera.sol\":104:125  uint public cashmoney */\n      tag_14\n        /* \"#utility.yul\":484:661   */\n      jump\n        /* \"vera.sol\":627:706  function decrese()public joyful{... */\n    tag_6:\n      tag_8\n      tag_21\n      jump\t// in\n        /* \"vera.sol\":368:617  function increse()public joyful{... */\n    tag_7:\n      tag_8\n      tag_23\n      jump\t// in\n        /* \"vera.sol\":627:706  function decrese()public joyful{... */\n    tag_21:\n        /* \"vera.sol\":171:175  guru */\n      and(0xff, sload(0x00))\n        /* \"vera.sol\":163:176  require(guru) */\n      tag_26\n      jumpi\n      0x00\n      dup1\n      revert\n    tag_26:\n        /* \"vera.sol\":693:694  5 */\n      0x05\n        /* \"vera.sol\":683:692  cashmoney */\n      sload(0x01)\n        /* \"vera.sol\":683:694  cashmoney-5 */\n      tag_28\n      swap2\n      swap1\n      tag_29\n      jump\t// in\n    tag_28:\n        /* \"vera.sol\":673:682  cashmoney */\n      0x01\n        /* \"vera.sol\":673:694  cashmoney=cashmoney-5 */\n      dup2\n      swap1\n      sstore\n        /* \"vera.sol\":260:271  cashmoney*8 */\n      tag_30\n      swap1\n        /* \"vera.sol\":270:271  8 */\n      0x08\n        /* \"vera.sol\":260:271  cashmoney*8 */\n      tag_31\n      jump\t// in\n    tag_30:\n        /* \"vera.sol\":250:259  cashmoney */\n      0x01\n        /* \"vera.sol\":250:271  cashmoney=cashmoney*8 */\n      sstore\n        /* \"vera.sol\":627:706  function decrese()public joyful{... */\n      jump\t// out\n        /* \"vera.sol\":368:617  function increse()public joyful{... */\n    tag_23:\n        /* \"vera.sol\":171:175  guru */\n      and(0xff, sload(0x00))\n        /* \"vera.sol\":163:176  require(guru) */\n      tag_33\n      jumpi\n      0x00\n      dup1\n      revert\n    tag_33:\n        /* \"vera.sol\":424:433  cashmoney */\n      sload(0x01)\n        /* \"vera.sol\":424:435  cashmoney+5 */\n      tag_28\n      swap1\n        /* \"vera.sol\":434:435  5 */\n      0x05\n        /* \"vera.sol\":424:435  cashmoney+5 */\n      tag_36\n      jump\t// in\n        /* \"#utility.yul\":14:287   */\n    tag_10:\n        /* \"#utility.yul\":70:76   */\n      0x00\n        /* \"#utility.yul\":123:125   */\n      0x20\n        /* \"#utility.yul\":111:120   */\n      dup3\n        /* \"#utility.yul\":102:109   */\n      dup5\n        /* \"#utility.yul\":98:121   */\n      sub\n        /* \"#utility.yul\":94:126   */\n      slt\n        /* \"#utility.yul\":91:143   */\n      iszero\n      tag_41\n      jumpi\n        /* \"#utility.yul\":139:140   */\n      0x00\n        /* \"#utility.yul\":136:137   */\n      dup1\n        /* \"#utility.yul\":129:141   */\n      revert\n        /* \"#utility.yul\":91:143   */\n    tag_41:\n        /* \"#utility.yul\":178:187   */\n      dup2\n        /* \"#utility.yul\":165:188   */\n      calldataload\n        /* \"#utility.yul\":231:236   */\n      dup1\n        /* \"#utility.yul\":224:237   */\n      iszero\n        /* \"#utility.yul\":217:238   */\n      iszero\n        /* \"#utility.yul\":210:215   */\n      dup2\n        /* \"#utility.yul\":207:239   */\n      eq\n        /* \"#utility.yul\":197:257   */\n      tag_42\n      jumpi\n        /* \"#utility.yul\":253:254   */\n      0x00\n        /* \"#utility.yul\":250:251   */\n      dup1\n        /* \"#utility.yul\":243:255   */\n      revert\n        /* \"#utility.yul\":197:257   */\n    tag_42:\n        /* \"#utility.yul\":276:281   */\n      swap4\n        /* \"#utility.yul\":14:287   */\n      swap3\n      pop\n      pop\n      pop\n      jump\t// out\n        /* \"#utility.yul\":666:793   */\n    tag_38:\n        /* \"#utility.yul\":727:737   */\n      0x4e487b71\n        /* \"#utility.yul\":722:725   */\n      0xe0\n        /* \"#utility.yul\":718:738   */\n      shl\n        /* \"#utility.yul\":715:716   */\n      0x00\n        /* \"#utility.yul\":708:739   */\n      mstore\n        /* \"#utility.yul\":758:762   */\n      0x11\n        /* \"#utility.yul\":755:756   */\n      0x04\n        /* \"#utility.yul\":748:763   */\n      mstore\n        /* \"#utility.yul\":782:786   */\n      0x24\n        /* \"#utility.yul\":779:780   */\n      0x00\n        /* \"#utility.yul\":772:787   */\n      revert\n        /* \"#utility.yul\":798:926   */\n    tag_29:\n        /* \"#utility.yul\":865:874   */\n      dup2\n      dup2\n      sub\n        /* \"#utility.yul\":886:897   */\n      dup2\n      dup2\n      gt\n        /* \"#utility.yul\":883:920   */\n      iszero\n      tag_48\n      jumpi\n        /* \"#utility.yul\":900:918   */\n      tag_48\n      tag_38\n      jump\t// in\n    tag_48:\n        /* \"#utility.yul\":798:926   */\n      swap3\n      swap2\n      pop\n      pop\n      jump\t// out\n        /* \"#utility.yul\":931:1099   */\n    tag_31:\n        /* \"#utility.yul\":1004:1013   */\n      dup1\n      dup3\n      mul\n        /* \"#utility.yul\":1035:1044   */\n      dup2\n      iszero\n        /* \"#utility.yul\":1052:1067   */\n      dup3\n      dup3\n      div\n        /* \"#utility.yul\":1046:1068   */\n      dup5\n      eq\n        /* \"#utility.yul\":1032:1069   */\n      or\n        /* \"#utility.yul\":1022:1093   */\n      tag_48\n      jumpi\n        /* \"#utility.yul\":1073:1091   */\n      tag_48\n      tag_38\n      jump\t// in\n        /* \"#utility.yul\":1104:1229   */\n    tag_36:\n        /* \"#utility.yul\":1169:1178   */\n      dup1\n      dup3\n      add\n        /* \"#utility.yul\":1190:1200   */\n      dup1\n      dup3\n      gt\n        /* \"#utility.yul\":1187:1223   */\n      iszero\n      tag_48\n      jumpi\n        /* \"#utility.yul\":1203:1221   */\n      tag_48\n      tag_38\n      jump\t// in\n\n    auxdata: 0xa2646970667358221220de815f45fe4715737d61fa3eb4a6cbdcfec11a0346f671d935a4faff648616c964736f6c63430008160033\n}\n",
				"bytecode": {
					"linkReferences": {},
					"object": "608060405234801561000f575f80fd5b506101c28061001d5f395ff3fe608060405234801561000f575f80fd5b5060043610610055575f3560e01c806302329a2914610059578063350e1b511461007b578063678672731461009c578063d897321d146100b3578063e426511f146100bb575b5f80fd5b61007961006736600461010f565b5f805460ff1916911515919091179055565b005b5f546100879060ff1681565b60405190151581526020015b60405180910390f35b6100a560015481565b604051908152602001610093565b6100796100c3565b6100796100f4565b5f5460ff166100d0575f80fd5b60056001546100df9190610149565b60018190556100ef906008610162565b600155565b5f5460ff16610101575f80fd5b6001546100df906005610179565b5f6020828403121561011f575f80fd5b8135801515811461012e575f80fd5b9392505050565b634e487b7160e01b5f52601160045260245ffd5b8181038181111561015c5761015c610135565b92915050565b808202811582820484141761015c5761015c610135565b8082018082111561015c5761015c61013556fea2646970667358221220de815f45fe4715737d61fa3eb4a6cbdcfec11a0346f671d935a4faff648616c964736f6c63430008160033",
					"opcodes": "PUSH1 0x80 PUSH1 0x40 MSTORE CALLVALUE DUP1 ISZERO PUSH2 0xF JUMPI PUSH0 DUP1 REVERT JUMPDEST POP PUSH2 0x1C2 DUP1 PUSH2 0x1D PUSH0 CODECOPY PUSH0 RETURN INVALID PUSH1 0x80 PUSH1 0x40 MSTORE CALLVALUE DUP1 ISZERO PUSH2 0xF JUMPI PUSH0 DUP1 REVERT JUMPDEST POP PUSH1 0x4 CALLDATASIZE LT PUSH2 0x55 JUMPI PUSH0 CALLDATALOAD PUSH1 0xE0 SHR DUP1 PUSH4 0x2329A29 EQ PUSH2 0x59 JUMPI DUP1 PUSH4 0x350E1B51 EQ PUSH2 0x7B JUMPI DUP1 PUSH4 0x67867273 EQ PUSH2 0x9C JUMPI DUP1 PUSH4 0xD897321D EQ PUSH2 0xB3 JUMPI DUP1 PUSH4 0xE426511F EQ PUSH2 0xBB JUMPI JUMPDEST PUSH0 DUP1 REVERT JUMPDEST PUSH2 0x79 PUSH2 0x67 CALLDATASIZE PUSH1 0x4 PUSH2 0x10F JUMP JUMPDEST PUSH0 DUP1 SLOAD PUSH1 0xFF NOT AND SWAP2 ISZERO ISZERO SWAP2 SWAP1 SWAP2 OR SWAP1 SSTORE JUMP JUMPDEST STOP JUMPDEST PUSH0 SLOAD PUSH2 0x87 SWAP1 PUSH1 0xFF AND DUP2 JUMP JUMPDEST PUSH1 0x40 MLOAD SWAP1 ISZERO ISZERO DUP2 MSTORE PUSH1 0x20 ADD JUMPDEST PUSH1 0x40 MLOAD DUP1 SWAP2 SUB SWAP1 RETURN JUMPDEST PUSH2 0xA5 PUSH1 0x1 SLOAD DUP2 JUMP JUMPDEST PUSH1 0x40 MLOAD SWAP1 DUP2 MSTORE PUSH1 0x20 ADD PUSH2 0x93 JUMP JUMPDEST PUSH2 0x79 PUSH2 0xC3 JUMP JUMPDEST PUSH2 0x79 PUSH2 0xF4 JUMP JUMPDEST PUSH0 SLOAD PUSH1 0xFF AND PUSH2 0xD0 JUMPI PUSH0 DUP1 REVERT JUMPDEST PUSH1 0x5 PUSH1 0x1 SLOAD PUSH2 0xDF SWAP2 SWAP1 PUSH2 0x149 JUMP JUMPDEST PUSH1 0x1 DUP2 SWAP1 SSTORE PUSH2 0xEF SWAP1 PUSH1 0x8 PUSH2 0x162 JUMP JUMPDEST PUSH1 0x1 SSTORE JUMP JUMPDEST PUSH0 SLOAD PUSH1 0xFF AND PUSH2 0x101 JUMPI PUSH0 DUP1 REVERT JUMPDEST PUSH1 0x1 SLOAD PUSH2 0xDF SWAP1 PUSH1 0x5 PUSH2 0x179 JUMP JUMPDEST PUSH0 PUSH1 0x20 DUP3 DUP5 SUB SLT ISZERO PUSH2 0x11F JUMPI PUSH0 DUP1 REVERT JUMPDEST DUP2 CALLDATALOAD DUP1 ISZERO ISZERO DUP2 EQ PUSH2 0x12E JUMPI PUSH0 DUP1 REVERT JUMPDEST SWAP4 SWAP3 POP POP POP JUMP JUMPDEST PUSH4 0x4E487B71 PUSH1 0xE0 SHL PUSH0 MSTORE PUSH1 0x11 PUSH1 0x4 MSTORE PUSH1 0x24 PUSH0 REVERT JUMPDEST DUP2 DUP2 SUB DUP2 DUP2 GT ISZERO PUSH2 0x15C JUMPI PUSH2 0x15C PUSH2 0x135 JUMP JUMPDEST SWAP3 SWAP2 POP POP JUMP JUMPDEST DUP1 DUP3 MUL DUP2 ISZERO DUP3 DUP3 DIV DUP5 EQ OR PUSH2 0x15C JUMPI PUSH2 0x15C PUSH2 0x135 JUMP JUMPDEST DUP1 DUP3 ADD DUP1 DUP3 GT ISZERO PUSH2 0x15C JUMPI PUSH2 0x15C PUSH2 0x135 JUMP INVALID LOG2 PUSH5 0x6970667358 0x22 SLT KECCAK256 0xDE DUP2 PUSH0 GASLIMIT INVALID SELFBALANCE ISZERO PUSH20 0x7D61FA3EB4A6CBDCFEC11A0346F671D935A4FAFF PUSH5 0x8616C96473 PUSH16 0x6C634300081600330000000000000000 "
				},
				"gasEstimates": {
					"creation": {
						"codeDepositCost": "90000",
						"executionCost": "139",
						"totalCost": "90139"
					},
					"external": {
						"cashmoney()": "2316",
						"decrese()": "infinite",
						"guru()": "2297",
						"increse()": "infinite",
						"pause(bool)": "24457"
					}
				},
				"methodIdentifiers": {
					"cashmoney()": "67867273",
					"decrese()": "d897321d",
					"guru()": "350e1b51",
					"increse()": "e426511f",
					"pause(bool)": "02329a29"
				}
			},
			"storageLayout": {
				"storage": [
					{
						"astId": 3,
						"contract": "vera.sol:zinny",
						"label": "guru",
						"offset": 0,
						"slot": "0",
						"type": "t_bool"
					},
					{
						"astId": 5,
						"contract": "vera.sol:zinny",
						"label": "cashmoney",
						"offset": 0,
						"slot": "1",
						"type": "t_uint256"
					}
				],
				"types": {
					"t_bool": {
						"encoding": "inplace",
						"label": "bool",
						"numberOfBytes": "1"
					},
					"t_uint256": {
						"encoding": "inplace",
						"label": "uint256",
						"numberOfBytes": "32"
					}
				}
			},
			"userdoc": {
				"kind": "user",
				"methods": {},
				"version": 1
			}
		}
	}
}