{
	"sendviasend.sol": {
		"money": {
			"abi": [
				{
					"inputs": [
						{
							"internalType": "address payable",
							"name": "_to",
							"type": "address"
						},
						{
							"internalType": "uint256",
							"name": "amount",
							"type": "uint256"
						}
					],
					"name": "sendViaSend",
					"outputs": [],
					"stateMutability": "payable",
					"type": "function"
				}
			],
			"devdoc": {
				"kind": "dev",
				"methods": {},
				"version": 1
			},
			"evm": {
				"assembly": "    /* \"sendviasend.sol\":58:514  contract money{... */\n  mstore(0x40, 0x80)\n  callvalue\n  dup1\n  iszero\n  tag_1\n  jumpi\n  0x00\n  dup1\n  revert\ntag_1:\n  pop\n  dataSize(sub_0)\n  dup1\n  dataOffset(sub_0)\n  0x00\n  codecopy\n  0x00\n  return\nstop\n\nsub_0: assembly {\n        /* \"sendviasend.sol\":58:514  contract money{... */\n      mstore(0x40, 0x80)\n      jumpi(tag_1, lt(calldatasize, 0x04))\n      shr(0xe0, calldataload(0x00))\n      dup1\n      0x8c7736f4\n      eq\n      tag_2\n      jumpi\n    tag_1:\n      0x00\n      dup1\n      revert\n        /* \"sendviasend.sol\":78:506  function sendViaSend(address payable _to, uint amount) public payable {... */\n    tag_2:\n      tag_3\n      tag_4\n      calldatasize\n      0x04\n      tag_5\n      jump\t// in\n    tag_4:\n      tag_6\n      jump\t// in\n    tag_3:\n      stop\n    tag_6:\n        /* \"sendviasend.sol\":171:187  _to.send(amount) */\n      mload(0x40)\n        /* \"sendviasend.sol\":159:168  bool sent */\n      0x00\n      swap1\n      sub(shl(0xa0, 0x01), 0x01)\n        /* \"sendviasend.sol\":171:179  _to.send */\n      dup5\n      and\n      swap1\n        /* \"sendviasend.sol\":171:187  _to.send(amount) */\n      dup4\n      iszero\n      0x08fc\n      mul\n      swap1\n        /* \"sendviasend.sol\":180:186  amount */\n      dup5\n      swap1\n        /* \"sendviasend.sol\":159:168  bool sent */\n      dup5\n        /* \"sendviasend.sol\":171:187  _to.send(amount) */\n      dup2\n        /* \"sendviasend.sol\":159:168  bool sent */\n      dup2\n        /* \"sendviasend.sol\":171:187  _to.send(amount) */\n      dup2\n        /* \"sendviasend.sol\":180:186  amount */\n      dup6\n        /* \"sendviasend.sol\":171:179  _to.send */\n      dup9\n        /* \"sendviasend.sol\":171:187  _to.send(amount) */\n      dup9\n      call\n      swap4\n      pop\n      pop\n      pop\n      pop\n        /* \"sendviasend.sol\":159:187  bool sent = _to.send(amount) */\n      swap1\n      pop\n        /* \"sendviasend.sol\":203:207  sent */\n      dup1\n        /* \"sendviasend.sol\":195:232  require(sent, \"failed to send ether\") */\n      tag_9\n      jumpi\n      mload(0x40)\n      shl(0xe5, 0x461bcd)\n      dup2\n      mstore\n        /* \"#utility.yul\":583:585   */\n      0x20\n        /* \"sendviasend.sol\":195:232  require(sent, \"failed to send ether\") */\n      0x04\n      dup3\n      add\n        /* \"#utility.yul\":565:586   */\n      mstore\n        /* \"#utility.yul\":622:624   */\n      0x14\n        /* \"#utility.yul\":602:620   */\n      0x24\n      dup3\n      add\n        /* \"#utility.yul\":595:625   */\n      mstore\n      shl(0x61, 0x3330b4b632b2103a379039b2b7321032ba3432b9)\n        /* \"#utility.yul\":641:659   */\n      0x44\n      dup3\n      add\n        /* \"#utility.yul\":634:684   */\n      mstore\n        /* \"#utility.yul\":701:719   */\n      0x64\n      add\n        /* \"sendviasend.sol\":195:232  require(sent, \"failed to send ether\") */\n      mload(0x40)\n      dup1\n      swap2\n      sub\n      swap1\n      revert\n    tag_9:\n        /* \"sendviasend.sol\":148:506  {... */\n      pop\n        /* \"sendviasend.sol\":78:506  function sendViaSend(address payable _to, uint amount) public payable {... */\n      pop\n      pop\n      jump\t// out\n        /* \"#utility.yul\":14:376   */\n    tag_5:\n        /* \"#utility.yul\":90:96   */\n      0x00\n        /* \"#utility.yul\":98:104   */\n      dup1\n        /* \"#utility.yul\":151:153   */\n      0x40\n        /* \"#utility.yul\":139:148   */\n      dup4\n        /* \"#utility.yul\":130:137   */\n      dup6\n        /* \"#utility.yul\":126:149   */\n      sub\n        /* \"#utility.yul\":122:154   */\n      slt\n        /* \"#utility.yul\":119:171   */\n      iszero\n      tag_14\n      jumpi\n        /* \"#utility.yul\":167:168   */\n      0x00\n        /* \"#utility.yul\":164:165   */\n      dup1\n        /* \"#utility.yul\":157:169   */\n      revert\n        /* \"#utility.yul\":119:171   */\n    tag_14:\n        /* \"#utility.yul\":193:216   */\n      dup3\n      calldataload\n      sub(shl(0xa0, 0x01), 0x01)\n        /* \"#utility.yul\":245:276   */\n      dup2\n      and\n        /* \"#utility.yul\":235:277   */\n      dup2\n      eq\n        /* \"#utility.yul\":225:295   */\n      tag_15\n      jumpi\n        /* \"#utility.yul\":291:292   */\n      0x00\n        /* \"#utility.yul\":288:289   */\n      dup1\n        /* \"#utility.yul\":281:293   */\n      revert\n        /* \"#utility.yul\":225:295   */\n    tag_15:\n        /* \"#utility.yul\":314:319   */\n      swap5\n        /* \"#utility.yul\":366:368   */\n      0x20\n        /* \"#utility.yul\":351:369   */\n      swap4\n      swap1\n      swap4\n      add\n        /* \"#utility.yul\":338:370   */\n      calldataload\n      swap4\n      pop\n      pop\n      pop\n        /* \"#utility.yul\":14:376   */\n      jump\t// out\n\n    auxdata: 0xa2646970667358221220d8876c687741c2fb197923879e16ab122548e4fd923a7e14e683523cb58541da64736f6c63430008160033\n}\n",
				"bytecode": {
					"linkReferences": {},
					"object": "608060405234801561000f575f80fd5b5061010d8061001d5f395ff3fe608060405260043610601b575f3560e01c80638c7736f414601f575b5f80fd5b602e602a36600460a4565b6030565b005b6040515f906001600160a01b0384169083156108fc0290849084818181858888f19350505050905080609f5760405162461bcd60e51b81526020600482015260146024820152733330b4b632b2103a379039b2b7321032ba3432b960611b604482015260640160405180910390fd5b505050565b5f806040838503121560b4575f80fd5b82356001600160a01b038116811460c9575f80fd5b94602093909301359350505056fea2646970667358221220d8876c687741c2fb197923879e16ab122548e4fd923a7e14e683523cb58541da64736f6c63430008160033",
					"opcodes": "PUSH1 0x80 PUSH1 0x40 MSTORE CALLVALUE DUP1 ISZERO PUSH2 0xF JUMPI PUSH0 DUP1 REVERT JUMPDEST POP PUSH2 0x10D DUP1 PUSH2 0x1D PUSH0 CODECOPY PUSH0 RETURN INVALID PUSH1 0x80 PUSH1 0x40 MSTORE PUSH1 0x4 CALLDATASIZE LT PUSH1 0x1B JUMPI PUSH0 CALLDATALOAD PUSH1 0xE0 SHR DUP1 PUSH4 0x8C7736F4 EQ PUSH1 0x1F JUMPI JUMPDEST PUSH0 DUP1 REVERT JUMPDEST PUSH1 0x2E PUSH1 0x2A CALLDATASIZE PUSH1 0x4 PUSH1 0xA4 JUMP JUMPDEST PUSH1 0x30 JUMP JUMPDEST STOP JUMPDEST PUSH1 0x40 MLOAD PUSH0 SWAP1 PUSH1 0x1 PUSH1 0x1 PUSH1 0xA0 SHL SUB DUP5 AND SWAP1 DUP4 ISZERO PUSH2 0x8FC MUL SWAP1 DUP5 SWAP1 DUP5 DUP2 DUP2 DUP2 DUP6 DUP9 DUP9 CALL SWAP4 POP POP POP POP SWAP1 POP DUP1 PUSH1 0x9F JUMPI PUSH1 0x40 MLOAD PUSH3 0x461BCD PUSH1 0xE5 SHL DUP2 MSTORE PUSH1 0x20 PUSH1 0x4 DUP3 ADD MSTORE PUSH1 0x14 PUSH1 0x24 DUP3 ADD MSTORE PUSH20 0x3330B4B632B2103A379039B2B7321032BA3432B9 PUSH1 0x61 SHL PUSH1 0x44 DUP3 ADD MSTORE PUSH1 0x64 ADD PUSH1 0x40 MLOAD DUP1 SWAP2 SUB SWAP1 REVERT JUMPDEST POP POP POP JUMP JUMPDEST PUSH0 DUP1 PUSH1 0x40 DUP4 DUP6 SUB SLT ISZERO PUSH1 0xB4 JUMPI PUSH0 DUP1 REVERT JUMPDEST DUP3 CALLDATALOAD PUSH1 0x1 PUSH1 0x1 PUSH1 0xA0 SHL SUB DUP2 AND DUP2 EQ PUSH1 0xC9 JUMPI PUSH0 DUP1 REVERT JUMPDEST SWAP5 PUSH1 0x20 SWAP4 SWAP1 SWAP4 ADD CALLDATALOAD SWAP4 POP POP POP JUMP INVALID LOG2 PUSH5 0x6970667358 0x22 SLT KECCAK256 0xD8 DUP8 PUSH13 0x687741C2FB197923879E16AB12 0x25 BASEFEE 0xE4 REVERT SWAP3 GASPRICE PUSH31 0x14E683523CB58541DA64736F6C634300081600330000000000000000000000 "
				},
				"gasEstimates": {
					"creation": {
						"codeDepositCost": "53800",
						"executionCost": "103",
						"totalCost": "53903"
					},
					"external": {
						"sendViaSend(address,uint256)": "infinite"
					}
				},
				"methodIdentifiers": {
					"sendViaSend(address,uint256)": "8c7736f4"
				}
			},
			"storageLayout": {
				"storage": [],
				"types": null
			},
			"userdoc": {
				"kind": "user",
				"methods": {},
				"version": 1
			}
		}
	}
}