{
	"sendviacall.sol": {
		"money": {
			"abi": [
				{
					"inputs": [
						{
							"internalType": "address payable",
							"name": "_to",
							"type": "address"
						},
						{
							"internalType": "uint256",
							"name": "amount",
							"type": "uint256"
						}
					],
					"name": "sendViaCall",
					"outputs": [],
					"stateMutability": "payable",
					"type": "function"
				}
			],
			"devdoc": {
				"kind": "dev",
				"methods": {},
				"version": 1
			},
			"evm": {
				"assembly": "    /* \"sendviacall.sol\":56:261  contract money{... */\n  mstore(0x40, 0x80)\n  callvalue\n  dup1\n  iszero\n  tag_1\n  jumpi\n  0x00\n  dup1\n  revert\ntag_1:\n  pop\n  dataSize(sub_0)\n  dup1\n  dataOffset(sub_0)\n  0x00\n  codecopy\n  0x00\n  return\nstop\n\nsub_0: assembly {\n        /* \"sendviacall.sol\":56:261  contract money{... */\n      mstore(0x40, 0x80)\n      jumpi(tag_1, lt(calldatasize, 0x04))\n      shr(0xe0, calldataload(0x00))\n      dup1\n      0xe4dc4f55\n      eq\n      tag_2\n      jumpi\n    tag_1:\n      0x00\n      dup1\n      revert\n        /* \"sendviacall.sol\":77:252  function sendViaCall(address payable _to, uint amount) public payable {... */\n    tag_2:\n      tag_3\n      tag_4\n      calldatasize\n      0x04\n      tag_5\n      jump\t// in\n    tag_4:\n      tag_6\n      jump\t// in\n    tag_3:\n      stop\n    tag_6:\n        /* \"sendviacall.sol\":154:163  bool sent */\n      0x00\n        /* \"sendviacall.sol\":171:174  _to */\n      dup3\n      sub(shl(0xa0, 0x01), 0x01)\n        /* \"sendviacall.sol\":171:179  _to.call */\n      and\n        /* \"sendviacall.sol\":186:192  amount */\n      dup3\n        /* \"sendviacall.sol\":171:197  _to.call{value:amount}(\"\") */\n      mload(0x40)\n      0x00\n      mload(0x40)\n      dup1\n      dup4\n      sub\n      dup2\n      dup6\n      dup8\n      gas\n      call\n      swap3\n      pop\n      pop\n      pop\n      returndatasize\n      dup1\n      0x00\n      dup2\n      eq\n      tag_12\n      jumpi\n      mload(0x40)\n      swap2\n      pop\n      and(add(returndatasize, 0x3f), not(0x1f))\n      dup3\n      add\n      0x40\n      mstore\n      returndatasize\n      dup3\n      mstore\n      returndatasize\n      0x00\n      0x20\n      dup5\n      add\n      returndatacopy\n      jump(tag_11)\n    tag_12:\n      0x60\n      swap2\n      pop\n    tag_11:\n      pop\n        /* \"sendviacall.sol\":153:197  (bool sent, ) =   _to.call{value:amount}(\"\") */\n      pop\n      swap1\n      pop\n        /* \"sendviacall.sol\":215:219  sent */\n      dup1\n        /* \"sendviacall.sol\":207:244  require(sent, 'failed to send ether') */\n      tag_13\n      jumpi\n      mload(0x40)\n      shl(0xe5, 0x461bcd)\n      dup2\n      mstore\n        /* \"#utility.yul\":793:795   */\n      0x20\n        /* \"sendviacall.sol\":207:244  require(sent, 'failed to send ether') */\n      0x04\n      dup3\n      add\n        /* \"#utility.yul\":775:796   */\n      mstore\n        /* \"#utility.yul\":832:834   */\n      0x14\n        /* \"#utility.yul\":812:830   */\n      0x24\n      dup3\n      add\n        /* \"#utility.yul\":805:835   */\n      mstore\n      shl(0x61, 0x3330b4b632b2103a379039b2b7321032ba3432b9)\n        /* \"#utility.yul\":851:869   */\n      0x44\n      dup3\n      add\n        /* \"#utility.yul\":844:894   */\n      mstore\n        /* \"#utility.yul\":911:929   */\n      0x64\n      add\n        /* \"sendviacall.sol\":207:244  require(sent, 'failed to send ether') */\n      mload(0x40)\n      dup1\n      swap2\n      sub\n      swap1\n      revert\n    tag_13:\n        /* \"sendviacall.sol\":147:252  {... */\n      pop\n        /* \"sendviacall.sol\":77:252  function sendViaCall(address payable _to, uint amount) public payable {... */\n      pop\n      pop\n      jump\t// out\n        /* \"#utility.yul\":14:376   */\n    tag_5:\n        /* \"#utility.yul\":90:96   */\n      0x00\n        /* \"#utility.yul\":98:104   */\n      dup1\n        /* \"#utility.yul\":151:153   */\n      0x40\n        /* \"#utility.yul\":139:148   */\n      dup4\n        /* \"#utility.yul\":130:137   */\n      dup6\n        /* \"#utility.yul\":126:149   */\n      sub\n        /* \"#utility.yul\":122:154   */\n      slt\n        /* \"#utility.yul\":119:171   */\n      iszero\n      tag_18\n      jumpi\n        /* \"#utility.yul\":167:168   */\n      0x00\n        /* \"#utility.yul\":164:165   */\n      dup1\n        /* \"#utility.yul\":157:169   */\n      revert\n        /* \"#utility.yul\":119:171   */\n    tag_18:\n        /* \"#utility.yul\":193:216   */\n      dup3\n      calldataload\n      sub(shl(0xa0, 0x01), 0x01)\n        /* \"#utility.yul\":245:276   */\n      dup2\n      and\n        /* \"#utility.yul\":235:277   */\n      dup2\n      eq\n        /* \"#utility.yul\":225:295   */\n      tag_19\n      jumpi\n        /* \"#utility.yul\":291:292   */\n      0x00\n        /* \"#utility.yul\":288:289   */\n      dup1\n        /* \"#utility.yul\":281:293   */\n      revert\n        /* \"#utility.yul\":225:295   */\n    tag_19:\n        /* \"#utility.yul\":314:319   */\n      swap5\n        /* \"#utility.yul\":366:368   */\n      0x20\n        /* \"#utility.yul\":351:369   */\n      swap4\n      swap1\n      swap4\n      add\n        /* \"#utility.yul\":338:370   */\n      calldataload\n      swap4\n      pop\n      pop\n      pop\n        /* \"#utility.yul\":14:376   */\n      jump\t// out\n\n    auxdata: 0xa264697066735822122052160400cbb44b75997bf69f5d5c93fe9d5d577360f9bcd24517906155cf8e5e64736f6c63430008160033\n}\n",
				"bytecode": {
					"linkReferences": {},
					"object": "608060405234801561000f575f80fd5b506101408061001d5f395ff3fe60806040526004361061001d575f3560e01c8063e4dc4f5514610021575b5f80fd5b61003461002f3660046100d5565b610036565b005b5f826001600160a01b0316826040515f6040518083038185875af1925050503d805f811461007f576040519150601f19603f3d011682016040523d82523d5f602084013e610084565b606091505b50509050806100d05760405162461bcd60e51b81526020600482015260146024820152733330b4b632b2103a379039b2b7321032ba3432b960611b604482015260640160405180910390fd5b505050565b5f80604083850312156100e6575f80fd5b82356001600160a01b03811681146100fc575f80fd5b94602093909301359350505056fea264697066735822122052160400cbb44b75997bf69f5d5c93fe9d5d577360f9bcd24517906155cf8e5e64736f6c63430008160033",
					"opcodes": "PUSH1 0x80 PUSH1 0x40 MSTORE CALLVALUE DUP1 ISZERO PUSH2 0xF JUMPI PUSH0 DUP1 REVERT JUMPDEST POP PUSH2 0x140 DUP1 PUSH2 0x1D PUSH0 CODECOPY PUSH0 RETURN INVALID PUSH1 0x80 PUSH1 0x40 MSTORE PUSH1 0x4 CALLDATASIZE LT PUSH2 0x1D JUMPI PUSH0 CALLDATALOAD PUSH1 0xE0 SHR DUP1 PUSH4 0xE4DC4F55 EQ PUSH2 0x21 JUMPI JUMPDEST PUSH0 DUP1 REVERT JUMPDEST PUSH2 0x34 PUSH2 0x2F CALLDATASIZE PUSH1 0x4 PUSH2 0xD5 JUMP JUMPDEST PUSH2 0x36 JUMP JUMPDEST STOP JUMPDEST PUSH0 DUP3 PUSH1 0x1 PUSH1 0x1 PUSH1 0xA0 SHL SUB AND DUP3 PUSH1 0x40 MLOAD PUSH0 PUSH1 0x40 MLOAD DUP1 DUP4 SUB DUP2 DUP6 DUP8 GAS CALL SWAP3 POP POP POP RETURNDATASIZE DUP1 PUSH0 DUP2 EQ PUSH2 0x7F JUMPI PUSH1 0x40 MLOAD SWAP2 POP PUSH1 0x1F NOT PUSH1 0x3F RETURNDATASIZE ADD AND DUP3 ADD PUSH1 0x40 MSTORE RETURNDATASIZE DUP3 MSTORE RETURNDATASIZE PUSH0 PUSH1 0x20 DUP5 ADD RETURNDATACOPY PUSH2 0x84 JUMP JUMPDEST PUSH1 0x60 SWAP2 POP JUMPDEST POP POP SWAP1 POP DUP1 PUSH2 0xD0 JUMPI PUSH1 0x40 MLOAD PUSH3 0x461BCD PUSH1 0xE5 SHL DUP2 MSTORE PUSH1 0x20 PUSH1 0x4 DUP3 ADD MSTORE PUSH1 0x14 PUSH1 0x24 DUP3 ADD MSTORE PUSH20 0x3330B4B632B2103A379039B2B7321032BA3432B9 PUSH1 0x61 SHL PUSH1 0x44 DUP3 ADD MSTORE PUSH1 0x64 ADD PUSH1 0x40 MLOAD DUP1 SWAP2 SUB SWAP1 REVERT JUMPDEST POP POP POP JUMP JUMPDEST PUSH0 DUP1 PUSH1 0x40 DUP4 DUP6 SUB SLT ISZERO PUSH2 0xE6 JUMPI PUSH0 DUP1 REVERT JUMPDEST DUP3 CALLDATALOAD PUSH1 0x1 PUSH1 0x1 PUSH1 0xA0 SHL SUB DUP2 AND DUP2 EQ PUSH2 0xFC JUMPI PUSH0 DUP1 REVERT JUMPDEST SWAP5 PUSH1 0x20 SWAP4 SWAP1 SWAP4 ADD CALLDATALOAD SWAP4 POP POP POP JUMP INVALID LOG2 PUSH5 0x6970667358 0x22 SLT KECCAK256 MSTORE AND DIV STOP 0xCB 0xB4 0x4B PUSH22 0x997BF69F5D5C93FE9D5D577360F9BCD24517906155CF DUP15 0x5E PUSH5 0x736F6C6343 STOP ADDMOD AND STOP CALLER "
				},
				"gasEstimates": {
					"creation": {
						"codeDepositCost": "64000",
						"executionCost": "109",
						"totalCost": "64109"
					},
					"external": {
						"sendViaCall(address,uint256)": "infinite"
					}
				},
				"methodIdentifiers": {
					"sendViaCall(address,uint256)": "e4dc4f55"
				}
			},
			"storageLayout": {
				"storage": [],
				"types": null
			},
			"userdoc": {
				"kind": "user",
				"methods": {},
				"version": 1
			}
		}
	}
}