{
	"data": {
		"bytecode": {
			"linkReferences": {},
			"object": "6080604052348015600e575f80fd5b5060998061001b5f395ff3fe608060405260043610601b575f3560e01c8063347e6e2f14601f575b5f80fd5b602e602a3660046030565b5050565b005b5f80604083850312156040575f80fd5b82356001600160a01b03811681146055575f80fd5b94602093909301359350505056fea2646970667358221220bc52e54bf5b4a9538dcbd0c549ad4b962655a55ca5d4d5b188d49eb5fd8fb82064736f6c63430008170033",
			"opcodes": "PUSH1 0x80 PUSH1 0x40 MSTORE CALLVALUE DUP1 ISZERO PUSH1 0xE JUMPI PUSH0 DUP1 REVERT JUMPDEST POP PUSH1 0x99 DUP1 PUSH2 0x1B PUSH0 CODECOPY PUSH0 RETURN INVALID PUSH1 0x80 PUSH1 0x40 MSTORE PUSH1 0x4 CALLDATASIZE LT PUSH1 0x1B JUMPI PUSH0 CALLDATALOAD PUSH1 0xE0 SHR DUP1 PUSH4 0x347E6E2F EQ PUSH1 0x1F JUMPI JUMPDEST PUSH0 DUP1 REVERT JUMPDEST PUSH1 0x2E PUSH1 0x2A CALLDATASIZE PUSH1 0x4 PUSH1 0x30 JUMP JUMPDEST POP POP JUMP JUMPDEST STOP JUMPDEST PUSH0 DUP1 PUSH1 0x40 DUP4 DUP6 SUB SLT ISZERO PUSH1 0x40 JUMPI PUSH0 DUP1 REVERT JUMPDEST DUP3 CALLDATALOAD PUSH1 0x1 PUSH1 0x1 PUSH1 0xA0 SHL SUB DUP2 AND DUP2 EQ PUSH1 0x55 JUMPI PUSH0 DUP1 REVERT JUMPDEST SWAP5 PUSH1 0x20 SWAP4 SWAP1 SWAP4 ADD CALLDATALOAD SWAP4 POP POP POP JUMP INVALID LOG2 PUSH5 0x6970667358 0x22 SLT KECCAK256 0xBC MSTORE 0xE5 0x4B CREATE2 0xB4 0xA9 MSTORE8 DUP14 0xCB 0xD0 0xC5 0x49 0xAD 0x4B SWAP7 0x26 SSTORE 0xA5 0x5C 0xA5 0xD4 0xD5 0xB1 DUP9 0xD4 SWAP15 0xB5 REVERT DUP16 0xB8 KECCAK256 PUSH5 0x736F6C6343 STOP ADDMOD OR STOP CALLER "
		},
		"gasEstimates": {
			"creation": {
				"codeDepositCost": "30600",
				"executionCost": "79",
				"totalCost": "30679"
			},
			"external": {
				"sendViacall(address,uint256)": "232"
			}
		},
		"methodIdentifiers": {
			"sendViacall(address,uint256)": "347e6e2f"
		}
	},
	"abi": [
		{
			"inputs": [
				{
					"internalType": "address payable",
					"name": "_to",
					"type": "address"
				},
				{
					"internalType": "uint256",
					"name": "amount",
					"type": "uint256"
				}
			],
			"name": "sendViacall",
			"outputs": [],
			"stateMutability": "payable",
			"type": "function"
		}
	]
}