{
	"data": {
		"bytecode": {
			"linkReferences": {},
			"object": "608060405234801561000f575f80fd5b506102488061001d5f395ff3fe608060405260043610610033575f3560e01c80633ccfd60b14610037578063d0e30db01461004d578063e3d670d714610055575b5f80fd5b348015610042575f80fd5b5061004b610092565b005b61004b61019b565b348015610060575f80fd5b5061008061006f3660046101c0565b5f6020819052908152604090205481565b60405190815260200160405180910390f35b335f90815260208190526040902054806100f35760405162461bcd60e51b815260206004820152601d60248201527f596f75722062616c616e636520697320657175616c20746f207a65726f00000060448201526064015b60405180910390fd5b335f818152602081905260408082208290555190919083908381818185875af1925050503d805f8114610141576040519150601f19603f3d011682016040523d82523d5f602084013e610146565b606091505b50509050806101975760405162461bcd60e51b815260206004820152601b60248201527f5472616e7366657220646964206e6f7420676f207468726f756768000000000060448201526064016100ea565b5050565b335f90815260208190526040812080543492906101b99084906101ed565b9091555050565b5f602082840312156101d0575f80fd5b81356001600160a01b03811681146101e6575f80fd5b9392505050565b8082018082111561020c57634e487b7160e01b5f52601160045260245ffd5b9291505056fea26469706673582212204c1518e2880bbbb5b845721b1ddd1f8d1974456d26037f936c8f25ca60fa477e64736f6c63430008160033",
			"opcodes": "PUSH1 0x80 PUSH1 0x40 MSTORE CALLVALUE DUP1 ISZERO PUSH2 0xF JUMPI PUSH0 DUP1 REVERT JUMPDEST POP PUSH2 0x248 DUP1 PUSH2 0x1D PUSH0 CODECOPY PUSH0 RETURN INVALID PUSH1 0x80 PUSH1 0x40 MSTORE PUSH1 0x4 CALLDATASIZE LT PUSH2 0x33 JUMPI PUSH0 CALLDATALOAD PUSH1 0xE0 SHR DUP1 PUSH4 0x3CCFD60B EQ PUSH2 0x37 JUMPI DUP1 PUSH4 0xD0E30DB0 EQ PUSH2 0x4D JUMPI DUP1 PUSH4 0xE3D670D7 EQ PUSH2 0x55 JUMPI JUMPDEST PUSH0 DUP1 REVERT JUMPDEST CALLVALUE DUP1 ISZERO PUSH2 0x42 JUMPI PUSH0 DUP1 REVERT JUMPDEST POP PUSH2 0x4B PUSH2 0x92 JUMP JUMPDEST STOP JUMPDEST PUSH2 0x4B PUSH2 0x19B JUMP JUMPDEST CALLVALUE DUP1 ISZERO PUSH2 0x60 JUMPI PUSH0 DUP1 REVERT JUMPDEST POP PUSH2 0x80 PUSH2 0x6F CALLDATASIZE PUSH1 0x4 PUSH2 0x1C0 JUMP JUMPDEST PUSH0 PUSH1 0x20 DUP2 SWAP1 MSTORE SWAP1 DUP2 MSTORE PUSH1 0x40 SWAP1 KECCAK256 SLOAD DUP2 JUMP JUMPDEST PUSH1 0x40 MLOAD SWAP1 DUP2 MSTORE PUSH1 0x20 ADD PUSH1 0x40 MLOAD DUP1 SWAP2 SUB SWAP1 RETURN JUMPDEST CALLER PUSH0 SWAP1 DUP2 MSTORE PUSH1 0x20 DUP2 SWAP1 MSTORE PUSH1 0x40 SWAP1 KECCAK256 SLOAD DUP1 PUSH2 0xF3 JUMPI PUSH1 0x40 MLOAD PUSH3 0x461BCD PUSH1 0xE5 SHL DUP2 MSTORE PUSH1 0x20 PUSH1 0x4 DUP3 ADD MSTORE PUSH1 0x1D PUSH1 0x24 DUP3 ADD MSTORE PUSH32 0x596F75722062616C616E636520697320657175616C20746F207A65726F000000 PUSH1 0x44 DUP3 ADD MSTORE PUSH1 0x64 ADD JUMPDEST PUSH1 0x40 MLOAD DUP1 SWAP2 SUB SWAP1 REVERT JUMPDEST CALLER PUSH0 DUP2 DUP2 MSTORE PUSH1 0x20 DUP2 SWAP1 MSTORE PUSH1 0x40 DUP1 DUP3 KECCAK256 DUP3 SWAP1 SSTORE MLOAD SWAP1 SWAP2 SWAP1 DUP4 SWAP1 DUP4 DUP2 DUP2 DUP2 DUP6 DUP8 GAS CALL SWAP3 POP POP POP RETURNDATASIZE DUP1 PUSH0 DUP2 EQ PUSH2 0x141 JUMPI PUSH1 0x40 MLOAD SWAP2 POP PUSH1 0x1F NOT PUSH1 0x3F RETURNDATASIZE ADD AND DUP3 ADD PUSH1 0x40 MSTORE RETURNDATASIZE DUP3 MSTORE RETURNDATASIZE PUSH0 PUSH1 0x20 DUP5 ADD RETURNDATACOPY PUSH2 0x146 JUMP JUMPDEST PUSH1 0x60 SWAP2 POP JUMPDEST POP POP SWAP1 POP DUP1 PUSH2 0x197 JUMPI PUSH1 0x40 MLOAD PUSH3 0x461BCD PUSH1 0xE5 SHL DUP2 MSTORE PUSH1 0x20 PUSH1 0x4 DUP3 ADD MSTORE PUSH1 0x1B PUSH1 0x24 DUP3 ADD MSTORE PUSH32 0x5472616E7366657220646964206E6F7420676F207468726F7567680000000000 PUSH1 0x44 DUP3 ADD MSTORE PUSH1 0x64 ADD PUSH2 0xEA JUMP JUMPDEST POP POP JUMP JUMPDEST CALLER PUSH0 SWAP1 DUP2 MSTORE PUSH1 0x20 DUP2 SWAP1 MSTORE PUSH1 0x40 DUP2 KECCAK256 DUP1 SLOAD CALLVALUE SWAP3 SWAP1 PUSH2 0x1B9 SWAP1 DUP5 SWAP1 PUSH2 0x1ED JUMP JUMPDEST SWAP1 SWAP2 SSTORE POP POP JUMP JUMPDEST PUSH0 PUSH1 0x20 DUP3 DUP5 SUB SLT ISZERO PUSH2 0x1D0 JUMPI PUSH0 DUP1 REVERT JUMPDEST DUP2 CALLDATALOAD PUSH1 0x1 PUSH1 0x1 PUSH1 0xA0 SHL SUB DUP2 AND DUP2 EQ PUSH2 0x1E6 JUMPI PUSH0 DUP1 REVERT JUMPDEST SWAP4 SWAP3 POP POP POP JUMP JUMPDEST DUP1 DUP3 ADD DUP1 DUP3 GT ISZERO PUSH2 0x20C JUMPI PUSH4 0x4E487B71 PUSH1 0xE0 SHL PUSH0 MSTORE PUSH1 0x11 PUSH1 0x4 MSTORE PUSH1 0x24 PUSH0 REVERT JUMPDEST SWAP3 SWAP2 POP POP JUMP INVALID LOG2 PUSH5 0x6970667358 0x22 SLT KECCAK256 0x4C ISZERO XOR 0xE2 DUP9 SIGNEXTEND 0xBB 0xB5 0xB8 GASLIMIT PUSH19 0x1B1DDD1F8D1974456D26037F936C8F25CA60FA SELFBALANCE PUSH31 0x64736F6C634300081600330000000000000000000000000000000000000000 "
		},
		"gasEstimates": {
			"creation": {
				"codeDepositCost": "116800",
				"executionCost": "163",
				"totalCost": "116963"
			},
			"external": {
				"balance(address)": "2494",
				"deposit()": "24491",
				"withdraw()": "infinite"
			}
		},
		"methodIdentifiers": {
			"balance(address)": "e3d670d7",
			"deposit()": "d0e30db0",
			"withdraw()": "3ccfd60b"
		}
	},
	"abi": [
		{
			"inputs": [
				{
					"internalType": "address",
					"name": "",
					"type": "address"
				}
			],
			"name": "balance",
			"outputs": [
				{
					"internalType": "uint256",
					"name": "",
					"type": "uint256"
				}
			],
			"stateMutability": "view",
			"type": "function"
		},
		{
			"inputs": [],
			"name": "deposit",
			"outputs": [],
			"stateMutability": "payable",
			"type": "function"
		},
		{
			"inputs": [],
			"name": "withdraw",
			"outputs": [],
			"stateMutability": "nonpayable",
			"type": "function"
		}
	]
}