{
	"data": {
		"bytecode": {
			"linkReferences": {},
			"object": "608060405234801561000f575f80fd5b50610b3c8061001d5f395ff3fe608060405234801561000f575f80fd5b506004361061004a575f3560e01c80633f72f0b61461004e5780634f2be91f1461007f578063736f757014610089578063e13a0322146100bd575b5f80fd5b610068600480360381019061006391906104ee565b6100d9565b6040516100769291906105b2565b60405180910390f35b61008761018d565b005b6100a3600480360381019061009e91906104ee565b610226565b6040516100b49594939291906105e0565b60405180910390f35b6100d760048036038101906100d29190610772565b6103f9565b005b5f81815481106100e7575f80fd5b905f5260205f2090600202015f91509050805f0180546101069061086a565b80601f01602080910402602001604051908101604052809291908181526020018280546101329061086a565b801561017d5780601f106101545761010080835404028352916020019161017d565b820191905f5260205f20905b81548152906001019060200180831161016057829003601f168201915b5050505050908060010154905082565b5f60405180604001604052806040518060400160405280600e81526020017f6d69636865616c206661776f6c650000000000000000000000000000000000008152508152602001600a81525090505f81908060018154018082558091505060019003905f5260205f2090600202015f909190919091505f820151815f0190816102169190610a37565b5060208201518160010155505050565b60018181548110610235575f80fd5b905f5260205f2090600502015f91509050805f01549080600101805461025a9061086a565b80601f01602080910402602001604051908101604052809291908181526020018280546102869061086a565b80156102d15780601f106102a8576101008083540402835291602001916102d1565b820191905f5260205f20905b8154815290600101906020018083116102b457829003601f168201915b5050505050908060020154908060030180546102ec9061086a565b80601f01602080910402602001604051908101604052809291908181526020018280546103189061086a565b80156103635780601f1061033a57610100808354040283529160200191610363565b820191905f5260205f20905b81548152906001019060200180831161034657829003601f168201915b5050505050908060040180546103789061086a565b80601f01602080910402602001604051908101604052809291908181526020018280546103a49061086a565b80156103ef5780601f106103c6576101008083540402835291602001916103ef565b820191905f5260205f20905b8154815290600101906020018083116103d257829003601f168201915b5050505050905085565b5f6040518060a00160405280878152602001868152602001858152602001848152602001838152509050600181908060018154018082558091505060019003905f5260205f2090600502015f909190919091505f820151815f015560208201518160010190816104699190610a37565b506040820151816002015560608201518160030190816104899190610a37565b50608082015181600401908161049f9190610a37565b505050505050505050565b5f604051905090565b5f80fd5b5f80fd5b5f819050919050565b6104cd816104bb565b81146104d7575f80fd5b50565b5f813590506104e8816104c4565b92915050565b5f60208284031215610503576105026104b3565b5b5f610510848285016104da565b91505092915050565b5f81519050919050565b5f82825260208201905092915050565b5f5b83811015610550578082015181840152602081019050610535565b5f8484015250505050565b5f601f19601f8301169050919050565b5f61057582610519565b61057f8185610523565b935061058f818560208601610533565b6105988161055b565b840191505092915050565b6105ac816104bb565b82525050565b5f6040820190508181035f8301526105ca818561056b565b90506105d960208301846105a3565b9392505050565b5f60a0820190506105f35f8301886105a3565b8181036020830152610605818761056b565b905061061460408301866105a3565b8181036060830152610626818561056b565b9050818103608083015261063a818461056b565b90509695505050505050565b5f80fd5b5f80fd5b7f4e487b71000000000000000000000000000000000000000000000000000000005f52604160045260245ffd5b6106848261055b565b810181811067ffffffffffffffff821117156106a3576106a261064e565b5b80604052505050565b5f6106b56104aa565b90506106c1828261067b565b919050565b5f67ffffffffffffffff8211156106e0576106df61064e565b5b6106e98261055b565b9050602081019050919050565b828183375f83830152505050565b5f610716610711846106c6565b6106ac565b9050828152602081018484840111156107325761073161064a565b5b61073d8482856106f6565b509392505050565b5f82601f83011261075957610758610646565b5b8135610769848260208601610704565b91505092915050565b5f805f805f60a0868803121561078b5761078a6104b3565b5b5f610798888289016104da565b955050602086013567ffffffffffffffff8111156107b9576107b86104b7565b5b6107c588828901610745565b94505060406107d6888289016104da565b935050606086013567ffffffffffffffff8111156107f7576107f66104b7565b5b61080388828901610745565b925050608086013567ffffffffffffffff811115610824576108236104b7565b5b61083088828901610745565b9150509295509295909350565b7f4e487b71000000000000000000000000000000000000000000000000000000005f52602260045260245ffd5b5f600282049050600182168061088157607f821691505b6020821081036108945761089361083d565b5b50919050565b5f819050815f5260205f209050919050565b5f6020601f8301049050919050565b5f82821b905092915050565b5f600883026108f67fffffffffffffffffffffffffffffffffffffffffffffffffffffffffffffffff826108bb565b61090086836108bb565b95508019841693508086168417925050509392505050565b5f819050919050565b5f61093b610936610931846104bb565b610918565b6104bb565b9050919050565b5f819050919050565b61095483610921565b61096861096082610942565b8484546108c7565b825550505050565b5f90565b61097c610970565b61098781848461094b565b505050565b5b818110156109aa5761099f5f82610974565b60018101905061098d565b5050565b601f8211156109ef576109c08161089a565b6109c9846108ac565b810160208510156109d8578190505b6109ec6109e4856108ac565b83018261098c565b50505b505050565b5f82821c905092915050565b5f610a0f5f19846008026109f4565b1980831691505092915050565b5f610a278383610a00565b9150826002028217905092915050565b610a4082610519565b67ffffffffffffffff811115610a5957610a5861064e565b5b610a63825461086a565b610a6e8282856109ae565b5f60209050601f831160018114610a9f575f8415610a8d578287015190505b610a978582610a1c565b865550610afe565b601f198416610aad8661089a565b5f5b82811015610ad457848901518255600182019150602085019450602081019050610aaf565b86831015610af15784890151610aed601f891682610a00565b8355505b6001600288020188555050505b50505050505056fea264697066735822122004ce5bfbbb7bf3ab431aef1b98c19fd4ca08b3a4e3ae8829e9cef08044da159864736f6c63430008160033",
			"opcodes": "PUSH1 0x80 PUSH1 0x40 MSTORE CALLVALUE DUP1 ISZERO PUSH2 0xF JUMPI PUSH0 DUP1 REVERT JUMPDEST POP PUSH2 0xB3C DUP1 PUSH2 0x1D PUSH0 CODECOPY PUSH0 RETURN INVALID PUSH1 0x80 PUSH1 0x40 MSTORE CALLVALUE DUP1 ISZERO PUSH2 0xF JUMPI PUSH0 DUP1 REVERT JUMPDEST POP PUSH1 0x4 CALLDATASIZE LT PUSH2 0x4A JUMPI PUSH0 CALLDATALOAD PUSH1 0xE0 SHR DUP1 PUSH4 0x3F72F0B6 EQ PUSH2 0x4E JUMPI DUP1 PUSH4 0x4F2BE91F EQ PUSH2 0x7F JUMPI DUP1 PUSH4 0x736F7570 EQ PUSH2 0x89 JUMPI DUP1 PUSH4 0xE13A0322 EQ PUSH2 0xBD JUMPI JUMPDEST PUSH0 DUP1 REVERT JUMPDEST PUSH2 0x68 PUSH1 0x4 DUP1 CALLDATASIZE SUB DUP2 ADD SWAP1 PUSH2 0x63 SWAP2 SWAP1 PUSH2 0x4EE JUMP JUMPDEST PUSH2 0xD9 JUMP JUMPDEST PUSH1 0x40 MLOAD PUSH2 0x76 SWAP3 SWAP2 SWAP1 PUSH2 0x5B2 JUMP JUMPDEST PUSH1 0x40 MLOAD DUP1 SWAP2 SUB SWAP1 RETURN JUMPDEST PUSH2 0x87 PUSH2 0x18D JUMP JUMPDEST STOP JUMPDEST PUSH2 0xA3 PUSH1 0x4 DUP1 CALLDATASIZE SUB DUP2 ADD SWAP1 PUSH2 0x9E SWAP2 SWAP1 PUSH2 0x4EE JUMP JUMPDEST PUSH2 0x226 JUMP JUMPDEST PUSH1 0x40 MLOAD PUSH2 0xB4 SWAP6 SWAP5 SWAP4 SWAP3 SWAP2 SWAP1 PUSH2 0x5E0 JUMP JUMPDEST PUSH1 0x40 MLOAD DUP1 SWAP2 SUB SWAP1 RETURN JUMPDEST PUSH2 0xD7 PUSH1 0x4 DUP1 CALLDATASIZE SUB DUP2 ADD SWAP1 PUSH2 0xD2 SWAP2 SWAP1 PUSH2 0x772 JUMP JUMPDEST PUSH2 0x3F9 JUMP JUMPDEST STOP JUMPDEST PUSH0 DUP2 DUP2 SLOAD DUP2 LT PUSH2 0xE7 JUMPI PUSH0 DUP1 REVERT JUMPDEST SWAP1 PUSH0 MSTORE PUSH1 0x20 PUSH0 KECCAK256 SWAP1 PUSH1 0x2 MUL ADD PUSH0 SWAP2 POP SWAP1 POP DUP1 PUSH0 ADD DUP1 SLOAD PUSH2 0x106 SWAP1 PUSH2 0x86A JUMP JUMPDEST DUP1 PUSH1 0x1F ADD PUSH1 0x20 DUP1 SWAP2 DIV MUL PUSH1 0x20 ADD PUSH1 0x40 MLOAD SWAP1 DUP2 ADD PUSH1 0x40 MSTORE DUP1 SWAP3 SWAP2 SWAP1 DUP2 DUP2 MSTORE PUSH1 0x20 ADD DUP3 DUP1 SLOAD PUSH2 0x132 SWAP1 PUSH2 0x86A JUMP JUMPDEST DUP1 ISZERO PUSH2 0x17D JUMPI DUP1 PUSH1 0x1F LT PUSH2 0x154 JUMPI PUSH2 0x100 DUP1 DUP4 SLOAD DIV MUL DUP4 MSTORE SWAP2 PUSH1 0x20 ADD SWAP2 PUSH2 0x17D JUMP JUMPDEST DUP3 ADD SWAP2 SWAP1 PUSH0 MSTORE PUSH1 0x20 PUSH0 KECCAK256 SWAP1 JUMPDEST DUP2 SLOAD DUP2 MSTORE SWAP1 PUSH1 0x1 ADD SWAP1 PUSH1 0x20 ADD DUP1 DUP4 GT PUSH2 0x160 JUMPI DUP3 SWAP1 SUB PUSH1 0x1F AND DUP3 ADD SWAP2 JUMPDEST POP POP POP POP POP SWAP1 DUP1 PUSH1 0x1 ADD SLOAD SWAP1 POP DUP3 JUMP JUMPDEST PUSH0 PUSH1 0x40 MLOAD DUP1 PUSH1 0x40 ADD PUSH1 0x40 MSTORE DUP1 PUSH1 0x40 MLOAD DUP1 PUSH1 0x40 ADD PUSH1 0x40 MSTORE DUP1 PUSH1 0xE DUP2 MSTORE PUSH1 0x20 ADD PUSH32 0x6D69636865616C206661776F6C65000000000000000000000000000000000000 DUP2 MSTORE POP DUP2 MSTORE PUSH1 0x20 ADD PUSH1 0xA DUP2 MSTORE POP SWAP1 POP PUSH0 DUP2 SWAP1 DUP1 PUSH1 0x1 DUP2 SLOAD ADD DUP1 DUP3 SSTORE DUP1 SWAP2 POP POP PUSH1 0x1 SWAP1 SUB SWAP1 PUSH0 MSTORE PUSH1 0x20 PUSH0 KECCAK256 SWAP1 PUSH1 0x2 MUL ADD PUSH0 SWAP1 SWAP2 SWAP1 SWAP2 SWAP1 SWAP2 POP PUSH0 DUP3 ADD MLOAD DUP2 PUSH0 ADD SWAP1 DUP2 PUSH2 0x216 SWAP2 SWAP1 PUSH2 0xA37 JUMP JUMPDEST POP PUSH1 0x20 DUP3 ADD MLOAD DUP2 PUSH1 0x1 ADD SSTORE POP POP POP JUMP JUMPDEST PUSH1 0x1 DUP2 DUP2 SLOAD DUP2 LT PUSH2 0x235 JUMPI PUSH0 DUP1 REVERT JUMPDEST SWAP1 PUSH0 MSTORE PUSH1 0x20 PUSH0 KECCAK256 SWAP1 PUSH1 0x5 MUL ADD PUSH0 SWAP2 POP SWAP1 POP DUP1 PUSH0 ADD SLOAD SWAP1 DUP1 PUSH1 0x1 ADD DUP1 SLOAD PUSH2 0x25A SWAP1 PUSH2 0x86A JUMP JUMPDEST DUP1 PUSH1 0x1F ADD PUSH1 0x20 DUP1 SWAP2 DIV MUL PUSH1 0x20 ADD PUSH1 0x40 MLOAD SWAP1 DUP2 ADD PUSH1 0x40 MSTORE DUP1 SWAP3 SWAP2 SWAP1 DUP2 DUP2 MSTORE PUSH1 0x20 ADD DUP3 DUP1 SLOAD PUSH2 0x286 SWAP1 PUSH2 0x86A JUMP JUMPDEST DUP1 ISZERO PUSH2 0x2D1 JUMPI DUP1 PUSH1 0x1F LT PUSH2 0x2A8 JUMPI PUSH2 0x100 DUP1 DUP4 SLOAD DIV MUL DUP4 MSTORE SWAP2 PUSH1 0x20 ADD SWAP2 PUSH2 0x2D1 JUMP JUMPDEST DUP3 ADD SWAP2 SWAP1 PUSH0 MSTORE PUSH1 0x20 PUSH0 KECCAK256 SWAP1 JUMPDEST DUP2 SLOAD DUP2 MSTORE SWAP1 PUSH1 0x1 ADD SWAP1 PUSH1 0x20 ADD DUP1 DUP4 GT PUSH2 0x2B4 JUMPI DUP3 SWAP1 SUB PUSH1 0x1F AND DUP3 ADD SWAP2 JUMPDEST POP POP POP POP POP SWAP1 DUP1 PUSH1 0x2 ADD SLOAD SWAP1 DUP1 PUSH1 0x3 ADD DUP1 SLOAD PUSH2 0x2EC SWAP1 PUSH2 0x86A JUMP JUMPDEST DUP1 PUSH1 0x1F ADD PUSH1 0x20 DUP1 SWAP2 DIV MUL PUSH1 0x20 ADD PUSH1 0x40 MLOAD SWAP1 DUP2 ADD PUSH1 0x40 MSTORE DUP1 SWAP3 SWAP2 SWAP1 DUP2 DUP2 MSTORE PUSH1 0x20 ADD DUP3 DUP1 SLOAD PUSH2 0x318 SWAP1 PUSH2 0x86A JUMP JUMPDEST DUP1 ISZERO PUSH2 0x363 JUMPI DUP1 PUSH1 0x1F LT PUSH2 0x33A JUMPI PUSH2 0x100 DUP1 DUP4 SLOAD DIV MUL DUP4 MSTORE SWAP2 PUSH1 0x20 ADD SWAP2 PUSH2 0x363 JUMP JUMPDEST DUP3 ADD SWAP2 SWAP1 PUSH0 MSTORE PUSH1 0x20 PUSH0 KECCAK256 SWAP1 JUMPDEST DUP2 SLOAD DUP2 MSTORE SWAP1 PUSH1 0x1 ADD SWAP1 PUSH1 0x20 ADD DUP1 DUP4 GT PUSH2 0x346 JUMPI DUP3 SWAP1 SUB PUSH1 0x1F AND DUP3 ADD SWAP2 JUMPDEST POP POP POP POP POP SWAP1 DUP1 PUSH1 0x4 ADD DUP1 SLOAD PUSH2 0x378 SWAP1 PUSH2 0x86A JUMP JUMPDEST DUP1 PUSH1 0x1F ADD PUSH1 0x20 DUP1 SWAP2 DIV MUL PUSH1 0x20 ADD PUSH1 0x40 MLOAD SWAP1 DUP2 ADD PUSH1 0x40 MSTORE DUP1 SWAP3 SWAP2 SWAP1 DUP2 DUP2 MSTORE PUSH1 0x20 ADD DUP3 DUP1 SLOAD PUSH2 0x3A4 SWAP1 PUSH2 0x86A JUMP JUMPDEST DUP1 ISZERO PUSH2 0x3EF JUMPI DUP1 PUSH1 0x1F LT PUSH2 0x3C6 JUMPI PUSH2 0x100 DUP1 DUP4 SLOAD DIV MUL DUP4 MSTORE SWAP2 PUSH1 0x20 ADD SWAP2 PUSH2 0x3EF JUMP JUMPDEST DUP3 ADD SWAP2 SWAP1 PUSH0 MSTORE PUSH1 0x20 PUSH0 KECCAK256 SWAP1 JUMPDEST DUP2 SLOAD DUP2 MSTORE SWAP1 PUSH1 0x1 ADD SWAP1 PUSH1 0x20 ADD DUP1 DUP4 GT PUSH2 0x3D2 JUMPI DUP3 SWAP1 SUB PUSH1 0x1F AND DUP3 ADD SWAP2 JUMPDEST POP POP POP POP POP SWAP1 POP DUP6 JUMP JUMPDEST PUSH0 PUSH1 0x40 MLOAD DUP1 PUSH1 0xA0 ADD PUSH1 0x40 MSTORE DUP1 DUP8 DUP2 MSTORE PUSH1 0x20 ADD DUP7 DUP2 MSTORE PUSH1 0x20 ADD DUP6 DUP2 MSTORE PUSH1 0x20 ADD DUP5 DUP2 MSTORE PUSH1 0x20 ADD DUP4 DUP2 MSTORE POP SWAP1 POP PUSH1 0x1 DUP2 SWAP1 DUP1 PUSH1 0x1 DUP2 SLOAD ADD DUP1 DUP3 SSTORE DUP1 SWAP2 POP POP PUSH1 0x1 SWAP1 SUB SWAP1 PUSH0 MSTORE PUSH1 0x20 PUSH0 KECCAK256 SWAP1 PUSH1 0x5 MUL ADD PUSH0 SWAP1 SWAP2 SWAP1 SWAP2 SWAP1 SWAP2 POP PUSH0 DUP3 ADD MLOAD DUP2 PUSH0 ADD SSTORE PUSH1 0x20 DUP3 ADD MLOAD DUP2 PUSH1 0x1 ADD SWAP1 DUP2 PUSH2 0x469 SWAP2 SWAP1 PUSH2 0xA37 JUMP JUMPDEST POP PUSH1 0x40 DUP3 ADD MLOAD DUP2 PUSH1 0x2 ADD SSTORE PUSH1 0x60 DUP3 ADD MLOAD DUP2 PUSH1 0x3 ADD SWAP1 DUP2 PUSH2 0x489 SWAP2 SWAP1 PUSH2 0xA37 JUMP JUMPDEST POP PUSH1 0x80 DUP3 ADD MLOAD DUP2 PUSH1 0x4 ADD SWAP1 DUP2 PUSH2 0x49F SWAP2 SWAP1 PUSH2 0xA37 JUMP JUMPDEST POP POP POP POP POP POP POP POP POP JUMP JUMPDEST PUSH0 PUSH1 0x40 MLOAD SWAP1 POP SWAP1 JUMP JUMPDEST PUSH0 DUP1 REVERT JUMPDEST PUSH0 DUP1 REVERT JUMPDEST PUSH0 DUP2 SWAP1 POP SWAP2 SWAP1 POP JUMP JUMPDEST PUSH2 0x4CD DUP2 PUSH2 0x4BB JUMP JUMPDEST DUP2 EQ PUSH2 0x4D7 JUMPI PUSH0 DUP1 REVERT JUMPDEST POP JUMP JUMPDEST PUSH0 DUP2 CALLDATALOAD SWAP1 POP PUSH2 0x4E8 DUP2 PUSH2 0x4C4 JUMP JUMPDEST SWAP3 SWAP2 POP POP JUMP JUMPDEST PUSH0 PUSH1 0x20 DUP3 DUP5 SUB SLT ISZERO PUSH2 0x503 JUMPI PUSH2 0x502 PUSH2 0x4B3 JUMP JUMPDEST JUMPDEST PUSH0 PUSH2 0x510 DUP5 DUP3 DUP6 ADD PUSH2 0x4DA JUMP JUMPDEST SWAP2 POP POP SWAP3 SWAP2 POP POP JUMP JUMPDEST PUSH0 DUP2 MLOAD SWAP1 POP SWAP2 SWAP1 POP JUMP JUMPDEST PUSH0 DUP3 DUP3 MSTORE PUSH1 0x20 DUP3 ADD SWAP1 POP SWAP3 SWAP2 POP POP JUMP JUMPDEST PUSH0 JUMPDEST DUP4 DUP2 LT ISZERO PUSH2 0x550 JUMPI DUP1 DUP3 ADD MLOAD DUP2 DUP5 ADD MSTORE PUSH1 0x20 DUP2 ADD SWAP1 POP PUSH2 0x535 JUMP JUMPDEST PUSH0 DUP5 DUP5 ADD MSTORE POP POP POP POP JUMP JUMPDEST PUSH0 PUSH1 0x1F NOT PUSH1 0x1F DUP4 ADD AND SWAP1 POP SWAP2 SWAP1 POP JUMP JUMPDEST PUSH0 PUSH2 0x575 DUP3 PUSH2 0x519 JUMP JUMPDEST PUSH2 0x57F DUP2 DUP6 PUSH2 0x523 JUMP JUMPDEST SWAP4 POP PUSH2 0x58F DUP2 DUP6 PUSH1 0x20 DUP7 ADD PUSH2 0x533 JUMP JUMPDEST PUSH2 0x598 DUP2 PUSH2 0x55B JUMP JUMPDEST DUP5 ADD SWAP2 POP POP SWAP3 SWAP2 POP POP JUMP JUMPDEST PUSH2 0x5AC DUP2 PUSH2 0x4BB JUMP JUMPDEST DUP3 MSTORE POP POP JUMP JUMPDEST PUSH0 PUSH1 0x40 DUP3 ADD SWAP1 POP DUP2 DUP2 SUB PUSH0 DUP4 ADD MSTORE PUSH2 0x5CA DUP2 DUP6 PUSH2 0x56B JUMP JUMPDEST SWAP1 POP PUSH2 0x5D9 PUSH1 0x20 DUP4 ADD DUP5 PUSH2 0x5A3 JUMP JUMPDEST SWAP4 SWAP3 POP POP POP JUMP JUMPDEST PUSH0 PUSH1 0xA0 DUP3 ADD SWAP1 POP PUSH2 0x5F3 PUSH0 DUP4 ADD DUP9 PUSH2 0x5A3 JUMP JUMPDEST DUP2 DUP2 SUB PUSH1 0x20 DUP4 ADD MSTORE PUSH2 0x605 DUP2 DUP8 PUSH2 0x56B JUMP JUMPDEST SWAP1 POP PUSH2 0x614 PUSH1 0x40 DUP4 ADD DUP7 PUSH2 0x5A3 JUMP JUMPDEST DUP2 DUP2 SUB PUSH1 0x60 DUP4 ADD MSTORE PUSH2 0x626 DUP2 DUP6 PUSH2 0x56B JUMP JUMPDEST SWAP1 POP DUP2 DUP2 SUB PUSH1 0x80 DUP4 ADD MSTORE PUSH2 0x63A DUP2 DUP5 PUSH2 0x56B JUMP JUMPDEST SWAP1 POP SWAP7 SWAP6 POP POP POP POP POP POP JUMP JUMPDEST PUSH0 DUP1 REVERT JUMPDEST PUSH0 DUP1 REVERT JUMPDEST PUSH32 0x4E487B7100000000000000000000000000000000000000000000000000000000 PUSH0 MSTORE PUSH1 0x41 PUSH1 0x4 MSTORE PUSH1 0x24 PUSH0 REVERT JUMPDEST PUSH2 0x684 DUP3 PUSH2 0x55B JUMP JUMPDEST DUP2 ADD DUP2 DUP2 LT PUSH8 0xFFFFFFFFFFFFFFFF DUP3 GT OR ISZERO PUSH2 0x6A3 JUMPI PUSH2 0x6A2 PUSH2 0x64E JUMP JUMPDEST JUMPDEST DUP1 PUSH1 0x40 MSTORE POP POP POP JUMP JUMPDEST PUSH0 PUSH2 0x6B5 PUSH2 0x4AA JUMP JUMPDEST SWAP1 POP PUSH2 0x6C1 DUP3 DUP3 PUSH2 0x67B JUMP JUMPDEST SWAP2 SWAP1 POP JUMP JUMPDEST PUSH0 PUSH8 0xFFFFFFFFFFFFFFFF DUP3 GT ISZERO PUSH2 0x6E0 JUMPI PUSH2 0x6DF PUSH2 0x64E JUMP JUMPDEST JUMPDEST PUSH2 0x6E9 DUP3 PUSH2 0x55B JUMP JUMPDEST SWAP1 POP PUSH1 0x20 DUP2 ADD SWAP1 POP SWAP2 SWAP1 POP JUMP JUMPDEST DUP3 DUP2 DUP4 CALLDATACOPY PUSH0 DUP4 DUP4 ADD MSTORE POP POP POP JUMP JUMPDEST PUSH0 PUSH2 0x716 PUSH2 0x711 DUP5 PUSH2 0x6C6 JUMP JUMPDEST PUSH2 0x6AC JUMP JUMPDEST SWAP1 POP DUP3 DUP2 MSTORE PUSH1 0x20 DUP2 ADD DUP5 DUP5 DUP5 ADD GT ISZERO PUSH2 0x732 JUMPI PUSH2 0x731 PUSH2 0x64A JUMP JUMPDEST JUMPDEST PUSH2 0x73D DUP5 DUP3 DUP6 PUSH2 0x6F6 JUMP JUMPDEST POP SWAP4 SWAP3 POP POP POP JUMP JUMPDEST PUSH0 DUP3 PUSH1 0x1F DUP4 ADD SLT PUSH2 0x759 JUMPI PUSH2 0x758 PUSH2 0x646 JUMP JUMPDEST JUMPDEST DUP2 CALLDATALOAD PUSH2 0x769 DUP5 DUP3 PUSH1 0x20 DUP7 ADD PUSH2 0x704 JUMP JUMPDEST SWAP2 POP POP SWAP3 SWAP2 POP POP JUMP JUMPDEST PUSH0 DUP1 PUSH0 DUP1 PUSH0 PUSH1 0xA0 DUP7 DUP9 SUB SLT ISZERO PUSH2 0x78B JUMPI PUSH2 0x78A PUSH2 0x4B3 JUMP JUMPDEST JUMPDEST PUSH0 PUSH2 0x798 DUP9 DUP3 DUP10 ADD PUSH2 0x4DA JUMP JUMPDEST SWAP6 POP POP PUSH1 0x20 DUP7 ADD CALLDATALOAD PUSH8 0xFFFFFFFFFFFFFFFF DUP2 GT ISZERO PUSH2 0x7B9 JUMPI PUSH2 0x7B8 PUSH2 0x4B7 JUMP JUMPDEST JUMPDEST PUSH2 0x7C5 DUP9 DUP3 DUP10 ADD PUSH2 0x745 JUMP JUMPDEST SWAP5 POP POP PUSH1 0x40 PUSH2 0x7D6 DUP9 DUP3 DUP10 ADD PUSH2 0x4DA JUMP JUMPDEST SWAP4 POP POP PUSH1 0x60 DUP7 ADD CALLDATALOAD PUSH8 0xFFFFFFFFFFFFFFFF DUP2 GT ISZERO PUSH2 0x7F7 JUMPI PUSH2 0x7F6 PUSH2 0x4B7 JUMP JUMPDEST JUMPDEST PUSH2 0x803 DUP9 DUP3 DUP10 ADD PUSH2 0x745 JUMP JUMPDEST SWAP3 POP POP PUSH1 0x80 DUP7 ADD CALLDATALOAD PUSH8 0xFFFFFFFFFFFFFFFF DUP2 GT ISZERO PUSH2 0x824 JUMPI PUSH2 0x823 PUSH2 0x4B7 JUMP JUMPDEST JUMPDEST PUSH2 0x830 DUP9 DUP3 DUP10 ADD PUSH2 0x745 JUMP JUMPDEST SWAP2 POP POP SWAP3 SWAP6 POP SWAP3 SWAP6 SWAP1 SWAP4 POP JUMP JUMPDEST PUSH32 0x4E487B7100000000000000000000000000000000000000000000000000000000 PUSH0 MSTORE PUSH1 0x22 PUSH1 0x4 MSTORE PUSH1 0x24 PUSH0 REVERT JUMPDEST PUSH0 PUSH1 0x2 DUP3 DIV SWAP1 POP PUSH1 0x1 DUP3 AND DUP1 PUSH2 0x881 JUMPI PUSH1 0x7F DUP3 AND SWAP2 POP JUMPDEST PUSH1 0x20 DUP3 LT DUP2 SUB PUSH2 0x894 JUMPI PUSH2 0x893 PUSH2 0x83D JUMP JUMPDEST JUMPDEST POP SWAP2 SWAP1 POP JUMP JUMPDEST PUSH0 DUP2 SWAP1 POP DUP2 PUSH0 MSTORE PUSH1 0x20 PUSH0 KECCAK256 SWAP1 POP SWAP2 SWAP1 POP JUMP JUMPDEST PUSH0 PUSH1 0x20 PUSH1 0x1F DUP4 ADD DIV SWAP1 POP SWAP2 SWAP1 POP JUMP JUMPDEST PUSH0 DUP3 DUP3 SHL SWAP1 POP SWAP3 SWAP2 POP POP JUMP JUMPDEST PUSH0 PUSH1 0x8 DUP4 MUL PUSH2 0x8F6 PUSH32 0xFFFFFFFFFFFFFFFFFFFFFFFFFFFFFFFFFFFFFFFFFFFFFFFFFFFFFFFFFFFFFFFF DUP3 PUSH2 0x8BB JUMP JUMPDEST PUSH2 0x900 DUP7 DUP4 PUSH2 0x8BB JUMP JUMPDEST SWAP6 POP DUP1 NOT DUP5 AND SWAP4 POP DUP1 DUP7 AND DUP5 OR SWAP3 POP POP POP SWAP4 SWAP3 POP POP POP JUMP JUMPDEST PUSH0 DUP2 SWAP1 POP SWAP2 SWAP1 POP JUMP JUMPDEST PUSH0 PUSH2 0x93B PUSH2 0x936 PUSH2 0x931 DUP5 PUSH2 0x4BB JUMP JUMPDEST PUSH2 0x918 JUMP JUMPDEST PUSH2 0x4BB JUMP JUMPDEST SWAP1 POP SWAP2 SWAP1 POP JUMP JUMPDEST PUSH0 DUP2 SWAP1 POP SWAP2 SWAP1 POP JUMP JUMPDEST PUSH2 0x954 DUP4 PUSH2 0x921 JUMP JUMPDEST PUSH2 0x968 PUSH2 0x960 DUP3 PUSH2 0x942 JUMP JUMPDEST DUP5 DUP5 SLOAD PUSH2 0x8C7 JUMP JUMPDEST DUP3 SSTORE POP POP POP POP JUMP JUMPDEST PUSH0 SWAP1 JUMP JUMPDEST PUSH2 0x97C PUSH2 0x970 JUMP JUMPDEST PUSH2 0x987 DUP2 DUP5 DUP5 PUSH2 0x94B JUMP JUMPDEST POP POP POP JUMP JUMPDEST JUMPDEST DUP2 DUP2 LT ISZERO PUSH2 0x9AA JUMPI PUSH2 0x99F PUSH0 DUP3 PUSH2 0x974 JUMP JUMPDEST PUSH1 0x1 DUP2 ADD SWAP1 POP PUSH2 0x98D JUMP JUMPDEST POP POP JUMP JUMPDEST PUSH1 0x1F DUP3 GT ISZERO PUSH2 0x9EF JUMPI PUSH2 0x9C0 DUP2 PUSH2 0x89A JUMP JUMPDEST PUSH2 0x9C9 DUP5 PUSH2 0x8AC JUMP JUMPDEST DUP2 ADD PUSH1 0x20 DUP6 LT ISZERO PUSH2 0x9D8 JUMPI DUP2 SWAP1 POP JUMPDEST PUSH2 0x9EC PUSH2 0x9E4 DUP6 PUSH2 0x8AC JUMP JUMPDEST DUP4 ADD DUP3 PUSH2 0x98C JUMP JUMPDEST POP POP JUMPDEST POP POP POP JUMP JUMPDEST PUSH0 DUP3 DUP3 SHR SWAP1 POP SWAP3 SWAP2 POP POP JUMP JUMPDEST PUSH0 PUSH2 0xA0F PUSH0 NOT DUP5 PUSH1 0x8 MUL PUSH2 0x9F4 JUMP JUMPDEST NOT DUP1 DUP4 AND SWAP2 POP POP SWAP3 SWAP2 POP POP JUMP JUMPDEST PUSH0 PUSH2 0xA27 DUP4 DUP4 PUSH2 0xA00 JUMP JUMPDEST SWAP2 POP DUP3 PUSH1 0x2 MUL DUP3 OR SWAP1 POP SWAP3 SWAP2 POP POP JUMP JUMPDEST PUSH2 0xA40 DUP3 PUSH2 0x519 JUMP JUMPDEST PUSH8 0xFFFFFFFFFFFFFFFF DUP2 GT ISZERO PUSH2 0xA59 JUMPI PUSH2 0xA58 PUSH2 0x64E JUMP JUMPDEST JUMPDEST PUSH2 0xA63 DUP3 SLOAD PUSH2 0x86A JUMP JUMPDEST PUSH2 0xA6E DUP3 DUP3 DUP6 PUSH2 0x9AE JUMP JUMPDEST PUSH0 PUSH1 0x20 SWAP1 POP PUSH1 0x1F DUP4 GT PUSH1 0x1 DUP2 EQ PUSH2 0xA9F JUMPI PUSH0 DUP5 ISZERO PUSH2 0xA8D JUMPI DUP3 DUP8 ADD MLOAD SWAP1 POP JUMPDEST PUSH2 0xA97 DUP6 DUP3 PUSH2 0xA1C JUMP JUMPDEST DUP7 SSTORE POP PUSH2 0xAFE JUMP JUMPDEST PUSH1 0x1F NOT DUP5 AND PUSH2 0xAAD DUP7 PUSH2 0x89A JUMP JUMPDEST PUSH0 JUMPDEST DUP3 DUP2 LT ISZERO PUSH2 0xAD4 JUMPI DUP5 DUP10 ADD MLOAD DUP3 SSTORE PUSH1 0x1 DUP3 ADD SWAP2 POP PUSH1 0x20 DUP6 ADD SWAP5 POP PUSH1 0x20 DUP2 ADD SWAP1 POP PUSH2 0xAAF JUMP JUMPDEST DUP7 DUP4 LT ISZERO PUSH2 0xAF1 JUMPI DUP5 DUP10 ADD MLOAD PUSH2 0xAED PUSH1 0x1F DUP10 AND DUP3 PUSH2 0xA00 JUMP JUMPDEST DUP4 SSTORE POP JUMPDEST PUSH1 0x1 PUSH1 0x2 DUP9 MUL ADD DUP9 SSTORE POP POP POP JUMPDEST POP POP POP POP POP POP JUMP INVALID LOG2 PUSH5 0x6970667358 0x22 SLT KECCAK256 DIV 0xCE JUMPDEST 0xFB 0xBB PUSH28 0xF3AB431AEF1B98C19FD4CA08B3A4E3AE8829E9CEF08044DA15986473 PUSH16 0x6C634300081600330000000000000000 "
		},
		"gasEstimates": {
			"creation": {
				"codeDepositCost": "575200",
				"executionCost": "604",
				"totalCost": "575804"
			},
			"external": {
				"add()": "infinite",
				"insert(uint256,string,uint256,string,string)": "infinite",
				"sugar(uint256)": "infinite",
				"tech4dev(uint256)": "infinite"
			}
		},
		"methodIdentifiers": {
			"add()": "4f2be91f",
			"insert(uint256,string,uint256,string,string)": "e13a0322",
			"sugar(uint256)": "736f7570",
			"tech4dev(uint256)": "3f72f0b6"
		}
	},
	"abi": [
		{
			"inputs": [],
			"name": "add",
			"outputs": [],
			"stateMutability": "nonpayable",
			"type": "function"
		},
		{
			"inputs": [
				{
					"internalType": "uint256",
					"name": "age",
					"type": "uint256"
				},
				{
					"internalType": "string",
					"name": "name",
					"type": "string"
				},
				{
					"internalType": "uint256",
					"name": "password",
					"type": "uint256"
				},
				{
					"internalType": "string",
					"name": "username",
					"type": "string"
				},
				{
					"internalType": "string",
					"name": "emailaddress",
					"type": "string"
				}
			],
			"name": "insert",
			"outputs": [],
			"stateMutability": "nonpayable",
			"type": "function"
		},
		{
			"inputs": [
				{
					"internalType": "uint256",
					"name": "",
					"type": "uint256"
				}
			],
			"name": "sugar",
			"outputs": [
				{
					"internalType": "uint256",
					"name": "age",
					"type": "uint256"
				},
				{
					"internalType": "string",
					"name": "name",
					"type": "string"
				},
				{
					"internalType": "uint256",
					"name": "password",
					"type": "uint256"
				},
				{
					"internalType": "string",
					"name": "username",
					"type": "string"
				},
				{
					"internalType": "string",
					"name": "emailaddress",
					"type": "string"
				}
			],
			"stateMutability": "view",
			"type": "function"
		},
		{
			"inputs": [
				{
					"internalType": "uint256",
					"name": "",
					"type": "uint256"
				}
			],
			"name": "tech4dev",
			"outputs": [
				{
					"internalType": "string",
					"name": "name",
					"type": "string"
				},
				{
					"internalType": "uint256",
					"name": "age",
					"type": "uint256"
				}
			],
			"stateMutability": "view",
			"type": "function"
		}
	]
}