{
	"data": {
		"bytecode": {
			"linkReferences": {},
			"object": "608060405234801561000f575f80fd5b506107be8061001d5f395ff3fe608060405234801561000f575f80fd5b5060043610610034575f3560e01c8063736f757014610038578063e891cd8814610067575b5f80fd5b61004b6100463660046103f5565b61007c565b60405161005e979695949392919061044f565b60405180910390f35b61007a61007536600461057c565b6102ef565b005b5f818154811061008a575f80fd5b905f5260205f2090600702015f91509050805f0180546100a990610644565b80601f01602080910402602001604051908101604052809291908181526020018280546100d590610644565b80156101205780601f106100f757610100808354040283529160200191610120565b820191905f5260205f20905b81548152906001019060200180831161010357829003601f168201915b50505050509080600101549080600201549080600301805461014190610644565b80601f016020809104026020016040519081016040528092919081815260200182805461016d90610644565b80156101b85780601f1061018f576101008083540402835291602001916101b8565b820191905f5260205f20905b81548152906001019060200180831161019b57829003601f168201915b5050505050908060040180546101cd90610644565b80601f01602080910402602001604051908101604052809291908181526020018280546101f990610644565b80156102445780601f1061021b57610100808354040283529160200191610244565b820191905f5260205f20905b81548152906001019060200180831161022757829003601f168201915b505050600584015460068501805494956001600160a01b0390921694919350915061026e90610644565b80601f016020809104026020016040519081016040528092919081815260200182805461029a90610644565b80156102e55780601f106102bc576101008083540402835291602001916102e5565b820191905f5260205f20905b8154815290600101906020018083116102c857829003601f168201915b5050505050905087565b6040805160e0810182528881526020810188905290810186905260608101859052608081018490526001600160a01b03831660a082015260c081018290525f8054600181018255908052815182916007027f290decd9548b62a8d60345a988386fc84ba6bc95484008f6362f93160ef3e5630190819061036f90826106c8565b5060208201516001820155604082015160028201556060820151600382019061039890826106c8565b50608082015160048201906103ad90826106c8565b5060a08201516005820180546001600160a01b0319166001600160a01b0390921691909117905560c082015160068201906103e890826106c8565b5050505050505050505050565b5f60208284031215610405575f80fd5b5035919050565b5f81518084525f5b8181101561043057602081850181015186830182015201610414565b505f602082860101526020601f19601f83011685010191505092915050565b60e081525f61046160e083018a61040c565b886020840152876040840152828103606084015261047f818861040c565b90508281036080840152610493818761040c565b6001600160a01b03861660a085015283810360c085015290506104b6818561040c565b9a9950505050505050505050565b634e487b7160e01b5f52604160045260245ffd5b5f82601f8301126104e7575f80fd5b813567ffffffffffffffff80821115610502576105026104c4565b604051601f8301601f19908116603f0116810190828211818310171561052a5761052a6104c4565b81604052838152866020858801011115610542575f80fd5b836020870160208301375f602085830101528094505050505092915050565b80356001600160a01b0381168114610577575f80fd5b919050565b5f805f805f805f60e0888a031215610592575f80fd5b873567ffffffffffffffff808211156105a9575f80fd5b6105b58b838c016104d8565b985060208a0135975060408a0135965060608a01359150808211156105d8575f80fd5b6105e48b838c016104d8565b955060808a01359150808211156105f9575f80fd5b6106058b838c016104d8565b945061061360a08b01610561565b935060c08a0135915080821115610628575f80fd5b506106358a828b016104d8565b91505092959891949750929550565b600181811c9082168061065857607f821691505b60208210810361067657634e487b7160e01b5f52602260045260245ffd5b50919050565b601f8211156106c357805f5260205f20601f840160051c810160208510156106a15750805b601f840160051c820191505b818110156106c0575f81556001016106ad565b50505b505050565b815167ffffffffffffffff8111156106e2576106e26104c4565b6106f6816106f08454610644565b8461067c565b602080601f831160018114610729575f84156107125750858301515b5f19600386901b1c1916600185901b178555610780565b5f85815260208120601f198616915b8281101561075757888601518255948401946001909101908401610738565b508582101561077457878501515f19600388901b60f8161c191681555b505060018460011b0185555b50505050505056fea2646970667358221220c1e9fd961ba808ecadf1fd7c633ceeb127cb1d94be46f7c75692d81af553c8bd64736f6c63430008160033",
			"opcodes": "PUSH1 0x80 PUSH1 0x40 MSTORE CALLVALUE DUP1 ISZERO PUSH2 0xF JUMPI PUSH0 DUP1 REVERT JUMPDEST POP PUSH2 0x7BE DUP1 PUSH2 0x1D PUSH0 CODECOPY PUSH0 RETURN INVALID PUSH1 0x80 PUSH1 0x40 MSTORE CALLVALUE DUP1 ISZERO PUSH2 0xF JUMPI PUSH0 DUP1 REVERT JUMPDEST POP PUSH1 0x4 CALLDATASIZE LT PUSH2 0x34 JUMPI PUSH0 CALLDATALOAD PUSH1 0xE0 SHR DUP1 PUSH4 0x736F7570 EQ PUSH2 0x38 JUMPI DUP1 PUSH4 0xE891CD88 EQ PUSH2 0x67 JUMPI JUMPDEST PUSH0 DUP1 REVERT JUMPDEST PUSH2 0x4B PUSH2 0x46 CALLDATASIZE PUSH1 0x4 PUSH2 0x3F5 JUMP JUMPDEST PUSH2 0x7C JUMP JUMPDEST PUSH1 0x40 MLOAD PUSH2 0x5E SWAP8 SWAP7 SWAP6 SWAP5 SWAP4 SWAP3 SWAP2 SWAP1 PUSH2 0x44F JUMP JUMPDEST PUSH1 0x40 MLOAD DUP1 SWAP2 SUB SWAP1 RETURN JUMPDEST PUSH2 0x7A PUSH2 0x75 CALLDATASIZE PUSH1 0x4 PUSH2 0x57C JUMP JUMPDEST PUSH2 0x2EF JUMP JUMPDEST STOP JUMPDEST PUSH0 DUP2 DUP2 SLOAD DUP2 LT PUSH2 0x8A JUMPI PUSH0 DUP1 REVERT JUMPDEST SWAP1 PUSH0 MSTORE PUSH1 0x20 PUSH0 KECCAK256 SWAP1 PUSH1 0x7 MUL ADD PUSH0 SWAP2 POP SWAP1 POP DUP1 PUSH0 ADD DUP1 SLOAD PUSH2 0xA9 SWAP1 PUSH2 0x644 JUMP JUMPDEST DUP1 PUSH1 0x1F ADD PUSH1 0x20 DUP1 SWAP2 DIV MUL PUSH1 0x20 ADD PUSH1 0x40 MLOAD SWAP1 DUP2 ADD PUSH1 0x40 MSTORE DUP1 SWAP3 SWAP2 SWAP1 DUP2 DUP2 MSTORE PUSH1 0x20 ADD DUP3 DUP1 SLOAD PUSH2 0xD5 SWAP1 PUSH2 0x644 JUMP JUMPDEST DUP1 ISZERO PUSH2 0x120 JUMPI DUP1 PUSH1 0x1F LT PUSH2 0xF7 JUMPI PUSH2 0x100 DUP1 DUP4 SLOAD DIV MUL DUP4 MSTORE SWAP2 PUSH1 0x20 ADD SWAP2 PUSH2 0x120 JUMP JUMPDEST DUP3 ADD SWAP2 SWAP1 PUSH0 MSTORE PUSH1 0x20 PUSH0 KECCAK256 SWAP1 JUMPDEST DUP2 SLOAD DUP2 MSTORE SWAP1 PUSH1 0x1 ADD SWAP1 PUSH1 0x20 ADD DUP1 DUP4 GT PUSH2 0x103 JUMPI DUP3 SWAP1 SUB PUSH1 0x1F AND DUP3 ADD SWAP2 JUMPDEST POP POP POP POP POP SWAP1 DUP1 PUSH1 0x1 ADD SLOAD SWAP1 DUP1 PUSH1 0x2 ADD SLOAD SWAP1 DUP1 PUSH1 0x3 ADD DUP1 SLOAD PUSH2 0x141 SWAP1 PUSH2 0x644 JUMP JUMPDEST DUP1 PUSH1 0x1F ADD PUSH1 0x20 DUP1 SWAP2 DIV MUL PUSH1 0x20 ADD PUSH1 0x40 MLOAD SWAP1 DUP2 ADD PUSH1 0x40 MSTORE DUP1 SWAP3 SWAP2 SWAP1 DUP2 DUP2 MSTORE PUSH1 0x20 ADD DUP3 DUP1 SLOAD PUSH2 0x16D SWAP1 PUSH2 0x644 JUMP JUMPDEST DUP1 ISZERO PUSH2 0x1B8 JUMPI DUP1 PUSH1 0x1F LT PUSH2 0x18F JUMPI PUSH2 0x100 DUP1 DUP4 SLOAD DIV MUL DUP4 MSTORE SWAP2 PUSH1 0x20 ADD SWAP2 PUSH2 0x1B8 JUMP JUMPDEST DUP3 ADD SWAP2 SWAP1 PUSH0 MSTORE PUSH1 0x20 PUSH0 KECCAK256 SWAP1 JUMPDEST DUP2 SLOAD DUP2 MSTORE SWAP1 PUSH1 0x1 ADD SWAP1 PUSH1 0x20 ADD DUP1 DUP4 GT PUSH2 0x19B JUMPI DUP3 SWAP1 SUB PUSH1 0x1F AND DUP3 ADD SWAP2 JUMPDEST POP POP POP POP POP SWAP1 DUP1 PUSH1 0x4 ADD DUP1 SLOAD PUSH2 0x1CD SWAP1 PUSH2 0x644 JUMP JUMPDEST DUP1 PUSH1 0x1F ADD PUSH1 0x20 DUP1 SWAP2 DIV MUL PUSH1 0x20 ADD PUSH1 0x40 MLOAD SWAP1 DUP2 ADD PUSH1 0x40 MSTORE DUP1 SWAP3 SWAP2 SWAP1 DUP2 DUP2 MSTORE PUSH1 0x20 ADD DUP3 DUP1 SLOAD PUSH2 0x1F9 SWAP1 PUSH2 0x644 JUMP JUMPDEST DUP1 ISZERO PUSH2 0x244 JUMPI DUP1 PUSH1 0x1F LT PUSH2 0x21B JUMPI PUSH2 0x100 DUP1 DUP4 SLOAD DIV MUL DUP4 MSTORE SWAP2 PUSH1 0x20 ADD SWAP2 PUSH2 0x244 JUMP JUMPDEST DUP3 ADD SWAP2 SWAP1 PUSH0 MSTORE PUSH1 0x20 PUSH0 KECCAK256 SWAP1 JUMPDEST DUP2 SLOAD DUP2 MSTORE SWAP1 PUSH1 0x1 ADD SWAP1 PUSH1 0x20 ADD DUP1 DUP4 GT PUSH2 0x227 JUMPI DUP3 SWAP1 SUB PUSH1 0x1F AND DUP3 ADD SWAP2 JUMPDEST POP POP POP PUSH1 0x5 DUP5 ADD SLOAD PUSH1 0x6 DUP6 ADD DUP1 SLOAD SWAP5 SWAP6 PUSH1 0x1 PUSH1 0x1 PUSH1 0xA0 SHL SUB SWAP1 SWAP3 AND SWAP5 SWAP2 SWAP4 POP SWAP2 POP PUSH2 0x26E SWAP1 PUSH2 0x644 JUMP JUMPDEST DUP1 PUSH1 0x1F ADD PUSH1 0x20 DUP1 SWAP2 DIV MUL PUSH1 0x20 ADD PUSH1 0x40 MLOAD SWAP1 DUP2 ADD PUSH1 0x40 MSTORE DUP1 SWAP3 SWAP2 SWAP1 DUP2 DUP2 MSTORE PUSH1 0x20 ADD DUP3 DUP1 SLOAD PUSH2 0x29A SWAP1 PUSH2 0x644 JUMP JUMPDEST DUP1 ISZERO PUSH2 0x2E5 JUMPI DUP1 PUSH1 0x1F LT PUSH2 0x2BC JUMPI PUSH2 0x100 DUP1 DUP4 SLOAD DIV MUL DUP4 MSTORE SWAP2 PUSH1 0x20 ADD SWAP2 PUSH2 0x2E5 JUMP JUMPDEST DUP3 ADD SWAP2 SWAP1 PUSH0 MSTORE PUSH1 0x20 PUSH0 KECCAK256 SWAP1 JUMPDEST DUP2 SLOAD DUP2 MSTORE SWAP1 PUSH1 0x1 ADD SWAP1 PUSH1 0x20 ADD DUP1 DUP4 GT PUSH2 0x2C8 JUMPI DUP3 SWAP1 SUB PUSH1 0x1F AND DUP3 ADD SWAP2 JUMPDEST POP POP POP POP POP SWAP1 POP DUP8 JUMP JUMPDEST PUSH1 0x40 DUP1 MLOAD PUSH1 0xE0 DUP2 ADD DUP3 MSTORE DUP9 DUP2 MSTORE PUSH1 0x20 DUP2 ADD DUP9 SWAP1 MSTORE SWAP1 DUP2 ADD DUP7 SWAP1 MSTORE PUSH1 0x60 DUP2 ADD DUP6 SWAP1 MSTORE PUSH1 0x80 DUP2 ADD DUP5 SWAP1 MSTORE PUSH1 0x1 PUSH1 0x1 PUSH1 0xA0 SHL SUB DUP4 AND PUSH1 0xA0 DUP3 ADD MSTORE PUSH1 0xC0 DUP2 ADD DUP3 SWAP1 MSTORE PUSH0 DUP1 SLOAD PUSH1 0x1 DUP2 ADD DUP3 SSTORE SWAP1 DUP1 MSTORE DUP2 MLOAD DUP3 SWAP2 PUSH1 0x7 MUL PUSH32 0x290DECD9548B62A8D60345A988386FC84BA6BC95484008F6362F93160EF3E563 ADD SWAP1 DUP2 SWAP1 PUSH2 0x36F SWAP1 DUP3 PUSH2 0x6C8 JUMP JUMPDEST POP PUSH1 0x20 DUP3 ADD MLOAD PUSH1 0x1 DUP3 ADD SSTORE PUSH1 0x40 DUP3 ADD MLOAD PUSH1 0x2 DUP3 ADD SSTORE PUSH1 0x60 DUP3 ADD MLOAD PUSH1 0x3 DUP3 ADD SWAP1 PUSH2 0x398 SWAP1 DUP3 PUSH2 0x6C8 JUMP JUMPDEST POP PUSH1 0x80 DUP3 ADD MLOAD PUSH1 0x4 DUP3 ADD SWAP1 PUSH2 0x3AD SWAP1 DUP3 PUSH2 0x6C8 JUMP JUMPDEST POP PUSH1 0xA0 DUP3 ADD MLOAD PUSH1 0x5 DUP3 ADD DUP1 SLOAD PUSH1 0x1 PUSH1 0x1 PUSH1 0xA0 SHL SUB NOT AND PUSH1 0x1 PUSH1 0x1 PUSH1 0xA0 SHL SUB SWAP1 SWAP3 AND SWAP2 SWAP1 SWAP2 OR SWAP1 SSTORE PUSH1 0xC0 DUP3 ADD MLOAD PUSH1 0x6 DUP3 ADD SWAP1 PUSH2 0x3E8 SWAP1 DUP3 PUSH2 0x6C8 JUMP JUMPDEST POP POP POP POP POP POP POP POP POP POP POP JUMP JUMPDEST PUSH0 PUSH1 0x20 DUP3 DUP5 SUB SLT ISZERO PUSH2 0x405 JUMPI PUSH0 DUP1 REVERT JUMPDEST POP CALLDATALOAD SWAP2 SWAP1 POP JUMP JUMPDEST PUSH0 DUP2 MLOAD DUP1 DUP5 MSTORE PUSH0 JUMPDEST DUP2 DUP2 LT ISZERO PUSH2 0x430 JUMPI PUSH1 0x20 DUP2 DUP6 ADD DUP2 ADD MLOAD DUP7 DUP4 ADD DUP3 ADD MSTORE ADD PUSH2 0x414 JUMP JUMPDEST POP PUSH0 PUSH1 0x20 DUP3 DUP7 ADD ADD MSTORE PUSH1 0x20 PUSH1 0x1F NOT PUSH1 0x1F DUP4 ADD AND DUP6 ADD ADD SWAP2 POP POP SWAP3 SWAP2 POP POP JUMP JUMPDEST PUSH1 0xE0 DUP2 MSTORE PUSH0 PUSH2 0x461 PUSH1 0xE0 DUP4 ADD DUP11 PUSH2 0x40C JUMP JUMPDEST DUP9 PUSH1 0x20 DUP5 ADD MSTORE DUP8 PUSH1 0x40 DUP5 ADD MSTORE DUP3 DUP2 SUB PUSH1 0x60 DUP5 ADD MSTORE PUSH2 0x47F DUP2 DUP9 PUSH2 0x40C JUMP JUMPDEST SWAP1 POP DUP3 DUP2 SUB PUSH1 0x80 DUP5 ADD MSTORE PUSH2 0x493 DUP2 DUP8 PUSH2 0x40C JUMP JUMPDEST PUSH1 0x1 PUSH1 0x1 PUSH1 0xA0 SHL SUB DUP7 AND PUSH1 0xA0 DUP6 ADD MSTORE DUP4 DUP2 SUB PUSH1 0xC0 DUP6 ADD MSTORE SWAP1 POP PUSH2 0x4B6 DUP2 DUP6 PUSH2 0x40C JUMP JUMPDEST SWAP11 SWAP10 POP POP POP POP POP POP POP POP POP POP JUMP JUMPDEST PUSH4 0x4E487B71 PUSH1 0xE0 SHL PUSH0 MSTORE PUSH1 0x41 PUSH1 0x4 MSTORE PUSH1 0x24 PUSH0 REVERT JUMPDEST PUSH0 DUP3 PUSH1 0x1F DUP4 ADD SLT PUSH2 0x4E7 JUMPI PUSH0 DUP1 REVERT JUMPDEST DUP2 CALLDATALOAD PUSH8 0xFFFFFFFFFFFFFFFF DUP1 DUP3 GT ISZERO PUSH2 0x502 JUMPI PUSH2 0x502 PUSH2 0x4C4 JUMP JUMPDEST PUSH1 0x40 MLOAD PUSH1 0x1F DUP4 ADD PUSH1 0x1F NOT SWAP1 DUP2 AND PUSH1 0x3F ADD AND DUP2 ADD SWAP1 DUP3 DUP3 GT DUP2 DUP4 LT OR ISZERO PUSH2 0x52A JUMPI PUSH2 0x52A PUSH2 0x4C4 JUMP JUMPDEST DUP2 PUSH1 0x40 MSTORE DUP4 DUP2 MSTORE DUP7 PUSH1 0x20 DUP6 DUP9 ADD ADD GT ISZERO PUSH2 0x542 JUMPI PUSH0 DUP1 REVERT JUMPDEST DUP4 PUSH1 0x20 DUP8 ADD PUSH1 0x20 DUP4 ADD CALLDATACOPY PUSH0 PUSH1 0x20 DUP6 DUP4 ADD ADD MSTORE DUP1 SWAP5 POP POP POP POP POP SWAP3 SWAP2 POP POP JUMP JUMPDEST DUP1 CALLDATALOAD PUSH1 0x1 PUSH1 0x1 PUSH1 0xA0 SHL SUB DUP2 AND DUP2 EQ PUSH2 0x577 JUMPI PUSH0 DUP1 REVERT JUMPDEST SWAP2 SWAP1 POP JUMP JUMPDEST PUSH0 DUP1 PUSH0 DUP1 PUSH0 DUP1 PUSH0 PUSH1 0xE0 DUP9 DUP11 SUB SLT ISZERO PUSH2 0x592 JUMPI PUSH0 DUP1 REVERT JUMPDEST DUP8 CALLDATALOAD PUSH8 0xFFFFFFFFFFFFFFFF DUP1 DUP3 GT ISZERO PUSH2 0x5A9 JUMPI PUSH0 DUP1 REVERT JUMPDEST PUSH2 0x5B5 DUP12 DUP4 DUP13 ADD PUSH2 0x4D8 JUMP JUMPDEST SWAP9 POP PUSH1 0x20 DUP11 ADD CALLDATALOAD SWAP8 POP PUSH1 0x40 DUP11 ADD CALLDATALOAD SWAP7 POP PUSH1 0x60 DUP11 ADD CALLDATALOAD SWAP2 POP DUP1 DUP3 GT ISZERO PUSH2 0x5D8 JUMPI PUSH0 DUP1 REVERT JUMPDEST PUSH2 0x5E4 DUP12 DUP4 DUP13 ADD PUSH2 0x4D8 JUMP JUMPDEST SWAP6 POP PUSH1 0x80 DUP11 ADD CALLDATALOAD SWAP2 POP DUP1 DUP3 GT ISZERO PUSH2 0x5F9 JUMPI PUSH0 DUP1 REVERT JUMPDEST PUSH2 0x605 DUP12 DUP4 DUP13 ADD PUSH2 0x4D8 JUMP JUMPDEST SWAP5 POP PUSH2 0x613 PUSH1 0xA0 DUP12 ADD PUSH2 0x561 JUMP JUMPDEST SWAP4 POP PUSH1 0xC0 DUP11 ADD CALLDATALOAD SWAP2 POP DUP1 DUP3 GT ISZERO PUSH2 0x628 JUMPI PUSH0 DUP1 REVERT JUMPDEST POP PUSH2 0x635 DUP11 DUP3 DUP12 ADD PUSH2 0x4D8 JUMP JUMPDEST SWAP2 POP POP SWAP3 SWAP6 SWAP9 SWAP2 SWAP5 SWAP8 POP SWAP3 SWAP6 POP JUMP JUMPDEST PUSH1 0x1 DUP2 DUP2 SHR SWAP1 DUP3 AND DUP1 PUSH2 0x658 JUMPI PUSH1 0x7F DUP3 AND SWAP2 POP JUMPDEST PUSH1 0x20 DUP3 LT DUP2 SUB PUSH2 0x676 JUMPI PUSH4 0x4E487B71 PUSH1 0xE0 SHL PUSH0 MSTORE PUSH1 0x22 PUSH1 0x4 MSTORE PUSH1 0x24 PUSH0 REVERT JUMPDEST POP SWAP2 SWAP1 POP JUMP JUMPDEST PUSH1 0x1F DUP3 GT ISZERO PUSH2 0x6C3 JUMPI DUP1 PUSH0 MSTORE PUSH1 0x20 PUSH0 KECCAK256 PUSH1 0x1F DUP5 ADD PUSH1 0x5 SHR DUP2 ADD PUSH1 0x20 DUP6 LT ISZERO PUSH2 0x6A1 JUMPI POP DUP1 JUMPDEST PUSH1 0x1F DUP5 ADD PUSH1 0x5 SHR DUP3 ADD SWAP2 POP JUMPDEST DUP2 DUP2 LT ISZERO PUSH2 0x6C0 JUMPI PUSH0 DUP2 SSTORE PUSH1 0x1 ADD PUSH2 0x6AD JUMP JUMPDEST POP POP JUMPDEST POP POP POP JUMP JUMPDEST DUP2 MLOAD PUSH8 0xFFFFFFFFFFFFFFFF DUP2 GT ISZERO PUSH2 0x6E2 JUMPI PUSH2 0x6E2 PUSH2 0x4C4 JUMP JUMPDEST PUSH2 0x6F6 DUP2 PUSH2 0x6F0 DUP5 SLOAD PUSH2 0x644 JUMP JUMPDEST DUP5 PUSH2 0x67C JUMP JUMPDEST PUSH1 0x20 DUP1 PUSH1 0x1F DUP4 GT PUSH1 0x1 DUP2 EQ PUSH2 0x729 JUMPI PUSH0 DUP5 ISZERO PUSH2 0x712 JUMPI POP DUP6 DUP4 ADD MLOAD JUMPDEST PUSH0 NOT PUSH1 0x3 DUP7 SWAP1 SHL SHR NOT AND PUSH1 0x1 DUP6 SWAP1 SHL OR DUP6 SSTORE PUSH2 0x780 JUMP JUMPDEST PUSH0 DUP6 DUP2 MSTORE PUSH1 0x20 DUP2 KECCAK256 PUSH1 0x1F NOT DUP7 AND SWAP2 JUMPDEST DUP3 DUP2 LT ISZERO PUSH2 0x757 JUMPI DUP9 DUP7 ADD MLOAD DUP3 SSTORE SWAP5 DUP5 ADD SWAP5 PUSH1 0x1 SWAP1 SWAP2 ADD SWAP1 DUP5 ADD PUSH2 0x738 JUMP JUMPDEST POP DUP6 DUP3 LT ISZERO PUSH2 0x774 JUMPI DUP8 DUP6 ADD MLOAD PUSH0 NOT PUSH1 0x3 DUP9 SWAP1 SHL PUSH1 0xF8 AND SHR NOT AND DUP2 SSTORE JUMPDEST POP POP PUSH1 0x1 DUP5 PUSH1 0x1 SHL ADD DUP6 SSTORE JUMPDEST POP POP POP POP POP POP JUMP INVALID LOG2 PUSH5 0x6970667358 0x22 SLT KECCAK256 0xC1 0xE9 REVERT SWAP7 SHL 0xA8 ADDMOD 0xEC 0xAD CALL REVERT PUSH29 0x633CEEB127CB1D94BE46F7C75692D81AF553C8BD64736F6C6343000816 STOP CALLER "
		},
		"gasEstimates": {
			"creation": {
				"codeDepositCost": "396400",
				"executionCost": "428",
				"totalCost": "396828"
			},
			"external": {
				"insert(string,uint256,uint256,string,string,address,string)": "infinite",
				"sugar(uint256)": "infinite"
			}
		},
		"methodIdentifiers": {
			"insert(string,uint256,uint256,string,string,address,string)": "e891cd88",
			"sugar(uint256)": "736f7570"
		}
	},
	"abi": [
		{
			"inputs": [
				{
					"internalType": "string",
					"name": "name",
					"type": "string"
				},
				{
					"internalType": "uint256",
					"name": "age",
					"type": "uint256"
				},
				{
					"internalType": "uint256",
					"name": "phonenumber",
					"type": "uint256"
				},
				{
					"internalType": "string",
					"name": "houseaddress",
					"type": "string"
				},
				{
					"internalType": "string",
					"name": "officeaddress",
					"type": "string"
				},
				{
					"internalType": "address",
					"name": "walletaddress",
					"type": "address"
				},
				{
					"internalType": "string",
					"name": "bestcolor",
					"type": "string"
				}
			],
			"name": "insert",
			"outputs": [],
			"stateMutability": "nonpayable",
			"type": "function"
		},
		{
			"inputs": [
				{
					"internalType": "uint256",
					"name": "",
					"type": "uint256"
				}
			],
			"name": "sugar",
			"outputs": [
				{
					"internalType": "string",
					"name": "name",
					"type": "string"
				},
				{
					"internalType": "uint256",
					"name": "age",
					"type": "uint256"
				},
				{
					"internalType": "uint256",
					"name": "phonenumber",
					"type": "uint256"
				},
				{
					"internalType": "string",
					"name": "houseaddress",
					"type": "string"
				},
				{
					"internalType": "string",
					"name": "officeaddress",
					"type": "string"
				},
				{
					"internalType": "address",
					"name": "walletaddress",
					"type": "address"
				},
				{
					"internalType": "string",
					"name": "bestcolor",
					"type": "string"
				}
			],
			"stateMutability": "view",
			"type": "function"
		}
	]
}