{
	"data": {
		"bytecode": {
			"linkReferences": {},
			"object": "60806040526040518060600160405280606461ffff16815260200160c861ffff16815260200161012c61ffff168152505f90600361003e929190610050565b5034801561004a575f80fd5b506100bc565b828054828255905f5260205f20908101928215610090579160200282015b8281111561008f578251829061ffff1690559160200191906001019061006e565b5b50905061009d91906100a1565b5090565b5b808211156100b8575f815f9055506001016100a2565b5090565b610216806100c95f395ff3fe608060405234801561000f575f80fd5b506004361061004a575f3560e01c8063431aabc21461004e5780636669f5d61461007e578063a2e6204514610088578063a7f4377914610092575b5f80fd5b61006860048036038101906100639190610160565b61009c565b604051610075919061019a565b60405180910390f35b6100866100bb565b005b6100906100e4565b005b61009a610108565b005b5f81815481106100aa575f80fd5b905f5260205f20015f915090505481565b5f610190908060018154018082558091505060019003905f5260205f20015f9091909190915055565b60505f6001815481106100fa576100f96101b3565b5b905f5260205f200181905550565b5f60028154811061011c5761011b6101b3565b5b905f5260205f20015f9055565b5f80fd5b5f819050919050565b61013f8161012d565b8114610149575f80fd5b50565b5f8135905061015a81610136565b92915050565b5f6020828403121561017557610174610129565b5b5f6101828482850161014c565b91505092915050565b6101948161012d565b82525050565b5f6020820190506101ad5f83018461018b565b92915050565b7f4e487b71000000000000000000000000000000000000000000000000000000005f52603260045260245ffdfea264697066735822122043c4e6f99fe77b921e486808f75b75631b77b8dc145ff32b7b29892f8265b71e64736f6c63430008160033",
			"opcodes": "PUSH1 0x80 PUSH1 0x40 MSTORE PUSH1 0x40 MLOAD DUP1 PUSH1 0x60 ADD PUSH1 0x40 MSTORE DUP1 PUSH1 0x64 PUSH2 0xFFFF AND DUP2 MSTORE PUSH1 0x20 ADD PUSH1 0xC8 PUSH2 0xFFFF AND DUP2 MSTORE PUSH1 0x20 ADD PUSH2 0x12C PUSH2 0xFFFF AND DUP2 MSTORE POP PUSH0 SWAP1 PUSH1 0x3 PUSH2 0x3E SWAP3 SWAP2 SWAP1 PUSH2 0x50 JUMP JUMPDEST POP CALLVALUE DUP1 ISZERO PUSH2 0x4A JUMPI PUSH0 DUP1 REVERT JUMPDEST POP PUSH2 0xBC JUMP JUMPDEST DUP3 DUP1 SLOAD DUP3 DUP3 SSTORE SWAP1 PUSH0 MSTORE PUSH1 0x20 PUSH0 KECCAK256 SWAP1 DUP2 ADD SWAP3 DUP3 ISZERO PUSH2 0x90 JUMPI SWAP2 PUSH1 0x20 MUL DUP3 ADD JUMPDEST DUP3 DUP2 GT ISZERO PUSH2 0x8F JUMPI DUP3 MLOAD DUP3 SWAP1 PUSH2 0xFFFF AND SWAP1 SSTORE SWAP2 PUSH1 0x20 ADD SWAP2 SWAP1 PUSH1 0x1 ADD SWAP1 PUSH2 0x6E JUMP JUMPDEST JUMPDEST POP SWAP1 POP PUSH2 0x9D SWAP2 SWAP1 PUSH2 0xA1 JUMP JUMPDEST POP SWAP1 JUMP JUMPDEST JUMPDEST DUP1 DUP3 GT ISZERO PUSH2 0xB8 JUMPI PUSH0 DUP2 PUSH0 SWAP1 SSTORE POP PUSH1 0x1 ADD PUSH2 0xA2 JUMP JUMPDEST POP SWAP1 JUMP JUMPDEST PUSH2 0x216 DUP1 PUSH2 0xC9 PUSH0 CODECOPY PUSH0 RETURN INVALID PUSH1 0x80 PUSH1 0x40 MSTORE CALLVALUE DUP1 ISZERO PUSH2 0xF JUMPI PUSH0 DUP1 REVERT JUMPDEST POP PUSH1 0x4 CALLDATASIZE LT PUSH2 0x4A JUMPI PUSH0 CALLDATALOAD PUSH1 0xE0 SHR DUP1 PUSH4 0x431AABC2 EQ PUSH2 0x4E JUMPI DUP1 PUSH4 0x6669F5D6 EQ PUSH2 0x7E JUMPI DUP1 PUSH4 0xA2E62045 EQ PUSH2 0x88 JUMPI DUP1 PUSH4 0xA7F43779 EQ PUSH2 0x92 JUMPI JUMPDEST PUSH0 DUP1 REVERT JUMPDEST PUSH2 0x68 PUSH1 0x4 DUP1 CALLDATASIZE SUB DUP2 ADD SWAP1 PUSH2 0x63 SWAP2 SWAP1 PUSH2 0x160 JUMP JUMPDEST PUSH2 0x9C JUMP JUMPDEST PUSH1 0x40 MLOAD PUSH2 0x75 SWAP2 SWAP1 PUSH2 0x19A JUMP JUMPDEST PUSH1 0x40 MLOAD DUP1 SWAP2 SUB SWAP1 RETURN JUMPDEST PUSH2 0x86 PUSH2 0xBB JUMP JUMPDEST STOP JUMPDEST PUSH2 0x90 PUSH2 0xE4 JUMP JUMPDEST STOP JUMPDEST PUSH2 0x9A PUSH2 0x108 JUMP JUMPDEST STOP JUMPDEST PUSH0 DUP2 DUP2 SLOAD DUP2 LT PUSH2 0xAA JUMPI PUSH0 DUP1 REVERT JUMPDEST SWAP1 PUSH0 MSTORE PUSH1 0x20 PUSH0 KECCAK256 ADD PUSH0 SWAP2 POP SWAP1 POP SLOAD DUP2 JUMP JUMPDEST PUSH0 PUSH2 0x190 SWAP1 DUP1 PUSH1 0x1 DUP2 SLOAD ADD DUP1 DUP3 SSTORE DUP1 SWAP2 POP POP PUSH1 0x1 SWAP1 SUB SWAP1 PUSH0 MSTORE PUSH1 0x20 PUSH0 KECCAK256 ADD PUSH0 SWAP1 SWAP2 SWAP1 SWAP2 SWAP1 SWAP2 POP SSTORE JUMP JUMPDEST PUSH1 0x50 PUSH0 PUSH1 0x1 DUP2 SLOAD DUP2 LT PUSH2 0xFA JUMPI PUSH2 0xF9 PUSH2 0x1B3 JUMP JUMPDEST JUMPDEST SWAP1 PUSH0 MSTORE PUSH1 0x20 PUSH0 KECCAK256 ADD DUP2 SWAP1 SSTORE POP JUMP JUMPDEST PUSH0 PUSH1 0x2 DUP2 SLOAD DUP2 LT PUSH2 0x11C JUMPI PUSH2 0x11B PUSH2 0x1B3 JUMP JUMPDEST JUMPDEST SWAP1 PUSH0 MSTORE PUSH1 0x20 PUSH0 KECCAK256 ADD PUSH0 SWAP1 SSTORE JUMP JUMPDEST PUSH0 DUP1 REVERT JUMPDEST PUSH0 DUP2 SWAP1 POP SWAP2 SWAP1 POP JUMP JUMPDEST PUSH2 0x13F DUP2 PUSH2 0x12D JUMP JUMPDEST DUP2 EQ PUSH2 0x149 JUMPI PUSH0 DUP1 REVERT JUMPDEST POP JUMP JUMPDEST PUSH0 DUP2 CALLDATALOAD SWAP1 POP PUSH2 0x15A DUP2 PUSH2 0x136 JUMP JUMPDEST SWAP3 SWAP2 POP POP JUMP JUMPDEST PUSH0 PUSH1 0x20 DUP3 DUP5 SUB SLT ISZERO PUSH2 0x175 JUMPI PUSH2 0x174 PUSH2 0x129 JUMP JUMPDEST JUMPDEST PUSH0 PUSH2 0x182 DUP5 DUP3 DUP6 ADD PUSH2 0x14C JUMP JUMPDEST SWAP2 POP POP SWAP3 SWAP2 POP POP JUMP JUMPDEST PUSH2 0x194 DUP2 PUSH2 0x12D JUMP JUMPDEST DUP3 MSTORE POP POP JUMP JUMPDEST PUSH0 PUSH1 0x20 DUP3 ADD SWAP1 POP PUSH2 0x1AD PUSH0 DUP4 ADD DUP5 PUSH2 0x18B JUMP JUMPDEST SWAP3 SWAP2 POP POP JUMP JUMPDEST PUSH32 0x4E487B7100000000000000000000000000000000000000000000000000000000 PUSH0 MSTORE PUSH1 0x32 PUSH1 0x4 MSTORE PUSH1 0x24 PUSH0 REVERT INVALID LOG2 PUSH5 0x6970667358 0x22 SLT KECCAK256 NUMBER 0xC4 0xE6 0xF9 SWAP16 0xE7 PUSH28 0x921E486808F75B75631B77B8DC145FF32B7B29892F8265B71E64736F PUSH13 0x63430008160033000000000000 "
		},
		"gasEstimates": {
			"creation": {
				"codeDepositCost": "106800",
				"executionCost": "infinite",
				"totalCost": "infinite"
			},
			"external": {
				"number(uint256)": "infinite",
				"pushNumber()": "46562",
				"remove()": "7372",
				"update()": "24456"
			}
		},
		"methodIdentifiers": {
			"number(uint256)": "431aabc2",
			"pushNumber()": "6669f5d6",
			"remove()": "a7f43779",
			"update()": "a2e62045"
		}
	},
	"abi": [
		{
			"inputs": [
				{
					"internalType": "uint256",
					"name": "",
					"type": "uint256"
				}
			],
			"name": "number",
			"outputs": [
				{
					"internalType": "uint256",
					"name": "",
					"type": "uint256"
				}
			],
			"stateMutability": "view",
			"type": "function"
		},
		{
			"inputs": [],
			"name": "pushNumber",
			"outputs": [],
			"stateMutability": "nonpayable",
			"type": "function"
		},
		{
			"inputs": [],
			"name": "remove",
			"outputs": [],
			"stateMutability": "nonpayable",
			"type": "function"
		},
		{
			"inputs": [],
			"name": "update",
			"outputs": [],
			"stateMutability": "nonpayable",
			"type": "function"
		}
	]
}