{
	"data": {
		"bytecode": {
			"linkReferences": {},
			"object": "6101406040526007610100908152661b5a58da19585b60ca1b610120526080818152600a60a052606460c052650222ed894cac60e0529060019081906100459082610186565b5060208201518160010155604082015181600201556060820151816003015550506040518060800160405280604051806040016040528060048152602001636c6f766560e01b8152508152602001600a81526020016028815260200161122e81525060055f820151815f0190816100bc9190610186565b5060208201518160010155604082015181600201556060820151816003015550503480156100e8575f80fd5b50610245565b634e487b7160e01b5f52604160045260245ffd5b600181811c9082168061011657607f821691505b60208210810361013457634e487b7160e01b5f52602260045260245ffd5b50919050565b601f82111561018157805f5260205f20601f840160051c8101602085101561015f5750805b601f840160051c820191505b8181101561017e575f815560010161016b565b50505b505050565b81516001600160401b0381111561019f5761019f6100ee565b6101b3816101ad8454610102565b8461013a565b602080601f8311600181146101e6575f84156101cf5750858301515b5f19600386901b1c1916600185901b17855561023d565b5f85815260208120601f198616915b82811015610214578886015182559484019460019091019084016101f5565b508582101561023157878501515f19600388901b60f8161c191681555b505060018460011b0185555b505050505050565b610408806102525f395ff3fe608060405234801561000f575f80fd5b5060043610610034575f3560e01c8063245ed5d214610038578063dff5323114610064575b5f80fd5b61004b6100463660046101ee565b61006e565b60405161005b9493929190610205565b60405180910390f35b61006c61012e565b005b5f818154811061007c575f80fd5b905f5260205f2090600402015f91509050805f01805461009b90610265565b80601f01602080910402602001604051908101604052809291908181526020018280546100c790610265565b80156101125780601f106100e957610100808354040283529160200191610112565b820191905f5260205f20905b8154815290600101906020018083116100f557829003601f168201915b5050505050908060010154908060020154908060030154905084565b5f8054600181810183559180526004027f290decd9548b62a8d60345a988386fc84ba6bc95484008f6362f93160ef3e563018061016b83826102fd565b50600182810154828201556002808401549083015560039283015492909101919091555f8054918201815580526005906004027f290decd9548b62a8d60345a988386fc84ba6bc95484008f6362f93160ef3e56301806101cb83826102fd565b506001820154816001015560028201548160020155600382015481600301555050565b5f602082840312156101fe575f80fd5b5035919050565b608081525f85518060808401525f5b8181101561023157602081890181015160a0868401015201610214565b505f60a0828501015260a0601f19601f83011684010191505084602083015283604083015282606083015295945050505050565b600181811c9082168061027957607f821691505b60208210810361029757634e487b7160e01b5f52602260045260245ffd5b50919050565b634e487b7160e01b5f52604160045260245ffd5b601f8211156102f857805f5260205f20601f840160051c810160208510156102d65750805b601f840160051c820191505b818110156102f5575f81556001016102e2565b50505b505050565b818103610308575050565b6103128254610265565b67ffffffffffffffff81111561032a5761032a61029d565b61033e816103388454610265565b846102b1565b5f601f82116001811461036f575f83156103585750848201545b5f19600385901b1c1916600184901b1784556102f5565b5f8581526020808220868352908220601f198616925b838110156103a55782860154825560019586019590910190602001610385565b50858310156103c257818501545f19600388901b60f8161c191681555b5050505050600190811b0190555056fea2646970667358221220f581f82ca689b9d47d5aa3baa189de440a60f2ca90e2bde8fd84a2325900e83264736f6c63430008160033",
			"opcodes": "PUSH2 0x140 PUSH1 0x40 MSTORE PUSH1 0x7 PUSH2 0x100 SWAP1 DUP2 MSTORE PUSH7 0x1B5A58DA19585B PUSH1 0xCA SHL PUSH2 0x120 MSTORE PUSH1 0x80 DUP2 DUP2 MSTORE PUSH1 0xA PUSH1 0xA0 MSTORE PUSH1 0x64 PUSH1 0xC0 MSTORE PUSH6 0x222ED894CAC PUSH1 0xE0 MSTORE SWAP1 PUSH1 0x1 SWAP1 DUP2 SWAP1 PUSH2 0x45 SWAP1 DUP3 PUSH2 0x186 JUMP JUMPDEST POP PUSH1 0x20 DUP3 ADD MLOAD DUP2 PUSH1 0x1 ADD SSTORE PUSH1 0x40 DUP3 ADD MLOAD DUP2 PUSH1 0x2 ADD SSTORE PUSH1 0x60 DUP3 ADD MLOAD DUP2 PUSH1 0x3 ADD SSTORE POP POP PUSH1 0x40 MLOAD DUP1 PUSH1 0x80 ADD PUSH1 0x40 MSTORE DUP1 PUSH1 0x40 MLOAD DUP1 PUSH1 0x40 ADD PUSH1 0x40 MSTORE DUP1 PUSH1 0x4 DUP2 MSTORE PUSH1 0x20 ADD PUSH4 0x6C6F7665 PUSH1 0xE0 SHL DUP2 MSTORE POP DUP2 MSTORE PUSH1 0x20 ADD PUSH1 0xA DUP2 MSTORE PUSH1 0x20 ADD PUSH1 0x28 DUP2 MSTORE PUSH1 0x20 ADD PUSH2 0x122E DUP2 MSTORE POP PUSH1 0x5 PUSH0 DUP3 ADD MLOAD DUP2 PUSH0 ADD SWAP1 DUP2 PUSH2 0xBC SWAP2 SWAP1 PUSH2 0x186 JUMP JUMPDEST POP PUSH1 0x20 DUP3 ADD MLOAD DUP2 PUSH1 0x1 ADD SSTORE PUSH1 0x40 DUP3 ADD MLOAD DUP2 PUSH1 0x2 ADD SSTORE PUSH1 0x60 DUP3 ADD MLOAD DUP2 PUSH1 0x3 ADD SSTORE POP POP CALLVALUE DUP1 ISZERO PUSH2 0xE8 JUMPI PUSH0 DUP1 REVERT JUMPDEST POP PUSH2 0x245 JUMP JUMPDEST PUSH4 0x4E487B71 PUSH1 0xE0 SHL PUSH0 MSTORE PUSH1 0x41 PUSH1 0x4 MSTORE PUSH1 0x24 PUSH0 REVERT JUMPDEST PUSH1 0x1 DUP2 DUP2 SHR SWAP1 DUP3 AND DUP1 PUSH2 0x116 JUMPI PUSH1 0x7F DUP3 AND SWAP2 POP JUMPDEST PUSH1 0x20 DUP3 LT DUP2 SUB PUSH2 0x134 JUMPI PUSH4 0x4E487B71 PUSH1 0xE0 SHL PUSH0 MSTORE PUSH1 0x22 PUSH1 0x4 MSTORE PUSH1 0x24 PUSH0 REVERT JUMPDEST POP SWAP2 SWAP1 POP JUMP JUMPDEST PUSH1 0x1F DUP3 GT ISZERO PUSH2 0x181 JUMPI DUP1 PUSH0 MSTORE PUSH1 0x20 PUSH0 KECCAK256 PUSH1 0x1F DUP5 ADD PUSH1 0x5 SHR DUP2 ADD PUSH1 0x20 DUP6 LT ISZERO PUSH2 0x15F JUMPI POP DUP1 JUMPDEST PUSH1 0x1F DUP5 ADD PUSH1 0x5 SHR DUP3 ADD SWAP2 POP JUMPDEST DUP2 DUP2 LT ISZERO PUSH2 0x17E JUMPI PUSH0 DUP2 SSTORE PUSH1 0x1 ADD PUSH2 0x16B JUMP JUMPDEST POP POP JUMPDEST POP POP POP JUMP JUMPDEST DUP2 MLOAD PUSH1 0x1 PUSH1 0x1 PUSH1 0x40 SHL SUB DUP2 GT ISZERO PUSH2 0x19F JUMPI PUSH2 0x19F PUSH2 0xEE JUMP JUMPDEST PUSH2 0x1B3 DUP2 PUSH2 0x1AD DUP5 SLOAD PUSH2 0x102 JUMP JUMPDEST DUP5 PUSH2 0x13A JUMP JUMPDEST PUSH1 0x20 DUP1 PUSH1 0x1F DUP4 GT PUSH1 0x1 DUP2 EQ PUSH2 0x1E6 JUMPI PUSH0 DUP5 ISZERO PUSH2 0x1CF JUMPI POP DUP6 DUP4 ADD MLOAD JUMPDEST PUSH0 NOT PUSH1 0x3 DUP7 SWAP1 SHL SHR NOT AND PUSH1 0x1 DUP6 SWAP1 SHL OR DUP6 SSTORE PUSH2 0x23D JUMP JUMPDEST PUSH0 DUP6 DUP2 MSTORE PUSH1 0x20 DUP2 KECCAK256 PUSH1 0x1F NOT DUP7 AND SWAP2 JUMPDEST DUP3 DUP2 LT ISZERO PUSH2 0x214 JUMPI DUP9 DUP7 ADD MLOAD DUP3 SSTORE SWAP5 DUP5 ADD SWAP5 PUSH1 0x1 SWAP1 SWAP2 ADD SWAP1 DUP5 ADD PUSH2 0x1F5 JUMP JUMPDEST POP DUP6 DUP3 LT ISZERO PUSH2 0x231 JUMPI DUP8 DUP6 ADD MLOAD PUSH0 NOT PUSH1 0x3 DUP9 SWAP1 SHL PUSH1 0xF8 AND SHR NOT AND DUP2 SSTORE JUMPDEST POP POP PUSH1 0x1 DUP5 PUSH1 0x1 SHL ADD DUP6 SSTORE JUMPDEST POP POP POP POP POP POP JUMP JUMPDEST PUSH2 0x408 DUP1 PUSH2 0x252 PUSH0 CODECOPY PUSH0 RETURN INVALID PUSH1 0x80 PUSH1 0x40 MSTORE CALLVALUE DUP1 ISZERO PUSH2 0xF JUMPI PUSH0 DUP1 REVERT JUMPDEST POP PUSH1 0x4 CALLDATASIZE LT PUSH2 0x34 JUMPI PUSH0 CALLDATALOAD PUSH1 0xE0 SHR DUP1 PUSH4 0x245ED5D2 EQ PUSH2 0x38 JUMPI DUP1 PUSH4 0xDFF53231 EQ PUSH2 0x64 JUMPI JUMPDEST PUSH0 DUP1 REVERT JUMPDEST PUSH2 0x4B PUSH2 0x46 CALLDATASIZE PUSH1 0x4 PUSH2 0x1EE JUMP JUMPDEST PUSH2 0x6E JUMP JUMPDEST PUSH1 0x40 MLOAD PUSH2 0x5B SWAP5 SWAP4 SWAP3 SWAP2 SWAP1 PUSH2 0x205 JUMP JUMPDEST PUSH1 0x40 MLOAD DUP1 SWAP2 SUB SWAP1 RETURN JUMPDEST PUSH2 0x6C PUSH2 0x12E JUMP JUMPDEST STOP JUMPDEST PUSH0 DUP2 DUP2 SLOAD DUP2 LT PUSH2 0x7C JUMPI PUSH0 DUP1 REVERT JUMPDEST SWAP1 PUSH0 MSTORE PUSH1 0x20 PUSH0 KECCAK256 SWAP1 PUSH1 0x4 MUL ADD PUSH0 SWAP2 POP SWAP1 POP DUP1 PUSH0 ADD DUP1 SLOAD PUSH2 0x9B SWAP1 PUSH2 0x265 JUMP JUMPDEST DUP1 PUSH1 0x1F ADD PUSH1 0x20 DUP1 SWAP2 DIV MUL PUSH1 0x20 ADD PUSH1 0x40 MLOAD SWAP1 DUP2 ADD PUSH1 0x40 MSTORE DUP1 SWAP3 SWAP2 SWAP1 DUP2 DUP2 MSTORE PUSH1 0x20 ADD DUP3 DUP1 SLOAD PUSH2 0xC7 SWAP1 PUSH2 0x265 JUMP JUMPDEST DUP1 ISZERO PUSH2 0x112 JUMPI DUP1 PUSH1 0x1F LT PUSH2 0xE9 JUMPI PUSH2 0x100 DUP1 DUP4 SLOAD DIV MUL DUP4 MSTORE SWAP2 PUSH1 0x20 ADD SWAP2 PUSH2 0x112 JUMP JUMPDEST DUP3 ADD SWAP2 SWAP1 PUSH0 MSTORE PUSH1 0x20 PUSH0 KECCAK256 SWAP1 JUMPDEST DUP2 SLOAD DUP2 MSTORE SWAP1 PUSH1 0x1 ADD SWAP1 PUSH1 0x20 ADD DUP1 DUP4 GT PUSH2 0xF5 JUMPI DUP3 SWAP1 SUB PUSH1 0x1F AND DUP3 ADD SWAP2 JUMPDEST POP POP POP POP POP SWAP1 DUP1 PUSH1 0x1 ADD SLOAD SWAP1 DUP1 PUSH1 0x2 ADD SLOAD SWAP1 DUP1 PUSH1 0x3 ADD SLOAD SWAP1 POP DUP5 JUMP JUMPDEST PUSH0 DUP1 SLOAD PUSH1 0x1 DUP2 DUP2 ADD DUP4 SSTORE SWAP2 DUP1 MSTORE PUSH1 0x4 MUL PUSH32 0x290DECD9548B62A8D60345A988386FC84BA6BC95484008F6362F93160EF3E563 ADD DUP1 PUSH2 0x16B DUP4 DUP3 PUSH2 0x2FD JUMP JUMPDEST POP PUSH1 0x1 DUP3 DUP2 ADD SLOAD DUP3 DUP3 ADD SSTORE PUSH1 0x2 DUP1 DUP5 ADD SLOAD SWAP1 DUP4 ADD SSTORE PUSH1 0x3 SWAP3 DUP4 ADD SLOAD SWAP3 SWAP1 SWAP2 ADD SWAP2 SWAP1 SWAP2 SSTORE PUSH0 DUP1 SLOAD SWAP2 DUP3 ADD DUP2 SSTORE DUP1 MSTORE PUSH1 0x5 SWAP1 PUSH1 0x4 MUL PUSH32 0x290DECD9548B62A8D60345A988386FC84BA6BC95484008F6362F93160EF3E563 ADD DUP1 PUSH2 0x1CB DUP4 DUP3 PUSH2 0x2FD JUMP JUMPDEST POP PUSH1 0x1 DUP3 ADD SLOAD DUP2 PUSH1 0x1 ADD SSTORE PUSH1 0x2 DUP3 ADD SLOAD DUP2 PUSH1 0x2 ADD SSTORE PUSH1 0x3 DUP3 ADD SLOAD DUP2 PUSH1 0x3 ADD SSTORE POP POP JUMP JUMPDEST PUSH0 PUSH1 0x20 DUP3 DUP5 SUB SLT ISZERO PUSH2 0x1FE JUMPI PUSH0 DUP1 REVERT JUMPDEST POP CALLDATALOAD SWAP2 SWAP1 POP JUMP JUMPDEST PUSH1 0x80 DUP2 MSTORE PUSH0 DUP6 MLOAD DUP1 PUSH1 0x80 DUP5 ADD MSTORE PUSH0 JUMPDEST DUP2 DUP2 LT ISZERO PUSH2 0x231 JUMPI PUSH1 0x20 DUP2 DUP10 ADD DUP2 ADD MLOAD PUSH1 0xA0 DUP7 DUP5 ADD ADD MSTORE ADD PUSH2 0x214 JUMP JUMPDEST POP PUSH0 PUSH1 0xA0 DUP3 DUP6 ADD ADD MSTORE PUSH1 0xA0 PUSH1 0x1F NOT PUSH1 0x1F DUP4 ADD AND DUP5 ADD ADD SWAP2 POP POP DUP5 PUSH1 0x20 DUP4 ADD MSTORE DUP4 PUSH1 0x40 DUP4 ADD MSTORE DUP3 PUSH1 0x60 DUP4 ADD MSTORE SWAP6 SWAP5 POP POP POP POP POP JUMP JUMPDEST PUSH1 0x1 DUP2 DUP2 SHR SWAP1 DUP3 AND DUP1 PUSH2 0x279 JUMPI PUSH1 0x7F DUP3 AND SWAP2 POP JUMPDEST PUSH1 0x20 DUP3 LT DUP2 SUB PUSH2 0x297 JUMPI PUSH4 0x4E487B71 PUSH1 0xE0 SHL PUSH0 MSTORE PUSH1 0x22 PUSH1 0x4 MSTORE PUSH1 0x24 PUSH0 REVERT JUMPDEST POP SWAP2 SWAP1 POP JUMP JUMPDEST PUSH4 0x4E487B71 PUSH1 0xE0 SHL PUSH0 MSTORE PUSH1 0x41 PUSH1 0x4 MSTORE PUSH1 0x24 PUSH0 REVERT JUMPDEST PUSH1 0x1F DUP3 GT ISZERO PUSH2 0x2F8 JUMPI DUP1 PUSH0 MSTORE PUSH1 0x20 PUSH0 KECCAK256 PUSH1 0x1F DUP5 ADD PUSH1 0x5 SHR DUP2 ADD PUSH1 0x20 DUP6 LT ISZERO PUSH2 0x2D6 JUMPI POP DUP1 JUMPDEST PUSH1 0x1F DUP5 ADD PUSH1 0x5 SHR DUP3 ADD SWAP2 POP JUMPDEST DUP2 DUP2 LT ISZERO PUSH2 0x2F5 JUMPI PUSH0 DUP2 SSTORE PUSH1 0x1 ADD PUSH2 0x2E2 JUMP JUMPDEST POP POP JUMPDEST POP POP POP JUMP JUMPDEST DUP2 DUP2 SUB PUSH2 0x308 JUMPI POP POP JUMP JUMPDEST PUSH2 0x312 DUP3 SLOAD PUSH2 0x265 JUMP JUMPDEST PUSH8 0xFFFFFFFFFFFFFFFF DUP2 GT ISZERO PUSH2 0x32A JUMPI PUSH2 0x32A PUSH2 0x29D JUMP JUMPDEST PUSH2 0x33E DUP2 PUSH2 0x338 DUP5 SLOAD PUSH2 0x265 JUMP JUMPDEST DUP5 PUSH2 0x2B1 JUMP JUMPDEST PUSH0 PUSH1 0x1F DUP3 GT PUSH1 0x1 DUP2 EQ PUSH2 0x36F JUMPI PUSH0 DUP4 ISZERO PUSH2 0x358 JUMPI POP DUP5 DUP3 ADD SLOAD JUMPDEST PUSH0 NOT PUSH1 0x3 DUP6 SWAP1 SHL SHR NOT AND PUSH1 0x1 DUP5 SWAP1 SHL OR DUP5 SSTORE PUSH2 0x2F5 JUMP JUMPDEST PUSH0 DUP6 DUP2 MSTORE PUSH1 0x20 DUP1 DUP3 KECCAK256 DUP7 DUP4 MSTORE SWAP1 DUP3 KECCAK256 PUSH1 0x1F NOT DUP7 AND SWAP3 JUMPDEST DUP4 DUP2 LT ISZERO PUSH2 0x3A5 JUMPI DUP3 DUP7 ADD SLOAD DUP3 SSTORE PUSH1 0x1 SWAP6 DUP7 ADD SWAP6 SWAP1 SWAP2 ADD SWAP1 PUSH1 0x20 ADD PUSH2 0x385 JUMP JUMPDEST POP DUP6 DUP4 LT ISZERO PUSH2 0x3C2 JUMPI DUP2 DUP6 ADD SLOAD PUSH0 NOT PUSH1 0x3 DUP9 SWAP1 SHL PUSH1 0xF8 AND SHR NOT AND DUP2 SSTORE JUMPDEST POP POP POP POP POP PUSH1 0x1 SWAP1 DUP2 SHL ADD SWAP1 SSTORE POP JUMP INVALID LOG2 PUSH5 0x6970667358 0x22 SLT KECCAK256 CREATE2 DUP2 0xF8 0x2C 0xA6 DUP10 0xB9 0xD4 PUSH30 0x5AA3BAA189DE440A60F2CA90E2BDE8FD84A2325900E83264736F6C634300 ADDMOD AND STOP CALLER "
		},
		"gasEstimates": {
			"creation": {
				"codeDepositCost": "206400",
				"executionCost": "infinite",
				"totalCost": "infinite"
			},
			"external": {
				"iceprince(uint256)": "infinite",
				"love()": "infinite"
			}
		},
		"methodIdentifiers": {
			"iceprince(uint256)": "245ed5d2",
			"love()": "dff53231"
		}
	},
	"abi": [
		{
			"inputs": [
				{
					"internalType": "uint256",
					"name": "",
					"type": "uint256"
				}
			],
			"name": "iceprince",
			"outputs": [
				{
					"internalType": "string",
					"name": "name",
					"type": "string"
				},
				{
					"internalType": "uint256",
					"name": "age",
					"type": "uint256"
				},
				{
					"internalType": "uint256",
					"name": "amount",
					"type": "uint256"
				},
				{
					"internalType": "uint256",
					"name": "phonenumber",
					"type": "uint256"
				}
			],
			"stateMutability": "view",
			"type": "function"
		},
		{
			"inputs": [],
			"name": "love",
			"outputs": [],
			"stateMutability": "nonpayable",
			"type": "function"
		}
	]
}