{
	"data": {
		"bytecode": {
			"linkReferences": {},
			"object": "600d6101209081526c0ecd2c6e8dee4d2c240dedcc2d609b1b610140526080818152602160a05260046101609081526319195b1b60e21b6101805260c0526401a553d80460e0526101e060405260076101a09081526673616d67756e6760c81b6101c052610100529060019081906100779082610161565b5060208201516001820155604082015160028201906100969082610161565b5060608201516003820155608082015160048201906100b59082610161565b5050503480156100c3575f80fd5b50610220565b634e487b7160e01b5f52604160045260245ffd5b600181811c908216806100f157607f821691505b60208210810361010f57634e487b7160e01b5f52602260045260245ffd5b50919050565b601f82111561015c57805f5260205f20601f840160051c8101602085101561013a5750805b601f840160051c820191505b81811015610159575f8155600101610146565b50505b505050565b81516001600160401b0381111561017a5761017a6100c9565b61018e8161018884546100dd565b84610115565b602080601f8311600181146101c1575f84156101aa5750858301515b5f19600386901b1c1916600185901b178555610218565b5f85815260208120601f198616915b828110156101ef578886015182559484019460019091019084016101d0565b508582101561020c57878501515f19600388901b60f8161c191681555b505060018460011b0185555b505050505050565b6103448061022d5f395ff3fe608060405234801561000f575f80fd5b5060043610610029575f3560e01c80633acc94001461002d575b5f80fd5b61004061003b36600461022c565b61005a565b604051610051959493929190610286565b60405180910390f35b5f8181548110610068575f80fd5b905f5260205f2090600502015f91509050805f018054610087906102d6565b80601f01602080910402602001604051908101604052809291908181526020018280546100b3906102d6565b80156100fe5780601f106100d5576101008083540402835291602001916100fe565b820191905f5260205f20905b8154815290600101906020018083116100e157829003601f168201915b505050505090806001015490806002018054610119906102d6565b80601f0160208091040260200160405190810160405280929190818152602001828054610145906102d6565b80156101905780601f1061016757610100808354040283529160200191610190565b820191905f5260205f20905b81548152906001019060200180831161017357829003601f168201915b5050505050908060030154908060040180546101ab906102d6565b80601f01602080910402602001604051908101604052809291908181526020018280546101d7906102d6565b80156102225780601f106101f957610100808354040283529160200191610222565b820191905f5260205f20905b81548152906001019060200180831161020557829003601f168201915b5050505050905085565b5f6020828403121561023c575f80fd5b5035919050565b5f81518084525f5b818110156102675760208185018101518683018201520161024b565b505f602082860101526020601f19601f83011685010191505092915050565b60a081525f61029860a0830188610243565b86602084015282810360408401526102b08187610243565b905084606084015282810360808401526102ca8185610243565b98975050505050505050565b600181811c908216806102ea57607f821691505b60208210810361030857634e487b7160e01b5f52602260045260245ffd5b5091905056fea2646970667358221220fae5fab64db7d0f1096dbd4b1c6c3b61348f498461bc0141c9d324775f3e611264736f6c63430008160033",
			"opcodes": "PUSH1 0xD PUSH2 0x120 SWAP1 DUP2 MSTORE PUSH13 0xECD2C6E8DEE4D2C240DEDCC2D PUSH1 0x9B SHL PUSH2 0x140 MSTORE PUSH1 0x80 DUP2 DUP2 MSTORE PUSH1 0x21 PUSH1 0xA0 MSTORE PUSH1 0x4 PUSH2 0x160 SWAP1 DUP2 MSTORE PUSH4 0x19195B1B PUSH1 0xE2 SHL PUSH2 0x180 MSTORE PUSH1 0xC0 MSTORE PUSH5 0x1A553D804 PUSH1 0xE0 MSTORE PUSH2 0x1E0 PUSH1 0x40 MSTORE PUSH1 0x7 PUSH2 0x1A0 SWAP1 DUP2 MSTORE PUSH7 0x73616D67756E67 PUSH1 0xC8 SHL PUSH2 0x1C0 MSTORE PUSH2 0x100 MSTORE SWAP1 PUSH1 0x1 SWAP1 DUP2 SWAP1 PUSH2 0x77 SWAP1 DUP3 PUSH2 0x161 JUMP JUMPDEST POP PUSH1 0x20 DUP3 ADD MLOAD PUSH1 0x1 DUP3 ADD SSTORE PUSH1 0x40 DUP3 ADD MLOAD PUSH1 0x2 DUP3 ADD SWAP1 PUSH2 0x96 SWAP1 DUP3 PUSH2 0x161 JUMP JUMPDEST POP PUSH1 0x60 DUP3 ADD MLOAD PUSH1 0x3 DUP3 ADD SSTORE PUSH1 0x80 DUP3 ADD MLOAD PUSH1 0x4 DUP3 ADD SWAP1 PUSH2 0xB5 SWAP1 DUP3 PUSH2 0x161 JUMP JUMPDEST POP POP POP CALLVALUE DUP1 ISZERO PUSH2 0xC3 JUMPI PUSH0 DUP1 REVERT JUMPDEST POP PUSH2 0x220 JUMP JUMPDEST PUSH4 0x4E487B71 PUSH1 0xE0 SHL PUSH0 MSTORE PUSH1 0x41 PUSH1 0x4 MSTORE PUSH1 0x24 PUSH0 REVERT JUMPDEST PUSH1 0x1 DUP2 DUP2 SHR SWAP1 DUP3 AND DUP1 PUSH2 0xF1 JUMPI PUSH1 0x7F DUP3 AND SWAP2 POP JUMPDEST PUSH1 0x20 DUP3 LT DUP2 SUB PUSH2 0x10F JUMPI PUSH4 0x4E487B71 PUSH1 0xE0 SHL PUSH0 MSTORE PUSH1 0x22 PUSH1 0x4 MSTORE PUSH1 0x24 PUSH0 REVERT JUMPDEST POP SWAP2 SWAP1 POP JUMP JUMPDEST PUSH1 0x1F DUP3 GT ISZERO PUSH2 0x15C JUMPI DUP1 PUSH0 MSTORE PUSH1 0x20 PUSH0 KECCAK256 PUSH1 0x1F DUP5 ADD PUSH1 0x5 SHR DUP2 ADD PUSH1 0x20 DUP6 LT ISZERO PUSH2 0x13A JUMPI POP DUP1 JUMPDEST PUSH1 0x1F DUP5 ADD PUSH1 0x5 SHR DUP3 ADD SWAP2 POP JUMPDEST DUP2 DUP2 LT ISZERO PUSH2 0x159 JUMPI PUSH0 DUP2 SSTORE PUSH1 0x1 ADD PUSH2 0x146 JUMP JUMPDEST POP POP JUMPDEST POP POP POP JUMP JUMPDEST DUP2 MLOAD PUSH1 0x1 PUSH1 0x1 PUSH1 0x40 SHL SUB DUP2 GT ISZERO PUSH2 0x17A JUMPI PUSH2 0x17A PUSH2 0xC9 JUMP JUMPDEST PUSH2 0x18E DUP2 PUSH2 0x188 DUP5 SLOAD PUSH2 0xDD JUMP JUMPDEST DUP5 PUSH2 0x115 JUMP JUMPDEST PUSH1 0x20 DUP1 PUSH1 0x1F DUP4 GT PUSH1 0x1 DUP2 EQ PUSH2 0x1C1 JUMPI PUSH0 DUP5 ISZERO PUSH2 0x1AA JUMPI POP DUP6 DUP4 ADD MLOAD JUMPDEST PUSH0 NOT PUSH1 0x3 DUP7 SWAP1 SHL SHR NOT AND PUSH1 0x1 DUP6 SWAP1 SHL OR DUP6 SSTORE PUSH2 0x218 JUMP JUMPDEST PUSH0 DUP6 DUP2 MSTORE PUSH1 0x20 DUP2 KECCAK256 PUSH1 0x1F NOT DUP7 AND SWAP2 JUMPDEST DUP3 DUP2 LT ISZERO PUSH2 0x1EF JUMPI DUP9 DUP7 ADD MLOAD DUP3 SSTORE SWAP5 DUP5 ADD SWAP5 PUSH1 0x1 SWAP1 SWAP2 ADD SWAP1 DUP5 ADD PUSH2 0x1D0 JUMP JUMPDEST POP DUP6 DUP3 LT ISZERO PUSH2 0x20C JUMPI DUP8 DUP6 ADD MLOAD PUSH0 NOT PUSH1 0x3 DUP9 SWAP1 SHL PUSH1 0xF8 AND SHR NOT AND DUP2 SSTORE JUMPDEST POP POP PUSH1 0x1 DUP5 PUSH1 0x1 SHL ADD DUP6 SSTORE JUMPDEST POP POP POP POP POP POP JUMP JUMPDEST PUSH2 0x344 DUP1 PUSH2 0x22D PUSH0 CODECOPY PUSH0 RETURN INVALID PUSH1 0x80 PUSH1 0x40 MSTORE CALLVALUE DUP1 ISZERO PUSH2 0xF JUMPI PUSH0 DUP1 REVERT JUMPDEST POP PUSH1 0x4 CALLDATASIZE LT PUSH2 0x29 JUMPI PUSH0 CALLDATALOAD PUSH1 0xE0 SHR DUP1 PUSH4 0x3ACC9400 EQ PUSH2 0x2D JUMPI JUMPDEST PUSH0 DUP1 REVERT JUMPDEST PUSH2 0x40 PUSH2 0x3B CALLDATASIZE PUSH1 0x4 PUSH2 0x22C JUMP JUMPDEST PUSH2 0x5A JUMP JUMPDEST PUSH1 0x40 MLOAD PUSH2 0x51 SWAP6 SWAP5 SWAP4 SWAP3 SWAP2 SWAP1 PUSH2 0x286 JUMP JUMPDEST PUSH1 0x40 MLOAD DUP1 SWAP2 SUB SWAP1 RETURN JUMPDEST PUSH0 DUP2 DUP2 SLOAD DUP2 LT PUSH2 0x68 JUMPI PUSH0 DUP1 REVERT JUMPDEST SWAP1 PUSH0 MSTORE PUSH1 0x20 PUSH0 KECCAK256 SWAP1 PUSH1 0x5 MUL ADD PUSH0 SWAP2 POP SWAP1 POP DUP1 PUSH0 ADD DUP1 SLOAD PUSH2 0x87 SWAP1 PUSH2 0x2D6 JUMP JUMPDEST DUP1 PUSH1 0x1F ADD PUSH1 0x20 DUP1 SWAP2 DIV MUL PUSH1 0x20 ADD PUSH1 0x40 MLOAD SWAP1 DUP2 ADD PUSH1 0x40 MSTORE DUP1 SWAP3 SWAP2 SWAP1 DUP2 DUP2 MSTORE PUSH1 0x20 ADD DUP3 DUP1 SLOAD PUSH2 0xB3 SWAP1 PUSH2 0x2D6 JUMP JUMPDEST DUP1 ISZERO PUSH2 0xFE JUMPI DUP1 PUSH1 0x1F LT PUSH2 0xD5 JUMPI PUSH2 0x100 DUP1 DUP4 SLOAD DIV MUL DUP4 MSTORE SWAP2 PUSH1 0x20 ADD SWAP2 PUSH2 0xFE JUMP JUMPDEST DUP3 ADD SWAP2 SWAP1 PUSH0 MSTORE PUSH1 0x20 PUSH0 KECCAK256 SWAP1 JUMPDEST DUP2 SLOAD DUP2 MSTORE SWAP1 PUSH1 0x1 ADD SWAP1 PUSH1 0x20 ADD DUP1 DUP4 GT PUSH2 0xE1 JUMPI DUP3 SWAP1 SUB PUSH1 0x1F AND DUP3 ADD SWAP2 JUMPDEST POP POP POP POP POP SWAP1 DUP1 PUSH1 0x1 ADD SLOAD SWAP1 DUP1 PUSH1 0x2 ADD DUP1 SLOAD PUSH2 0x119 SWAP1 PUSH2 0x2D6 JUMP JUMPDEST DUP1 PUSH1 0x1F ADD PUSH1 0x20 DUP1 SWAP2 DIV MUL PUSH1 0x20 ADD PUSH1 0x40 MLOAD SWAP1 DUP2 ADD PUSH1 0x40 MSTORE DUP1 SWAP3 SWAP2 SWAP1 DUP2 DUP2 MSTORE PUSH1 0x20 ADD DUP3 DUP1 SLOAD PUSH2 0x145 SWAP1 PUSH2 0x2D6 JUMP JUMPDEST DUP1 ISZERO PUSH2 0x190 JUMPI DUP1 PUSH1 0x1F LT PUSH2 0x167 JUMPI PUSH2 0x100 DUP1 DUP4 SLOAD DIV MUL DUP4 MSTORE SWAP2 PUSH1 0x20 ADD SWAP2 PUSH2 0x190 JUMP JUMPDEST DUP3 ADD SWAP2 SWAP1 PUSH0 MSTORE PUSH1 0x20 PUSH0 KECCAK256 SWAP1 JUMPDEST DUP2 SLOAD DUP2 MSTORE SWAP1 PUSH1 0x1 ADD SWAP1 PUSH1 0x20 ADD DUP1 DUP4 GT PUSH2 0x173 JUMPI DUP3 SWAP1 SUB PUSH1 0x1F AND DUP3 ADD SWAP2 JUMPDEST POP POP POP POP POP SWAP1 DUP1 PUSH1 0x3 ADD SLOAD SWAP1 DUP1 PUSH1 0x4 ADD DUP1 SLOAD PUSH2 0x1AB SWAP1 PUSH2 0x2D6 JUMP JUMPDEST DUP1 PUSH1 0x1F ADD PUSH1 0x20 DUP1 SWAP2 DIV MUL PUSH1 0x20 ADD PUSH1 0x40 MLOAD SWAP1 DUP2 ADD PUSH1 0x40 MSTORE DUP1 SWAP3 SWAP2 SWAP1 DUP2 DUP2 MSTORE PUSH1 0x20 ADD DUP3 DUP1 SLOAD PUSH2 0x1D7 SWAP1 PUSH2 0x2D6 JUMP JUMPDEST DUP1 ISZERO PUSH2 0x222 JUMPI DUP1 PUSH1 0x1F LT PUSH2 0x1F9 JUMPI PUSH2 0x100 DUP1 DUP4 SLOAD DIV MUL DUP4 MSTORE SWAP2 PUSH1 0x20 ADD SWAP2 PUSH2 0x222 JUMP JUMPDEST DUP3 ADD SWAP2 SWAP1 PUSH0 MSTORE PUSH1 0x20 PUSH0 KECCAK256 SWAP1 JUMPDEST DUP2 SLOAD DUP2 MSTORE SWAP1 PUSH1 0x1 ADD SWAP1 PUSH1 0x20 ADD DUP1 DUP4 GT PUSH2 0x205 JUMPI DUP3 SWAP1 SUB PUSH1 0x1F AND DUP3 ADD SWAP2 JUMPDEST POP POP POP POP POP SWAP1 POP DUP6 JUMP JUMPDEST PUSH0 PUSH1 0x20 DUP3 DUP5 SUB SLT ISZERO PUSH2 0x23C JUMPI PUSH0 DUP1 REVERT JUMPDEST POP CALLDATALOAD SWAP2 SWAP1 POP JUMP JUMPDEST PUSH0 DUP2 MLOAD DUP1 DUP5 MSTORE PUSH0 JUMPDEST DUP2 DUP2 LT ISZERO PUSH2 0x267 JUMPI PUSH1 0x20 DUP2 DUP6 ADD DUP2 ADD MLOAD DUP7 DUP4 ADD DUP3 ADD MSTORE ADD PUSH2 0x24B JUMP JUMPDEST POP PUSH0 PUSH1 0x20 DUP3 DUP7 ADD ADD MSTORE PUSH1 0x20 PUSH1 0x1F NOT PUSH1 0x1F DUP4 ADD AND DUP6 ADD ADD SWAP2 POP POP SWAP3 SWAP2 POP POP JUMP JUMPDEST PUSH1 0xA0 DUP2 MSTORE PUSH0 PUSH2 0x298 PUSH1 0xA0 DUP4 ADD DUP9 PUSH2 0x243 JUMP JUMPDEST DUP7 PUSH1 0x20 DUP5 ADD MSTORE DUP3 DUP2 SUB PUSH1 0x40 DUP5 ADD MSTORE PUSH2 0x2B0 DUP2 DUP8 PUSH2 0x243 JUMP JUMPDEST SWAP1 POP DUP5 PUSH1 0x60 DUP5 ADD MSTORE DUP3 DUP2 SUB PUSH1 0x80 DUP5 ADD MSTORE PUSH2 0x2CA DUP2 DUP6 PUSH2 0x243 JUMP JUMPDEST SWAP9 SWAP8 POP POP POP POP POP POP POP POP JUMP JUMPDEST PUSH1 0x1 DUP2 DUP2 SHR SWAP1 DUP3 AND DUP1 PUSH2 0x2EA JUMPI PUSH1 0x7F DUP3 AND SWAP2 POP JUMPDEST PUSH1 0x20 DUP3 LT DUP2 SUB PUSH2 0x308 JUMPI PUSH4 0x4E487B71 PUSH1 0xE0 SHL PUSH0 MSTORE PUSH1 0x22 PUSH1 0x4 MSTORE PUSH1 0x24 PUSH0 REVERT JUMPDEST POP SWAP2 SWAP1 POP JUMP INVALID LOG2 PUSH5 0x6970667358 0x22 SLT KECCAK256 STATICCALL 0xE5 STATICCALL 0xB6 0x4D 0xB7 0xD0 CALL MULMOD PUSH14 0xBD4B1C6C3B61348F498461BC0141 0xC9 0xD3 0x24 PUSH24 0x5F3E611264736F6C63430008160033000000000000000000 "
		},
		"gasEstimates": {
			"creation": {
				"codeDepositCost": "167200",
				"executionCost": "infinite",
				"totalCost": "infinite"
			},
			"external": {
				"joy(uint256)": "infinite"
			}
		},
		"methodIdentifiers": {
			"joy(uint256)": "3acc9400"
		}
	},
	"abi": [
		{
			"inputs": [
				{
					"internalType": "uint256",
					"name": "",
					"type": "uint256"
				}
			],
			"name": "joy",
			"outputs": [
				{
					"internalType": "string",
					"name": "name",
					"type": "string"
				},
				{
					"internalType": "uint256",
					"name": "age",
					"type": "uint256"
				},
				{
					"internalType": "string",
					"name": "laptopbrand",
					"type": "string"
				},
				{
					"internalType": "uint256",
					"name": "phonenumber",
					"type": "uint256"
				},
				{
					"internalType": "string",
					"name": "phonebrand",
					"type": "string"
				}
			],
			"stateMutability": "view",
			"type": "function"
		}
	]
}