{
	"data": {
		"bytecode": {
			"linkReferences": {},
			"object": "608060405234801561000f575f80fd5b506101118061001d5f395ff3fe6080604052348015600e575f80fd5b5060043610603a575f3560e01c80632017c8fd14603e578063828bd4b0146060578063b0a7ca5614607e575b5f80fd5b335f908152602081905260409020545b60405190815260200160405180910390f35b607c606b366004609a565b335f90815260208190526040902055565b005b604e608936600460b0565b5f6020819052908152604090205481565b5f6020828403121560a9575f80fd5b5035919050565b5f6020828403121560bf575f80fd5b81356001600160a01b038116811460d4575f80fd5b939250505056fea26469706673582212205584ca9db5e9836e555d4c489cbdedb7cabd7356a6a89ac5525a391555bc956c64736f6c63430008160033",
			"opcodes": "PUSH1 0x80 PUSH1 0x40 MSTORE CALLVALUE DUP1 ISZERO PUSH2 0xF JUMPI PUSH0 DUP1 REVERT JUMPDEST POP PUSH2 0x111 DUP1 PUSH2 0x1D PUSH0 CODECOPY PUSH0 RETURN INVALID PUSH1 0x80 PUSH1 0x40 MSTORE CALLVALUE DUP1 ISZERO PUSH1 0xE JUMPI PUSH0 DUP1 REVERT JUMPDEST POP PUSH1 0x4 CALLDATASIZE LT PUSH1 0x3A JUMPI PUSH0 CALLDATALOAD PUSH1 0xE0 SHR DUP1 PUSH4 0x2017C8FD EQ PUSH1 0x3E JUMPI DUP1 PUSH4 0x828BD4B0 EQ PUSH1 0x60 JUMPI DUP1 PUSH4 0xB0A7CA56 EQ PUSH1 0x7E JUMPI JUMPDEST PUSH0 DUP1 REVERT JUMPDEST CALLER PUSH0 SWAP1 DUP2 MSTORE PUSH1 0x20 DUP2 SWAP1 MSTORE PUSH1 0x40 SWAP1 KECCAK256 SLOAD JUMPDEST PUSH1 0x40 MLOAD SWAP1 DUP2 MSTORE PUSH1 0x20 ADD PUSH1 0x40 MLOAD DUP1 SWAP2 SUB SWAP1 RETURN JUMPDEST PUSH1 0x7C PUSH1 0x6B CALLDATASIZE PUSH1 0x4 PUSH1 0x9A JUMP JUMPDEST CALLER PUSH0 SWAP1 DUP2 MSTORE PUSH1 0x20 DUP2 SWAP1 MSTORE PUSH1 0x40 SWAP1 KECCAK256 SSTORE JUMP JUMPDEST STOP JUMPDEST PUSH1 0x4E PUSH1 0x89 CALLDATASIZE PUSH1 0x4 PUSH1 0xB0 JUMP JUMPDEST PUSH0 PUSH1 0x20 DUP2 SWAP1 MSTORE SWAP1 DUP2 MSTORE PUSH1 0x40 SWAP1 KECCAK256 SLOAD DUP2 JUMP JUMPDEST PUSH0 PUSH1 0x20 DUP3 DUP5 SUB SLT ISZERO PUSH1 0xA9 JUMPI PUSH0 DUP1 REVERT JUMPDEST POP CALLDATALOAD SWAP2 SWAP1 POP JUMP JUMPDEST PUSH0 PUSH1 0x20 DUP3 DUP5 SUB SLT ISZERO PUSH1 0xBF JUMPI PUSH0 DUP1 REVERT JUMPDEST DUP2 CALLDATALOAD PUSH1 0x1 PUSH1 0x1 PUSH1 0xA0 SHL SUB DUP2 AND DUP2 EQ PUSH1 0xD4 JUMPI PUSH0 DUP1 REVERT JUMPDEST SWAP4 SWAP3 POP POP POP JUMP INVALID LOG2 PUSH5 0x6970667358 0x22 SLT KECCAK256 SSTORE DUP5 0xCA SWAP14 0xB5 0xE9 DUP4 PUSH15 0x555D4C489CBDEDB7CABD7356A6A89A 0xC5 MSTORE GAS CODECOPY ISZERO SSTORE 0xBC SWAP6 PUSH13 0x64736F6C634300081600330000 "
		},
		"gasEstimates": {
			"creation": {
				"codeDepositCost": "54600",
				"executionCost": "103",
				"totalCost": "54703"
			},
			"external": {
				"Mynumber(address)": "2494",
				"addamount(uint256)": "22380",
				"toviewamount()": "2316"
			}
		},
		"methodIdentifiers": {
			"Mynumber(address)": "b0a7ca56",
			"addamount(uint256)": "828bd4b0",
			"toviewamount()": "2017c8fd"
		}
	},
	"abi": [
		{
			"inputs": [
				{
					"internalType": "address",
					"name": "",
					"type": "address"
				}
			],
			"name": "Mynumber",
			"outputs": [
				{
					"internalType": "uint256",
					"name": "",
					"type": "uint256"
				}
			],
			"stateMutability": "view",
			"type": "function"
		},
		{
			"inputs": [
				{
					"internalType": "uint256",
					"name": "y",
					"type": "uint256"
				}
			],
			"name": "addamount",
			"outputs": [],
			"stateMutability": "nonpayable",
			"type": "function"
		},
		{
			"inputs": [],
			"name": "toviewamount",
			"outputs": [
				{
					"internalType": "uint256",
					"name": "",
					"type": "uint256"
				}
			],
			"stateMutability": "view",
			"type": "function"
		}
	]
}